:100000000C9463000C940D0C0C94340C0C948B0029
:100010000C948B000C948B000C948B000C948B0034
:100020000C948B000C948B000C948B000C948B0024
:100030000C948B000C948B000C948B000C948B0014
:100040000C941E0B0C948B000C94B00C0C94E20CD2
:100050000C948B000C948B000C948B000C948B00F4
:100060000C948B000C948B0000000008000201002F
:100070000003040700000000000000000102040863
:100080001020408001020408102001020408102002
:10009000040404040404040402020202020203032E
:1000A00003030303000000002300260029000000D2
:1000B0000000250028002B0000000000240027007D
:1000C0002A00070C080D11241FBECFEFD8E0DEBFB9
:1000D000CDBF12E0A0E0B1E0EAE2FDE102C0059090
:1000E0000D92A437B107D9F724E0A4E7B2E001C02C
:1000F0001D92AF38B207E1F710E0C3E6D0E004C0CC
:100100002197FE010E948D0EC136D107C9F70E94CA
:10011000F80B0C94680E0C940000E2E10E9432018E
:100120000895E9E00E9432010895EAE00E94320158
:100130000895E1E00E9432010895E3E00E94320157
:100140000895E7E00E9432010895E5E00E9432013F
:100150000895E0E00E9432010895E2E00E94320139
:100160000895E4E00E9432010895ECE00E9432011B
:100170000895E8E00E9432010895EEE00E94320105
:100180000895E4E10E9432010895E0E10E94320105
:100190000895E7E10E9432010895E6E00E943201ED
:1001A0000895EBE00E9432010895EDE00E943201D3
:1001B0000895EFE00E9432010895E1E10E943201CA
:1001C0000895E3E10E9432010895E5E10E943201C1
:1001D0000895E6E10E943201089521968A929A924A
:1001E000AA92BA92CA92DA92EA92FA920A931A936D
:1001F0002197E0916A01F0916B010080F181E02D7F
:10020000C083D1830895C0916C01D0916D01E881C4
:10021000F981C081D181219619910991F990E990D4
:10022000D990C990B990A9909990899021970895F3
:100230002F903F90E7E6F1E0CDB7DEB7EDBFFEBF10
:100240003F922F9208952F903F90CDBFDEBF3F92F7
:100250002F920895E0E80E9432010895E0E40E94A0
:10026000320108952F923F924F925F926F927F9248
:100270002FB62F92CF93DF937E2EF894E09100015A
:10028000EF5FE0930001E13011F40E941801E0E01B
:10029000E0937A01E72DE07849F00E948205F09121
:1002A0007B01F17071F00E944E040BC0E72DEC3120
:1002B00040F4EE0FF0E0ED5DFD4F0190F081E02D98
:1002C0000995F0917A01EF2FE17059F0F27011F079
:1002D0000E94ED008F938F2F0E9496038F910E94B2
:1002E000030120910001215020930001222311F4E9
:1002F0000E942301DF91CF912F902FBE7F906F90AE
:100300005F904F903F902F900895CF92DF92EF92A1
:10031000FF920F931F93DC01EC91DB012C918E2F48
:100320008170C82E880FDD08EE08FF088E2F8770B9
:10033000082E000C990BAA0BBB0BB695A7959795A9
:100340008795DC01AA57BD4F8C91C81AD108E108E6
:10035000F108E670422F4170042E000C550B660B1D
:10036000770B822F8770082E000C990BAA0BBB0B02
:10037000B695A79597958795DC01AA57BD4F8C91A7
:10038000481B510961097109822F86709701860106
:1003900001701127222733270E2B4170552766271E
:1003A0007727482B81E090E00417150726073707C9
:1003B00010F080E090E01F910F91FF90EF90DF90A0
:1003C000CF9008958F929F92AF92BF92EF92FF923B
:1003D0000F931F93CF93DF937C014A015B01B69487
:1003E000A794979487944230510561057105E0F018
:1003F000440F551F8701040F151FE401CC0FDD1FAB
:10040000CE0DDF1DB801CE010E948501892B61F060
:10041000F8019081818128813981318320839883FB
:100420008983B501A401DBCFDF91CF911F910F919B
:10043000FF90EF90BF90AF909F908F9008954F9254
:100440005F926F927F928F929F92AF92BF92CF9264
:10045000DF92EF92FF920F931F93CF93DF9300D021
:1004600000D000D0CDB7DEB78C016A017B01DC0182
:100470008C91282F880F330B440B550B29833A831B
:100480004B835C8346015701880C991CAA1CBB1C3A
:1004900029813A814B815C81281539054A055B0524
:1004A00008F442C0240135013FEF431A530A630A9E
:1004B000730A89819A81AB81BC8184159505A60553
:1004C000B70580F0B201660F771F600F711FC4017E
:1004D000880F991F800F911F0E948501892B11F0B1
:1004E000530142013401660C771C600E711ECC0C66
:1004F000DD1CD801AC0DBD1DBE83AD83B301CD01A4
:100500000E948501892B81F0ED81FE81908181819E
:10051000D3012D913C911197318320839C931196A7
:100520008C9375016401AECF26960FB6F894DEBFAA
:100530000FBECDBFDF91CF911F910F91FF90EF9034
:10054000DF90CF90BF90AF909F908F907F906F90F3
:100550005F904F900895E5E3F3E040814F5F408363
:10056000042E000C550B660B770BE82FEE0FFF0BDC
:10057000E250FE4F0190F081E02D2385022E000C09
:10058000330BF901EA57FD4F908191509083FA01A6
:10059000EE0FFF1FEB5CFC4F220F331F9170292BD6
:1005A0002083818385E393E00C94E201E5E3F3E0AB
:1005B00040814F5F4083042E000C550B660B770B78
:1005C000E82FEE0FFF0BE650FE4F0190F081E02D7B
:1005D0009381FA01EE0FFF1FEB5CFC4F9083818348
:1005E00085E393E00C94E201CF93DF93A5E3B3E0BE
:1005F000EC918FEF8E0F8C931296DC9112971396DD
:10060000CC911397EE0FFF0BEB5CFC4F8081918137
:1006100013969C938E93129741E050E060E070E057
:10062000CD010E941F028D2F9C2FDF91CF91089545
:100630008091720190917301A0917401B091750144
:100640008F3F2FEF9207A207B20739F0181619064D
:100650001A061B0624F081E0089580E0089582E0E8
:100660000895880F990BFC01E250FE4F0190F08134
:10067000E02D0084F185E02D3097F9F022812111E1
:100680001CC021E02283DC01A650BE4F0D90BC911E
:10069000A02D13968C91139781838081082E000CD6
:1006A000990BFC01EA57FD4F208121502083880FD0
:1006B000991F2170822B13968C930895880F990BA4
:1006C000FC01E250FE4F0190F081E02D0084F185A5
:1006D000E02D309761F02281213049F4128221818E
:1006E000FC01E650FE4F0190F081E02D2383089538
:1006F0008091760190917701A0917801B091790174
:100700004091720150917301609174017091750173
:10071000481759076A077B0741F0E0917001F09193
:10072000710121E024830C94D6020895CF93DF93C6
:10073000882391F0C0916A01D0916B01E0916E0124
:10074000F0916F018481833049F081E0848380914E
:1007500072010E94D60202C0C0E0D0E0E0917001B8
:10076000F0917101F0936F01E0936E0180916C0143
:1007700090916D0190936B0180936A018091760155
:1007800030917701209178019091790180937201E5
:1007900030937301209374019093750192E09483D8
:1007A0000E943103CE01DF91CF91089580917201B3
:1007B0000E945E03E0916E01F0916F0182818823B7
:1007C00019F085E08483089514820895CF93DF9310
:1007D000282F220F330BF901E650FE4FC081D18143
:1007E0009A81F901E250FE4F0190F081E02D2485BD
:1007F000921770F4911105C095E09C8391E090935D
:100800007B010E94AB028A818F5F8A8380E001C0F6
:1008100084E0DF91CF910895E82FEE0FFF0BE650B3
:10082000FE4F0190F081E02D118210820C94B20BEA
:100830001F93CF93DF930E94F402182F892F492F23
:10084000092E000C550B660B770B409376015093E5
:1008500077016093780170937901292F220F330B70
:10086000F901E650FE4FC081D181D0937101C09350
:100870007001F901E250FE4F2081318130936D010A
:1008800020936C019C81953019F40E940C041B8309
:1008900010927B01DF91CF911F910895E091760135
:1008A000F0917701EE0FFF1FE650FE4F0190F081AF
:1008B000E02D909137038381891734F40E947803E7
:1008C0000E94180483E001C080E080937A010895BB
:1008D00081E080937A010C941804CF93DF93C1E0F8
:1008E000D0E001C0CC0F8A95EAF781E00E94E603D0
:1008F000809121028C2319F080E00E94E603809110
:100900002002C82359F08091EF019091F00121E07D
:10091000FC012687DF91CF910C94BB04DF91CF912E
:1009200008950E94690681110E948A06E0916E0175
:10093000F0916F0180819181892B21F0809172016A
:100940000E9451080C94B2070E94690681110E940E
:100950008A06E0916E01F0916F0180819181892B6F
:1009600021F0809172010E9451080C949A0781E055
:10097000809374020895AF92BF92CF92DF92EF926C
:10098000FF920F931F93CF93DF93FC01A081B1815E
:10099000AD90BC90E501AC89BD89109739F04285D6
:1009A00053856485758530E020E017C0D5015596E4
:1009B0009C938E93549757969C938E93569715823B
:1009C0001482138212825BC012968D919C911397B0
:1009D0003A2F2B2F009779F0DC011A96CD90DD90FD
:1009E000ED90FC901D974C155D056E057F0560F739
:1009F000CD01A32FB22F93838283B583A483009765
:100A000019F0EC01FD83EC83109729F01396FC9309
:100A1000EE93129705C0D5015596FC93EE9354972B
:100A2000E501AE89BF891A968D919D910D90BC917B
:100A3000A02D088919892A893B8980179107A20767
:100A4000B30780F4041715072607370728F048175F
:100A500059076A077B0798F4D5015796FC93EE93E4
:100A600056970DC0041715072607370740F4481797
:100A700059076A077B0718F4E501FF8BEE8BDF91BE
:100A8000CF911F910F91FF90EF90DF90CF90BF908B
:100A9000AF900895CF93DF93DC01ED91FC91119716
:100AA0000190F081E02D848995891296CD91DC9199
:100AB0001397A817B90711F4D58BC48B868997892A
:100AC000A817B90711F4D78BC68B209731F014966D
:100AD0008D919C9115979D838C8314960D90BC915C
:100AE000A02D109721F01396DC93CE931297868950
:100AF0009789892B21F484899589978B868BDF913F
:100B0000CF910895EF92FF920F931F93CF93DF93AE
:100B1000FC0180917402882309F4B5C08485958511
:100B2000A685B7850196A11DB11D84879587A687E7
:100B3000B787408151816281738184179507A60729
:100B4000B70709F0A0C040895189628973894F5F56
:100B50005F4F6F4F7F4F84819581A681B781841746
:100B60009507A607B70718F440E050E0BA01408B9C
:100B7000518B628B738B1486158616861786C689F1
:100B8000D789209709F47FC08A859B85AC85BD8570
:100B9000481759076A077B0709F075C0CE01DC01C9
:100BA0001296ED90FC901397E114F10471F0D701C7
:100BB0001A960D911D912D913C911D97401751074B
:100BC0006207730711F4C701EACF2C813D8121151B
:100BD000310529F0D9011396FC92EE921297E11497
:100BE000F10429F0D70115963C932E93149724898C
:100BF0003589C217D30711F4F58AE48AE114F104A8
:100C000019F0F78AE68A04C024893589378B268B48
:100C10008F01FC0113821282EA80FB80E881F98156
:100C20000280F381E02DCE0109954E815F816885B8
:100C30007985411551056105710509F18A859B8505
:100C4000AC85BD85840F951FA61FB71FF801448191
:100C5000558166817781481759076A077B0738F401
:100C6000841B950BA60BB70B0197A109B1098A87C5
:100C70009B87AC87BD87CE010E94BB0401C01E8646
:100C8000E701209749F6DF91CF911F910F91FF90D7
:100C9000EF900895FC0182810C94E6030E9469069E
:100CA000809168010895809368010E946D040E94FC
:100CB000B7040C9468040C94B10BCF93C82F0E9416
:100CC0001803811102C00E94EE0B8C2FCF910C945F
:100CD0009100809181028130D9F0809179029091C8
:100CE0007A02A0917B02B0917C02892B8A2B8B2BFC
:100CF00079F481E040917D0250917E0260917F0203
:100D000070918002452B462B472B19F480E0089503
:100D100081E008951092810210927D0210927E026D
:100D200010927F02109280021092790210927A0241
:100D300010927B0210927C02809175029091760253
:100D4000A0917702B09178028093820290938302FF
:100D5000A0938402B093850208950E94F10B8091C4
:100D6000820290918302A0918402B0918502019643
:100D7000A11DB11D8093820290938302A0938402EF
:100D8000B093850280917D0290917E02A0917F02B6
:100D9000B09180020196A11DB11D80937D029093B8
:100DA0007E02A0937F02B0938002089580917D021D
:100DB00090917E02A0917F02B09180020097A105E0
:100DC000B10569F1409182025091830260918402E1
:100DD0007091850241505109610971094093820265
:100DE0005093830260938402709385020197A10956
:100DF000B10980937D0290937E02A0937F02B0930D
:100E000080028091820290918302A0918402B0912D
:100E10008502892B8A2B8B2B11F40C94EF0B0895F0
:100E200080917D0290917E02A0917F02B09180021C
:100E3000892B8A2B8B2B89F48091790290917A02ED
:100E4000A0917B02B0917C02892B8A2B8B2B29F4F9
:100E50000E94F10B81E080938102089580918102CC
:100E6000882321F0109281020C94EF0B08950E94C8
:100E7000F50B8091820290918302A0918402B0913F
:100E800085020196A11DB11D809382029093830279
:100E9000A0938402B09385028091790290917A02A6
:100EA000A0917B02B0917C020196A11DB11D80939F
:100EB000790290937A02A0937B02B0937C0208950A
:100EC0008091790290917A02A0917B02B0917C028C
:100ED0000097A105B10569F140918202509183020A
:100EE0006091840270918502415051096109710934
:100EF0004093820250938302609384027093850230
:100F00000197A109B1098093790290937A02A09385
:100F10007B02B0937C028091820290918302A09127
:100F20008402B0918502892B8A2B8B2B11F40C94AF
:100F3000F30B08950E946906882311F083E1089558
:100F400080E00895CF93C82F0E9469068C2F0E94DD
:100F5000E603C82F80917B0181110E944E048C2FE3
:100F6000CF910895CF930E946906882311F0C3E1C1
:100F700001C0C0E0E0916E01F0916F01828181506B
:100F800082830E94D60381E080937A010E94180434
:100F90008C2FCF910895CF93C82F0E946906E091BE
:100FA0006E01F0916F018281815082838C2F0E94AB
:100FB000E603C82F811108C00E94D60381E0809308
:100FC0007A010E94180407C0E0916E01F0916F0150
:100FD00082818F5F82838C2FCF910895CF930E945F
:100FE0006906882311F0C3E101C0C0E0809172015D
:100FF0000E945E030E944E048091720190917301E1
:10100000A0917401B09175014091760150917701E2
:10101000609178017091790184179507A607B70749
:1010200011F40E9431038C2FCF910895CF93DF9359
:10103000EC010E946906882311F083E101C080E081
:10104000409172015091730160917401709175012A
:10105000141615061606170614F0488303C090915F
:10106000B1019883DF91CF9108950F931F93CF9390
:10107000C82F8B010E946906882311F083E101C00B
:1010800080E0EC2FEE0FFF0BE650FE4F0190F08159
:10109000E02D94819370F8019083CF911F910F916F
:1010A0000895880F990BFC01E650FE4FA081B18195
:1010B000ED91FC911197309769F01D921C9220914F
:1010C000B10193818481228314821382E92FF82F46
:1010D0003097B9F70895CF93C82F0E9469068823E7
:1010E00011F083E101C080E0EC2FF0E0EE0FFF1F74
:1010F000E25EFD4FA081B1819091720112969C93A6
:101100001297E0916E01F0916F0120813181149668
:101110003C932E931397B183A083938111969C9354
:1011200011972C9193819595921774F4022E000CCF
:10113000330BD901AA57BD4F9C9191509C93220F1C
:10114000331F9170292B2383CF910895CF93DF9381
:10115000C82F0E946906882311F0D3E101C0D0E0B6
:10116000EC2FF0E0EE0FFF1FE25EFD4F0190F081EB
:10117000E02DA0916E01B0916F01818113968C9347
:101180001397838194818D939C9314821382809111
:10119000B10182830E944E048D2FDF91CF9108957B
:1011A000DC01ED91FC9184819581DC01ED91FC9154
:1011B00009941F93CF93DF93182FEB010E946906C8
:1011C000882311F083E101C080E0E12FF0E0EE0F11
:1011D000FF1FE151FE4F0190F081E02D0190F08161
:1011E000E02D0190F081E02D408151816281738179
:1011F0004C835D836E837F834481558166817781D3
:10120000488359836A837B834085518562857385D2
:10121000488759876A877B87DF91CF911F9108950F
:101220008F929F92AF92BF92CF92DF92EF92FF92F6
:101230000F931F93CF93C82F8B010E9469068823B9
:1012400011F083E101C080E0EC2FF0E0EE0FFF1F12
:10125000E151FE4F0190F081E02D9685913029F506
:1012600042855385648575850190F081E02D01905C
:10127000F081E02DC088D188E288F3884C155D05A7
:101280006E057F0540F484809580A680B780480D68
:10129000591D6A1D7B1D4C195D096E097F09F801F6
:1012A000408351836283738301C085E0CF911F9196
:1012B0000F91FF90EF90DF90CF90BF90AF909F90F5
:1012C0008F9008958F929F92AF92BF92CF92DF92AC
:1012D000EF92FF920F931F93CF93DF93D82F4A0182
:1012E0005B01680179010E946906882311F0C3E15E
:1012F00001C0C0E0ED2FF0E0EE0FFF1FE151FE4F07
:101300000190F081E02D8685811130C0A081B181EE
:101310000D90BC91A02D50964D915D916D917C9159
:101320005397480D591D6A1D7B1D14968D919D91F3
:101330000D90BC91A02D84179507A607B70740F420
:10134000481B590B6A0B7B0B41505109610971090C
:101350004287538764877587C682D782E086F18685
:1013600081E08687CF010E94BB0401C0C7E08C2FBB
:10137000DF91CF911F910F91FF90EF90DF90CF9071
:10138000BF90AF909F908F9008958F929F92AF9251
:10139000BF92CF92DF92EF92FF920F931F93CF9362
:1013A000DF93C82F4A015B01680179010E94690639
:1013B000882311F0D3E101C0D0E0EC2FF0E0EE0F74
:1013C000FF1FE151FE4F0190F081E02D86858111D4
:1013D0000EC082869386A486B586C682D782E086B2
:1013E000F18681E08687CF010E94BB0401C0D7E06F
:1013F0008D2FDF91CF911F910F91FF90EF90DF9094
:10140000CF90BF90AF909F908F9008950F931F93B0
:10141000CF93DF93C82F0E946906882311F0D3E190
:1014200001C0D0E0EC2FF0E0EE0FFF1FE151FE4FC6
:1014300000811181F8018685813031F4C8010E9454
:101440004A05F801168601C0D5E08D2FDF91CF91B6
:101450001F910F91089526E040E052EC61E070E0AA
:1014600088E992E00E94030E62EB71E088E992E065
:101470000E949E0C61E0809169010E948A0A60E0EE
:10148000809169010E94C60A67EC71E088E992E0E8
:101490000E949E0C6DED71E088E992E00C949E0C28
:1014A000809169010E94F50A61E0682780916901D5
:1014B0000E94C60A0C94B90080E991E00C942A01BC
:1014C0000895833081F028F4813099F08230A1F0C2
:1014D00008958730A9F08830B9F08430D1F4809134
:1014E00080008F7D03C0809180008F778093800083
:1014F000089584B58F7702C084B58F7D84BD08952B
:101500008091B0008F7703C08091B0008F7D809371
:10151000B0000895CF93DF9390E0FC01E458FF4FB3
:101520002491FC01E057FF4F8491882361F190E002
:10153000880F991FFC01E854FF4FC591D491FC011D
:10154000E255FF4FA591B491611109C09FB7F8947E
:101550008881209582238883EC912E230BC06230F2
:1015600061F49FB7F8948881322F30958323888364
:10157000EC912E2B2C939FBF06C08FB7F894E88177
:101580002E2B28838FBFDF91CF9108951F93CF9388
:10159000DF93282F30E0F901E859FF4F8491F901DA
:1015A000E458FF4FD491F901E057FF4FC491CC2389
:1015B000C1F0162F81110E94610AEC2FF0E0EE0FAE
:1015C000FF1FE255FF4FA591B4919FB7F8941111F9
:1015D00004C08C91D095D82302C0EC91DE2BDC9313
:1015E0009FBFDF91CF911F910895CF93DF93282F55
:1015F00030E0F901E859FF4F8491F901E458FF4FB9
:10160000D491F901E057FF4FC491CC2391F081119F
:101610000E94610AEC2FF0E0EE0FFF1FEC55FF4F28
:10162000A591B491EC91ED2381E090E021F480E06C
:1016300002C080E090E0DF91CF9108951F920F9259
:101640000FB60F9211242F933F934F935F936F9395
:101650007F938F939F93AF93BF93EF93FF9380916B
:101660008F0290919002A0919102B09192023091DC
:101670008E0223E0230F2D3720F40196A11DB11D0A
:1016800005C026E8230F0296A11DB11D20938E02EE
:1016900080938F0290939002A0939102B093920254
:1016A0008091930290919402A0919502B09196023C
:1016B0000196A11DB11D8093930290939402A09373
:1016C0009502B09396020E945C0AFF91EF91BF9140
:1016D000AF919F918F917F916F915F914F913F91CA
:1016E0002F910F900FBE0F901F90189584B58260B8
:1016F00084BD84B5816084BD85B5826085BD85B5B6
:10170000816085BDEEE6F0E0808181608083E1E864
:10171000F0E010828081826080838081816080839C
:10172000E0E8F0E0808181608083E1EBF0E080819F
:1017300084608083E0EBF0E0808181608083EAE771
:10174000F0E08081846080838081826080838081FA
:10175000816080838081806880831092C1000895B9
:10176000FFCFFFCFCF93DF93880F990BFC01E2509F
:10177000FE4FC081D181AC81BD8111978A819B814F
:10178000A80FB91F2D85CD010197FD013297223099
:1017900019F421EB30E002C02DEC30E02C93DC0199
:1017A0003C939E818F819083DF018E93CF010797B9
:1017B0001E928A179B07E1F780E8DF0118978C9348
:1017C000CF0144971E928A179B07E1F7A881B98140
:1017D0007597ED93FC93DF91CF91089508957894D8
:1017E0000895F894089578940895F89408950895C4
:1017F0000E94760B0E94F70B0E94600A0E942B0A3F
:10180000809197020E945D0680E090E008958091AB
:10181000220280939702089508951F920F920FB6A7
:101820000F9211242F933F934F935F936F937F9366
:101830008F939F93AF93BF93EF93FF93E091AD018D
:10184000F091AE010995FF91EF91BF91AF919F91FA
:101850008F917F916F915F914F913F912F910F9059
:101860000FBE0F901F9018951F920F920FB60F92F8
:1018700011242F933F934F935F936F937F938F9395
:101880009F93AF93BF93EF93FF93E091AF01F091DC
:10189000B0010995FF91EF91BF91AF919F918F9109
:1018A0007F916F915F914F913F912F910F900FBE5C
:1018B0000F901F901895CF92DF92EF92FF920F93A7
:1018C0001F93CF93DF936C017A018B01C0E0D0E0CE
:1018D000CE15DF0581F0D8016D918D01D601ED9116
:1018E000FC910190F081E02DC6010995892B11F042
:1018F0002196EECF7E01C701DF91CF911F910F910D
:10190000FF90EF90DF90CF9008956115710579F009
:10191000FB0101900020E9F73197AF01461B570BFF
:10192000DC01ED91FC910280F381E02D099480E0CF
:1019300090E0089563E572E00C94850C0F931F937B
:10194000CF93DF93EC010E94850C8C01CE010E94A5
:101950009A0C800F911FDF91CF911F910F910895E5
:101960001F920F920FB60F9211242F938F939F9374
:10197000EF93FF93E091A802F091A9028081E0919A
:10198000AE02F091AF0282FD12C090818091B1024F
:101990008F5F8F732091B202821751F0E091B102F4
:1019A000F0E0E856FD4F958F8093B10201C0808131
:1019B000FF91EF919F918F912F910F900FBE0F90FC
:1019C0001F9018951F920F920FB60F9211242F930C
:1019D0003F934F935F936F937F938F939F93AF93B7
:1019E000BF93EF93FF9388E992E00E94720DFF91FD
:1019F000EF91BF91AF919F918F917F916F915F9187
:101A00004F913F912F910F900FBE0F901F901895FF
:101A1000E8E9F2E01382128288EE93E0A0E0B0E001
:101A200084839583A683B78386E692E0918380833F
:101A300085EC90E09587848784EC90E09787868793
:101A400080EC90E0918B808B81EC90E0938B828B8B
:101A500082EC90E0958B848B86EC90E0978B868B64
:101A6000118E128E138E148E0895FC01918D228D8D
:101A7000892F90E0805C9F4F821B91098F7399277B
:101A80000895FC01918D828D981731F0828DE80FB9
:101A9000F11D858D90E008958FEF9FEF0895FC0173
:101AA000918D828D981761F0828DDF01A80FB11D95
:101AB0005D968C91928D9F5F9F73928F90E00895B9
:101AC0008FEF9FEF0895FC01538D448D252F30E05B
:101AD000842F90E0821B930B541710F0CF9608953B
:101AE00001970895FC01848DDF01A80FB11DA35A51
:101AF000BF4F2C91848D90E001968F739927848F2E
:101B0000A689B7892C93A089B1898C918370806450
:101B10008C93938D848D981306C00288F389E02DF1
:101B200080818F7D80830895EF92FF920F931F93A2
:101B3000CF93DF93EC0181E0888F9B8D8C8D981380
:101B400005C0E889F989808185FD26C0F62E0B8DB8
:101B500010E00F5F1F4F0F731127E02E8C8DE812DE
:101B60000CC00FB607FCFACFE889F989808185FFA0
:101B7000F5CFCE010E94720DF1CF8B8DFE01E80FE3
:101B8000F11DE35AFF4FF0829FB7F8940B8FEA895B
:101B9000FB89808180620AC09FB7F894EE89FF8933
:101BA0006083E889F98980818370806480839FBF26
:101BB00081E090E0DF91CF911F910F91FF90EF9026
:101BC0000895CF93DF93EC01888D8823C9F0EA89CB
:101BD000FB89808185FD05C0A889B9898C9186FD26
:101BE0000FC00FB607FCF5CF808185FFF2CFA88923
:101BF000B9898C9185FFEDCFCE010E94720DE7CFA0
:101C0000DF91CF910895CF92DF92EF92FF921F93D1
:101C1000CF93DF93EC016A017B01122FE889F989E8
:101C200082E080834115514E61057105B1F060E09D
:101C300079E08DE390E0A70196010E946B0EDA0136
:101C4000C9010197A109B109B695A79597958795FF
:101C50009C01211580E13807A8F0E889F9891082F4
:101C600060E874E88EE190E0A70196010E946B0E97
:101C7000DA01C9010197A109B109B695A795979510
:101C800087959C01EC85FD853083EE85FF8520835B
:101C9000188EEC89FD891083EA89FB898081806137
:101CA0008083EA89FB89808188608083EA89FB8957
:101CB000808180688083EA89FB8980818F7D808331
:101CC000DF91CF911F91FF90EF90DF90CF9008951B
:101CD000F8940C94930EA1E21A2EAA1BBB1BFD01D3
:101CE0000DC0AA1FBB1FEE1FFF1FA217B307E407FB
:101CF000F50720F0A21BB30BE40BF50B661F771F53
:101D0000881F991F1A9469F7609570958095909532
:101D10009B01AC01BD01CF010895EE0FFF1F05909F
:0A1D2000F491E02D0994F894FFCF30
:101D2A0000000000000000000000000000000000A9
:101D3A000000000000000000000000000000000099
:101D4A000000000000000000000000000000000089
:101D5A000000000000000000000000000000000079
:101D6A000000000000000000000000000000000069
:101D7A000000000000000000000000000000000059
:101D8A000000000000000000FF0300001002000035
:101D9A008902FFFFFFFFFFFFFFFF0000F1010000C4
:101DAA000000E8030000010000000200000001003A
:101DBA0001000000FFFF0000010000000000000019
:101DCA0000000000000000000200FF00000C0C0CE4
:101DDA000CFF202D2053797374656D20626F6F7428
:101DEA0065642075702E00202D2053797374656DFB
:101DFA0020636F6E666967757265642E00202D20F8
:101E0A005374617274696E672075702E2E2E007C71
:101E1A00019001D008F7014A06008B0189020202EB
:101E2A0010028D038F030001500A00000001010017
:101E3A003B033D035000B00B000001000100A80164
:101E4A0001000060072E0737071007A404AD0691AA
:101E5A0004D606B20753065B066B08A207A608CB90
:101E6A0007D908160810094E066209EE07C50906C1
:101E7A000A35080D0A006E616E00696E66006F769B
:101E8A00660000000000940D5B0C630DE10D350D3A
:041E9A004F0D410D9A
:00000001FF
