S00F000061726475696E6F2E7372656323
S11300000C945D000C9485000C9485000C94850080
S11300100C9485000C9485000C9485000C94850048
S11300200C9485000C9485000C9485000C94290A8A
S11300300C9485000C9485000C9485000C94850028
S11300400C9454020C9485000C94A8040C94DA04C7
S11300500C9485000C9485000C9485000C94850008
S11300600C9485000C948500000000080002010037
S1130070000304070000000000000000010204085F
S113008010204080010204081020010204081020FE
S1130090040404040404040402020202020203032A
S11300A00303030300000000250028002B000000C8
S11300B00000240027002A000A0511241FBECFEFE8
S11300C0D8E0DEBFCDBF12E0A0E0B1E0E6EFF4E19E
S11300D002C005900D92AC3BB107D9F724E0ACEB1C
S11300E0B2E001C01D92A737B207E1F710E0CDE5F9
S11300F0D0E004C02197FE010E94730ACC35D107D9
S1130100C9F70E942A010C94790A0C94250A00006C
S11301102F923F924F925F926F927F928F929F9213
S1130120AF92BF92CF92DF92EF92FF920F931F9301
S1130130CF93DF93E42FF52F419050804F925F923D
S1130140E42FF52F4DB65EB6419250820C94A80070
S1130150E62FF72F419050804DBE5EBE5F904F90CA
S1130160E62FF72F41925082DF91CF911F910F918B
S1130170FF90EF90DF90CF90BF90AF909F908F90C3
S11301807F906F905F904F903F902F900C94090751
S1130190E62FF72F419150814DBF5EBF0C9412079B
S11301A02F923F924F925F926F927F928F929F9283
S11301B0AF92BF92CF92DF92EF92FF920F931F9371
S11301C0CF93DF93E42FF52F419050804F925F92AD
S11301D0E42FF52F4DB65EB6419250820C94C800C0
S11301E0E82FF92F419150814DBF5EBFE62FF72FC5
S11301F00994000060E472E48FE090E00C946405DC
S11302008091C202811115C061E08091CB0290916E
S1130210CC02892B09F060E0862F90E09093CC0209
S11302208093CB02809100010E943E0381E00C94F4
S1130230D4061092C202089561E0809100010E94E8
S1130240020326E040E052EC61E070E089ED93E0C7
S11302500C9446040E949E020E941C0180E00E94AD
S1130260330690E080E00895F894FC0101900020AA
S1130270E9F73197AF01481B590BBC0189ED93E0B5
S11302800E94370589EA93E0892B11F00E94A903A3
S1130290789408950F931F93CF93DF9300D0CDB735
S11302A0DEB78DB79EB79A8389838091BC02909103
S11302B0BD02892BA9F489819A819093BD02809310
S11302C0BC02F89489EA93E0892B11F00E94A903F7
S11302D078940F900F90DF91CF911F910F91089513
S11302E02091BC023091BD0289819A812817390777
S11302F041F361E0809100010E943E03F89488E795
S113030091E00E94340109EA13E001151105E9F3B3
S11303100E94A903FACFCF93DF9388EB91E00E9468
S113032034018091CA028F5F8093CA0281E0809376
S1130330C2028DB79EB72091C0023091C102232B17
S113034069F59093C1028093C00282E00E94D406B2
S11303508DEC93E00E940E068091C2028111FCCFC5
S113036080EB91E00E9434018DB79EB72091C002CA
S11303703091C1022817390749F161E080910001E9
S11303800E943E03F89480EC91E00E943401C9EA93
S1130390D3E02097F1F30E94A903FBCF2091C00280
S11303A03091C1022817390781F261E08091000180
S11303B00E943E03F89484E991E00E943401C9EA62
S11303C0D3E02097F1F30E94A903FBCF8091C802E8
S11303D08F5F8093C802DF91CF910895CF93DF930D
S11303E08CED91E00E9434018DB79EB72091BE023E
S11303F03091BF02232BC1F49093BF028093BE02BD
S11304008091C9028F5F8093C9028DEC93E00E94B2
S1130410C20583E00E94D4068091C7028F5F809357
S1130420C702DF91CF9108952091BE023091BF029F
S11304302817390729F361E0809100010E943E03E7
S1130440F89484EE91E00E943401C9EAD3E0209745
S1130450F1F30E94A903FBCF80E092E00E943401F3
S11304608091C6028F5F8093C60284E00E94D40606
S11304708091C5028F5F8093C502089588E092E061
S11304800E9434018091C4028F5F8093C40285E08E
S11304900C94D40680E192E00E9434018091C3025E
S11304A08F5F8093C30208951F920F920FB60F922D
S11304B011242F933F938F939F93AF93BF93809176
S11304C0D1039091D203A091D303B091D40330917E
S11304D0D00323E0230F2D3758F50196A11DB11D3C
S11304E02093D0038093D1039093D203A093D3039A
S11304F0B093D4038091D5039091D603A091D703F0
S1130500B091D8030196A11DB11D8093D50390939A
S1130510D603A093D703B093D803BF91AF919F9113
S11305208F913F912F910F900FBE0F901F901895B0
S113053026E8230F0296A11DB11DD2CF789484B56D
S1130540826084BD84B5816084BD85B5826085BDCB
S113055085B5816085BDEEE6F0E0808181608083B1
S1130560E1E8F0E010828081826080838081816094
S11305708083E0E8F0E0808181608083E1EBF0E05B
S1130580808184608083E0EBF0E0808181608083FF
S1130590EAE7F0E0808184608083808182608083E8
S11305A08081816080838081806880831092C10013
S11305B00895833081F028F4813099F08230A9F0D5
S11305C008958730A9F08830C9F08430B1F480915F
S11305D080008F7D03C0809180008F77809380009E
S11305E0089584B58F7784BD089584B58F7DFBCF3E
S11305F08091B0008F778093B00008958091B0000F
S11306008F7DF9CFCF93DF9390E0FC01E458FF4F47
S1130610249180579F4FFC0184918823C9F090E076
S1130620880F991FFC01E255FF4FA591B491FC017D
S1130630EC55FF4FC591D49161110DC09FB7F8944B
S11306408C91209582238C938881282328839FBFB3
S1130650DF91CF910895623051F49FB7F8943C91A3
S1130660822F809583238C93E8812E2BEFCF8FB735
S1130670F894EC912E2B2C938FBFEACF1F93CF933A
S1130680DF93282F30E0F901E859FF4F8491F901F5
S1130690E458FF4FD491F901E057FF4FC491CC23A4
S11306A0A9F0162F81110E94D902EC2FF0E0EE0F71
S11306B0FF1FEC55FF4FA591B4918FB7F894EC91BF
S11306C0111108C0D095DE23DC938FBFDF91CF9149
S11306D01F910895DE2BF8CFFC01918D228D892F77
S11306E090E0805C9F4F821B91098F739927089536
S11306F0FC01918D828D981731F0828DE80FF11DE8
S1130700858D90E008958FEF9FEF0895FC01918D02
S1130710828D981761F0A28DAE0FBF2FB11D5D962B
S11307208C91928D9F5F9F73928F90E008958FEFCD
S11307309FEF0895FC01538D448D252F30E0842FC5
S113074090E0821B930B541710F0CF9608950197F5
S1130750089580E095E0892B49F080E090E0892BB2
S113076029F00E94000581110C9400000895FC01F9
S1130770A48DA80FB92FB11DA35ABF4F2C91848DFE
S113078090E001968F739927848FA689B7892C935B
S1130790A089B1898C91837080648C93938D848DAE
S11307A0981306C00288F389E02D80818F7D8083B1
S11307B00895CF93DF93EC01888D8823B9F0AA893B
S11307C0BB89E889F9898C9185FD03C0808186FD08
S11307D00DC00FB607FCF7CF8C9185FFF2CF808157
S11307E085FFEDCFCE010E94B703E9CFDF91CF9112
S11307F00895EF92FF920F931F93CF93DF93EC0131
S113080081E0888F9B8D8C8D98131AC0E889F989B3
S1130810808185FF15C09FB7F894EE89FF896083B6
S1130820E889F98980818370806480839FBF81E037
S113083090E0DF91CF911F910F91FF90EF90089579
S1130840F62E0B8D10E00F5F1F4F0F731127E02E54
S11308508C8D8E110CC00FB607FCFACFE889F9898C
S1130860808185FFF5CFCE010E94B703F1CFEB8DD8
S1130870EC0FFD2FF11DE35AFF4FF0829FB7F89460
S11308800B8FEA89FB8980818062CFCFCF92DF9280
S1130890EF92FF921F93CF93DF93EC016A017B01E8
S11308A0122FE889F98982E08083C11481EED80689
S11308B0E104F104A1F060E079E08DE390E0A701A8
S11308C096010E94510A2150310941095109569556
S11308D0479537952795211580E1380798F0E889E1
S11308E0F989108260E874E88EE190E0A70196012E
S11308F00E94510A215031094109510956954795E1
S113090037952795EC85FD853083EE85FF8520831B
S1130910188EEC89FD891083EA89FB8980818061C6
S11309208083EA89FB89808188608083EA89FB89E6
S1130930808180688083EA89FB8980818F7D8083C0
S1130940DF91CF911F91FF90EF90DF90CF900895AA
S11309501F920F920FB60F9211242F938F939F9390
S1130960EF93FF93E091E903F091EA038081E09132
S1130970EF03F091F00382FD1BC090818091F2039C
S11309808F5F8F732091F303821741F0E091F2039C
S1130990F0E0E752FC4F958F8093F203FF91EF91C3
S11309A09F918F912F910F900FBE0F901F901895CC
S11309B08081F4CF1F920F920FB60F9211242F93C0
S11309C03F934F935F936F937F938F939F93AF93D3
S11309D0BF93EF93FF9389ED93E00E94B703FF91D8
S11309E0EF91BF91AF919F918F917F916F915F91A3
S11309F04F913F912F910F900FBE0F901F9018951C
S1130A0089ED93E00E946C0321E0892B09F420E036
S1130A10822F0895E9EDF3E01382128288EE93E0C9
S1130A20A0E0B0E084839583A683B7838EEA92E046
S1130A309183808385EC90E09587848784EC90E0B3
S1130A409787868780EC90E0918B808B81EC90E097
S1130A50938B828B82EC90E0958B848B86EC90E078
S1130A60978B868B118E128E138E148E0895AF92EF
S1130A70BF92CF92DF92EF92FF920F931F93CF9387
S1130A80DF936C017B018B01040F151FEB015E01E9
S1130A90AE18BF08C017D10759F06991D601ED917E
S1130AA0FC910190F081E02DC6010995892B79F71D
S1130AB0C501DF91CF911F910F91FF90EF90DF90CF
S1130AC0CF90BF90AF900895109281001092800053
S1130AD0109282001092850010928400611520E12A
S1130AE0720781059105A0F4E4E0660F771FEA958B
S1130AF0E1F76150710981E092E096BB90936F0039
S1130B0070938900609388008860809381000895C1
S1130B10611520E872078105910530F4660F771F8F
S1130B206150710982E0E8CF6C3F2FEF720723E038
S1130B308207910558F442E09695879577956795D5
S1130B404A95D1F76150710983E0D6CF61157105DB
S1130B5020E18207910558F434E0969587957795BE
S1130B6067953A95D1F76150710984E0C5CF26E0C5
S1130B7096958795779567952A95D1F76150710970
S1130B8085E0BACFAF92BF92DF92EF92FF920F93BC
S1130B901F93CF93DF9300D0CDB7DEB70097D9F181
S1130BA0E0911E02F0911F02E080F180DFB6F8941C
S1130BB0F701278130852130310551F5FC0122816F
S1130BC0222389F02150228390E080E0DFBE0F9041
S1130BD00F90DF91CF911F910F91FF90EF90DF90D5
S1130BE0BF90AF9008958C01BE016F5F7F4F88E185
S1130BF092E00E94B8085C0169817A8150E040E08B
S1130C00C8010E94B607B501C7010E94CE09DCCF16
S1130C1081E090E0DBCF8EE090E0D9CFCF93FC0170
S1130C208EE090E03097C9F0CFB7F894608171817D
S1130C3061157105A1F0DB018D919C9191838083F5
S1130C4088E192E00E94DF08892B21F088E192E09C
S1130C500E947B09CFBF90E080E0CF91089582810C
S1130C608F5F8283F7CF4F925F926F927F928F92C2
S1130C709F92AF92BF92CF92DF92EF92FF920F9327
S1130C801F93CF93DF9300D0CDB7DEB700911E0240
S1130C9010911F029FB7F894D80118962D913C919A
S1130CA0232BB1F09FBF81E090E00F900F90DF9174
S1130CB0CF911F910F91FF90EF90DF90CF90BF9055
S1130CC0AF909F908F907F906F905F904F9008951A
S1130CD0F82E87E29AE09A838983C0902202D0900A
S1130CE0230281E090E0F80191878087F2860E94D8
S1130CF0FA0040902402509025025801F2E0AF0E11
S1130D00B11C24E0F29EC0011124480E591ED201E8
S1130D1012966D907C90F12CE12C88248394912C74
S1130D20E614F704E1F4F80180859185019721F434
S1130D3082E090E091878087D80118968D919C91EC
S1130D40029751F4F60162817381AB01C6010E94DE
S1130D50D000C6010E94330890E080E0A6CFD20103
S1130D60ED91FC91C701880F991FE80FF91F40818D
S1130D705181DA011496ED91FC9180818F5F80831B
S1130D8093828282F80164817581DB018D919C914B
S1130D901197958384831D921C92C5010E94F007CC
S1130DA0BFEFEB1AFB0ABCCFFF920F931F93CF93B5
S1130DB0DF9390E020911C0230911D02821793076B
S1130DC028F520911A0230911B02880F991F820F77
S1130DD0931FFC0100811181F8018781908502979E
S1130DE0A8F4FFB6F894C8010E942108EC01892BED
S1130DF029F4B80188E192E00E946008FFBECE01A8
S1130E00DF91CF911F910F91FF900895C3E0D0E03F
S1130E10F6CFDC011496ED91FC9184E090E093838D
S1130E2082830895EC01EC81FD81818124E030E02E
S1130E30338322838F3F09F07894E985FA850995F5
S1130E40E0911E02F0911F02108A8785882319F011
S1130E50178685858FBF8189882311F0118A78943C
S1130E608FB7F8946FE07AE08A819B810E94F0004A
S1130E700F931F93CF93DF93CFB7F89488E192E059
S1130E800E947B09CFBF00911E0210911F02C091E6
S1130E902002D0912102F80180859185029751F0BA
S1130EA08091220290912302DF91CF911F910F91A3
S1130EB00C94F409209779F3FE010995ECCF0F9374
S1130EC01F93CF93DF93EC01A881B981EB01E881F3
S1130ED0F9811696CD91DC9117972097C1F18A81FB
S1130EE09B81309709F43FC0EC010C811D81228164
S1130EF03381E9014C815D81E8013981EA0129816D
S1130F00321788F522E030E0E8013B832A83208110
S1130F103181EB0139832883C281D3812C813D81C6
S1130F2016964D915C911797518340831796FC93C5
S1130F30EE931697CD93DC934C85F90151815417A8
S1130F4008F44183DF91CF911F910F910895309759
S1130F5051F0EC018C819D81EC014C815D8122E09A
S1130F6030E0EA01D2CF90E080E0ECCFCF93DF9382
S1130F70DB011296ED91FC9141155105A1F02385F9
S1130F80DC01ED91FC91B0E0A0E0309789F410977A
S1130F9009F16D937C9390E080E0DB01ED93FC9389
S1130FA0DF91CF9108950480F581E02D2181E8CF70
S1130FB0C281D3814115510541F03B85321738F385
S1130FC0DF010190F081E02DE0CF0C80DD81C02DA8
S1130FD03981F4CFDC016D937C9381E090E0DDCF27
S1130FE0FB015383428341E050E00C94B607EF9237
S1130FF0FF920F931F93CF93DF938C01FC01C08169
S1131000D181EE80FF80F701808191819F838E835F
S1131010C8010E945F07892B41F4EE81FF8130975C
S113102061F08281938199838883C701DF91CF9195
S11310301F910F91FF90EF900895F801848195819D
S1131040F2CFDC011496ED91FC91159790811D96D9
S11310508C91981728F49F5F908390E080E0089526
S113106084E090E00895DC011496ED91FC911597CD
S11310701B968C918183808181508083811103C070
S113108013821282089581E090E09383828308950D
S1131090E0911A02F0911B0290E0880F991FE80F6B
S11310A0F91F60817181DB011496ED91FC918081BF
S11310B08F5F808350E040E088E192E00C949609D1
S11310C0EF92FF920F931F93CF93DF93DB0114965C
S11310D0ED90FC90E0911E02F0911F0280819181BD
S11310E0EC014C815D81A481B5812D913C911197D6
S11310F0EA010981E7011981011710F53583248379
S113110022E030E0EA013B832A8313967C936E93BA
S113111012972681378111963C932E93B783A68329
S113112071836083F701178216820E94CE0981E0E1
S113113090E0DF91CF911F910F91FF90EF90089570
S11311408A819B81892B31F481E090E09B838A839F
S11311501F821E823583248311961C921E92AB013A
S1131160BD01CF0102960E94F00790E080E0E1CF3C
S1131170EF92FF920F931F93CF93DF937B01C09164
S11311801E02D0911F02DE010D911D91BD018EE161
S113119092E00E94F707F70191838083D8011496A7
S11311A0ED91FC9183E090E093838283888199811F
S11311B0DF91CF911F910F91FF90EF9008950F93BE
S11311C01F93CF93DF93DB0112964D915C91FA014B
S11311D0C481D58100911E0210911F0282E090E02B
S11311E09B838A8383858983C80102960E94F007C2
S11311F0019791F4D801ED91FC910480F581E02DE3
S113120081E090E039812181231708F080E0DF91AB
S1131210CF911F910F91089580E090E0F8CFAF92A5
S1131220BF92CF92DF92EF92FF920F931F93CF93CF
S1131230DF93C0911E02D0911F02FE01E190F19054
S11312406F01F70104811581FB01F182E082F8014D
S113125082819381049731F5B6018EE192E00E9478
S1131260F7075C01C880D980EC14FD04B1F0C70114
S11312700E9433088C819D81F50191838083BD8216
S1131280AC82C601DF91CF911F910F91FF90EF9037
S1131290DF90CF90BF90AF900895F8018081815086
S11312A08083E8CF6E817F81FB01808191819F8360
S11312B08E83F7018385F801818381E090E0938335
S11312C082838081813011F417821682A701C601BE
S11312D00E94F007B6018EE192E00E945F07892B1D
S11312E039F4EE81FF81C280D380D982C882C9CF0C
S11312F0C880D980C6CFCF93DF93C0911E02D0910E
S11313001F02BE016E5F7F4F8EE192E00E945F0775
S1131310009749F0688179810E94CE0981E090E0CC
S1131320DF91CF91089590E080E0FACFCF93DF93DF
S1131330E0911E02F0911F02808191812681378104
S1131340EC01AC81BD811296CD91DC911397249769
S113135031F4C2E0D0E01396DC93CE9312977183FC
S1131360608341155105B9F4A481B5814D915C9117
S113137011975583448311961C921E92B783A683BA
S11313800680F781E02D7383628331832083DF91AC
S1131390CF910C94CE0957834683F2CFFB01DC0135
S11313A012964D915C9162817381A481B5811296EC
S11313B08D919C91029719F4CF010C948800CF0170
S11313C00C94D000CB01DB0112966D917C911397A4
S11313D01496ED91FC91228133812230310511F470
S11313E00C94A8000C94C800DC0112966D917C91B9
S11313F01397ED91FC9140815181DB01ED91FC91BA
S1131400228933892115310519F04217530729F42C
S1131410DB01ED93FC930C94A800F901F1CFCF9379
S1131420DF9300D0CDB7DEB7BE016F5F7F4F88E199
S113143092E00E940F09BC0189819A810E94E2090D
S11314400F900F90DF91CF910895F894FFCFEAE4C5
S113145008958F939F9380E00E94310A9F918F910A
S113146018951F920F920FB60F9211242F933F934A
S11314704F935F936F937F93AF93BF93EF93FF93D8
S11314800E944808FF91EF91BF91AF917F916F91B6
S11314905F914F913F912F910F900FBE0F901F902E
S11314A00895A1E21A2EAA1BBB1BFD010DC0AA1FA1
S11314B0BB1FEE1FFF1FA217B307E407F50720F0B9
S11314C0A21BB30BE40BF50B661F771F881F991F34
S11314D01A9469F760957095809590959B01AC017D
S11314E0BD01CF010895EE0FFF1F0590F491E02D8B
S10914F00994F894FFCFFB
S11314F60D0090020000140100000000FF0000002F
S113150600000000180100001C010000200100007A
S113151624010000280100000000000000800000F3
S113152600000000000000010000000000000000B0
S1131536000200000000000000000001000000009E
S1131546000000000001000000000000000000018F
S1131556000000000000000001000400000000007C
S11315660000CC034C030000546573742046616983
S11315766C65642121212C206C696E653A313737FC
S1131586200D0A0054657374204661696C656421F4
S113159621212C206C696E653A323433200D0A0001
S11315A652656C65617365205441534B310D0A00D5
S11315B654657374204661696C65642121212C206D
S11315C66C696E653A323537200D0A005441534B27
S11315D6320D0A0054657374204661696C65642192
S11315E621212C206C696E653A323734200D0A00AD
S11315F65441534B330D0A005441534B340D0A00E6
S11316065441534B350D0A0076042E02070002019D
S11316164A019002280201002C0201004A023C02FF
S11316264A0258026602740282029002A6027601F7
S11316362C0100020000018080019E027201360125
S11316460100008B01010101A202740140010201A3
S113165600EE01020201A60276014A010300002CF3
S113166602010101A602760154010400003E0201B2
S11316760101A60276015E010500004A020101018C
S1131686A6027601680106030038070000014D032F
S11316968000CD0280000000000000000000F90375
S10F16A637059A03D9036C03860378030C
S9030000FC
