:100000000C9463000C94F50C0C941C0D0C948B0058
:100010000C948B000C948B000C948B000C948B0034
:100020000C948B000C948B000C948B000C948B0024
:100030000C948B000C948B000C948B000C948B0014
:100040000C94060C0C948B000C94980D0C94CA0D17
:100050000C948B000C948B000C948B000C948B00F4
:100060000C948B000C948B0000000008000201002F
:100070000003040700000000000000000102040863
:100080001020408001020408102001020408102002
:10009000040404040404040402020202020203032E
:1000A00003030303000000002300260029000000D2
:1000B0000000250028002B0000000000240027007D
:1000C0002A00EF0CF00D11241FBECFEFD8E0DEBFE9
:1000D000CDBF12E0A0E0B1E0EAEFFEE102C0059082
:1000E0000D92A438B107D9F724E0A4E8B2E001C02A
:1000F0001D92A43AB207E1F710E0C3E6D0E004C0D5
:100100002197FE010E94750FC136D107C9F70E94E1
:10011000E00C0C94500F0C940000E4E10E944201AA
:100120000895E2E10E9442010895EAE00E9442013E
:100130000895E1E00E9442010895E3E00E94420137
:100140000895E7E00E9442010895E5E00E9442011F
:100150000895E0E00E9442010895E2E00E94420119
:100160000895E4E00E9442010895ECE00E944201FB
:100170000895EBE10E9442010895EEE00E944201E1
:100180000895E8E00E9442010895E0E10E944201E2
:100190000895EAE10E9442010895E6E00E944201CA
:1001A0000895E8E10E9442010895E9E00E944201B9
:1001B0000895EBE00E9442010895EDE00E944201A3
:1001C0000895EFE00E9442010895E1E10E9442019A
:1001D0000895E3E10E9442010895E5E10E94420191
:1001E0000895E7E10E9442010895E9E10E94420179
:1001F0000895E6E10E944201089521968A929A921A
:10020000AA92BA92CA92DA92EA92FA920A931A934C
:100210002197E0916D01F0916E010080F181E02D58
:10022000C083D1830895C0916F01D0917001E8819E
:10023000F981C081D181219619910991F990E990B4
:10024000D990C990B990A9909990899021970895D3
:100250002F903F90E7E6F1E0CDB7DEB7EDBFFEBFF0
:100260003F922F9208952F903F90CDBFDEBF3F92D7
:100270002F920895E0E80E9442010895E0E40E9470
:10028000420108952F923F924F925F926F927F9218
:100290002FB62F92CF93DF937E2EF894E09100013A
:1002A000EF5FE0930001E13011F40E942801E0E0EB
:1002B000E0937D01E72DE07849F00E94FA05F09186
:1002C0007E01F17071F00E94B4040BC0E72DEC3197
:1002D00040F4EE0FF0E0E65DFD4F0190F081E02D7F
:1002E0000995F0917D01EF2FE17059F0F27011F056
:1002F0000E94FD008F938F2F0E94A6038F910E9472
:10030000130120910001215020930001222311F4B8
:100310000E943301DF91CF912F902FBE7F906F907D
:100320005F904F903F902F900895CF92DF92EF9281
:10033000FF920F931F93DC01EC91DB012C918E2F28
:100340008170C82E880FDD08EE08FF088E2F877099
:10035000082E000C990BAA0BBB0BB695A795979589
:100360008795DC01AA56BD4F8C91C81AD108E108C7
:10037000F108E670422F4170042E000C550B660BFD
:10038000770B822F8770082E000C990BAA0BBB0BE2
:10039000B695A79597958795DC01AA56BD4F8C9188
:1003A000481B510961097109822F867097018601E6
:1003B00001701127222733270E2B417055276627FE
:1003C0007727482B81E090E00417150726073707A9
:1003D00010F080E090E01F910F91FF90EF90DF9080
:1003E000CF9008958F929F92AF92BF92EF92FF921B
:1003F0000F931F93CF93DF937C014A015B01B69467
:10040000A794979487944230510561057105E0F0F7
:10041000440F551F8701040F151FE401CC0FDD1F8A
:10042000CE0DDF1DB801CE010E949501892B61F030
:10043000F8019081818128813981318320839883DB
:100440008983B501A401DBCFDF91CF911F910F917B
:10045000FF90EF90BF90AF909F908F9008954F9234
:100460005F926F927F928F929F92AF92BF92CF9244
:10047000DF92EF92FF920F931F93CF93DF9300D001
:1004800000D000D0CDB7DEB78C016A017B01DC0162
:100490008C91282F880F330B440B550B29833A83FB
:1004A0004B835C8346015701880C991CAA1CBB1C1A
:1004B00029813A814B815C81281539054A055B0504
:1004C00008F442C0240135013FEF431A530A630A7E
:1004D000730A89819A81AB81BC8184159505A60533
:1004E000B70580F0B201660F771F600F711FC4015E
:1004F000880F991F800F911F0E949501892B11F081
:10050000530142013401660C771C600E711ECC0C45
:10051000DD1CD801AC0DBD1DBE83AD83B301CD0183
:100520000E949501892B81F0ED81FE81908181816E
:10053000D3012D913C911197318320839C93119687
:100540008C9375016401AECF26960FB6F894DEBF8A
:100550000FBECDBFDF91CF911F910F91FF90EF9014
:10056000DF90CF90BF90AF909F908F907F906F90D3
:100570005F904F900895E8E4F3E040814F5F40833F
:10058000042E000C550B660B770BE82FEE0FFF0BBC
:10059000EC5FFD4F0190F081E02D2385022E000CD1
:1005A000330BF901EA56FD4F908191509083FA0187
:1005B000EE0FFF1FE85BFC4F220F331F9170292BBA
:1005C0002083818388E493E00C94F201E8E4F3E073
:1005D00040814F5F4083042E000C550B660B770B58
:1005E000E82FEE0FFF0BE050FE4F0190F081E02D61
:1005F0009381FA01EE0FFF1FE85BFC4F908381832C
:1006000088E493E00C94F201CF93DF93A8E4B3E085
:10061000EC918FEF8E0F8C931296DC9112971396BC
:10062000CC911397EE0FFF0BE85BFC4F808191811B
:1006300013969C938E93129741E050E060E070E037
:10064000CD010E942F028D2F9C2FDF91CF91089515
:100650008091750190917601A0917701B091780118
:100660008F3F2FEF9207A207B20739F0181619062D
:100670001A061B0624F081E0089580E0089582E0C8
:100680000895880F990BFC01EC5FFD4F0190F081FC
:10069000E02D0084F185E02D3097F9F022812111C1
:1006A0001CC021E02283DC01A050BE4F0D90BC9104
:1006B000A02D13968C91139781838081082E000CB6
:1006C000990BFC01EA56FD4F208121502083880FB1
:1006D000991F2170822B13968C930895880F990B84
:1006E000FC01EC5FFD4F0190F081E02D0084F1856D
:1006F000E02D309761F02281213049F4128221816E
:10070000FC01E050FE4F0190F081E02D238308951D
:100710008091790190917A01A0917B01B0917C0147
:100720004091750150917601609177017091780147
:10073000481759076A077B0741F0E0917301F09170
:10074000740121E024830C94E6020895CF93DF9393
:10075000882391F0C0916D01D0916E01E0917101FB
:10076000F09172018481833049F081E0848380912B
:1007700075010E94E60202C0C0E0D0E0E091730182
:10078000F0917401F0937201E093710180916F0117
:100790009091700190936E0180936D018091790129
:1007A00030917A0120917B0190917C0180937501B9
:1007B00030937601209377019093780192E09483AF
:1007C0000E944103CE01DF91CF9108958091750180
:1007D0000E946E03E0917101F09172018281882381
:1007E000D1F085E084838091750190917601A0918C
:1007F0007701B0917801181619061A061B0664F0E5
:10080000880F991FFC01E250FE4F0190F081E02D0E
:1008100011821082089514820895CF93DF93282FB8
:10082000220F330BF901E050FE4FC081D1819A8134
:10083000F901EC5FFD4F0190F081E02D44859417A4
:10084000C0F491110FC095E09C83181644F0F90193
:10085000E250FE4F0190F081E02D1182108291E074
:1008600090937E010E94BB028A818F5F8A8380E021
:1008700001C084E0DF91CF910895CF93E82FEE0F70
:10088000FF0BE050FE4F0190F081E02DC1E0C483EA
:100890000E94BB02C0937E01CF910895282F220FA2
:1008A000330BF901E050FE4FA081B18114969C9169
:1008B00014979923A9F0F901E250FE4F0190F081BD
:1008C000E02D9081962B90839181692339F01182DC
:1008D00014969C91933011F40E943D0480E0089599
:1008E00087E00895E82FEE0FFF0BE050FE4F0190D8
:1008F000F081E02D118210820C949A0C1F93CF93FB
:10090000DF930E940403182F892F492F092E000C12
:10091000550B660B770B4093790150937A016093E6
:100920007B0170937C01292F220F330BF901E050DA
:10093000FE4FC081D181D0937401C0937301F9013E
:10094000EC5FFD4F208131813093700120936F0166
:100950009C81953019F40E9472041B8310927E01D1
:10096000DF91CF911F910895E0917901F0917A0183
:10097000EE0FFF1FE050FE4F0190F081E02D9091AF
:100980004A038381891734F40E9488030E947E04FD
:1009900083E001C080E080937D0108951F93CF9391
:1009A000DF93CDE6D1E0EC81FD8113E014838885EF
:1009B0000E946E03188BDF91CF911F910C947E04DF
:1009C00081E080937D010C947E04CF93DF93C1E09E
:1009D000D0E001C0CC0F8A95EAF781E00E940D04B7
:1009E000809128028C2319F080E00E940D048091F0
:1009F0002702C82359F08091F2019091F30121E080
:100A0000FC012687DF91CF910C943305DF91CF91C4
:100A100008950E94E30681110E940407E09171018C
:100A2000F091720180819181892B21F08091750173
:100A30000E94CB080C942C080E94E30681110E94AE
:100A40000407E0917101F091720180819181892BFD
:100A500021F0809175010E94CB080C94140881E06C
:100A6000809384020895AF92BF92CF92DF92EF926B
:100A7000FF920F931F93CF93DF93FC01A081B1816D
:100A8000AD90BC90E501AC89BD89109739F04285E5
:100A900053856485758530E020E017C0D5015596F3
:100AA0009C938E93549757969C938E93569715824A
:100AB0001482138212825BC012968D919C911397BF
:100AC0003A2F2B2F009779F0DC011A96CD90DD900C
:100AD000ED90FC901D974C155D056E057F0560F748
:100AE000CD01A32FB22F93838283B583A483009774
:100AF00019F0EC01FD83EC83109729F01396FC9319
:100B0000EE93129705C0D5015596FC93EE9354973A
:100B1000E501AE89BF891A968D919D910D90BC918A
:100B2000A02D088919892A893B8980179107A20776
:100B3000B30780F4041715072607370728F048176E
:100B400059076A077B0798F4D5015796FC93EE93F3
:100B500056970DC0041715072607370740F44817A6
:100B600059076A077B0718F4E501FF8BEE8BDF91CD
:100B7000CF911F910F91FF90EF90DF90CF90BF909A
:100B8000AF900895CF93DF93DC01ED91FC91119725
:100B90000190F081E02D848995891296CD91DC91A8
:100BA0001397A817B90711F4D58BC48B8689978939
:100BB000A817B90711F4D78BC68B209731F014967C
:100BC0008D919C9115979D838C8314960D90BC916B
:100BD000A02D109721F01396DC93CE93129786895F
:100BE0009789892B21F484899589978B868BDF914E
:100BF000CF910895EF92FF920F931F93CF93DF93BE
:100C0000FC0180918402882309F4B5C08485958510
:100C1000A685B7850196A11DB11D84879587A687F6
:100C2000B787408151816281738184179507A60738
:100C3000B70709F0A0C040895189628973894F5F65
:100C40005F4F6F4F7F4F84819581A681B781841755
:100C50009507A607B70718F440E050E0BA01408BAB
:100C6000518B628B738B1486158616861786C68900
:100C7000D789209709F47FC08A859B85AC85BD857F
:100C8000481759076A077B0709F075C0CE01DC01D8
:100C90001296ED90FC901397E114F10471F0D701D6
:100CA0001A960D911D912D913C911D97401751075A
:100CB0006207730711F4C701EACF2C813D8121152A
:100CC000310529F0D9011396FC92EE921297E114A6
:100CD000F10429F0D70115963C932E93149724899B
:100CE0003589C217D30711F4F58AE48AE114F104B7
:100CF00019F0F78AE68A04C024893589378B268B58
:100D00008F01FC0113821282EA80FB80E881F98165
:100D10000280F381E02DCE0109954E815F816885C7
:100D20007985411551056105710509F18A859B8514
:100D3000AC85BD85840F951FA61FB71FF8014481A0
:100D4000558166817781481759076A077B0738F410
:100D5000841B950BA60BB70B0197A109B1098A87D4
:100D60009B87AC87BD87CE010E94330501C01E86DC
:100D7000E701209749F6DF91CF911F910F91FF90E6
:100D8000EF900895DC011296ED91FC911397099470
:100D90000E94E30680916B01089580936B010E948D
:100DA000E5040E942F050C94E0040C94990CCF9359
:100DB000C82F0E942803811102C00E94D60C8C2FDC
:100DC000CF910C949100809191028130D9F0809163
:100DD000890290918A02A0918B02B0918C02892B9A
:100DE0008A2B8B2B79F481E040918D0250918E02F9
:100DF00060918F0270919002452B462B472B19F47E
:100E000080E0089581E008951092910210928D0281
:100E100010928E0210928F0210929002109289020C
:100E200010928A0210928B0210928C02809185029D
:100E300090918602A0918702B091880280939202DD
:100E400090939302A0939402B093950208950E9408
:100E5000D90C8091920290919302A0919402B0914A
:100E600095020196A11DB11D809392029093930269
:100E7000A0939402B093950280918D0290918E027E
:100E8000A0918F02B09190020196A11DB11D809397
:100E90008D0290938E02A0938F02B09390020895DA
:100EA00080918D0290918E02A0918F02B09190025C
:100EB0000097A105B10569F140919202509193020A
:100EC0006091940270919502415051096109710934
:100ED0004093920250939302609394027093950210
:100EE0000197A109B10980938D0290938E02A0937E
:100EF0008F02B09390028091920290919302A09100
:100F00009402B0919502892B8A2B8B2B11F40C94AF
:100F1000D70C089580918D0290918E02A0918F023E
:100F2000B0919002892B8A2B8B2B89F480918902B6
:100F300090918A02A0918B02B0918C02892B8A2B0E
:100F40008B2B29F40E94D90C81E0809391020895A3
:100F500080919102882321F0109291020C94D70C79
:100F600008950E94DD0C8091920290919302A091CD
:100F70009402B09195020196A11DB11D8093920239
:100F800090939302A0939402B0939502809189026A
:100F900090918A02A0918B02B0918C020196A11DC2
:100FA000B11D8093890290938A02A0938B02B09323
:100FB0008C0208958091890290918A02A0918B02FF
:100FC000B0918C020097A105B10569F140919202A0
:100FD0005091930260919402709195024150510991
:100FE00061097109409392025093930260939402B5
:100FF000709395020197A109B1098093890290939A
:101000008A02A0938B02B0938C02809192029091FD
:101010009302A0919402B0919502892B8A2B8B2B7D
:1010200011F40C94DB0C08950E94E306882311F060
:1010300083E1089580E00895CF93C82F0E94E306CE
:101040008C2F0E940D04C82F80917E0181110E9477
:10105000B4048C2FCF910895CF930E94E306882388
:1010600011F0C3E101C0C0E0E0917101F0917201A3
:101070008281815082830E94E60381E080937D011A
:101080000E947E048C2FCF910895CF93C82F0E9489
:10109000E306E0917101F0917201828181508283B7
:1010A0008C2F0E940D04C82F811108C00E94E603F6
:1010B00081E080937D010E947E0407C0E091710170
:1010C000F091720182818F5F82838C2FCF9108957E
:1010D000CF930E94E306882311F0C3E101C0C0E072
:1010E000809175010E946E030E94B4048091750185
:1010F00090917601A0917701B091780140917901AA
:1011000050917A0160917B0170917C018417950761
:10111000A607B70711F40E9441038C2FCF910895C1
:10112000CF93DF93EC010E94E306882311F083E163
:1011300001C080E040917501509176016091770186
:1011400070917801141615061606170614F04883D8
:1011500003C09091B4019883DF91CF9108950F93CC
:101160001F93CF93C82F8B010E94E306882311F0B1
:1011700083E101C080E0EC2FEE0FFF0BE050FE4F4B
:101180000190F081E02D94819370F8019083CF91CC
:101190001F910F910895880F990BFC01E050FE4FAD
:1011A000A081B181ED91FC911197309769F01D926A
:1011B0001C922091B4019381848122831482138232
:1011C000E92FF82F3097B9F70895CF93C82F0E94D1
:1011D000E306882311F083E101C080E0EC2FF0E00A
:1011E000EE0FFF1FEC5DFD4FA081B1819091750165
:1011F00012969C931297E0917101F09172012081F7
:10120000318114963C932E931397B183A0839381DD
:1012100011969C9311972C9193819595921774F444
:10122000022E000C330BD901AA56BD4F9C91915050
:101230009C93220F331F9170292B2383CF91089504
:10124000CF93DF93C82F0E94E306882311F0D3E1E8
:1012500001C0D0E0EC2FF0E0EE0FFF1FEC5DFD4F82
:101260000190F081E02DA0917101B0917201818116
:1012700013968C931397838194818D939C931482FE
:1012800013828091B40182830E94B4048D2FDF9178
:10129000CF910895CF93DF93C82FD62F0E94E306F6
:1012A0006D2F8C2F0E944E04C82F811105C0809194
:1012B0007E0181110E94B4048C2FDF91CF9108959B
:1012C000CF93C82F0E94E306882311F083E101C069
:1012D00080E0E0917501EE0FFF0BE250FE4F0190B0
:1012E000F081E02DC0959081C923C083CF910895EE
:1012F0000F931F93CF93C82F8B010E94E30688237F
:1013000011F083E101C080E0EC2FEE0FFF0BE25003
:10131000FE4F0190F081E02D9081F8019083CF91F4
:101320001F910F9108950F931F93CF93DF93D82FA1
:10133000E0917501F0917601EE0FFF1FE250FE4F34
:10134000008111810E94E306882311F0C3E101C0EE
:10135000C0E0F801D18380818D2311F40E94CE0476
:101360008C2FDF91CF911F910F910895DC01ED91AA
:10137000FC9184819581DC01ED91FC9109941F938E
:10138000CF93DF93182FEB010E94E306882311F01F
:1013900083E101C080E0E12FF0E0EE0FFF1FEE508F
:1013A000FE4F0190F081E02D0190F081E02D019041
:1013B000F081E02D40815181628173814C835D8396
:1013C0006E837F8344815581668177814883598309
:1013D0006A837B83408551856285738548875987F9
:1013E0006A877B87DF91CF911F9108958F929F929B
:1013F000AF92BF92CF92DF92EF92FF920F931F9323
:10140000CF93C82F8B010E94E306882311F083E15C
:1014100001C080E0EC2FF0E0EE0FFF1FEE50FE4F1A
:101420000190F081E02D9685913029F54285538514
:10143000648575850190F081E02D0190F081E02DAB
:10144000C088D188E288F3884C155D056E057F055C
:1014500040F484809580A680B780480D591D6A1D90
:101460007B1D4C195D096E097F09F801408351838A
:101470006283738301C085E0CF911F910F91FF902C
:10148000EF90DF90CF90BF90AF909F908F90089596
:101490008F929F92AF92BF92CF92DF92EF92FF9284
:1014A0000F931F93CF93DF93D82F4A015B016801FD
:1014B00079010E94E306882311F0C3E101C0C0E076
:1014C000ED2FF0E0EE0FFF1FEE50FE4F0190F08188
:1014D000E02D8685811130C0A081B1810D90BC9135
:1014E000A02D50964D915D916D917C915397480D33
:1014F000591D6A1D7B1D14968D919D910D90BC9177
:10150000A02D84179507A607B70740F4481B590B71
:101510006A0B7B0B4150510961097109428753875E
:1015200064877587C682D782E086F18681E08687E8
:10153000CF010E94330501C0C7E08C2FDF91CF910E
:101540001F910F91FF90EF90DF90CF90BF90AF90E1
:101550009F908F9008958F929F92AF92BF92CF925B
:10156000DF92EF92FF920F931F93CF93DF93C82FD9
:101570004A015B01680179010E94E306882311F0AA
:10158000D3E101C0D0E0EC2FF0E0EE0FFF1FEE50F2
:10159000FE4F0190F081E02D868581110EC082867C
:1015A0009386A486B586C682D782E086F18681E0DE
:1015B0008687CF010E94330501C0D7E08D2FDF91D0
:1015C000CF911F910F91FF90EF90DF90CF90BF9040
:1015D000AF909F908F9008950F931F93CF93DF93B9
:1015E000C82F0E94E306882311F0D3E101C0D0E0A8
:1015F000EC2FF0E0EE0FFF1FEE50FE4F0081118147
:10160000F8018685813031F4C8010E94C205F801D5
:10161000168601C0D5E08D2FDF91CF911F910F91DC
:10162000089526E040E052EC61E070E08BEA92E041
:101630000E94EB0E65EB71E08BEA92E00E94860D52
:1016400061E080916C010E94720B60E080916C01FE
:101650000E94AE0B6AEC71E08BEA92E00E94860D6C
:1016600060EE71E08BEA92E00C94860D8091260288
:101670000E94E5000C94B9008DE00E94DD0B61E052
:1016800068278DE00C94AE0B83E991E00C943A014D
:101690000895833081F028F4813099F08230A1F0F0
:1016A00008958730A9F08830B9F08430D1F4809162
:1016B00080008F7D03C0809180008F7780938000B1
:1016C000089584B58F7702C084B58F7D84BD089559
:1016D0008091B0008F7703C08091B0008F7D8093A0
:1016E000B0000895CF93DF9390E0FC01E458FF4FE2
:1016F0002491FC01E057FF4F8491882361F190E031
:10170000880F991FFC01E854FF4FC591D491FC014B
:10171000E255FF4FA591B491611109C09FB7F894AC
:101720008881209582238883EC912E230BC0623020
:1017300061F49FB7F8948881322F30958323888392
:10174000EC912E2B2C939FBF06C08FB7F894E881A5
:101750002E2B28838FBFDF91CF9108951F93CF93B6
:10176000DF93282F30E0F901E859FF4F8491F90108
:10177000E458FF4FD491F901E057FF4FC491CC23B7
:10178000C1F0162F81110E94490BEC2FF0E0EE0FF3
:10179000FF1FE255FF4FA591B4919FB7F894111127
:1017A00004C08C91D095D82302C0EC91DE2BDC9341
:1017B0009FBFDF91CF911F910895CF93DF93282F83
:1017C00030E0F901E859FF4F8491F901E458FF4FE7
:1017D000D491F901E057FF4FC491CC2391F08111CE
:1017E0000E94490BEC2FF0E0EE0FFF1FEC55FF4F6E
:1017F000A591B491EC91ED2381E090E021F480E09B
:1018000002C080E090E0DF91CF9108951F920F9287
:101810000FB60F9211242F933F934F935F936F93C3
:101820007F938F939F93AF93BF93EF93FF93809199
:10183000A2029091A302A091A402B091A5023091BE
:10184000A10223E0230F2D3720F40196A11DB11D25
:1018500005C026E8230F0296A11DB11D2093A10209
:101860008093A2029093A302A093A402B093A50236
:101870008091A6029091A702A091A802B091A9021E
:101880000196A11DB11D8093A6029093A702A0937B
:10189000A802B093A9020E94440BFF91EF91BF915F
:1018A000AF919F918F917F916F915F914F913F91F8
:1018B0002F910F900FBE0F901F90189584B58260E6
:1018C00084BD84B5816084BD85B5826085BD85B5E4
:1018D000816085BDEEE6F0E0808181608083E1E893
:1018E000F0E01082808182608083808181608083CB
:1018F000E0E8F0E0808181608083E1EBF0E08081CE
:1019000084608083E0EBF0E0808181608083EAE79F
:10191000F0E0808184608083808182608083808128
:10192000816080838081806880831092C1000895E7
:10193000FFCFFFCFCF93DF93880F990BFC01EC5FB4
:10194000FD4FC081D181AC81BD8111978A819B817E
:10195000A80FB91F2D85CD010197FD0132972230C7
:1019600019F421EB30E002C02DEC30E02C93DC01C7
:101970003C939E818F819083DF018E93CF010797E7
:101980001E928A179B07E1F780E8DF0118978C9376
:10199000CF0144971E928A179B07E1F7A881B9816E
:1019A0007597ED93FC93DF91CF9108950895789406
:1019B0000895F894089578940895F89408950895F2
:1019C0000E945E0C0E94DF0C0E94480B0E94110BCB
:1019D0008091AA020E94D70680E090E0089580914D
:1019E00029028093AA02089508951F920F920FB6BC
:1019F0000F9211242F933F934F935F936F937F9395
:101A00008F939F93AF93BF93EF93FF93E091B001B8
:101A1000F091B1010995FF91EF91BF91AF919F9125
:101A20008F917F916F915F914F913F912F910F9087
:101A30000FBE0F901F9018951F920F920FB60F9226
:101A400011242F933F934F935F936F937F938F93C3
:101A50009F93AF93BF93EF93FF93E091B201F09107
:101A6000B3010995FF91EF91BF91AF919F918F9134
:101A70007F916F915F914F913F912F910F900FBE8A
:101A80000F901F901895CF92DF92EF92FF920F93D5
:101A90001F93CF93DF936C017A018B01C0E0D0E0FC
:101AA000CE15DF0581F0D8016D918D01D601ED9144
:101AB000FC910190F081E02DC6010995892B11F070
:101AC0002196EECF7E01C701DF91CF911F910F913B
:101AD000FF90EF90DF90CF9008956115710579F038
:101AE000FB0101900020E9F73197AF01461B570B2E
:101AF000DC01ED91FC910280F381E02D099480E0FE
:101B000090E0089562E672E00C946D0D0F931F93C0
:101B1000CF93DF93EC010E946D0D8C01CE010E94EA
:101B2000820D800F911FDF91CF911F910F9108952A
:101B30001F920F920FB60F9211242F938F939F93A2
:101B4000EF93FF93E091BB02F091BC028081E091A2
:101B5000C102F091C20282FD12C090818091C40244
:101B60008F5F8F732091C502821751F0E091C402FC
:101B7000F0E0E555FD4F958F8093C40201C0808150
:101B8000FF91EF919F918F912F910F900FBE0F902A
:101B90001F9018951F920F920FB60F9211242F933A
:101BA0003F934F935F936F937F938F939F93AF93E5
:101BB000BF93EF93FF938BEA92E00E945A0EFF913E
:101BC000EF91BF91AF919F918F917F916F915F91B5
:101BD0004F913F912F910F900FBE0F901F9018952E
:101BE000EBEAF2E01382128288EE93E0A0E0B0E02C
:101BF00084839583A683B78385E792E0918380836E
:101C000085EC90E09587848784EC90E097878687C1
:101C100080EC90E0918B808B81EC90E0938B828BB9
:101C200082EC90E0958B848B86EC90E0978B868B92
:101C3000118E128E138E148E0895FC01918D228DBB
:101C4000892F90E0805C9F4F821B91098F739927A9
:101C50000895FC01918D828D981731F0828DE80FE7
:101C6000F11D858D90E008958FEF9FEF0895FC01A1
:101C7000918D828D981761F0828DDF01A80FB11DC3
:101C80005D968C91928D9F5F9F73928F90E00895E7
:101C90008FEF9FEF0895FC01538D448D252F30E089
:101CA000842F90E0821B930B541710F0CF96089569
:101CB00001970895FC01848DDF01A80FB11DA35A7F
:101CC000BF4F2C91848D90E001968F739927848F5C
:101CD000A689B7892C93A089B1898C91837080647F
:101CE0008C93938D848D981306C00288F389E02D20
:101CF00080818F7D80830895EF92FF920F931F93D1
:101D0000CF93DF93EC0181E0888F9B8D8C8D9813AE
:101D100005C0E889F989808185FD26C0F62E0B8DE6
:101D200010E00F5F1F4F0F731127E02E8C8DE8120C
:101D30000CC00FB607FCFACFE889F989808185FFCE
:101D4000F5CFCE010E945A0EF1CF8B8DFE01E80F28
:101D5000F11DE35AFF4FF0829FB7F8940B8FEA8989
:101D6000FB89808180620AC09FB7F894EE89FF8961
:101D70006083E889F98980818370806480839FBF54
:101D800081E090E0DF91CF911F910F91FF90EF9054
:101D90000895CF93DF93EC01888D8823C9F0EA89F9
:101DA000FB89808185FD05C0A889B9898C9186FD54
:101DB0000FC00FB607FCF5CF808185FFF2CFA88951
:101DC000B9898C9185FFEDCFCE010E945A0EE7CFE5
:101DD000DF91CF910895CF92DF92EF92FF921F9300
:101DE000CF93DF93EC016A017B01122FE889F98917
:101DF00082E080834115514E61057105B1F060E0CC
:101E000079E08DE390E0A70196010E94530FDA017B
:101E1000C9010197A109B109B695A795979587952D
:101E20009C01211580E13807A8F0E889F989108222
:101E300060E874E88EE190E0A70196010E94530FDC
:101E4000DA01C9010197A109B109B695A79597953E
:101E500087959C01EC85FD853083EE85FF85208389
:101E6000188EEC89FD891083EA89FB898081806165
:101E70008083EA89FB89808188608083EA89FB8985
:101E8000808180688083EA89FB8980818F7D80835F
:101E9000DF91CF911F91FF90EF90DF90CF90089549
:101EA000F8940C947B0FA1E21A2EAA1BBB1BFD0118
:101EB0000DC0AA1FBB1FEE1FFF1FA217B307E40729
:101EC000F50720F0A21BB30BE40BF50B661F771F81
:101ED000881F991F1A9469F7609570958095909561
:101EE0009B01AC01BD01CF010895EE0FFF1F0590CE
:0A1EF000F491E02D0994F894FFCF5F
:101EFA0000000000000000000000000000000000D8
:101F0A0000000000000000000000000000000000C7
:101F1A0000000000000000000000000000000000B7
:101F2A0000000000000000000000000000000000A7
:101F3A000000000000000000000000000000000097
:101F4A000000000000000000000000000000000087
:101F5A000000000000000000020000FF0D00001653
:101F6A000200009C02FFFFFFFFFFFFFFFF0000F4DB
:101F7A000100000000F4010000010000000200005E
:101F8A0000010001000000FFFF0000010000000046
:101F9A0000000000000000000000000200FF000036
:101FAA00F40CF40CFF202D2053797374656D2062B4
:101FBA006F6F7465642075702E00202D205379731D
:101FCA0074656D20636F6E666967757265642E004D
:101FDA00202D205374617274696E672075702E2EDD
:101FEA002E007F019301B609FA01C2063C0B9A0240
:101FFA008E019C0208021602A203A4030001360BFA
:10200A00680100010101500352035000980C0000BE
:10201A0001000100AB0101010000DA07A807B107BE
:10202A008A071C0527070905500768082009D506ED
:10203A004A091C0860094508780990089309CD06E1
:10204A00BF09C806F609EC0A480AE508AB0AAF0850
:10205A002C080D0A006E616E00696E66006F766666
:10206A0000000000007C0E430D4B0EC90E1D0E37FA
:04207A000E290E001D
:00000001FF
