:100000000C945E000C949C0D0C94C30D0C94860013
:100010000C9486000C9486000C9486000C94860048
:100020000C9486000C9486000C9486000C94860038
:100030000C9486000C9486000C9486000C94860028
:100040000C94AD0C0C9486000C94A30E0C94D50E5D
:100050000C9486000C9486000C9486000C94860008
:100060000C9486000C948600000000080002010039
:100070000003040700000000000000000102040863
:100080001020408001020408102001020408102002
:10009000040404040404040402020202020203032E
:1000A0000303030300000000250028002B000000CC
:1000B0000000240027002A00960DFB0E11241FBE0D
:1000C000CFEFD8E0DEBFCDBF12E0A0E0B1E0E0E2CC
:1000D000F1E202C005900D92A839B107D9F725E0E9
:1000E000A8E9B2E001C01D92AA3BB207E1F710E017
:1000F000CEE5D0E004C02197FE010E948810CC35E7
:10010000D107C9F70E94870D0C945B100C94000076
:10011000E4E10E943D010895E2E10E943D0108955D
:10012000EAE00E943D010895E1E00E943D0108954A
:10013000E3E00E943D010895E7E00E943D0108953B
:10014000E5E00E943D010895E0E00E943D01089530
:10015000E2E00E943D010895E4E00E943D0108951F
:10016000ECE00E943D010895EBE10E943D010895FD
:10017000EEE00E943D010895E8E00E943D010895EF
:10018000E0E10E943D010895EAE10E943D010895E9
:10019000E6E00E943D010895E8E10E943D010895D6
:1001A000E9E00E943D010895EBE00E943D010895C1
:1001B000EDE00E943D010895EFE00E943D010895A9
:1001C000E1E10E943D010895E3E10E943D010895AF
:1001D000E5E10E943D010895E7E10E943D01089597
:1001E000E9E10E943D010895E6E10E943D01089584
:1001F00021968A929A92AA92BA92CA92DA92EA9234
:10020000FA920A931A932197E0916A01F0916B0197
:100210000080F181E02DC083D1830895C0916C01ED
:10022000D0916D01E881F981C081D1812196199128
:100230000991F990E990D990C990B990A9909990B5
:100240008990219708952F903F90E7E6F1E0CDB790
:10025000DEB7EDBFFEBF3F922F9208952F903F90E3
:10026000CDBFDEBF3F922F920895E0E80E943D018E
:100270000895E0E40E943D0108952F923F924F922D
:100280005F926F927F922FB62F92CF93DF937E2E45
:10029000F894E0910001EF5FE0930001E13011F488
:1002A0000E942301E0E0E0937A01E72DE07849F035
:1002B0000E940806F0917B01F17071F00E94AE047B
:1002C0000BC0E72DEC3140F4EE0FF0E0E15CFD4FA8
:1002D0000190F081E02D0995F0917A01EF2FE17006
:1002E00059F0F27011F00E94F8008F938F2F0E9446
:1002F000A0038F910E940E012091000121502093B4
:100300000001222311F40E942E01DF91CF912F9042
:100310002FBE7F906F905F904F903F902F900895E9
:10032000CF92DF92EF92FF920F931F93DC01EC913B
:10033000DB012C918E2F8170C82E880FDD08EE080E
:10034000FF088E2F8770082E000C990BAA0BBB0B91
:10035000B695A79597958795DC01A655BD4F8C91CD
:10036000C81AD108E108F108E670422F4170042E46
:10037000000C550B660B770B822F8770082E000C34
:10038000990BAA0BBB0BB695A79597958795DC01A2
:10039000A655BD4F8C91481B510961097109822FE7
:1003A00086709701860101701127222733270E2BB3
:1003B0004170552766277727482B81E090E0041786
:1003C00015072607370710F080E090E01F910F9186
:1003D000FF90EF90DF90CF9008958F929F92AF9211
:1003E000BF92EF92FF920F931F93CF93DF937C0105
:1003F0004A015B01B694A7949794879442305105C3
:1004000061057105E0F0440F551F8701040F151FAA
:10041000E401CC0FDD1FCE0DDF1DB801CE010E941F
:100420009001892B61F0F8019081818128813981C7
:100430003183208398838983B501A401DBCFDF91C9
:10044000CF911F910F91FF90EF90BF90AF909F9031
:100450008F9008954F925F926F927F928F929F92AA
:10046000AF92BF92CF92DF92EF92FF920F931F93C2
:10047000CF93DF9300D000D000D0CDB7DEB78C0192
:100480006A017B01DC018C91282F880F330B440B10
:10049000550B29833A834B835C8346015701880CB3
:1004A000991CAA1CBB1C29813A814B815C812815AF
:1004B00039054A055B0508F442C0240135013FEFC8
:1004C000431A530A630A730A89819A81AB81BC81FA
:1004D00084159505A605B70580F0B201660F771F54
:1004E000600F711FC401880F991F800F911F0E9418
:1004F0009001892B11F0530142013401660C771CE5
:10050000600E711ECC0CDD1CD801AC0DBD1DBE8370
:10051000AD83B301CD010E949001892B81F0ED8163
:10052000FE8190818181D3012D913C91119731837E
:1005300020839C9311968C9375016401AECF26960F
:100540000FB6F894DEBF0FBECDBFDF91CF911F91E4
:100550000F91FF90EF90DF90CF90BF90AF909F9062
:100560008F907F906F905F904F900895EEE5F4E04C
:1005700040814F5F4083042E000C550B660B770BB8
:10058000E82FEE0FFF0BEA5FFD4F0190F081E02DA9
:100590002385022E000C330BF901E655FD4F9081A7
:1005A00091509083FA01EE0FFF1FE25AFB4F220F8A
:1005B000331F9170292B208381838EE594E00C9466
:1005C000ED01EEE5F4E040814F5F4083042E000C26
:1005D000550B660B770BE82FEE0FFF0BE050FE4F2D
:1005E0000190F081E02D9381FA01EE0FFF1FE25A96
:1005F000FB4F908381838EE594E00C94ED01CF93C3
:10060000DF93AEE5B4E0EC918FEF8E0F8C931296F2
:10061000DC9112971396CC911397EE0FFF0BE25AD1
:10062000FB4F8081918113969C938E93129741E0AA
:1006300050E060E070E0CD010E942A028D2F9C2FD7
:10064000DF91CF9108958091720190917301A091F3
:100650007401B09175018F3F2FEF9207A207B20787
:1006600031F00297A105B10524F481E0089580E0FE
:10067000089582E00895880F990BFC01EA5FFD4F11
:100680000190F081E02D0084F185E02D3097F9F0A4
:10069000228121111CC021E02283DC01A050BE4F29
:1006A0000D90BC91A02D13968C911397818380811E
:1006B000082E000C990BFC01E655FD4F20812150BE
:1006C0002083880F991F2170822B13968C93089595
:1006D000880F990BFC01EA5FFD4F0190F081E02D3E
:1006E0000084F185E02D309761F02281213049F4BA
:1006F00012822181FC01E050FE4F0190F081E02D3B
:10070000238308958091760190917701A0917801DB
:10071000B09179014091720150917301609174011F
:1007200070917501481759076A077B0741F0E091FE
:100730007001F091710121E024830C94E10208958D
:10074000CF93DF93882391F0C0916A01D0916B0120
:10075000E0916E01F0916F018481833049F081E076
:100760008483809172010E94E10202C0C0E0D0E067
:10077000E0917001F0917101F0936F01E0936E01CF
:1007800080916C0190916D0190936B0180936A014F
:1007900080917601309177012091780190917901D3
:1007A00080937201309373012093740190937501CB
:1007B00092E094830E943B03CE01DF91CF91089594
:1007C000809172010E946803E0916E01F0916F01C7
:1007D00082818823D1F085E0848380917201909199
:1007E0007301A0917401B0917501181619061A06CB
:1007F0001B0664F0880F991FFC01E250FE4F019028
:10080000F081E02D11821082089514820895CF9313
:10081000DF93282F220F330BF901E050FE4FC081E8
:10082000D1819A81F901EA5FFD4F0190F081E02DBD
:1008300044859417C0F491110FC095E09C8318165D
:1008400044F0F901E250FE4F0190F081E02D118259
:10085000108291E090937B010E94B6028A818F5FA3
:100860008A8380E001C084E0DF91CF910895CF9327
:10087000E82FEE0FFF0BE050FE4F0190F081E02DCE
:10088000C1E0C4830E94B602C0937B01CF9108955A
:10089000282F220F330BF901E050FE4FA081B181C8
:1008A00014969C9114979923A9F0F901E250FE4FF8
:1008B0000190F081E02D9081962B908391816923A6
:1008C00039F0118214969C91933011F40E943704F0
:1008D00080E0089587E00895E82FEE0FFF0BE050C9
:1008E000FE4F0190F081E02D118210820C94410D99
:1008F0001F93CF93DF930E94FF02182F892F492F58
:10090000092E000C550B660B770B40937601509324
:1009100077016093780170937901292F220F330BAF
:10092000F901E050FE4FC081D181D0937101C09395
:100930007001F901EA5FFD4F2081318130936D0133
:1009400020936C019C81953019F40E946C041B83E8
:1009500010927B01DF91CF911F910895E091760174
:10096000F0917701EE0FFF1FE050FE4F0190F081F4
:10097000E02D909160048381891734F40E948203F2
:100980000E94780483E001C080E080937A0108959A
:100990001F93CF93DF93CAE6D1E0EC81FD8113E092
:1009A000148388850E946803188BDF91CF911F9173
:1009B0000C94780481E080937A010C947804CF93AE
:1009C000DF93C1E0D0E001C0CC0F8A95EAF782E066
:1009D0000E94070480913C028C2319F080E00E9461
:1009E000070480913D028C2319F081E00E940704E6
:1009F00080913A028C2349F08091E7019091E801BF
:100A000021E0FC0126870E94410580913B02C8231A
:100A100059F08091E9019091EA0121E0FC012687DB
:100A2000DF91CF910C944105DF91CF9108950E9401
:100A3000F40681110E941507E0916E01F0916F019B
:100A400080819181892B21F0809172010E94DC08C4
:100A50000C943D080E94F40681110E941507E09154
:100A60006E01F0916F0180819181892B21F080913D
:100A700072010E94DC080C94250881E080939802A2
:100A80000895AF92BF92CF92DF92EF92FF920F93B1
:100A90001F93CF93DF93FC01A081B181AD90BC90F7
:100AA000E501AC89BD89109739F04285538564858D
:100AB000758530E020E017C0D50155969C938E9344
:100AC000549757969C938E9356971582148213824F
:100AD00012825BC012968D919C9113973A2F2B2F07
:100AE000009779F0DC011A96CD90DD90ED90FC90A6
:100AF0001D974C155D056E057F0560F7CD01A32F91
:100B0000B22F93838283B583A483009719F0EC01FD
:100B1000FD83EC83109729F01396FC93EE931297C4
:100B200005C0D5015596FC93EE935497E501AE8927
:100B3000BF891A968D919D910D90BC91A02D088929
:100B400019892A893B8980179107A207B30780F486
:100B5000041715072607370728F0481759076A07AB
:100B60007B0798F4D5015796FC93EE9356970DC0EA
:100B7000041715072607370740F4481759076A076F
:100B80007B0718F4E501FF8BEE8BDF91CF911F916E
:100B90000F91FF90EF90DF90CF90BF90AF900895AE
:100BA000CF93DF93DC01ED91FC9111970190F081DF
:100BB000E02D848995891296CD91DC911397A81721
:100BC000B90711F4D58BC48B86899789A817B90703
:100BD00011F4D78BC68B209731F014968D919C9190
:100BE00015979D838C8314960D90BC91A02D109722
:100BF00021F01396DC93CE93129786899789892BDF
:100C000021F484899589978B868BDF91CF91089504
:100C1000EF92FF920F931F93CF93DF93FC0180918C
:100C20009802882309F4B5C084859585A685B78583
:100C30000196A11DB11D84879587A687B78740813E
:100C400051816281738184179507A607B70709F060
:100C5000A0C040895189628973894F5F5F4F6F4F90
:100C60007F4F84819581A681B78184179507A60758
:100C7000B70718F440E050E0BA01408B518B628B0B
:100C8000738B1486158616861786C689D789209792
:100C900009F47FC08A859B85AC85BD8548175907B7
:100CA0006A077B0709F075C0CE01DC011296ED9052
:100CB000FC901397E114F10471F0D7011A960D918D
:100CC0001D912D913C911D974017510762077307A5
:100CD00011F4C701EACF2C813D812115310529F09E
:100CE000D9011396FC92EE921297E114F10429F0C7
:100CF000D70115963C932E93149724893589C217F2
:100D0000D30711F4F58AE48AE114F10419F0F78AA3
:100D1000E68A04C024893589378B268B8F01FC0134
:100D200013821282EA80FB80E881F9810280F381DC
:100D3000E02DCE0109954E815F8168857985411549
:100D400051056105710509F18A859B85AC85BD85D5
:100D5000840F951FA61FB71FF80144815581668136
:100D60007781481759076A077B0738F4841B950B6E
:100D7000A60BB70B0197A109B1098A879B87AC879E
:100D8000BD87CE010E94410501C01E86E701209764
:100D900049F6DF91CF911F910F91FF90EF90089549
:100DA000FC0182810C940704FC01638182810C9414
:100DB00048040E94F40680916801089580936801B8
:100DC0000E94DF040E943D050C94DA040C94400D4F
:100DD000CF93C82F0E942303811102C00E947D0D72
:100DE0008C2FCF910C948C008091A5028130D9F08A
:100DF00080919D0290919E02A0919F02B091A002CD
:100E0000892B8A2B8B2B79F481E04091A1025091A0
:100E1000A2026091A3027091A402452B462B472B9E
:100E200019F480E0089581E008951092A5021092CF
:100E3000A1021092A2021092A3021092A402109298
:100E40009D0210929E0210929F021092A002809129
:100E5000990290919A02A0919B02B0919C0280937A
:100E6000A6029093A702A093A802B093A9020895A6
:100E70000E94800D8091A6029091A702A091A802E5
:100E8000B091A9020196A11DB11D8093A602909375
:100E9000A702A093A802B093A9028091A102909109
:100EA000A202A091A302B091A4020196A11DB11DBE
:100EB0008093A1029093A202A093A302B093A402F4
:100EC00008958091A1029091A202A091A302B091F5
:100ED000A4020097A105B10569F14091A6025091C5
:100EE000A7026091A8027091A902415051096109BD
:100EF00071094093A6025093A7026093A8027093D1
:100F0000A9020197A109B1098093A1029093A202BD
:100F1000A093A302B093A4028091A6029091A7028D
:100F2000A091A802B091A902892B8A2B8B2B11F4D6
:100F30000C947E0D08958091A1029091A202A0913F
:100F4000A302B091A402892B8A2B8B2B89F4809168
:100F50009D0290919E02A0919F02B091A002892BC8
:100F60008A2B8B2B29F40E94800D81E08093A502AF
:100F700008958091A502882321F01092A5020C9477
:100F80007E0D08950E94840D8091A6029091A70283
:100F9000A091A802B091A9020196A11DB11D809354
:100FA000A6029093A702A093A802B093A9028091F1
:100FB0009D0290919E02A0919F02B091A002019685
:100FC000A11DB11D80939D0290939E02A0939F024C
:100FD000B093A002089580919D0290919E02A091ED
:100FE0009F02B091A0020097A105B10569F140915F
:100FF000A6025091A7026091A8027091A9024150E7
:101000005109610971094093A6025093A7026093A8
:10101000A8027093A9020197A109B10980939D02CA
:1010200090939E02A0939F02B093A0028091A6028B
:101030009091A702A091A802B091A902892B8A2BB6
:101040008B2B11F40C94820D08950E94F4068823D2
:1010500011F083E1089580E00895CF93C82F0E9496
:10106000F4068C2F0E940704C82F80917B01811108
:101070000E94AE048C2FCF910895CF930E94F40666
:10108000882311F0C3E101C0C0E0E0916E01F0914E
:101090006F018281815082830E94E00381E080930E
:1010A0007A010E9478048C2FCF910895CF93C82F96
:1010B0000E94F406E0916E01F0916F0182818150EF
:1010C00082838C2F0E940704C82F811108C00E94C0
:1010D000E00381E080937A010E94780407C0E091E8
:1010E0006E01F0916F0182818F5F82838C2FCF918F
:1010F0000895CF930E94F406882311F0C3E101C044
:10110000C0E0809172010E9468030E94AE04809149
:10111000720190917301A0917401B0917501409199
:10112000760150917701609178017091790184176F
:101130009507A607B70711F40E943B038C2FCF91A8
:101140000895CF93DF93EC010E94F406882311F0F9
:1011500083E101C080E04091720150917301609180
:10116000740170917501423051056105710514F4E7
:10117000488303C09091C5019883DF91CF91089572
:101180000F931F93CF93C82F8B010E94F4068823DF
:1011900011F083E101C080E0EC2FEE0FFF0BE05077
:1011A000FE4F0190F081E02D94819370F8019083BF
:1011B000CF911F910F910895880F990BFC01E0507A
:1011C000FE4FA081B181ED91FC911197309769F0AC
:1011D0001D921C922091C5019381848122831482E7
:1011E0001382E92FF82F3097B9F70895CF93C82FBE
:1011F0000E94F406882311F083E101C080E0EC2F07
:10120000F0E0EE0FFF1FEA5CFD4FA081B1819091ED
:10121000720112969C931297E0916E01F0916F010A
:101220002081318114963C932E931397B183A08330
:10123000938111969C9311972C9193819595921778
:1012400074F4022E000C330BD901A655BD4F9C91AE
:1012500091509C93220F331F9170292B2383CF91A0
:101260000895CF93DF93C82F0E94F406882311F0CE
:10127000D3E101C0D0E0EC2FF0E0EE0FFF1FEA5CFD
:10128000FD4F0190F081E02DA0916E01B0916F01B2
:10129000818113968C931397838194818D939C9372
:1012A000148213828091C50182830E94AE048D2F27
:1012B000DF91CF910895CF93DF93C82FD62F0E944F
:1012C000F4066D2F8C2F0E944804C82F811105C091
:1012D00080917B0181110E94AE048C2FDF91CF9110
:1012E0000895CF93C82F0E94F406882311F083E15C
:1012F00001C080E0E0917201EE0FFF0BE250FE4F63
:101300000190F081E02DC0959081C923C083CF91D9
:1013100008950F931F93CF93C82F8B010E94F4065B
:10132000882311F083E101C080E0EC2FEE0FFF0B6A
:10133000E250FE4F0190F081E02D9081F801908302
:10134000CF911F910F9108950F931F93CF93DF9328
:10135000D82FE0917201F0917301EE0FFF1FE25060
:10136000FE4F008111810E94F406882311F0C3E131
:1013700001C0C0E0F801D18380818D2311F40E9467
:10138000C8048C2FDF91CF911F910F910895DC013C
:10139000ED91FC9184819581DC01ED91FC910994A2
:1013A0001F93CF93DF93182FEB010E94F40688233D
:1013B00011F083E101C080E0E12FF0E0EE0FFF1FAC
:1013C000E951FE4F0190F081E02D0190F081E02D78
:1013D0000190F081E02D40815181628173814C83C5
:1013E0005D836E837F8344815581668177814883E5
:1013F00059836A837B8340855185628573854887DD
:1014000059876A877B87DF91CF911F9108958F92CB
:101410009F92AF92BF92CF92DF92EF92FF920F9383
:101420001F93CF93C82F8B010E94F406882311F0DD
:1014300083E101C080E0EC2FF0E0EE0FFF1FE951E7
:10144000FE4F0190F081E02D9685913029F542857F
:101450005385648575850190F081E02D0190F081C0
:10146000E02DC088D188E288F3884C155D056E05B3
:101470007F0540F484809580A680B780480D591D73
:101480006A1D7B1D4C195D096E097F09F8014083B7
:1014900051836283738301C085E0CF911F910F91C7
:1014A000FF90EF90DF90CF90BF90AF909F908F9084
:1014B00008958F929F92AF92BF92CF92DF92EF9258
:1014C000FF920F931F93CF93DF93D82F4A015B01B5
:1014D000680179010E94F406882311F0C3E101C07C
:1014E000C0E0ED2FF0E0EE0FFF1FE951FE4F01903D
:1014F000F081E02D8685811130C0A081B1810D90F1
:10150000BC91A02D50964D915D916D917C9153971A
:10151000480D591D6A1D7B1D14968D919D910D904E
:10152000BC91A02D84179507A607B70740F4481B68
:10153000590B6A0B7B0B41505109610971094287B4
:10154000538764877587C682D782E086F18681E0FB
:101550008687CF010E94410501C0C7E08C2FDF9133
:10156000CF911F910F91FF90EF90DF90CF90BF90A0
:10157000AF909F908F9008958F929F92AF92BF925D
:10158000CF92DF92EF92FF920F931F93CF93DF934F
:10159000C82F4A015B01680179010E94F406882383
:1015A00011F0D3E101C0D0E0EC2FF0E0EE0FFF1F0F
:1015B000E951FE4F0190F081E02D868581110EC02A
:1015C00082869386A486B586C682D782E086F18617
:1015D00081E08687CF010E94410501C0D7E08D2FB1
:1015E000DF91CF911F910F91FF90EF90DF90CF90FF
:1015F000BF90AF909F908F9008950F931F93CF93BC
:10160000DF93C82F0E94F406882311F0D3E101C0B4
:10161000D0E0EC2FF0E0EE0FFF1FE951FE4F00810C
:101620001181F8018685813031F4C8010E94D0050E
:10163000F801168601C0D5E08D2FDF91CF911F9163
:101640000F91089526E040E052EC61E070E08FEBEE
:1016500092E00E94F60F66EC71E08FEB92E00E9440
:10166000340E61E0809169010E94420C60E080913B
:1016700069010C947E0C809138020E94B0000C9499
:10168000B400CF93C82F4AE050E0682F8FEB92E070
:101690000E949C0E6C2F809169010E947E0CC0916B
:1016A00039028C2F0E94E00082E00E94D80060E0A6
:1016B000809169010E947E0C8C2F0E94E00082E0E4
:1016C000CF910C94D800DC01FB018C91082E000C0A
:1016D000990B9183808311968C911197082E000CA1
:1016E000990B9383828312968C91082E000C990B90
:1016F000958384830895CF93DF93EB01082E000C2C
:10170000990B0E945E108F36910539F08337910551
:1017100059F4BE018BED91E003C0BE018FED91E065
:10172000DF91CF910C94630BDF91CF9108956F926D
:101730007F928F929F92AF92BF92CF92DF92EF9261
:10174000FF920F931F93CF93DF9300D000D000D070
:10175000CDB7DEB783EEE82E81E0F82E96EE692E47
:1017600091E0792E4E0187E0880E911CF7011191CE
:101770007F01612F8FEB92E00E94290EBE016F5F07
:101780007F4F812F0E947B0BCE0101965C01F501FA
:10179000819191915F018E9711F003E001C001E00A
:1017A000C12CD12C10E0C016D1066CF080E00E9454
:1017B000410B80E00E94410B80E00E94410BA81485
:1017C000B90429F707C081E00E94410BFFEFCF1A4F
:1017D000DF0AE9CF6E147F0449F680E00E94410BD6
:1017E00080E00E94410B80E00E94410B80E00E945B
:1017F000410B8FEB92E00E94300E0E94B4002696BF
:101800000FB6F894DEBF0FBECDBFDF91CF911F9111
:101810000F91FF90EF90DF90CF90BF90AF909F908F
:101820008F907F906F90089584EA91E00C94350139
:101830000895833081F028F4813099F08230A1F04E
:1018400008958730A9F08830B9F08430D1F48091C0
:1018500080008F7D03C0809180008F77809380000F
:10186000089584B58F7702C084B58F7D84BD0895B7
:101870008091B0008F7703C08091B0008F7D8093FE
:10188000B0000895CF93DF9390E0FC01E458FF4F40
:101890002491FC01E057FF4F8491882361F190E08F
:1018A000880F991FFC01E255FF4FC591D491FC01AF
:1018B000EC55FF4FA591B491611109C09FB7F89401
:1018C0008881209582238883EC912E230BC062307F
:1018D00061F49FB7F8948881322F309583238883F1
:1018E000EC912E2B2C939FBF06C08FB7F894E88104
:1018F0002E2B28838FBFDF91CF9108951F93CF9315
:10190000DF93282F30E0F901E859FF4F8491F90166
:10191000E458FF4FD491F901E057FF4FC491CC2315
:10192000C1F0162F81110E94190CEC2FF0E0EE0F80
:10193000FF1FEC55FF4FA591B4919FB7F89411117B
:1019400004C08C91D095D82302C0EC91DE2BDC939F
:101950009FBFDF91CF911F9108951F920F920FB6F5
:101960000F9211242F933F934F935F936F937F9325
:101970008F939F93AF93BF93EF93FF938091B602A2
:101980009091B702A091B802B091B9023091B5021E
:1019900023E0230F2D3720F40196A11DB11D05C0B2
:1019A00026E8230F0296A11DB11D2093B502809356
:1019B000B6029093B702A093B802B093B902809197
:1019C000BA029091BB02A091BC02B091BD020196F7
:1019D000A11DB11D8093BA029093BB02A093BC02DB
:1019E000B093BD020E94140CFF91EF91BF91AF9193
:1019F0009F918F917F916F915F914F913F912F9127
:101A00000F900FBE0F901F90189584B5826084BD13
:101A100084B5816084BD85B5826085BD85B58160F2
:101A200085BDEEE6F0E0808181608083E1E8F0E052
:101A30001082808182608083808181608083E0E881
:101A4000F0E0808181608083E1EBF0E08081846060
:101A50008083E0EBF0E0808181608083EAE7F0E062
:101A600080818460808380818260808380818160C6
:101A700080838081806880831092C1000895FFCFA9
:101A8000FFCFCF93DF93880F990BFC01EA5FFD4FE7
:101A9000C081D181AC81BD8111978A819B81A80FC2
:101AA000B91F2D85CD010197FD013297223019F420
:101AB0002CEA30E002C028EC30E02C93DC013C93AF
:101AC0009E818F819083DF018E93CF0107971E92B5
:101AD0008A179B07E1F780E8DF0118978C93CF0105
:101AE00044971E928A179B07E1F7A881B9817597E1
:101AF000ED93FC93DF91CF91089508957894089524
:101B0000F894089578940895F894089508950E949B
:101B1000050D0E94860D0E94180C0E94220B8091D8
:101B2000BE020E94E80680E090E0089580913E02A7
:101B30008093BE02089508951F920F920FB60F92E0
:101B400011242F933F934F935F936F937F938F93C2
:101B50009F93AF93BF93EF93FF93E091C101F091F7
:101B6000C2010995FF91EF91BF91AF919F918F9124
:101B70007F916F915F914F913F912F910F900FBE89
:101B80000F901F9018951F920F920FB60F9211246D
:101B90002F933F934F935F936F937F938F939F9375
:101BA000AF93BF93EF93FF93E091C301F091C40112
:101BB0000995FF91EF91BF91AF919F918F917F9187
:101BC0006F915F914F913F912F910F900FBE0F90AA
:101BD0001F901895CF92DF92EF92FF920F931F9371
:101BE000CF93DF936C017A018B01C0E0D0E0CE157A
:101BF000DF0581F0D8016D918D01D601ED91FC9149
:101C00000190F081E02DC6010995892B11F02196F4
:101C1000EECF7E01C701DF91CF911F910F91FF9011
:101C2000EF90DF90CF9008956115710579F0FB0179
:101C300001900020E9F73197AF01461B570BDC01FB
:101C4000ED91FC910280F381E02D099480E090E019
:101C50000895DC01ED91FC910190F081E02D099453
:101C600067E772E00C94140E0F931F93CF93DF93EA
:101C7000EC010E94140E8C01CE010E94300E800FE8
:101C8000911FDF91CF911F910F9108958F929F9295
:101C9000AF92BF92EF92FF920F931F93CF93DF9378
:101CA000CDB7DEB7A1970FB6F894DEBF0FBECDBF9C
:101CB0007C01FA01CB0119A2223008F42AE08E013E
:101CC0000F5D1F4F822E912CA12CB12CBF01A501BD
:101CD00094010E946610F901CA01015011096A308D
:101CE00014F4605D01C0695CD8016C93232B242B34
:101CF000252B61F7B801C7010E94140EA1960FB6FB
:101D0000F894DEBF0FBECDBFDF91CF911F910F9131
:101D1000FF90EF90BF90AF909F908F900895211506
:101D2000310541F4DC01ED91FC910190F081E02D51
:101D3000642F09940C94460E9A01462F50E060E0FF
:101D400070E00C948F0E1F920F920FB60F92112419
:101D50002F938F939F93EF93FF93E091CF02F09196
:101D6000D0028081E091D502F091D60282FD12C0AE
:101D700090818091D8028F5F8F732091D902821752
:101D800051F0E091D802F0E0E154FD4F958F80933F
:101D9000D80201C08081FF91EF919F918F912F9187
:101DA0000F900FBE0F901F9018951F920F920FB6B5
:101DB0000F9211242F933F934F935F936F937F93D1
:101DC0008F939F93AF93BF93EF93FF938FEB92E02B
:101DD0000E94650FFF91EF91BF91AF919F918F91FD
:101DE0007F916F915F914F913F912F910F900FBE17
:101DF0000F901F901895EFEBF2E01382128288EE9D
:101E000093E0A0E0B0E084839583A683B7838AE85B
:101E100092E09183808385EC90E09587848784ECC1
:101E200090E09787868780EC90E0918B808B81ECA7
:101E300090E0938B828B82EC90E0958B848B86EC88
:101E400090E0978B868B118E128E138E148E0895D0
:101E5000FC01918D228D892F90E0805C9F4F821B29
:101E600091098F7399270895FC01918D828D9817A0
:101E700031F0828DE80FF11D858D90E008958FEF90
:101E80009FEF0895FC01918D828D981761F0828DEE
:101E9000DF01A80FB11D5D968C91928D9F5F9F739E
:101EA000928F90E008958FEF9FEF0895FC01538D7E
:101EB000448D252F30E0842F90E0821B930B541724
:101EC00010F0CF96089501970895FC01848DDF01ED
:101ED000A80FB11DA35ABF4F2C91848D90E001969D
:101EE0008F739927848FA689B7892C93A089B1898C
:101EF0008C91837080648C93938D848D981306C02D
:101F00000288F389E02D80818F7D80830895EF9290
:101F1000FF920F931F93CF93DF93EC0181E0888FA3
:101F20009B8D8C8D981305C0E889F989808185FD8A
:101F300026C0F62E0B8D10E00F5F1F4F0F73112779
:101F4000E02E8C8DE8120CC00FB607FCFACFE889A2
:101F5000F989808185FFF5CFCE010E94650FF1CF11
:101F60008B8DFE01E80FF11DE35AFF4FF0829FB702
:101F7000F8940B8FEA89FB89808180620AC09FB741
:101F8000F894EE89FF896083E889F98980818370FC
:101F9000806480839FBF81E090E0DF91CF911F91AB
:101FA0000F91FF90EF900895CF93DF93EC01888D10
:101FB0008823C9F0EA89FB89808185FD05C0A8894D
:101FC000B9898C9186FD0FC00FB607FCF5CF8081D3
:101FD00085FFF2CFA889B9898C9185FFEDCFCE011D
:101FE0000E94650FE7CFDF91CF910895CF92DF92E6
:101FF000EF92FF921F93CF93DF93EC016A017B0175
:10200000122FE889F98982E080834115514E6105DC
:102010007105B1F060E079E08DE390E0A7019601F1
:102020000E946610DA01C9010197A109B109B695AC
:10203000A795979587959C01211580E13807A8F011
:10204000E889F989108260E874E88EE190E0A701E0
:1020500096010E946610DA01C9010197A109B10930
:10206000B695A795979587959C01EC85FD8530835E
:10207000EE85FF852083188EEC89FD891083EA891F
:10208000FB89808180618083EA89FB898081886007
:102090008083EA89FB89808180688083EA89FB8963
:1020A00080818F7D8083DF91CF911F91FF90EF9092
:1020B000DF90CF900895F8940C948E1091110895AC
:1020C00081548A5108F4805E855A0895A1E21A2E3F
:1020D000AA1BBB1BFD010DC0AA1FBB1FEE1FFF1FCC
:1020E000A217B307E407F50720F0A21BB30BE40B1C
:1020F000F50B661F771F881F991F1A9469F7609563
:102100007095809590959B01AC01BD01CF0108951C
:10211000EE0FFF1F0590F491E02D0994F894FFCF86
:1021200000000000000000000000000000000000AF
:10213000000000000000000000000000000000009F
:10214000000000000000000000000000000000008F
:10215000000000000000000000000000000000007F
:10216000000000000000000000000000000000006F
:10217000000000000000000000000000000000005F
:102180000000000000000000FF0300002802000023
:10219000B002FFFFFFFFFFFFFFFF0000EB010000A9
:1021A0000000640000006400000002F5010000006F
:1021B00000B80B0000E8030000020000000200006D
:1021C0000000010001000000FFFF0000010000000E
:1021D0000000000000000000000000000300FF00FD
:1021E000009B0D9B0DFF202D2053797374656D208E
:1021F000626F6F7465642075702E002E2E2E002D78
:102200002D2D00534F53008B017C01A401C709F110
:1022100001D4060002A401C709FB01D00601AE02E9
:102220009F019A01B0021A020C0228025C04B80451
:1022300000013B0B000001020100B8055C03000136
:10224000970B0000000101016604680450003F0D77
:10225000000002000100BC0100020101000000EBCF
:1022600007B907C2079B072A0538071705610779D1
:10227000083109E6065B092D08710956088909A18C
:1022800008A409DE06D009D906070AFD0A590AF68C
:1022900008BC0AC0083D080D0A006E616E00696E38
:1022A00066006F76660000000000870FEA0D560F8B
:0822B000D40F280F420F340F78
:00000001FF
