:100000000C945D000C94690D0C94900D0C9485007B
:100010000C9485000C9485000C9485000C9485004C
:100020000C9485000C9485000C9485000C9485003C
:100030000C9485000C9485000C9485000C9485002C
:100040000C947A0C0C9485000C9485000C9485001B
:100050000C9485000C9485000C9485000C9485000C
:100060000C9485000C94850000000008000201003B
:100070000003040700000000000000000102040863
:100080001020408001020408102001020408102002
:10009000040404040404040402020202020203032E
:1000A0000303030300000000250028002B000000CC
:1000B0000000240027002A00630D11241FBECFEF8B
:1000C000D8E0DEBFCDBF13E0A0E0B1E0E4EDFBE19E
:1000D00002C005900D92AC38B107D9F724E0ACE826
:1000E000B3E001C01D92A136B207E1F710E0CDE503
:1000F000D0E004C02197FE010E94E20DCC35D1076B
:10010000C9F70E94540D0C94B70D0C940000E4E163
:100110000E943C010895E2E10E943C010895EAE05A
:100120000E943C010895E1E00E943C010895E3E053
:100130000E943C010895E7E00E943C010895E5E03B
:100140000E943C010895E0E00E943C010895E2E035
:100150000E943C010895E4E00E943C010895ECE017
:100160000E943C010895EBE10E943C010895EEE0FD
:100170000E943C010895E8E00E943C010895E0E1FE
:100180000E943C010895EAE10E943C010895E6E0E6
:100190000E943C010895E8E10E943C010895E9E0D5
:1001A0000E943C010895EBE00E943C010895EDE0BF
:1001B0000E943C010895EFE00E943C010895E1E1B6
:1001C0000E943C010895E3E10E943C010895E5E1AD
:1001D0000E943C010895E7E10E943C010895E9E195
:1001E0000E943C010895E6E10E943C010895219699
:1001F0008A929A92AA92BA92CA92DA92EA92FA925F
:100200000A931A932197E091AB01F091AC01008021
:10021000F181E02DC083D1830895C091AD01D091CB
:10022000AE01E881F981C081D181219619910991AE
:10023000F990E990D990C990B990A9909990899036
:10024000219708952F903F90E7E6F1E0CDB7DEB714
:10025000EDBFFEBF3F922F9208952F903F90CDBFEC
:10026000DEBF3F922F920895E0E80E943C0108957E
:10027000E0E40E943C0108952F923F924F925F92DA
:100280006F927F922FB62F92CF93DF937E2EF894AA
:10029000E0910001EF5FE0930001E13011F40E9472
:1002A0002201E0E0E093BB01E72DE07849F00E94F5
:1002B0000106F091BC01F17071F00E94AE040BC018
:1002C000E72DEC3140F4EE0FF0E0ED5AFC4F0190D9
:1002D000F081E02D0995F091BB01EF2FE17059F00D
:1002E000F27011F00E94F7008F938F2F0E94A003ED
:1002F0008F910E940D012091000121502093000157
:10030000222311F40E942D01DF91CF912F902FBE57
:100310007F906F905F904F903F902F900895CF9275
:10032000DF92EF92FF920F931F93DC01EC91DB01C0
:100330002C918E2F8170C82E880FDD08EE08FF08E3
:100340008E2F8770082E000C990BAA0BBB0BB6954D
:10035000A79597958795DC01A056BC4F8C91C81A3C
:10036000D108E108F108E670422F4170042E000C1C
:10037000550B660B770B822F8770082E000C990B9C
:10038000AA0BBB0BB695A79597958795DC01A05650
:10039000BC4F8C91481B510961097109822F8670ED
:1003A0009701860101701127222733270E2B4170F8
:1003B000552766277727482B81E090E0041715071B
:1003C0002607370710F080E090E01F910F91FF9013
:1003D000EF90DF90CF9008958F929F92AF92BF924F
:1003E000EF92FF920F931F93CF93DF937C014A010B
:1003F0005B01B694A79497948794423051056105A8
:100400007105E0F0440F551F8701040F151FE4012B
:10041000CC0FDD1FCE0DDF1DB801CE010E948F0174
:10042000892B61F0F80190818181288139813183A4
:10043000208398838983B501A401DBCFDF91CF911D
:100440001F910F91FF90EF90BF90AF909F908F9072
:1004500008954F925F926F927F928F929F92AF9288
:10046000BF92CF92DF92EF92FF920F931F93CF93A1
:10047000DF9300D000D000D0CDB7DEB78C016A0189
:100480007B01DC018C91282F880F330B440B550B1B
:1004900029833A834B835C8346015701880C991C5E
:1004A000AA1CBB1C29813A814B815C812815390526
:1004B0004A055B0508F442C0240135013FEF431AA9
:1004C000530A630A730A89819A81AB81BC818415BE
:1004D0009505A605B70580F0B201660F771F600F7E
:1004E000711FC401880F991F800F911F0E948F01F7
:1004F000892B11F0530142013401660C771C600E08
:10050000711ECC0CDD1CD801AC0DBD1DBE83AD83AE
:10051000B301CD010E948F01892B81F0ED81FE8115
:1005200090818181D3012D913C911197318320835A
:100530009C9311968C9375016401AECF26960FB6ED
:10054000F894DEBF0FBECDBFDF91CF911F910F9109
:10055000FF90EF90DF90CF90BF90AF909F908F90E3
:100560007F906F905F904F900895E7E0F4E04081B6
:100570004F5F4083042E000C550B660B770BE82F62
:10058000EE0FFF0BE65DFC4F0190F081E02D23851F
:10059000022E000C330BF901E056FC4F9081915074
:1005A0009083FA01EE0FFF1FE95FFB4F220F331F0D
:1005B0009170292B2083818387E094E00C94EC01D7
:1005C000E7E0F4E040814F5F4083042E000C550BC0
:1005D000660B770BE82FEE0FFF0BEA5DFC4F0190E7
:1005E000F081E02D9381FA01EE0FFF1FE95FFB4FD1
:1005F0009083818387E094E00C94EC01CF93DF93A8
:10060000A7E0B4E0EC918FEF8E0F8C931296DC9103
:1006100012971396CC911397EE0FFF0BE95FFB4FE8
:100620008081918113969C938E93129741E050E0C4
:1006300060E070E0CD010E9429028D2F9C2FDF9198
:10064000CF9108958091B3019091B401A091B5012B
:10065000B091B6018F3F2FEF9207A207B20739F092
:10066000181619061A061B0624F081E0089580E08A
:10067000089582E00895880F990BFC01E65DFC4F18
:100680000190F081E02D0084F185E02D3097F9F0A4
:10069000228121111CC021E02283DC01AA5DBC4F14
:1006A0000D90BC91A02D13968C911397818380811E
:1006B000082E000C990BFC01E056FC4F20812150C4
:1006C0002083880F991F2170822B13968C93089595
:1006D000880F990BFC01E65DFC4F0190F081E02D45
:1006E0000084F185E02D309761F02281213049F4BA
:1006F00012822181FC01EA5DFC4F0190F081E02D26
:10070000238308958091B7019091B801A091B90118
:10071000B091BA014091B3015091B4016091B5011B
:100720007091B601481759076A077B0741F0E091BD
:10073000B101F091B20121E024830C94E00208950C
:10074000CF93DF93882391F0C091AB01D091AC019E
:10075000E091AF01F091B0018481833049F081E0F4
:1007600084838091B3010E94E00202C0C0E0D0E027
:10077000E091B101F091B201F093B001E093AF01CB
:100780008091AD019091AE019093AC018093AB014B
:100790008091B7013091B8012091B9019091BA01CF
:1007A0008093B3013093B4012093B5019093B601C7
:1007B00092E094830E943B03CE01DF91CF91089594
:1007C0008091B3010E946803E091AF01F091B00104
:1007D00082818823D1F085E084838091B301909158
:1007E000B401A091B501B091B601181619061A0608
:1007F0001B0664F0880F991FFC01EC5DFC4F019013
:10080000F081E02D11821082089514820895CF9313
:10081000DF93282F220F330BF901EA5DFC4FC081D3
:10082000D1819A81F901E65DFC4F0190F081E02DC4
:1008300044859417C0F491110FC095E09C8318165D
:1008400044F0F901EC5DFC4F0190F081E02D118244
:10085000108291E09093BC010E94B5028A818F5F63
:100860008A8380E001C084E0DF91CF910895CF9327
:10087000E82FEE0FFF0BEA5DFC4F0190F081E02DB9
:10088000C1E0C4830E94B502C093BC01CF9108951A
:10089000282F220F330BF901EA5DFC4FA081B181B3
:1008A00014969C9114979923A9F0F901EC5DFC4FE3
:1008B0000190F081E02D9081962B908391816923A6
:1008C00039F0118214969C91933011F40E943704F0
:1008D00080E0089587E00895E82FEE0FFF0BEA5DB2
:1008E000FC4F0190F081E02D118210820C940E0DCE
:1008F0001F93CF93DF930E94FE02182F892F492F59
:10090000092E000C550B660B770B4093B7015093E3
:10091000B8016093B9017093BA01292F220F330BEC
:10092000F901EA5DFC4FC081D181D093B201C0933F
:10093000B101F901E65DFC4F208131813093AE01B8
:100940002093AD019C81953019F40E946C041B83A7
:100950001092BC01DF91CF911F910895E091B701F2
:10096000F091B801EE0FFF1FEA5DFC4F0190F0819E
:10097000E02D909109048381891734F40E94820349
:100980000E94780483E001C080E08093BB01089559
:100990001F93CF93DF93CBEAD1E0EC81FD8113E08D
:1009A000148388850E946803188BDF91CF911F9173
:1009B0000C94780481E08093BB010C947804CF936D
:1009C000DF93C1E0D0E001C0CC0F8A95EAF781E067
:1009D0000E940704809151038C2319F080E00E944B
:1009E000070480914F038C2349F080910C03909170
:1009F0000D0321E0FC0126870E943A0580915003F7
:100A0000C82359F080910E0390910F0321E0FC015F
:100A10002687DF91CF910C943A05DF91CF9108950D
:100A20000E94EF0681110E941007E091AF01F09142
:100A3000B00180819181892B21F08091B3010E94C6
:100A4000D7080C9438080E94EF0681110E94100705
:100A5000E091AF01F091B00180819181892B21F06B
:100A60008091B3010E94D7080C94200881E0809304
:100A70008C030895AF92BF92CF92DF92EF92FF92D4
:100A80000F931F93CF93DF93FC01A081B181AD90B1
:100A9000BC90E501AC89BD89109739F0428553853A
:100AA0006485758530E020E017C0D50155969C938C
:100AB0008E93549757969C938E93569715821482D3
:100AC000138212825BC012968D919C9113973A2FDC
:100AD0002B2F009779F0DC011A96CD90DD90ED90E8
:100AE000FC901D974C155D056E057F0560F7CD01E7
:100AF000A32FB22F93838283B583A483009719F029
:100B0000EC01FD83EC83109729F01396FC93EE9390
:100B1000129705C0D5015596FC93EE935497E501C5
:100B2000AE89BF891A968D919D910D90BC91A02D93
:100B3000088919892A893B8980179107A207B30779
:100B400080F4041715072607370728F048175907B8
:100B50006A077B0798F4D5015796FC93EE93569756
:100B60000DC0041715072607370740F44817590723
:100B70006A077B0718F4E501FF8BEE8BDF91CF91BD
:100B80001F910F91FF90EF90DF90CF90BF90AF90AB
:100B90000895CF93DF93DC01ED91FC9111970190C3
:100BA000F081E02D848995891296CD91DC9113977F
:100BB000A817B90711F4D58BC48B86899789A81714
:100BC000B90711F4D78BC68B209731F014968D910D
:100BD0009C9115979D838C8314960D90BC91A02DAC
:100BE000109721F01396DC93CE93129786899789FC
:100BF000892B21F484899589978B868BDF91CF91FE
:100C00000895EF92FF920F931F93CF93DF93FC0110
:100C100080918C03882309F4B5C084859585A685C9
:100C2000B7850196A11DB11D84879587A687B787D3
:100C3000408151816281738184179507A607B707A8
:100C400009F0A0C040895189628973894F5F5F4F65
:100C50006F4F7F4F84819581A681B7818417950757
:100C6000A607B70718F440E050E0BA01408B518B5B
:100C7000628B738B1486158616861786C689D7896C
:100C8000209709F47FC08A859B85AC85BD85481770
:100C900059076A077B0709F075C0CE01DC0112967F
:100CA000ED90FC901397E114F10471F0D7011A96BE
:100CB0000D911D912D913C911D9740175107620791
:100CC000730711F4C701EACF2C813D81211531054D
:100CD00029F0D9011396FC92EE921297E114F104D7
:100CE00029F0D70115963C932E93149724893589C2
:100CF000C217D30711F4F58AE48AE114F10419F05C
:100D0000F78AE68A04C024893589378B268B8F01C0
:100D1000FC0113821282EA80FB80E881F981028063
:100D2000F381E02DCE0109954E815F81688579853B
:100D3000411551056105710509F18A859B85AC85D1
:100D4000BD85840F951FA61FB71FF80144815581EB
:100D500066817781481759076A077B0738F4841B37
:100D6000950BA60BB70B0197A109B1098A879B8741
:100D7000AC87BD87CE010E943A0501C01E86E701FF
:100D8000209749F6DF91CF911F910F91FF90EF903F
:100D90000895DC011296ED91FC9113970994FC01E2
:100DA000638182810C9448040E94EF0680916B015C
:100DB000089580936B010E94DF040E9436050C9415
:100DC000DA040C940D0DCF93C82F0E9422038111D9
:100DD00002C00E944A0D8C2FCF910C948B00809101
:100DE00099038130D9F08091910390919203A09161
:100DF0009303B0919403892B8A2B8B2B79F481E098
:100E000040919503509196036091970370919803D8
:100E1000452B462B472B19F480E0089581E0089577
:100E200010929903109295031092960310929703D3
:100E300010929803109291031092920310929303D0
:100E40001092940380918D0390918E03A0918F0353
:100E5000B091900380939A0390939B03A0939C037B
:100E6000B0939D0308950E944D0D80919A03909137
:100E70009B03A0919C03B0919D030196A11DB11D00
:100E800080939A0390939B03A0939C03B0939D033C
:100E90008091950390919603A0919703B091980348
:100EA0000196A11DB11D8093950390939603A09385
:100EB0009703B093980308958091950390919603BA
:100EC000A0919703B09198030097A105B10569F12E
:100ED00040919A0350919B0360919C0370919D03F4
:100EE000415051096109710940939A0350939B0342
:100EF00060939C0370939D030197A109B1098093AE
:100F0000950390939603A0939703B09398038091D1
:100F10009A0390919B03A0919C03B0919D03892B10
:100F20008A2B8B2B11F40C944B0D08958091950313
:100F300090919603A0919703B0919803892B8A2BE7
:100F40008B2B89F48091910390919203A09193034C
:100F5000B0919403892B8A2B8B2B29F40E944D0D81
:100F600081E080939903089580919903882321F06B
:100F7000109299030C944B0D08950E94510D80918D
:100F80009A0390919B03A0919C03B0919D030196BD
:100F9000A11DB11D80939A0390939B03A0939C0382
:100FA000B0939D038091910390919203A09193033C
:100FB000B09194030196A11DB11D8093910390936C
:100FC0009203A0939303B0939403089580919103A7
:100FD00090919203A0919303B09194030097A1057F
:100FE000B10569F140919A0350919B0360919C0374
:100FF00070919D03415051096109710940939A0311
:1010000050939B0360939C0370939D030197A109E8
:10101000B1098093910390939203A0939303B093AB
:10102000940380919A0390919B03A0919C03B091AB
:101030009D03892B8A2B8B2B11F40C944F0D089553
:101040000E94EF06882311F083E1089580E008955F
:10105000CF93C82F0E94EF068C2F0E940704C82F41
:101060008091BC0181110E94AE048C2FCF91089514
:10107000CF930E94EF06882311F0C3E101C0C0E0C6
:10108000E091AF01F091B0018281815082830E9492
:10109000E00381E08093BB010E9478048C2FCF9104
:1010A0000895CF93C82F0E94EF06E091AF01F09111
:1010B000B0018281815082838C2F0E940704C82F47
:1010C000811108C00E94E00381E08093BB010E946F
:1010D000780407C0E091AF01F091B00182818F5F89
:1010E00082838C2FCF910895CF930E94EF0688239F
:1010F00011F0C3E101C0C0E08091B3010E94680318
:101100000E94AE048091B3019091B401A091B50109
:10111000B091B6014091B7015091B8016091B90109
:101120007091BA0184179507A607B70711F40E94BA
:101130003B038C2FCF910895CF93DF93EC010E9456
:10114000EF06882311F083E101C080E04091B301F4
:101150005091B4016091B5017091B6011416150655
:101160001606170614F0488303C090910102988375
:10117000DF91CF9108950F931F93CF93C82F8B01C9
:101180000E94EF06882311F083E101C080E0EC2F7C
:10119000EE0FFF0BEA5DFC4F0190F081E02D948192
:1011A0009370F8019083CF911F910F910895880F4C
:1011B000990BFC01EA5DFC4FA081B181ED91FC919E
:1011C0001197309769F01D921C9220910102938132
:1011D0008481228314821382E92FF82F3097B9F784
:1011E0000895CF93C82F0E94EF06882311F083E162
:1011F00001C080E0EC2FF0E0EE0FFF1FE65BFC4F3C
:10120000A081B1819091B30112969C931297E091C5
:10121000AF01F091B0012081318114963C932E935F
:101220001397B183A083938111969C9311972C916E
:1012300093819595921774F4022E000C330BD9010B
:10124000A056BC4F9C9191509C93220F331F9170DC
:10125000292B2383CF910895CF93DF93C82F0E942A
:10126000EF06882311F0D3E101C0D0E0EC2FF0E0CD
:10127000EE0FFF1FE65BFC4F0190F081E02DA09187
:10128000AF01B091B001818113968C931397838144
:1012900094818D939C9314821382809101028283A6
:1012A0000E94AE048D2FDF91CF910895CF93DF93ED
:1012B000C82FD62F0E94EF066D2F8C2F0E94480456
:1012C000C82F811105C08091BC0181110E94AE041C
:1012D0008C2FDF91CF910895CF93C82F0E94EF06F6
:1012E000882311F083E101C080E0E091B301EE0FAB
:1012F000FF0BEC5DFC4F0190F081E02DC0959081DB
:10130000C923C083CF9108950F931F93CF93C82F04
:101310008B010E94EF06882311F083E101C080E079
:10132000EC2FEE0FFF0BEC5DFC4F0190F081E02DF8
:101330009081F8019083CF911F910F9108950F93A1
:101340001F93CF93DF93D82FE091B301F091B401B5
:10135000EE0FFF1FEC5DFC4F008111810E94EF0634
:10136000882311F0C3E101C0C0E0F801D18380817E
:101370008D2311F40E94C8048C2FDF91CF911F910F
:101380000F910895DC01ED91FC9184819581DC0140
:10139000ED91FC9109941F93CF93DF93182FEB01EC
:1013A0000E94EF06882311F083E101C080E0E12F65
:1013B000F0E0EE0FFF1FE45FFC4F0190F081E02DA5
:1013C0000190F081E02D0190F081E02D408151816C
:1013D000628173814C835D836E837F8344815581F9
:1013E00066817781488359836A837B8340855185F1
:1013F00062857385488759876A877B87DF91CF919C
:101400001F9108958F929F92AF92BF92CF92DF92D9
:10141000EF92FF920F931F93CF93C82F8B010E94DF
:10142000EF06882311F083E101C080E0EC2FF0E0AB
:10143000EE0FFF1FE45FFC4F0190F081E02D9685D9
:10144000913029F542855385648575850190F08139
:10145000E02D0190F081E02DC088D188E288F388EA
:101460004C155D056E057F0540F484809580A6804F
:10147000B780480D591D6A1D7B1D4C195D096E0909
:101480007F09F801408351836283738301C085E043
:10149000CF911F910F91FF90EF90DF90CF90BF9071
:1014A000AF909F908F9008958F929F92AF92BF922E
:1014B000CF92DF92EF92FF920F931F93CF93DF9320
:1014C000D82F4A015B01680179010E94EF06882349
:1014D00011F0C3E101C0C0E0ED2FF0E0EE0FFF1FFF
:1014E000E45FFC4F0190F081E02D8685811130C0D2
:1014F000A081B1810D90BC91A02D50964D915D9130
:101500006D917C915397480D591D6A1D7B1D149652
:101510008D919D910D90BC91A02D84179507A607E4
:10152000B70740F4481B590B6A0B7B0B415051091C
:10153000610971094287538764877587C682D7829C
:10154000E086F18681E08687CF010E943A0501C0DE
:10155000C7E08C2FDF91CF911F910F91FF90EF90FB
:10156000DF90CF90BF90AF909F908F9008958F9213
:101570009F92AF92BF92CF92DF92EF92FF920F9322
:101580001F93CF93DF93C82F4A015B016801790154
:101590000E94EF06882311F0D3E101C0D0E0EC2FC8
:1015A000F0E0EE0FFF1FE45FFC4F0190F081E02DB3
:1015B000868581110EC082869386A486B586C682F2
:1015C000D782E086F18681E08687CF010E943A05C6
:1015D00001C0D7E08D2FDF91CF911F910F91FF9028
:1015E000EF90DF90CF90BF90AF909F908F90089535
:1015F0000F931F93CF93DF93C82F0E94EF0688238A
:1016000011F0D3E101C0D0E0EC2FF0E0EE0FFF1FAE
:10161000E45FFC4F00811181F8018685813031F44F
:10162000C8010E94C905F801168601C0D5E08D2FBA
:10163000DF91CF911F910F91089561E08091760124
:101640000E940F0C60E0809176010C944B0CD090BE
:101650004C03D0914D0385E0E82EF12CC0914E0350
:1016600010929F0300E010E0980144EA5EEA62E015
:1016700070E08D2D0E94EB0080919E030E94880BEC
:1016800080919F038823C1F300E010E0980148EEA9
:1016900051E060E070E08D2F0E94EB0080919E038E
:1016A00090E00196B7010E94BA0D80939E038C2FA3
:1016B0000E94DF008C2F0E94D700D2CF1F93CF93C0
:1016C000DF93C82F162FD0914E036C2F6170812F9E
:1016D0000E944B0C8D2F0E94DF008D2F0E94D7009F
:1016E000C69599F7DF91CF911F9108951F93CF93DE
:1016F000DF93D82F162FC42FCC2331F0612F8D2FDD
:101700000E945E0BC150F8CFDF91CF911F910895D9
:101710000F931F93CF93DF93C82F02E610E020E0D2
:1017200030E042E650E060E070E080914D030E94BE
:10173000EB00EC2FF0E0EE0FFF1FE459FE4FC081ED
:10174000D18180919F0381112CC0E991EE2319F181
:10175000E03211F444E01AC0EF710E2E000CFF0BC2
:10176000EE0FFF1FEB58FE4F008111816091760153
:10177000802F81700E945E0B80919F038111E1CFC9
:10178000169507950130110589F742E060917601C1
:101790000E94760BD6CF44E06091760180E00E94F3
:1017A000760B80914D03DF91CF911F910F910C9497
:1017B000F30081E080939F0360E0809176010C94B8
:1017C0004B0C80EE91E00C9434010895833081F04D
:1017D00028F4813099F08230A1F008958730A9F083
:1017E0008830B9F08430D1F4809180008F7D03C0BF
:1017F000809180008F7780938000089584B58F77E3
:1018000002C084B58F7D84BD08958091B0008F772C
:1018100003C08091B0008F7D8093B0000895CF9376
:10182000DF9390E0FC01E458FF4F2491FC01E05766
:10183000FF4F8491882361F190E0880F991FFC018C
:10184000E255FF4FC591D491FC01EC55FF4FA59196
:10185000B491611109C09FB7F894888120958223C3
:101860008883EC912E230BC0623061F49FB7F8940B
:101870008881322F309583238883EC912E2B2C93F3
:101880009FBF06C08FB7F894E8812E2B28838FBFA7
:10189000DF91CF9108951F93CF93DF93282F30E0EE
:1018A000F901E859FF4F8491F901E458FF4FD491B1
:1018B000F901E057FF4FC491CC23C1F0162F8111DD
:1018C0000E94E60BEC2FF0E0EE0FFF1FEC55FF4FF0
:1018D000A591B4919FB7F894111104C08C91D09543
:1018E000D82302C0EC91DE2BDC939FBFDF91CF9118
:1018F0001F9108951F920F920FB60F9211242F93EC
:101900003F934F935F936F937F938F939F93AF9387
:10191000BF93EF93FF938091AC039091AD03A0919F
:10192000AE03B091AF033091AB0323E0230F2D370B
:1019300020F40196A11DB11D05C026E8230F0296D3
:10194000A11DB11D2093AB038093AC039093AD0315
:10195000A093AE03B093AF038091B0039091B10315
:10196000A091B203B091B3030196A11DB11D809364
:10197000B0039093B103A093B203B093B3030E945A
:10198000E10BFF91EF91BF91AF919F918F917F916B
:101990006F915F914F913F912F910F900FBE0F90DC
:1019A0001F90189584B5826084BD84B5816084BD24
:1019B00085B5826085BD85B5816085BDEEE6F0E0C8
:1019C000808181608083E1E8F0E010828081826024
:1019D0008083808181608083E0E8F0E080818160A5
:1019E0008083E1EBF0E0808184608083E0EBF0E0D5
:1019F000808181608083EAE7F0E080818460808379
:101A00008081826080838081816080838081806822
:101A100080831092C1000895FFCFFFCFCF93DF9353
:101A2000880F990BFC01E65DFC4FC081D181AC8130
:101A3000BD8111978A819B81A80FB91F2D85CD018A
:101A40000197FD013297223019F42BEA30E002C0F1
:101A500027EC30E02C93DC013C939E818F819083B6
:101A6000DF018E93CF0107971E928A179B07E1F73C
:101A700080E8DF0118978C93CF0144971E928A1754
:101A80009B07E1F7A881B9817597ED93FC93DF91EE
:101A9000CF910895089578940895F89408957894CE
:101AA0000895F894089508950E94D20C0E94530D51
:101AB0000E94E50B0E941D0B8091B4030E94E30677
:101AC00080E090E00895809152038093B4030895DC
:101AD00008951F920F920FB60F9211242F933F93E8
:101AE0004F935F936F937F938F939F93AF93BF9326
:101AF000EF93FF93E091FD01F091FE010995FF91B5
:101B0000EF91BF91AF919F918F917F916F915F9175
:101B10004F913F912F910F900FBE0F901F901895EE
:101B20001F920F920FB60F9211242F933F934F9352
:101B30005F936F937F938F939F93AF93BF93EF9335
:101B4000FF93E091FF01F09100020995FF91EF9161
:101B5000BF91AF919F918F917F916F915F914F91C5
:101B60003F912F910F900FBE0F901F901895F894F2
:101B70000C94E80D97FB072E16F4009407D077FD20
:101B800009D00E94CE0D07FC05D03EF490958195BA
:101B90009F4F0895709561957F4F0895AA1BBB1BB9
:101BA00051E107C0AA1FBB1FA617B70710F0A61B5D
:101BB000B70B881F991F5A95A9F780959095BC017E
:101BC000CD010895EE0FFF1F0590F491E02D0994CB
:041BD000F894FFCFB7
:101BD4000000000000000000000000000000000001
:101BE40000000000000000000000000000000000F1
:101BF40000000000000000000000000000000000E1
:101C040000000000000000000000000000000000D0
:101C140000000000000000000000000000000000C0
:101C240000000000000000000000000000000000B0
:101C34000000000000000000020000FF0202390260
:101C44007502B602D602075D005705D71557010580
:101C5400007505770555011500DD5DD7055D057730
:101C64000157007717DD15775D5D01550017007585
:101C740001D505DD055717D75D771500003C030036
:101C840000A603FFFFFFFFFFFFFFFF00001003009C
:101C94000000000000000000000000001A03000023
:101CA400000000000000000000000000000001042B
:101CB40001000000FFFFFF00010000000000000021
:101CC40000000000000000000200FF0000680D6832
:101CD4000DFF41204645415448455220494E205469
:101CE40048452048414E44204953204245545445D8
:101CF40052205448414E2041204249524420494EEA
:101D0400205448452041495200412053484F5254E1
:101D14002050454E43494C20495320555355414C7E
:101D24004C5920424554544552205448414E204178
:101D3400204C4F4E47204D454D4F525920414E594E
:101D4400204441590041434345505420534F4D458D
:101D54005448494E47205448415420594F55204334
:101D6400414E4E4F54204348414E474520414E4436
:101D740020594F552057494C4C204645454C20424C
:101D8400455454455200414456454E5455524520FD
:101D940043414E204245205245414C204841505039
:101DA400494E45535300414C4C2054484520454628
:101DB400464F525420594F5520415245204D414BD6
:101DC400494E472057494C4C20554C54494D415499
:101DD400454C5920504159204F464600CC01BD0185
:101DE400E001C2091603C906D90BE001C2092003A8
:101DF400CF060001A403DB01A6032E033C03B503B5
:101E0400B7035000270B6801000101010F041104FE
:101E140050000C0D000001000100F8010100010058
:101E2400000100E607B407BD079607230533071032
:101E3400055C0774082C09E106560928086C095149
:101E44000884099C089F09D906CB09D406020AF81C
:0C1E54000A540AF108B70ABB083808005D
:00000001FF
