:100000000C9478000C94E20E0C94090F0C94A00050
:100010000C94A0000C94A0000C94A0000C94A000E0
:100020000C94A0000C94A0000C94A0000C94A000D0
:100030000C94A0000C94A0000C94A0000C94A000C0
:100040000C94E70D0C94A0000C9433100C946510E4
:100050000C94A0000C94A0000C94A0000C94A000A0
:100060000C94A0000C94A000C50CCA0CCF0CD30CAF
:10007000D80CDD0CE20CE70CEB0CF00CF50CFA0CD8
:10008000FF0C040D090D0E0D130D180D1D0D220D85
:10009000270D2C0D310D360D3B0D400D00000008D5
:1000A000000201000003040700000000000000003F
:1000B00001020408102040800102040810200102FF
:1000C00004081020040404040404040402020202CC
:1000D00002020303030303030000000025002800BD
:1000E0002B0000000000240027002A00DC0E8B10EB
:1000F00011241FBECFEFD8E0DEBFCDBF13E0A0E0DC
:10010000B1E0E0E8F4E202C005900D92AE3CB10728
:10011000D9F726E0AEECB3E001C01D92A73FB207CD
:10012000E1F710E0C8E7D0E004C02197FE010E948B
:100130002412C637D107C9F70E94CD0E0C94EB11DB
:100140000C940000E4E10E9457010895E2E10E944E
:1001500057010895EAE00E9457010895E1E00E94E6
:1001600057010895E3E00E9457010895E7E00E94D7
:1001700057010895E5E00E9457010895E0E00E94CC
:1001800057010895E2E00E9457010895E4E00E94BB
:1001900057010895ECE00E9457010895EBE10E9499
:1001A00057010895EEE00E9457010895E8E00E948B
:1001B00057010895E0E10E9457010895EAE10E9485
:1001C00057010895E6E00E9457010895E8E10E9472
:1001D00057010895E9E00E9457010895EBE00E945D
:1001E00057010895EDE00E9457010895EFE00E9445
:1001F00057010895E1E10E9457010895E3E10E944B
:1002000057010895E5E10E9457010895E7E10E9432
:1002100057010895E9E10E9457010895E6E10E941F
:100220005701089521968A929A92AA92BA92CA92F6
:10023000DA92EA92FA920A931A932197E0916D0169
:10024000F0916E010080F181E02DC083D18308958B
:10025000C0916F01D0917001E881F981C081D18195
:10026000219619910991F990E990D990C990B99086
:10027000A99099908990219708952F903F90E7E653
:10028000F1E0CDB7DEB7EDBFFEBF3F922F920895EC
:100290002F903F90CDBFDEBF3F922F920895E0E8B0
:1002A0000E9457010895E0E40E94570108952F929B
:1002B0003F924F925F926F927F922FB62F92CF9381
:1002C000DF937E2EF894E0910001EF5FE093000150
:1002D000E13011F40E943D01E0E0E0937D01E72D63
:1002E000E07849F00E942506F0917E01F17071F0EE
:1002F0000E94C8040BC0E72DEC3140F4EE0FF0E093
:10030000EB58FC4F0190F081E02D0995F0917D01B3
:10031000EF2FE17059F0F27011F00E9412018F93EB
:100320008F2F0E94BA038F910E9428012091000113
:10033000215020930001222311F40E944801DF91F3
:10034000CF912F902FBE7F906F905F904F903F90F6
:100350002F900895CF92DF92EF92FF920F931F9309
:10036000DC01EC91DB012C918E2F8170C82E880F5F
:10037000DD08EE08FF088E2F8F70082E000C990BF9
:10038000AA0BBB0BB695A79597958795DC01AE5147
:10039000BC4F8C91C81AD108E108F108EE70422FC9
:1003A0004170042E000C550B660B770B822F8F705B
:1003B000082E000C990BAA0BBB0BB695A795979529
:1003C0008795DC01AE51BC4F8C91481B51096109E6
:1003D0007109822F8E7097018601017011272227E3
:1003E00033270E2B4170552766277727482B81E04E
:1003F00090E0041715072607370710F080E090E01B
:100400001F910F91FF90EF90DF90CF9008958F9202
:100410009F92AF92BF92EF92FF920F931F93CF9351
:10042000DF937C014A015B01B694A794979487946B
:100430004230510561057105E0F0440F551F8701F9
:10044000040F151FE401CC0FDD1FCE0DDF1DB80119
:10045000CE010E94AA01892B61F0F801908181816F
:10046000288139813183208398838983B501A40150
:10047000DBCFDF91CF911F910F91FF90EF90BF9055
:10048000AF909F908F9008954F925F926F927F925E
:100490008F929F92AF92BF92CF92DF92EF92FF9294
:1004A0000F931F93CF93DF9300D000D000D0CDB730
:1004B000DEB78C016A017B01DC018C91282F880F4B
:1004C000330B440B550B29833A834B835C834601E2
:1004D0005701880C991CAA1CBB1C29813A814B81AD
:1004E0005C81281539054A055B0508F442C02401E2
:1004F00035013FEF431A530A630A730A89819A81CF
:10050000AB81BC8184159505A605B70580F0B201C5
:10051000660F771F600F711FC401880F991F800F2E
:10052000911F0E94AA01892B11F05301420134014D
:10053000660C771C600E711ECC0CDD1CD801AC0D56
:10054000BD1DBE83AD83B301CD010E94AA01892BDD
:1005500081F0ED81FE8190818181D3012D913C91CB
:100560001197318320839C9311968C9375016401BC
:10057000AECF26960FB6F894DEBF0FBECDBFDF918B
:10058000CF911F910F91FF90EF90DF90CF90BF9090
:10059000AF909F908F907F906F905F904F90089555
:1005A000EBE9F5E040814F5F4083042E000C550BD2
:1005B000660B770BE82FEE0FFF0BEB5CFC4F019007
:1005C000F081E02D2385022E000C330BF901EE5152
:1005D000FC4F908191509083FA01EE0FFF1FE5567A
:1005E000FA4F220F331F9170292B208381838BE9CF
:1005F00095E00C940702EBE9F5E040814F5F408302
:10060000042E000C550B660B770BE82FEE0FFF0B3B
:10061000E15DFC4F0190F081E02D9381FA01EE0F36
:10062000FF1FE556FA4F908381838BE995E00C9488
:100630000702CF93DF93ABE9B5E0EC918FEF8E0F1C
:100640008C931296DC9112971396CC911397EE0F20
:10065000FF0BE556FA4F8081918113969C938E9300
:10066000129741E050E060E070E0CD010E9444024A
:100670008D2F9C2FDF91CF910895809175019091DE
:100680007601A0917701B09178018F3F2FEF92070B
:10069000A207B20731F00297A105B10524F481E069
:1006A000089580E0089582E00895880F990BFC0179
:1006B000EB5CFC4F0190F081E02D0084F185E02D92
:1006C0003097F9F0228121111CC021E02283DC0146
:1006D000A15DBC4F0D90BC91A02D13968C911397EA
:1006E00081838081082E000C990BFC01EE51FC4F98
:1006F000208121502083880F991F2170822B13960F
:100700008C930895880F990BFC01EB5CFC4F0190D2
:10071000F081E02D0084F185E02D309761F0228199
:10072000213049F412822181FC01E15DFC4F0190EE
:10073000F081E02D238308958091790190917A01D1
:10074000A0917B01B0917C0140917501509176019F
:100750006091770170917801481759076A077B0704
:1007600041F0E0917301F091740121E024830C9435
:10077000FB020895CF93DF93882391F0C0916D0120
:10078000D0916E01E0917101F0917201848183300A
:1007900049F081E08483809175010E94FB0202C0D0
:1007A000C0E0D0E0E0917301F0917401F093720128
:1007B000E093710180916F019091700190936E01AF
:1007C00080936D018091790130917A0120917B01B4
:1007D00090917C018093750130937601209377018D
:1007E0009093780192E094830E945503CE01DF91AB
:1007F000CF910895809175010E948203E09171016B
:10080000F091720182818823D1F085E08483809108
:10081000750190917601A0917701B09178018230B5
:100820009105A105B10564F4880F991FFC01E55DF0
:10083000FC4F0190F081E02D118210820895148206
:100840000895CF93DF93282F220F330BF901E15D39
:10085000FC4FC081D1819A81F901EB5CFC4F019082
:10086000F081E02D44859417C0F491110FC095E0FC
:100870009C83823044F4F901E55DFC4F0190F081E6
:10088000E02D1182108291E090937E010E94D002AF
:100890008A818F5F8A8380E001C084E0DF91CF91FD
:1008A0000895CF93E82FEE0FFF0BE15DFC4F019011
:1008B000F081E02DC1E0C4830E94D002C0937E018C
:1008C000CF910895282F220F330BF901E15DFC4FE2
:1008D000A081B18114969C9114979923A9F0F901F4
:1008E000E55DFC4F0190F081E02D9081962B908387
:1008F0009181692339F0118214969C91933011F4FF
:100900000E94510480E0089587E00895E82FEE0FDB
:10091000FF0BE15DFC4F0190F081E02D1182108210
:100920000C94870E1F93CF93DF930E941903182F07
:10093000892F492F092E000C550B660B770B40931E
:10094000790150937A0160937B0170937C01292F88
:10095000220F330BF901E15DFC4FC081D181D093AF
:100960007401C0937301F901EB5CFC4F208131816C
:100970003093700120936F019C81953019F40E948F
:1009800086041B8310927E01DF91CF911F91089501
:10099000E0917901F0917A01EE0FFF1FE15DFC4FCC
:1009A0000190F081E02D90919D058381891734F4A9
:1009B0000E949C030E94920483E001C080E0809327
:1009C0007D0108951F93CF93DF93CDE6D1E0EC81B5
:1009D000FD8113E0148388850E948203188BDF91C8
:1009E000CF911F910C94920481E080937D010C942F
:1009F0009204EF92FF920F931F93CF93DF93C1E086
:100A0000D0E001C0CC0F8A95EAF7FC2E82E00E946C
:100A10002104809172038C2319F080E00E9421044C
:100A200080917303C82319F081E00E942104CFE66E
:100A3000D3E007E013E0EE24E39489918F2139F0AD
:100A4000F80180819181FC01E6860E945E050E5FBF
:100A50001F4FF3E0C237DF0781F7DF91CF911F917E
:100A60000F91FF90EF9008950E94130781110E944B
:100A70003407E0917101F091720180819181892B9D
:100A800021F0809175010E94FB080C945C080E9483
:100A9000130781110E943407E0917101F0917201F6
:100AA00080819181892B21F0809175010E94FB0842
:100AB0000C94440881E08093CE030895AF92BF92D6
:100AC000CF92DF92EF92FF920F931F93CF93DF931A
:100AD000FC01A081B181AD90BC90E501AC89BD89DC
:100AE000109739F0428553856485758530E020E0A4
:100AF00017C0D50155969C938E93549757969C9307
:100B00008E93569715821482138212825BC01296BE
:100B10008D919C9113973A2F2B2F009779F0DC0140
:100B20001A96CD90DD90ED90FC901D974C155D05CB
:100B30006E057F0560F7CD01A32FB22F93838283CB
:100B4000B583A483009719F0EC01FD83EC83109723
:100B500029F01396FC93EE93129705C0D501559694
:100B6000FC93EE935497E501AE89BF891A968D9157
:100B70009D910D90BC91A02D088919892A893B89E6
:100B800080179107A207B30780F4041715072607FB
:100B9000370728F0481759076A077B0798F4D501EB
:100BA0005796FC93EE9356970DC00417150726072A
:100BB000370740F4481759076A077B0718F4E5011F
:100BC000FF8BEE8BDF91CF911F910F91FF90EF90F4
:100BD000DF90CF90BF90AF900895CF93DF93DC016B
:100BE000ED91FC9111970190F081E02D8489958918
:100BF0001296CD91DC911397A817B90711F4D58BF4
:100C0000C48B86899789A817B90711F4D78BC68B2F
:100C1000209731F014968D919C9115979D838C832C
:100C200014960D90BC91A02D109721F01396DC9393
:100C3000CE93129786899789892B21F48489958987
:100C4000978B868BDF91CF910895EF92FF920F9350
:100C50001F93CF93DF93FC018091CE03882309F487
:100C6000B5C084859585A685B7850196A11DB11D62
:100C700084879587A687B787408151816281738178
:100C800084179507A607B70709F0A0C040895189C6
:100C9000628973894F5F5F4F6F4F7F4F848195816A
:100CA000A681B78184179507A607B70718F440E017
:100CB00050E0BA01408B518B628B738B1486158682
:100CC00016861786C689D789209709F47FC08A853A
:100CD0009B85AC85BD85481759076A077B0709F0D6
:100CE00075C0CE01DC011296ED90FC901397E114D3
:100CF000F10471F0D7011A960D911D912D913C913F
:100D00001D97401751076207730711F4C701EACF17
:100D10002C813D812115310529F0D9011396FC92D2
:100D2000EE921297E114F10429F0D70115963C9345
:100D30002E93149724893589C217D30711F4F58AA5
:100D4000E48AE114F10419F0F78AE68A04C02489E0
:100D50003589378B268B8F01FC0113821282EA8042
:100D6000FB80E881F9810280F381E02DCE010995B5
:100D70004E815F8168857985411551056105710551
:100D800009F18A859B85AC85BD85840F951FA61FBB
:100D9000B71FF8014481558166817781481759074B
:100DA0006A077B0738F4841B950BA60BB70B0197DA
:100DB000A109B1098A879B87AC87BD87CE010E94B4
:100DC0005E0501C01E86E701209749F6DF91CF91AD
:100DD0001F910F91FF90EF900895DC011296ED9115
:100DE000FC9113970994FC01638182810C94620445
:100DF0000E94130780916B01089580936B010E94FC
:100E0000F9040E945A050C94F4040C94860ECF93B6
:100E1000C82F0E943D03811102C00E94C30E8C2F77
:100E2000CF910C94A6008091DB038130D9F08091A2
:100E3000D3039091D403A091D503B091D603892B0D
:100E40008A2B8B2B79F481E04091D7035091D80302
:100E50006091D9037091DA03452B462B472B19F487
:100E600080E0089581E008951092DB031092D7038B
:100E70001092D8031092D9031092DA031092D30380
:100E80001092D4031092D5031092D6038091CF0311
:100E90009091D003A091D103B091D2038093DC0351
:100EA0009093DD03A093DE03B093DF0308950E94C7
:100EB000C60E8091DC039091DD03A091DE03B0911A
:100EC000DF030196A11DB11D8093DC039093DD0328
:100ED000A093DE03B093DF038091D7039091D803F2
:100EE000A091D903B091DA030196A11DB11D8093A1
:100EF000D7039093D803A093D903B093DA0308954E
:100F00008091D7039091D803A091D903B091DA03CF
:100F10000097A105B10569F14091DC035091DD0313
:100F20006091DE037091DF0341505109610971093D
:100F30004093DC035093DD036093DE037093DF0383
:100F40000197A109B1098093D7039093D803A09387
:100F5000D903B093DA038091DC039091DD03A09173
:100F6000DE03B091DF03892B8A2B8B2B11F40C94B9
:100F7000C40E08958091D7039091D803A091D9030E
:100F8000B091DA03892B8A2B8B2B89F48091D303C0
:100F90009091D403A091D503B091D603892B8A2BCD
:100FA0008B2B29F40E94C60E81E08093DB03089509
:100FB0008091DB03882321F01092DB030C94C40E94
:100FC00008950E94CA0E8091DC039091DD03A091E8
:100FD000DE03B091DF030196A11DB11D8093DC03F8
:100FE0009093DD03A093DE03B093DF038091D303DE
:100FF0009091D403A091D503B091D6030196A11D81
:10100000B11D8093D3039093D403A093D503B093E1
:10101000D60308958091D3039091D403A091D50372
:10102000B091D6030097A105B10569F14091DC03A9
:101030005091DD036091DE037091DF03415051094F
:10104000610971094093DC035093DD036093DE0373
:101050007093DF030197A109B1098093D3039093A3
:10106000D403A093D503B093D6038091DC03909171
:10107000DD03A091DE03B091DF03892B8A2B8B2B3C
:1010800011F40C94C80E08950E941307882311F0E0
:1010900083E1089580E00895CF93C82F0E9413073D
:1010A0008C2F0E942104C82F80917E0181110E9403
:1010B000C8048C2FCF910895CF930E9413078823E3
:1010C00011F0C3E101C0C0E0E0917101F091720143
:1010D0008281815082830E94FA0381E080937D01A6
:1010E0000E9492048C2FCF910895CF93C82F0E9415
:1010F0001307E0917101F091720182818150828326
:101100008C2F0E942104C82F811108C00E94FA036D
:1011100081E080937D010E94920407C0E0917101FB
:10112000F091720182818F5F82838C2FCF9108951D
:10113000CF930E941307882311F0C3E101C0C0E0E0
:10114000809175010E9482030E94C80480917501FC
:1011500090917601A0917701B09178014091790149
:1011600050917A0160917B0170917C018417950701
:10117000A607B70711F40E9455038C2FCF9108954D
:10118000CF93DF93EC010E941307882311F083E1D2
:1011900001C080E040917501509176016091770126
:1011A00070917801423051056105710514F448834E
:1011B00003C09091D7019883DF91CF9108950F9349
:1011C0001F93CF93C82F8B010E941307882311F020
:1011D00083E101C080E0EC2FEE0FFF0BE15DFC4FDF
:1011E0000190F081E02D94819370F8019083CF916C
:1011F0001F910F910895880F990BFC01E15DFC4F41
:10120000A081B181ED91FC911197309769F01D9209
:101210001C922091D70193818481228314821382AE
:10122000E92FF82F3097B9F70895CF93C82F0E9470
:101230001307882311F083E101C080E0EC2FF0E078
:10124000EE0FFF1FEB59FC4FA081B181909175010A
:1012500012969C931297E0917101F0917201208196
:10126000318114963C932E931397B183A08393817D
:1012700011969C9311972C9193819595921774F4E4
:10128000022E000C330BD901AE51BC4F9C919150F2
:101290009C93220F331F9170292B2383CF910895A4
:1012A000CF93DF93C82F0E941307882311F0D3E157
:1012B00001C0D0E0EC2FF0E0EE0FFF1FEB59FC4F28
:1012C0000190F081E02DA0917101B09172018181B6
:1012D00013968C931397838194818D939C9314829E
:1012E00013828091D70182830E94C8048D2FDF91E1
:1012F000CF910895CF93DF93C82FD62F0E94130765
:101300006D2F8C2F0E946204C82F811105C080911F
:101310007E0181110E94C8048C2FDF91CF91089526
:10132000CF93C82F0E941307882311F083E101C0D7
:1013300080E0E0917501EE0FFF0BE55DFC4F019041
:10134000F081E02DC0959081C923C083CF9108958D
:101350000F931F93CF93C82F8B010E9413078823ED
:1013600011F083E101C080E0EC2FEE0FFF0BE55D93
:10137000FC4F0190F081E02D9081F8019083CF9196
:101380001F910F9108950F931F93CF93DF93D82F41
:10139000E0917501F0917601EE0FFF1FE55DFC4FC6
:1013A000008111810E941307882311F0C3E101C05D
:1013B000C0E0F801D18380818D2311F40E94E20402
:1013C0008C2FDF91CF911F910F910895DC01ED914A
:1013D000FC9184819581DC01ED91FC9109941F932E
:1013E000CF93DF93182FEB010E941307882311F08E
:1013F00083E101C080E0E12FF0E0EE0FFF1FE95F25
:10140000FC4F0190F081E02D0190F081E02D0190E2
:10141000F081E02D40815181628173814C835D8335
:101420006E837F83448155816681778148835983A8
:101430006A837B8340855185628573854887598798
:101440006A877B87DF91CF911F9108958F929F923A
:10145000AF92BF92CF92DF92EF92FF920F931F93C2
:10146000CF93C82F8B010E941307882311F083E1CB
:1014700001C080E0EC2FF0E0EE0FFF1FE95FFC4FB2
:101480000190F081E02D9685913029F542855385B4
:10149000648575850190F081E02D0190F081E02D4B
:1014A000C088D188E288F3884C155D056E057F05FC
:1014B00040F484809580A680B780480D591D6A1D30
:1014C0007B1D4C195D096E097F09F801408351832A
:1014D0006283738301C085E0CF911F910F91FF90CC
:1014E000EF90DF90CF90BF90AF909F908F90089536
:1014F0008F929F92AF92BF92CF92DF92EF92FF9224
:101500000F931F93CF93DF93D82F4A015B0168019C
:1015100079010E941307882311F0C3E101C0C0E0E4
:10152000ED2FF0E0EE0FFF1FE95FFC4F0190F0811F
:10153000E02D8685811130C0A081B1810D90BC91D4
:10154000A02D50964D915D916D917C915397480DD2
:10155000591D6A1D7B1D14968D919D910D90BC9116
:10156000A02D84179507A607B70740F4481B590B11
:101570006A0B7B0B415051096109710942875387FE
:1015800064877587C682D782E086F18681E0868788
:10159000CF010E945E0501C0C7E08C2FDF91CF9183
:1015A0001F910F91FF90EF90DF90CF90BF90AF9081
:1015B0009F908F9008958F929F92AF92BF92CF92FB
:1015C000DF92EF92FF920F931F93CF93DF93C82F79
:1015D0004A015B01680179010E941307882311F019
:1015E000D3E101C0D0E0EC2FF0E0EE0FFF1FE95F88
:1015F000FC4F0190F081E02D868581110EC082861E
:101600009386A486B586C682D782E086F18681E07D
:101610008687CF010E945E0501C0D7E08D2FDF9144
:10162000CF911F910F91FF90EF90DF90CF90BF90DF
:10163000AF909F908F9008950F931F93CF93DF9358
:10164000C82F0E941307882311F0D3E101C0D0E016
:10165000EC2FF0E0EE0FFF1FE95FFC4F00811181DE
:10166000F8018685813031F4C8010E94ED05F8014A
:10167000168601C0D5E08D2FDF91CF911F910F917C
:10168000089526E040E052EC61E070E08AEF93E0DC
:101690000E94861161E080916C010E947C0D60E0E7
:1016A00080916C010E94B80D61E08DE00E947C0D7C
:1016B00061E08DE00C94B80D8090670330906A0370
:1016C000D0916C039090680385E0A82EB12CC09156
:1016D0006D031092E00300E010E0980140E355E74D
:1016E00060E070E0882D0E94060168ED71E08AEFED
:1016F00093E00E946F0F4AE050E06091E1038AEFAF
:1017000093E00E94D20F0E943F0E2B013C01832DDB
:101710000E94CA008D2F0E94FA000E943F0E6B01AA
:101720007C0166EE71E08AEF93E00E946F0FB701D3
:10173000A60144195509660977092AE030E08AEFC5
:1017400093E00E9421108D2F0E94F2008091E0030F
:10175000882359F200E010E0980144EF51E060E086
:1017600070E0892D0E9406018091E10390E00196CE
:10177000B5010E94EE118093E1038C2F0E94FA00C4
:101780008C2F0E94F200A5CF5F926F927F928F9272
:101790009F92AF92BF92CF92DF92EF92FF920F9300
:1017A0001F93CF93DF9300D000D0CDB7DEB7E09189
:1017B000E103F0E0EE0FFF1FE350FD4FA080B1808A
:1017C0004E0185E0880E911CD0906903CD2C5D2CD4
:1017D0008091E003811168C0F50181915F01882348
:1017E00009F462C0803299F404E610E020E030E0B1
:1017F00044E650E060E070E0852D0E94060144E080
:1018000060916C0180E00E94A20C852D4AC0BE014F
:101810006F5F7F4F0E94B40CCE0101967C013701AF
:10182000F7018081882339F18091E003811123C081
:1018300004E610E020E030E044E650E060E070E0D4
:101840008D2D0E940601FFEFEF1AFF0A60916C01D7
:10185000F30180810E948A0C8091E003811105C010
:1018600060916C0180E00E948A0C8D2D0E940E0117
:101870008E149F04A1F68091E0038111A9CF04E6A4
:1018800010E020E030E044E650E060E070E08C2DB5
:101890000E94060143E060916C0180E00E94A20C6E
:1018A0008C2D0E940E0194CF8091E003811116C00F
:1018B000F090690304E610E020E030E044E650E0F8
:1018C00060E070E08F2D0E94060144E060916C01A1
:1018D00080E00E94A20C8F2D0E940E0160916C038B
:1018E00080916B030E94EE000E94CE000F900F903B
:1018F0000F900F90DF91CF911F910F91FF90EF907C
:10190000DF90CF90BF90AF909F908F907F906F901F
:101910005F9008951F93CF93DF93C82F162FD09118
:101920006E036C2F6170812F0E94B80D8D2F0E9465
:10193000FA008D2F0E94F200C69599F7DF91CF91A2
:101940001F9108951F93CF93DF93D82F162FC42F85
:10195000CC2331F0612F8D2F0E948A0CC150F8CF1B
:10196000DF91CF911F910895DB01482F880F550B10
:10197000660B770BFA01E154F109EA31F10508F041
:1019800088C0EC5CFF4F0C94241241E057E060E00B
:1019900070E07AC047E051E061E071E075C047E077
:1019A00051E0BA0171C047E051E061E070E06CC005
:1019B00041E050E060E070E067C041E051E067E086
:1019C00071E062C047E057E061E070E05DC041E077
:1019D00051E0BA0159C041E051E060E070E054C00C
:1019E00041E057E067E077E04FC047E051E067E053
:1019F00070E04AC041E057E061E071E045C047E077
:101A000057E060E070E040C047E051E060E070E027
:101A10003BC047E057E067E070E036C041E057E088
:101A200067E071E031C047E057E061E077E02CC04B
:101A300041E057E061E070E027C041E051E061E043
:101A400070E022C047E050E060E070E01DC041E07F
:101A500051E067E070E018C041E051E061E077E0FC
:101A600013C041E057E067E070E00EC047E051E08E
:101A700061E077E009C047E051E067E077E004C04B
:101A800047E057E061E071E04D935D936D937C9387
:101A90001397089581E08093E003089586EB91E029
:101AA0000C944F010895833081F028F4813099F02F
:101AB0008230A1F008958730A9F08830B9F08430E1
:101AC000D1F4809180008F7D03C0809180008F775A
:101AD00080938000089584B58F7702C084B58F7D90
:101AE00084BD08958091B0008F7703C08091B000CD
:101AF0008F7D8093B0000895CF93DF9390E0FC0139
:101B0000E055FF4F2491FC01EC53FF4F8491882353
:101B100061F190E0880F991FFC01EE51FF4FC591D4
:101B2000D491FC01E852FF4FA591B491611109C015
:101B30009FB7F8948881209582238883EC912E2387
:101B40000BC0623061F49FB7F8948881322F3095D2
:101B500083238883EC912E2B2C939FBF06C08FB7D5
:101B6000F894E8812E2B28838FBFDF91CF910895C1
:101B70001F93CF93DF93282F30E0F901E456FF4FF6
:101B80008491F901E055FF4FD491F901EC53FF4FD7
:101B9000C491CC23C1F0162F81110E94530DEC2F5C
:101BA000F0E0EE0FFF1FE852FF4FA591B4919FB7F1
:101BB000F894111104C08C91D095D82302C0EC91F7
:101BC000DE2BDC939FBFDF91CF911F9108951F9271
:101BD0000F920FB60F9211242F933F934F935F9361
:101BE0006F937F938F939F93AF93BF93EF93FF93E5
:101BF0008091F1039091F203A091F303B091F4036B
:101C00003091F00323E0230F2D3720F40196A11D1E
:101C1000B11D05C026E8230F0296A11DB11D20931A
:101C2000F0038093F1039093F203A093F303B09336
:101C3000F4038091F5039091F603A091F703B0911E
:101C4000F8030196A11DB11D8093F5039093F6034F
:101C5000A093F703B093F8030E944E0DFF91EF910C
:101C6000BF91AF919F918F917F916F915F914F91B4
:101C70003F912F910F900FBE0F901F9018952FB787
:101C8000F8946091F1037091F2038091F3039091C5
:101C9000F4032FBF089584B5826084BD84B581604C
:101CA00084BD85B5826085BD85B5816085BDEEE664
:101CB000F0E0808181608083E1E8F0E01082808143
:101CC00082608083808181608083E0E8F0E08081B1
:101CD00081608083E1EBF0E0808184608083E0EBD1
:101CE000F0E0808181608083EAE7F0E080818460B9
:101CF0008083808182608083808181608083808115
:101D0000806880831092C1000895FFCFFFCFCF93EA
:101D1000DF93880F990BFC01EB5CFC4FC081D181F4
:101D2000AC81BD8111978A819B81A80FB91F2D8538
:101D3000CD010197FD013297223019F426EC30E0F5
:101D400002C022EE30E02C93DC013C939E818F8117
:101D50009083DF018E93CF0107971E928A179B070E
:101D6000E1F780E8DF0118978C93CF0144971E922A
:101D70008A179B07E1F7A881B9817597ED93FC93CA
:101D8000DF91CF910895089578940895F894089577
:101D900078940895F894089508950E944B0E0E9437
:101DA000CC0E0E94520D0E94410B8091F9030E94BB
:101DB000070780E090E00895809174038093F90311
:101DC000089508951F920F920FB60F9211242F932A
:101DD0003F934F935F936F937F938F939F93AF93B3
:101DE000BF93EF93FF93E091D301F091D401099554
:101DF000FF91EF91BF91AF919F918F917F916F91E3
:101E00005F914F913F912F910F900FBE0F901F90B8
:101E100018951F920F920FB60F9211242F933F9394
:101E20004F935F936F937F938F939F93AF93BF93E2
:101E3000EF93FF93E091D501F091D6010995FF91C1
:101E4000EF91BF91AF919F918F917F916F915F9132
:101E50004F913F912F910F900FBE0F901F901895AB
:101E6000CF92DF92EF92FF920F931F93CF93DF9366
:101E70006C017A018B01C0E0D0E0CE15DF0581F066
:101E8000D8016D918D01D601ED91FC910190F08109
:101E9000E02DC6010995892B11F02196EECF7E0128
:101EA000C701DF91CF911F910F91FF90EF90DF90CD
:101EB000CF9008956115710579F0FB010190002024
:101EC000E9F73197AF01461B570BDC01ED91FC910F
:101ED0000280F381E02D099480E090E008950C9455
:101EE0005A0FDC01ED91FC910190F081E02D0994F5
:101EF0006DEA73E00C945A0F8F929F92AF92BF924B
:101F0000EF92FF920F931F93CF93DF93CDB7DEB77E
:101F1000A1970FB6F894DEBF0FBECDBF7C01FA01CA
:101F2000CB0119A2223008F42AE08E010F5D1F4F69
:101F3000822E912CA12CB12CBF01A50194010E94ED
:101F40000212F901CA01015011096A3014F4605DEE
:101F500001C0695CD8016C93232B242B252B61F7DE
:101F6000B801C7010E945A0FA1960FB6F894DEBFC0
:101F70000FBECDBFDF91CF911F910F91FF90EF90DA
:101F8000BF90AF909F908F9008952115310541F437
:101F9000DC01ED91FC910190F081E02D642F09941A
:101FA0000C947C0F9A01462F50E060E070E00C9496
:101FB000C50FCF92DF92EF92FF920F931F93CF93B3
:101FC000DF932115310581F4DC01ED91FC91019045
:101FD000F081E02D642FDF91CF911F910F91FF9041
:101FE000EF90DF90CF9009942A30310501F577FF0B
:101FF0001DC06A017B01EC016DE20E94710F8C0132
:1020000044275527BA014C195D096E097F092AE05A
:10201000CE010E947C0F800F911FDF91CF911F9105
:102020000F91FF90EF90DF90CF9008952AE0DF911D
:10203000CF911F910F91FF90EF90DF90CF900C9474
:102040007C0F0F931F93CF93DF93EC010E94D90F66
:102050008C01CE010E94780F800F911FDF91CF91EC
:102060001F910F9108951F920F920FB60F92112496
:102070002F938F939F93EF93FF93E0910A04F09136
:102080000B048081E0911004F091110482FD12C0D4
:102090009081809113048F5F8F73209114048217B5
:1020A00051F0E0911304F0E0E650FC4F958F8093DF
:1020B000130401C08081FF91EF919F918F912F9127
:1020C0000F900FBE0F901F9018951F920F920FB692
:1020D0000F9211242F933F934F935F936F937F93AE
:1020E0008F939F93AF93BF93EF93FF938AEF93E008
:1020F0000E94F510FF91EF91BF91AF919F918F9149
:102100007F916F915F914F913F912F910F900FBEF3
:102110000F901F901895EAEFF3E01382128288EE79
:1021200093E0A0E0B0E084839583A683B78380EC3E
:1021300093E09183808385EC90E09587848784EC9D
:1021400090E09787868780EC90E0918B808B81EC84
:1021500090E0938B828B82EC90E0958B848B86EC65
:1021600090E0978B868B118E128E138E148E0895AD
:10217000FC01918D228D892F90E0805C9F4F821B06
:1021800091098F7399270895FC01918D828D98177D
:1021900031F0828DE80FF11D858D90E008958FEF6D
:1021A0009FEF0895FC01918D828D981761F0828DCB
:1021B000DF01A80FB11D5D968C91928D9F5F9F737B
:1021C000928F90E008958FEF9FEF0895FC01538D5B
:1021D000448D252F30E0842F90E0821B930B541701
:1021E00010F0CF96089501970895FC01848DDF01CA
:1021F000A80FB11DA35ABF4F2C91848D90E001967A
:102200008F739927848FA689B7892C93A089B18968
:102210008C91837080648C93938D848D981306C009
:102220000288F389E02D80818F7D80830895EF926D
:10223000FF920F931F93CF93DF93EC0181E0888F80
:102240009B8D8C8D981305C0E889F989808185FD67
:1022500026C0F62E0B8D10E00F5F1F4F0F73112756
:10226000E02E8C8DE8120CC00FB607FCFACFE8897F
:10227000F989808185FFF5CFCE010E94F510F1CF5D
:102280008B8DFE01E80FF11DE35AFF4FF0829FB7DF
:10229000F8940B8FEA89FB89808180620AC09FB71E
:1022A000F894EE89FF896083E889F98980818370D9
:1022B000806480839FBF81E090E0DF91CF911F9188
:1022C0000F91FF90EF900895CF93DF93EC01888DED
:1022D0008823C9F0EA89FB89808185FD05C0A8892A
:1022E000B9898C9186FD0FC00FB607FCF5CF8081B0
:1022F00085FFF2CFA889B9898C9185FFEDCFCE01FA
:102300000E94F510E7CFDF91CF910895CF92DF9231
:10231000EF92FF921F93CF93DF93EC016A017B0151
:10232000122FE889F98982E080834115514E6105B9
:102330007105B1F060E079E08DE390E0A7019601CE
:102340000E940212DA01C9010197A109B109B695EB
:10235000A795979587959C01211580E13807A8F0EE
:10236000E889F989108260E874E88EE190E0A701BD
:1023700096010E940212DA01C9010197A109B1096F
:10238000B695A795979587959C01EC85FD8530833B
:10239000EE85FF852083188EEC89FD891083EA89FC
:1023A000FB89808180618083EA89FB8980818860E4
:1023B0008083EA89FB89808180688083EA89FB8940
:1023C00080818F7D8083DF91CF911F91FF90EF906F
:1023D000DF90CF900895F8940C943E1297FB072E4F
:1023E00016F4009407D077FD09D00E942A1207FC4A
:1023F00005D03EF4909581959F4F08957095619515
:102400007F4F0895A1E21A2EAA1BBB1BFD010DC030
:10241000AA1FBB1FEE1FFF1FA217B307E407F50794
:1024200020F0A21BB30BE40BF50B661F771F881F70
:10243000991F1A9469F760957095809590959B0106
:10244000AC01BD01CF010895EE0FFF1F0590F4917F
:10245000E02D0994AA1BBB1B51E107C0AA1FBB1F9B
:10246000A617B70710F0A61BB70B881F991F5A9520
:10247000A9F780959095BC01CD010895F894FFCF00
:10248000000000000000000000000000000000004C
:10249000000000000000000000000000000000003C
:1024A000000000000000000000000000000000002C
:1024B000000000000000000000000000000000001C
:1024C000000000000000000000000000000000000C
:1024D00000000000000000000000000000000000FC
:1024E0000000000000000000030000FF070000578C
:1024F000030000EB03FFFFFFFFFFFFFFFF00000DE6
:1025000003000000000000000000000000001703AE
:102510000000000000000000000000000021030097
:1025200000000000000000000000000000000002A9
:1025300000000000010401000000FFFF0000010096
:102540000000000000000000000000000000030088
:10255000FF0000E10EE10EFF53656E64696E6720B7
:102560006D7367202300202D20456C6170736564B6
:102570003A200041204645415448455220494E20CA
:102580005448452048414E44204953204245545424
:102590004552205448414E2041204249524420494E
:1025A0004E205448452041495200412053484F5243
:1025B000542050454E43494C2049532055535541D2
:1025C0004C4C5920424554544552205448414E20C9
:1025D00041204C4F4E47204D454D4F525920414EC2
:1025E00059204441590041434345505420534F4DD5
:1025F000455448494E47205448415420594F55208E
:1026000043414E4E4F54204348414E474520414E92
:102610004420594F552057494C4C204645454C20A5
:1026200042455454455200414456454E5455524536
:102630002043414E204245205245414C20484150C4
:1026400050494E45535300414C4C20544845204579
:1026500046464F525420594F5520415245204D4136
:102660004B494E472057494C4C20554C54494D41FD
:1026700054454C5920504159204F464600F3012AF9
:10268000026602A702C7029D018E017F01B601E624
:10269000091303ED064A0DB601E6091D03F3060012
:1026A00002B601E6092703F3060101E903E703B1D6
:1026B00001AC01EB0349033B0357039704F7050003
:1026C00001C40B68010102010199049B0400015C33
:1026D0000B000000010101A505A7055000850E00B3
:1026E0000002000100CE010201000100040201000D
:1026F00000000100000A08D807E107BA074705579C
:1027000007340580079808500905077A094C089096
:10271000097508A809C008C309FD06EF09F80626CF
:102720000A1C0B780A1509DB0ADF085C080D0A0091
:102730006E616E00696E66006F76660000000000D4
:0E2740001711300FE6106411B810D210C4103B
:00000001FF
