:100000000C947D000C94E70E0C940E0F0C94A5003C
:100010000C94A5000C94A5000C94A5000C94A500CC
:100020000C94A5000C94A5000C94A5000C94A500BC
:100030000C94A5000C94A5000C94A5000C94A500AC
:100040000C94EC0D0C94A5000C94F00F0C94221061
:100050000C94A5000C94A5000C94A5000C94A5008C
:100060000C94A5000C94A500A50CAA0CAF0CB30C25
:10007000B80CBD0CC20CC70CCB0CD00CD50CDA0CD8
:10008000DF0CE40CE90CEE0CF30CF80CFD0C020D8B
:10009000070D0C0D110D160D1B0D200D0000000895
:1000A000000201000003040700000000000000003F
:1000B00001020408102040800102040810200102FF
:1000C00004081020040404040404040402020202CC
:1000D00002020303030303030000000023002600C1
:1000E000290000000000250028002B00000000006F
:1000F000240027002A00E10E481011241FBECFEF74
:10010000D8E0DEBFCDBF13E0A0E0B1E0EAEFF3E25C
:1001100002C005900D92A43AB107D9F726E0A4EAEF
:10012000B3E001C01D92A93CB207E1F710E0CDE7B2
:10013000D0E004C02197FE010E94E111CB37D10726
:10014000C9F70E94D20E0C94A8110C940000E4E1AF
:100150000E945C010895E2E10E945C010895EAE0DA
:100160000E945C010895E1E00E945C010895E3E0D3
:100170000E945C010895E7E00E945C010895E5E0BB
:100180000E945C010895E0E00E945C010895E2E0B5
:100190000E945C010895E4E00E945C010895ECE097
:1001A0000E945C010895EBE10E945C010895EEE07D
:1001B0000E945C010895E8E00E945C010895E0E17E
:1001C0000E945C010895EAE10E945C010895E6E066
:1001D0000E945C010895E8E10E945C010895E9E055
:1001E0000E945C010895EBE00E945C010895EDE03F
:1001F0000E945C010895EFE00E945C010895E1E136
:100200000E945C010895E3E10E945C010895E5E12C
:100210000E945C010895E7E10E945C010895E9E114
:100220000E945C010895E6E10E945C010895219618
:100230008A929A92AA92BA92CA92DA92EA92FA921E
:100240000A931A932197E0916A01F0916B01008063
:10025000F181E02DC083D1830895C0916C01D091CC
:100260006D01E881F981C081D181219619910991AF
:10027000F990E990D990C990B990A99099908990F6
:10028000219708952F903F90E7E6F1E0CDB7DEB7D4
:10029000EDBFFEBF3F922F9208952F903F90CDBFAC
:1002A000DEBF3F922F920895E0E80E945C0108951E
:1002B000E0E40E945C0108952F923F924F925F927A
:1002C0006F927F922FB62F92CF93DF937E2EF8946A
:1002D000E0910001EF5FE0930001E13011F40E9432
:1002E0004201E0E0E0937A01E72DE07849F00E94D6
:1002F0002706F0917B01F17071F00E94CD040BC0D4
:10030000E72DEC3140F4EE0FF0E0E55BFC4F01909F
:10031000F081E02D0995F0917A01EF2FE17059F00D
:10032000F27011F00E9417018F938F2F0E94BF036C
:100330008F910E942D0120910001215020930001F6
:10034000222311F40E944D01DF91CF912F902FBEF7
:100350007F906F905F904F903F902F900895CF9235
:10036000DF92EF92FF920F931F93DC01EC91DB0180
:100370002C918E2F8170C82E880FDD08EE08FF08A3
:100380008E2F8770082E000C990BAA0BBB0BB6950D
:10039000A79597958795DC01A954BC4F8C91C81AF5
:1003A000D108E108F108E670422F4170042E000CDC
:1003B000550B660B770B822F8770082E000C990B5C
:1003C000AA0BBB0BB695A79597958795DC01A95409
:1003D000BC4F8C91481B510961097109822F8670AD
:1003E0009701860101701127222733270E2B4170B8
:1003F000552766277727482B81E090E004171507DB
:100400002607370710F080E090E01F910F91FF90D2
:10041000EF90DF90CF9008958F929F92AF92BF920E
:10042000EF92FF920F931F93CF93DF937C014A01CA
:100430005B01B694A7949794879442305105610567
:100440007105E0F0440F551F8701040F151FE401EB
:10045000CC0FDD1FCE0DDF1DB801CE010E94AF0114
:10046000892B61F0F8019081818128813981318364
:10047000208398838983B501A401DBCFDF91CF91DD
:100480001F910F91FF90EF90BF90AF909F908F9032
:1004900008954F925F926F927F928F929F92AF9248
:1004A000BF92CF92DF92EF92FF920F931F93CF9361
:1004B000DF9300D000D000D0CDB7DEB78C016A0149
:1004C0007B01DC018C91282F880F330B440B550BDB
:1004D00029833A834B835C8346015701880C991C1E
:1004E000AA1CBB1C29813A814B815C8128153905E6
:1004F0004A055B0508F442C0240135013FEF431A69
:10050000530A630A730A89819A81AB81BC8184157D
:100510009505A605B70580F0B201660F771F600F3D
:10052000711FC401880F991F800F911F0E94AF0196
:10053000892B11F0530142013401660C771C600EC7
:10054000711ECC0CDD1CD801AC0DBD1DBE83AD836E
:10055000B301CD010E94AF01892B81F0ED81FE81B5
:1005600090818181D3012D913C911197318320831A
:100570009C9311968C9375016401AECF26960FB6AD
:10058000F894DEBF0FBECDBFDF91CF911F910F91C9
:10059000FF90EF90DF90CF90BF90AF909F908F90A3
:1005A0007F906F905F904F900895EFE6F5E0408167
:1005B0004F5F4083042E000C550B660B770BE82F22
:1005C000EE0FFF0BE15FFC4F0190F081E02D2385E2
:1005D000022E000C330BF901E954FC4F908191502D
:1005E0009083FA01EE0FFF1FE159FA4F220F331FDC
:1005F0009170292B208381838FE695E00C940C0267
:10060000EFE6F5E040814F5F4083042E000C550B70
:10061000660B770BE82FEE0FFF0BE75FFC4F0190A7
:10062000F081E02D9381FA01EE0FFF1FE159FA4F9F
:10063000908381838FE695E00C940C02CF93DF9337
:10064000AFE6B5E0EC918FEF8E0F8C931296DC91B4
:1006500012971396CC911397EE0FFF0BE159FA4FB7
:100660008081918113969C938E93129741E050E084
:1006700060E070E0CD010E9449028D2F9C2FDF9138
:10068000CF9108958091720190917301A0917401AE
:10069000B09175018F3F2FEF9207A207B20731F09B
:1006A0000297A105B10524F481E0089580E0089542
:1006B00082E00895880F990BFC01E15FFC4F0190E7
:1006C000F081E02D0084F185E02D3097F9F0228152
:1006D00021111CC021E02283DC01A75FBC4F0D90DB
:1006E000BC91A02D13968C91139781838081082E45
:1006F000000C990BFC01E954FC4F20812150208310
:10070000880F991F2170822B13968C930895880F60
:10071000990BFC01E15FFC4F0190F081E02D00841A
:10072000F185E02D309761F02281213049F4128269
:100730002181FC01E75FFC4F0190F081E02D2383D4
:1007400008958091760190917701A0917801B09100
:10075000790140917201509173016091740170911F
:100760007501481759076A077B0741F0E09170014E
:10077000F091710121E024830C9400030895CF933C
:10078000DF93882391F0C0916A01D0916B01E091D1
:100790006E01F0916F018481833049F081E08483A0
:1007A000809172010E94000302C0C0E0D0E0E0919D
:1007B0007001F0917101F0936F01E0936E018091EF
:1007C0006C0190916D0190936B0180936A0180910F
:1007D0007601309177012091780190917901809391
:1007E000720130937301209374019093750192E02C
:1007F00094830E945A03CE01DF91CF910895809196
:1008000072010E948703E0916E01F0916F01828175
:100810008823D1F085E084838091720190917301E7
:10082000A0917401B091750182309105A105B105C7
:1008300064F4880F991FFC01EB5FFC4F0190F0817D
:10084000E02D11821082089514820895CF93DF93D2
:10085000282F220F330BF901E75FFC4FC081D181B4
:100860009A81F901E15FFC4F0190F081E02D448510
:100870009417C0F491110FC095E09C83823044F42A
:10088000F901EB5FFC4F0190F081E02D11821082A5
:1008900091E090937B010E94D5028A818F5F8A83C9
:1008A00080E001C084E0DF91CF910895CF93E82FDD
:1008B000EE0FFF0BE75FFC4F0190F081E02DC1E0F0
:1008C000C4830E94D502C0937B01CF910895282F45
:1008D000220F330BF901E75FFC4FA081B181149621
:1008E0009C9114979923A9F0F901EB5FFC4F0190BB
:1008F000F081E02D9081962B90839181692339F0CE
:10090000118214969C91933011F40E94560480E059
:10091000089587E00895E82FEE0FFF0BE75FFC4F87
:100920000190F081E02D118210820C948C0E1F93A7
:10093000CF93DF930E941E03182F892F492F092E72
:10094000000C550B660B770B4093760150937701A3
:100950006093780170937901292F220F330BF901ED
:10096000E75FFC4FC081D181D0937101C0937001CA
:10097000F901E15FFC4F2081318130936D012093BB
:100980006C019C81953019F40E948B041B8310929A
:100990007B01DF91CF911F910895E0917601F09155
:1009A0007701EE0FFF1FE75FFC4F0190F081E02D14
:1009B000909171058381891734F40E94A1030E94EC
:1009C000970483E001C080E080937A0108951F932B
:1009D000CF93DF93CAE6D1E0EC81FD8113E014836D
:1009E00088850E948703188BDF91CF911F910C940B
:1009F000970481E080937A010C949704CF93DF935E
:100A0000C1E0D0E001C0CC0F8A95EAF782E00E94F5
:100A10002604809148038C2319F080E00E9426046C
:100A2000809149038C2319F081E00E942604809173
:100A300046038C2349F08091ED029091EE0221E073
:100A4000FC0126870E94600580914703C82359F066
:100A50008091EF029091F00221E0FC012687DF9166
:100A6000CF910C946005DF91CF9108950E940F07FC
:100A700081110E943007E0916E01F0916F01808139
:100A80009181892B21F0809172010E94F7080C94CA
:100A900058080E940F0781110E943007E0916E01F3
:100AA000F0916F0180819181892B21F080917201F9
:100AB0000E94F7080C94400881E08093A4030895F5
:100AC000AF92BF92CF92DF92EF92FF920F931F935C
:100AD000CF93DF93FC01A081B181AD90BC90E50183
:100AE000AC89BD89109739F0428553856485758539
:100AF00030E020E017C0D50155969C938E93549713
:100B000057969C938E935697158214821382128265
:100B10005BC012968D919C9113973A2F2B2F0097C3
:100B200079F0DC011A96CD90DD90ED90FC901D9748
:100B30004C155D056E057F0560F7CD01A32FB22F23
:100B400093838283B583A483009719F0EC01FD831E
:100B5000EC83109729F01396FC93EE93129705C03F
:100B6000D5015596FC93EE935497E501AE89BF8964
:100B70001A968D919D910D90BC91A02D088919898F
:100B80002A893B8980179107A207B30780F40417CD
:100B900015072607370728F0481759076A077B0704
:100BA00098F4D5015796FC93EE9356970DC0041711
:100BB00015072607370740F4481759076A077B07C8
:100BC00018F4E501FF8BEE8BDF91CF911F910F9110
:100BD000FF90EF90DF90CF90BF90AF900895CF93AC
:100BE000DF93DC01ED91FC9111970190F081E02DF4
:100BF000848995891296CD91DC911397A817B9072E
:100C000011F4D58BC48B86899789A817B90711F47D
:100C1000D78BC68B209731F014968D919C911597A8
:100C20009D838C8314960D90BC91A02D109721F07C
:100C30001396DC93CE93129786899789892B21F49A
:100C400084899589978B868BDF91CF910895EF9258
:100C5000FF920F931F93CF93DF93FC018091A40326
:100C6000882309F4B5C084859585A685B785019646
:100C7000A11DB11D84879587A687B78740815181C3
:100C80006281738184179507A607B70709F0A0C092
:100C900040895189628973894F5F5F4F6F4F7F4FE2
:100CA00084819581A681B78184179507A607B70728
:100CB00018F440E050E0BA01408B518B628B738B8B
:100CC0001486158616861786C689D789209709F453
:100CD0007FC08A859B85AC85BD85481759076A0703
:100CE0007B0709F075C0CE01DC011296ED90FC90F7
:100CF0001397E114F10471F0D7011A960D911D912B
:100D00002D913C911D97401751076207730711F40D
:100D1000C701EACF2C813D812115310529F0D90188
:100D20001396FC92EE921297E114F10429F0D70188
:100D300015963C932E93149724893589C217D307AF
:100D400011F4F58AE48AE114F10419F0F78AE68ACD
:100D500004C024893589378B268B8F01FC011382CF
:100D60001282EA80FB80E881F9810280F381E02D24
:100D7000CE0109954E815F816885798541155105C0
:100D80006105710509F18A859B85AC85BD85840F58
:100D9000951FA61FB71FF801448155816681778191
:100DA000481759076A077B0738F4841B950BA60B75
:100DB000B70B0197A109B1098A879B87AC87BD87CB
:100DC000CE010E94600501C01E86E701209749F60A
:100DD000DF91CF911F910F91FF90EF900895FC014B
:100DE000638182810C9467040E940F0780916801DF
:100DF0000895809368010E94FE040E945C050C9493
:100E0000F9040C948B0ECF93C82F0E9442038111DA
:100E100002C00E94C80E8C2FCF910C94AB00809121
:100E2000B1038130D9F08091A9039091AA03A091D8
:100E3000AB03B091AC03892B8A2B8B2B79F481E027
:100E40004091AD035091AE036091AF037091B00338
:100E5000452B462B472B19F480E0089581E0089537
:100E60001092B1031092AD031092AE031092AF0333
:100E70001092B0031092A9031092AA031092AB0330
:100E80001092AC038091A5039091A603A091A703B3
:100E9000B091A8038093B2039093B303A093B403DB
:100EA000B093B50308950E94CB0E8091B203909148
:100EB000B303A091B403B091B5030196A11DB11D78
:100EC0008093B2039093B303A093B403B093B5039C
:100ED0008091AD039091AE03A091AF03B091B003A8
:100EE0000196A11DB11D8093AD039093AE03A09315
:100EF000AF03B093B00308958091AD039091AE031A
:100F0000A091AF03B091B0030097A105B10569F1BD
:100F10004091B2035091B3036091B4037091B50353
:100F200041505109610971094093B2035093B303D1
:100F30006093B4037093B5030197A109B10980933D
:100F4000AD039093AE03A093AF03B093B003809131
:100F5000B2039091B303A091B403B091B503892B70
:100F60008A2B8B2B11F40C94C90E08958091AD033C
:100F70009091AE03A091AF03B091B003892B8A2B5F
:100F80008B2B89F48091A9039091AA03A091AB03C4
:100F9000B091AC03892B8A2B8B2B29F40E94CB0EAA
:100FA00081E08093B10308958091B103882321F0FB
:100FB0001092B1030C94C90E08950E94CF0E809137
:100FC000B2039091B303A091B403B091B50301961D
:100FD000A11DB11D8093B2039093B303A093B403FA
:100FE000B093B5038091A9039091AA03A091AB039C
:100FF000B091AC030196A11DB11D8093A9039093FC
:10100000AA03A093AB03B093AC0308958091A90306
:101010009091AA03A091AB03B091AC030097A105F6
:10102000B10569F14091B2035091B3036091B403EB
:101030007091B50341505109610971094093B203A0
:101040005093B3036093B4037093B5030197A10960
:10105000B1098093A9039093AA03A093AB03B09323
:10106000AC038091B2039091B303A091B403B0910B
:10107000B503892B8A2B8B2B11F40C94CD0E08957C
:101080000E940F07882311F083E1089580E00895FE
:10109000CF93C82F0E940F078C2F0E942604C82FC1
:1010A00080917B0181110E94CD048C2FCF910895F6
:1010B000CF930E940F07882311F0C3E101C0C0E065
:1010C000E0916E01F0916F018281815082830E94D4
:1010D000FF0381E080937A010E9497048C2FCF91C7
:1010E0000895CF93C82F0E940F07E0916E01F091F1
:1010F0006F018281815082838C2F0E942604C82F29
:10110000811108C00E94FF0381E080937A010E9450
:10111000970407C0E0916E01F0916F0182818F5FAB
:1011200082838C2FCF910895CF930E940F0788233D
:1011300011F0C3E101C0C0E0809172010E948703F9
:101140000E94CD048091720190917301A09174016D
:10115000B0917501409176015091770160917801CD
:101160007091790184179507A607B70711F40E94BB
:101170005A038C2FCF910895CF93DF93EC010E94F7
:101180000F07882311F083E101C080E040917201D4
:101190005091730160917401709175014230510555
:1011A0006105710514F4488303C09091C5019883CB
:1011B000DF91CF9108950F931F93CF93C82F8B0189
:1011C0000E940F07882311F083E101C080E0EC2F1B
:1011D000EE0FFF0BE75FFC4F0190F081E02D948153
:1011E0009370F8019083CF911F910F910895880F0C
:1011F000990BFC01E75FFC4FA081B181ED91FC915F
:101200001197309769F01D921C922091C50193812E
:101210008481228314821382E92FF82F3097B9F743
:101220000895CF93C82F0E940F07882311F083E100
:1012300001C080E0EC2FF0E0EE0FFF1FE15CFC4FFF
:10124000A081B1819091720112969C931297E091C6
:101250006E01F0916F012081318114963C932E93A1
:101260001397B183A083938111969C9311972C912E
:1012700093819595921774F4022E000C330BD901CB
:10128000A954BC4F9C9191509C93220F331F917095
:10129000292B2383CF910895CF93DF93C82F0E94EA
:1012A0000F07882311F0D3E101C0D0E0EC2FF0E06C
:1012B000EE0FFF1FE15CFC4F0190F081E02DA0914B
:1012C0006E01B0916F01818113968C931397838186
:1012D00094818D939C93148213828091C5018283A3
:1012E0000E94CD048D2FDF91CF910895CF93DF938E
:1012F000C82FD62F0E940F076D2F8C2F0E946704D6
:10130000C82F811105C080917B0181110E94CD04FD
:101310008C2FDF91CF910895CF93C82F0E940F0794
:10132000882311F083E101C080E0E0917201EE0FAB
:10133000FF0BEB5FFC4F0190F081E02DC095908199
:10134000C923C083CF9108950F931F93CF93C82FC4
:101350008B010E940F07882311F083E101C080E018
:10136000EC2FEE0FFF0BEB5FFC4F0190F081E02DB7
:101370009081F8019083CF911F910F9108950F9361
:101380001F93CF93DF93D82FE0917201F0917301F7
:10139000EE0FFF1FEB5FFC4F008111810E940F07D2
:1013A000882311F0C3E101C0C0E0F801D18380813E
:1013B0008D2311F40E94E7048C2FDF91CF911F91B0
:1013C0000F910895DC01ED91FC9184819581DC0100
:1013D000ED91FC9109941F93CF93DF93182FEB01AC
:1013E0000E940F07882311F083E101C080E0E12F04
:1013F000F0E0EE0FFF1FE351FD4F0190F081E02D73
:101400000190F081E02D0190F081E02D408151812B
:10141000628173814C835D836E837F8344815581B8
:1014200066817781488359836A837B8340855185B0
:1014300062857385488759876A877B87DF91CF915B
:101440001F9108958F929F92AF92BF92CF92DF9299
:10145000EF92FF920F931F93CF93C82F8B010E949F
:101460000F07882311F083E101C080E0EC2FF0E04A
:10147000EE0FFF1FE351FD4F0190F081E02D9685A7
:10148000913029F542855385648575850190F081F9
:10149000E02D0190F081E02DC088D188E288F388AA
:1014A0004C155D056E057F0540F484809580A6800F
:1014B000B780480D591D6A1D7B1D4C195D096E09C9
:1014C0007F09F801408351836283738301C085E003
:1014D000CF911F910F91FF90EF90DF90CF90BF9031
:1014E000AF909F908F9008958F929F92AF92BF92EE
:1014F000CF92DF92EF92FF920F931F93CF93DF93E0
:10150000D82F4A015B01680179010E940F078823E7
:1015100011F0C3E101C0C0E0ED2FF0E0EE0FFF1FBE
:10152000E351FD4F0190F081E02D8685811130C09F
:10153000A081B1810D90BC91A02D50964D915D91EF
:101540006D917C915397480D591D6A1D7B1D149612
:101550008D919D910D90BC91A02D84179507A607A4
:10156000B70740F4481B590B6A0B7B0B41505109DC
:10157000610971094287538764877587C682D7825C
:10158000E086F18681E08687CF010E94600501C078
:10159000C7E08C2FDF91CF911F910F91FF90EF90BB
:1015A000DF90CF90BF90AF909F908F9008958F92D3
:1015B0009F92AF92BF92CF92DF92EF92FF920F93E2
:1015C0001F93CF93DF93C82F4A015B016801790114
:1015D0000E940F07882311F0D3E101C0D0E0EC2F67
:1015E000F0E0EE0FFF1FE351FD4F0190F081E02D81
:1015F000868581110EC082869386A486B586C682B2
:10160000D782E086F18681E08687CF010E9460055F
:1016100001C0D7E08D2FDF91CF911F910F91FF90E7
:10162000EF90DF90CF90BF90AF909F908F900895F4
:101630000F931F93CF93DF93C82F0E940F07882328
:1016400011F0D3E101C0D0E0EC2FF0E0EE0FFF1F6E
:10165000E351FD4F00811181F8018685813031F41D
:10166000C8010E94EF05F801168601C0D5E08D2F54
:10167000DF91CF911F910F91089526E040E052EC49
:1016800061E070E08EEC93E00E94431161E0809194
:1016900069010E94580D60E0809169010E94940DDB
:1016A00061E08DE00E94580D61E08DE00C94940D96
:1016B00090904303A0904103C5E0D0E0B090440374
:1016C000C12CD12C76010E94440E2B013C01892DA6
:1016D0000E94CF000E94440EDC01CB0184199509C1
:1016E000A609B709C80ED91EEA1EFB1E8C0D9D1D4A
:1016F000AE1DBF1D4F97A105B1052CF304EF11E0FE
:1017000020E030E044EF51E060E070E08A2D0E947C
:101710000B018091B60390E00196BE010E94AB11CF
:101720008093B6038B2D0E94FF008B2D0E94F70043
:10173000C7CF6F927F928F929F92AF92BF92CF92BC
:10174000DF92EF92FF920F931F93CF93DF9300D01E
:1017500000D0CDB7DEB7E091B603F0E0EE0FFF1F8B
:10176000ED51FD4FA080B180F09042034E0185E025
:10177000880E911CEE24E394F5018081882309F4FE
:1017800094C08032E9F404E610E020E030E044E662
:1017900050E060E070E08F2D0E940B0144E060910A
:1017A000690180E00E94820C8F2D0E9413018DE060
:1017B0000E94C30D682F6E258DE00E94940D71C0AC
:1017C000BE016F5F7F4F0E94940CF50160818EEC2B
:1017D00093E00E94760F66EC71E08EEC93E00E943D
:1017E000740F49815A816B817C8120E130E08EEC5D
:1017F00093E00E94DC0F69EC71E08EEC93E00E94B4
:10180000740FCE0101966C013601F6016081611101
:101810001BC061ED71E08EEC93E00E94810F04E645
:1018200010E020E030E044E650E060E070E08F2D12
:101830000E940B0143E06091690180E00E94820CEC
:101840008F2D0E9413012DC042E050E08EEC93E0FA
:101850000E94E90F63ED71E08EEC93E00E94740F3B
:1018600004E610E020E030E044E650E060E070E0A4
:101870008F2D0E940B01FFEFCF1ADF0A60916901E3
:10188000F30180810E946A0C6091690180E00E94EE
:101890006A0C8F2D0E941301C814D90409F0B4CF2B
:1018A000B8CFFFEFAF1ABF0A67CF0E94D3000F90E7
:1018B0000F900F900F90DF91CF911F910F91FF909C
:1018C000EF90DF90CF90BF90AF909F908F907F90E0
:1018D0006F9008951F93CF93DF93C82F162FD09149
:1018E00045036C2F6170812F0E94940D8D2F0E94F3
:1018F000FF008D2F0E94F700C69599F7DF91CF91D9
:101900001F9108951F93CF93DF93D82F162FC42FC5
:10191000CC2331F0612F8D2F0E946A0CC150F8CF7B
:10192000DF91CF911F910895DB01482F880F550B50
:10193000660B770BFA01E154F109EA31F10508F081
:1019400088C0EC5CFF4F0C94E11141E057E060E08F
:1019500070E07AC047E051E061E071E075C047E0B7
:1019600051E0BA0171C047E051E061E070E06CC045
:1019700041E050E060E070E067C041E051E067E0C6
:1019800071E062C047E057E061E070E05DC041E0B7
:1019900051E0BA0159C041E051E060E070E054C04C
:1019A00041E057E067E077E04FC047E051E067E093
:1019B00070E04AC041E057E061E071E045C047E0B7
:1019C00057E060E070E040C047E051E060E070E068
:1019D0003BC047E057E067E070E036C041E057E0C9
:1019E00067E071E031C047E057E061E077E02CC08C
:1019F00041E057E061E070E027C041E051E061E084
:101A000070E022C047E050E060E070E01DC041E0BF
:101A100051E067E070E018C041E051E061E077E03C
:101A200013C041E057E067E070E00EC047E051E0CE
:101A300061E077E009C047E051E067E077E004C08B
:101A400047E057E061E071E04D935D936D937C93C7
:101A50001397089584EA91E00C945401089583301B
:101A600081F028F4813099F08230A1F00895873018
:101A7000A9F08830B9F08430D1F4809180008F7D56
:101A800003C0809180008F7780938000089584B593
:101A90008F7702C084B58F7D84BD08958091B0009A
:101AA0008F7703C08091B0008F7D8093B000089540
:101AB000CF93DF9390E0FC01E055FF4F2491FC01B0
:101AC000EC53FF4F8491882361F190E0880F991FB8
:101AD000FC01E451FF4FC591D491FC01EE51FF4F41
:101AE000A591B491611109C09FB7F89488812095A0
:101AF00082238883EC912E230BC0623061F49FB760
:101B0000F8948881322F309583238883EC912E2B93
:101B10002C939FBF06C08FB7F894E8812E2B2883A3
:101B20008FBFDF91CF9108951F93CF93DF93282F1D
:101B300030E0F901E456FF4F8491F901E055FF4F81
:101B4000D491F901EC53FF4FC491CC23C1F0162F6F
:101B500081110E942F0DEC2FF0E0EE0FFF1FEE51D0
:101B6000FF4FA591B4919FB7F894111104C08C91C7
:101B7000D095D82302C0EC91DE2BDC939FBFDF9180
:101B8000CF911F910895CF93DF93282F30E0F90173
:101B9000E456FF4F8491F901E055FF4FD491F901CC
:101BA000EC53FF4FC491CC2391F081110E942F0D73
:101BB000EC2FF0E0EE0FFF1FE852FF4FA591B4911C
:101BC000EC91ED2381E090E021F480E002C080E020
:101BD00090E0DF91CF9108951F920F920FB60F9270
:101BE00011242F933F934F935F936F937F938F9322
:101BF0009F93AF93BF93EF93FF938091C503909111
:101C0000C603A091C703B091C8033091C40323E079
:101C1000230F2D3720F40196A11DB11D05C026E824
:101C2000230F0296A11DB11D2093C4038093C50309
:101C30009093C603A093C703B093C8038091C903D0
:101C40009091CA03A091CB03B091CC030196A11D42
:101C5000B11D8093C9039093CA03A093CB03B093A3
:101C6000CC030E942A0DFF91EF91BF91AF919F91FC
:101C70008F917F916F915F914F913F912F910F9035
:101C80000FBE0F901F9018952FB7F8946091C50361
:101C90007091C6038091C7039091C8032FBF089528
:101CA00084B5826084BD84B5816084BD85B5826061
:101CB00085BD85B5816085BDEEE6F0E080818160FF
:101CC0008083E1E8F0E010828081826080838081FF
:101CD00081608083E0E8F0E0808181608083E1EBD7
:101CE000F0E0808184608083E0EBF0E080818160BF
:101CF0008083EAE7F0E08081846080838081826075
:101D0000808380818160808380818068808310925D
:101D1000C1000895FFCFFFCFCF93DF93880F990BBA
:101D2000FC01E15FFC4FC081D181AC81BD81119785
:101D30008A819B81A80FB91F2D85CD010197FD01D7
:101D40003297223019F42BEC30E002C027EE30E05D
:101D50002C93DC013C939E818F819083DF018E93D5
:101D6000CF0107971E928A179B07E1F780E8DF01F2
:101D700018978C93CF0144971E928A179B07E1F71F
:101D8000A881B9817597ED93FC93DF91CF91089568
:101D9000089578940895F894089578940895F8949F
:101DA000089508950E94500E0E94D10E0E942E0D9B
:101DB0000E943D0B8091CD030E94030780E090E0DC
:101DC000089580914A038093CD03089508951F924A
:101DD0000F920FB60F9211242F933F934F935F935F
:101DE0006F937F938F939F93AF93BF93EF93FF93E3
:101DF000E091C101F091C2010995FF91EF91BF916E
:101E0000AF919F918F917F916F915F914F913F9192
:101E10002F910F900FBE0F901F9018951F920F9249
:101E20000FB60F9211242F933F934F935F936F93AD
:101E30007F938F939F93AF93BF93EF93FF93E09123
:101E4000C301F091C4010995FF91EF91BF91AF914A
:101E50009F918F917F916F915F914F913F912F91C2
:101E60000F900FBE0F901F901895CF92DF92EF92B8
:101E7000FF920F931F93CF93DF936C017A018B0135
:101E8000C0E0D0E0CE15DF0581F0D8016D918D0165
:101E9000D601ED91FC910190F081E02DC6010995EC
:101EA000892B11F02196EECF7E01C701DF91CF91F2
:101EB0001F910F91FF90EF90DF90CF9008956115E3
:101EC000710579F0FB0101900020E9F73197AF012E
:101ED000461B570BDC01ED91FC910280F381E02D54
:101EE000099480E090E008950C945F0FDC01ED917F
:101EF000FC910190F081E02D099463E873E00C946B
:101F00005F0F0F931F93CF93DF93EC010E945F0F3E
:101F10008C01CE010E947D0F800F911FDF91CF9128
:101F20001F910F9108958F929F92AF92BF92EF925F
:101F3000FF920F931F93CF93DF93CDB7DEB7A19797
:101F40000FB6F894DEBF0FBECDBF7C01FA01CB0106
:101F500019A2223008F42AE08E010F5D1F4F822E55
:101F6000912CA12CB12CBF01A50194010E94BF119D
:101F7000F901CA01015011096A3014F4605D01C011
:101F8000695CD8016C93232B242B252B61F7B801B6
:101F9000C7010E945F0FA1960FB6F894DEBF0FBE77
:101FA000CDBFDF91CF911F910F91FF90EF90BF9028
:101FB000AF909F908F9008952115310541F4DC0179
:101FC000ED91FC910190F081E02D642F09940C9427
:101FD000930F9A01462F50E060E070E00C94DC0F04
:101FE0001F920F920FB60F9211242F938F939F93EE
:101FF000EF93FF93E091DE03F091DF038081E091A6
:10200000E403F091E50382FD12C090818091E70323
:102010008F5F8F732091E803821751F0E091E703FF
:10202000F0E0E253FC4F958F8093E70301C080817D
:10203000FF91EF919F918F912F910F900FBE0F9075
:102040001F9018951F920F920FB60F9211242F9385
:102050003F934F935F936F937F938F939F93AF9330
:10206000BF93EF93FF938EEC93E00E94B210FF9129
:10207000EF91BF91AF919F918F917F916F915F9100
:102080004F913F912F910F900FBE0F901F90189579
:10209000EEECF3E01382128288EE93E0A0E0B0E071
:1020A00084839583A683B78386E993E091838083B5
:1020B00085EC90E09587848784EC90E0978786870D
:1020C00080EC90E0918B808B81EC90E0938B828B05
:1020D00082EC90E0958B848B86EC90E0978B868BDE
:1020E000118E128E138E148E0895FC01918D228D07
:1020F000892F90E0805C9F4F821B91098F739927F5
:102100000895FC01918D828D981731F0828DE80F32
:10211000F11D858D90E008958FEF9FEF0895FC01EC
:10212000918D828D981761F0828DDF01A80FB11D0E
:102130005D968C91928D9F5F9F73928F90E0089532
:102140008FEF9FEF0895FC01538D448D252F30E0D4
:10215000842F90E0821B930B541710F0CF960895B4
:1021600001970895FC01848DDF01A80FB11DA35ACA
:10217000BF4F2C91848D90E001968F739927848FA7
:10218000A689B7892C93A089B1898C9183708064CA
:102190008C93938D848D981306C00288F389E02D6B
:1021A00080818F7D80830895EF92FF920F931F931C
:1021B000CF93DF93EC0181E0888F9B8D8C8D9813FA
:1021C00005C0E889F989808185FD26C0F62E0B8D32
:1021D00010E00F5F1F4F0F731127E02E8C8DE81258
:1021E0000CC00FB607FCFACFE889F989808185FF1A
:1021F000F5CFCE010E94B210F1CF8B8DFE01E80F1A
:10220000F11DE35AFF4FF0829FB7F8940B8FEA89D4
:10221000FB89808180620AC09FB7F894EE89FF89AC
:102220006083E889F98980818370806480839FBF9F
:1022300081E090E0DF91CF911F910F91FF90EF909F
:102240000895CF93DF93EC01888D8823C9F0EA8944
:10225000FB89808185FD05C0A889B9898C9186FD9F
:102260000FC00FB607FCF5CF808185FFF2CFA8899C
:10227000B9898C9185FFEDCFCE010E94B210E7CFD6
:10228000DF91CF910895CF92DF92EF92FF921F934B
:10229000CF93DF93EC016A017B01122FE889F98962
:1022A00082E080834115514E61057105B1F060E017
:1022B00079E08DE390E0A70196010E94BF11DA0159
:1022C000C9010197A109B109B695A7959795879579
:1022D0009C01211580E13807A8F0E889F98910826E
:1022E00060E874E88EE190E0A70196010E94BF11BA
:1022F000DA01C9010197A109B109B695A79597958A
:1023000087959C01EC85FD853083EE85FF852083D4
:10231000188EEC89FD891083EA89FB8980818061B0
:102320008083EA89FB89808188608083EA89FB89D0
:10233000808180688083EA89FB8980818F7D8083AA
:10234000DF91CF911F91FF90EF90DF90CF90089594
:10235000F8940C94FB1197FB072E16F4009407D009
:1023600077FD09D00E94E71107FC05D03EF4909557
:1023700081959F4F0895709561957F4F0895A1E2D3
:102380001A2EAA1BBB1BFD010DC0AA1FBB1FEE1FEF
:10239000FF1FA217B307E407F50720F0A21BB30B3A
:1023A000E40BF50B661F771F881F991F1A9469F7B6
:1023B00060957095809590959B01AC01BD01CF0112
:1023C0000895EE0FFF1F0590F491E02D0994AA1BCC
:1023D000BB1B51E107C0AA1FBB1FA617B70710F010
:1023E000A61BB70B881F991F5A95A9F78095909542
:0A23F000BC01CD010895F894FFCF61
:1023FA0000000000000000000000000000000000D3
:10240A0000000000000000000000000000000000C2
:10241A0000000000000000000000000000000000B2
:10242A0000000000000000000000000000000000A2
:10243A000000000000000000000000000000000092
:10244A000000000000000000000000000000000082
:10245A000000000000000000FF0700003103000038
:10246A00BF03FFFFFFFFFFFFFFFF0000F1020000B5
:10247A000000000000000000000000FB0200000055
:10248A00000000000000000000000000000204003C
:10249A000000010001000000FFFF00000100000031
:1024AA000000000000000000000000000300FF0020
:1024BA0000E60EE60EFF3A20002020203A202020D7
:1024CA00005000202D2000412046454154484552E5
:1024DA0020494E205448452048414E442049532023
:1024EA00424554544552205448414E2041204249C5
:1024FA00524420494E205448452041495200412027
:10250A0053484F52542050454E43494C204953207A
:10251A00555355414C4C5920424554544552205428
:10252A0048414E2041204C4F4E47204D454D4F5279
:10253A005920414E59204441590041434345505482
:10254A0020534F4D455448494E4720544841542042
:10255A00594F552043414E4E4F54204348414E4710
:10256A004520414E4420594F552057494C4C20464E
:10257A0045454C2042455454455200414456454E27
:10258A00545552452043414E204245205245414C24
:10259A002048415050494E455353006E20414C4CFF
:1025AA0020544845204546464F525420594F5520FD
:1025BA00415245204D414B494E472057494C4C20EA
:1025CA00554C54494D4154454C5920504159204F7E
:1025DA00464600D7010E024A028B02AB028B017CEF
:1025EA0001A401E209F702EF060102A401E20901CE
:1025FA0003EF060001BD03BB039F019A01BF03233A
:10260A0003150331036D046F040001580B00000128
:10261A000201016B04C9050001990B0000000101C8
:10262A00017705790550008A0E000002000100BCFE
:10263A0001010000020100000001000608D407DDC4
:10264A0007B6074905530736057C0794084C090164
:10265A0007760948088C097108A409BC08BF09F95A
:10266A0006EB09F406220A180B740A1109D70ADBC9
:10267A000858080D0A006E616E00696E66006F7672
:10268A00660000000000D410350FA3102111751048
:04269A008F1081100C
:00000001FF
