:100000000C9478000C949A0E0C94C10E0C94A000E1
:100010000C94A0000C94A0000C94A0000C94A000E0
:100020000C94A0000C94A0000C94A0000C94A000D0
:100030000C94A0000C94A0000C94A0000C94A000C0
:100040000C949F0D0C94A0000C94120F0C94440F70
:100050000C94A0000C94A0000C94A0000C94A000A0
:100060000C94A0000C94A000810C860C8B0C8F0CBF
:10007000940C990C9E0CA30CA70CAC0CB10CB60CF8
:10008000BB0CC00CC50CCA0CCF0CD40CD90CDE0CAC
:10009000E30CE80CED0CF20CF70CFC0C0000000873
:1000A000000201000003040700000000000000003F
:1000B00001020408102040800102040810200102FF
:1000C00004081020040404040404040402020202CC
:1000D00002020303030303030000000025002800BD
:1000E0002B0000000000240027002A00940E6A0F55
:1000F00011241FBECFEFD8E0DEBFCDBF13E0A0E0DC
:10010000B1E0EEE3F2E202C005900D92A838B1072B
:10011000D9F726E0A8E8B3E001C01D92A03BB207E2
:10012000E1F710E0C8E7D0E004C02197FE010E948B
:100130000311C637D107C9F70E94850E0C94CA1067
:100140000C940000E4E10E9457010895E2E10E944E
:1001500057010895EAE00E9457010895E1E00E94E6
:1001600057010895E3E00E9457010895E7E00E94D7
:1001700057010895E5E00E9457010895E0E00E94CC
:1001800057010895E2E00E9457010895E4E00E94BB
:1001900057010895ECE00E9457010895EBE10E9499
:1001A00057010895EEE00E9457010895E8E00E948B
:1001B00057010895E0E10E9457010895EAE10E9485
:1001C00057010895E6E00E9457010895E8E10E9472
:1001D00057010895E9E00E9457010895EBE00E945D
:1001E00057010895EDE00E9457010895EFE00E9445
:1001F00057010895E1E10E9457010895E3E10E944B
:1002000057010895E5E10E9457010895E7E10E9432
:1002100057010895E9E10E9457010895E6E10E941F
:100220005701089521968A929A92AA92BA92CA92F6
:10023000DA92EA92FA920A931A932197E0916D0169
:10024000F0916E010080F181E02DC083D18308958B
:10025000C0916F01D0917001E881F981C081D18195
:10026000219619910991F990E990D990C990B99086
:10027000A99099908990219708952F903F90E7E653
:10028000F1E0CDB7DEB7EDBFFEBF3F922F920895EC
:100290002F903F90CDBFDEBF3F922F920895E0E8B0
:1002A0000E9457010895E0E40E94570108952F929B
:1002B0003F924F925F926F927F922FB62F92CF9381
:1002C000DF937E2EF894E0910001EF5FE093000150
:1002D000E13011F40E943D01E0E0E0937D01E72D63
:1002E000E07849F00E942206F0917E01F17071F0F1
:1002F0000E94C8040BC0E72DEC3140F4EE0FF0E093
:10030000E35CFC4F0190F081E02D0995F0917D01B7
:10031000EF2FE17059F0F27011F00E9412018F93EB
:100320008F2F0E94BA038F910E9428012091000113
:10033000215020930001222311F40E944801DF91F3
:10034000CF912F902FBE7F906F905F904F903F90F6
:100350002F900895CF92DF92EF92FF920F931F9309
:10036000DC01EC91DB012C918E2F8170C82E880F5F
:10037000DD08EE08FF088E2F8F70082E000C990BF9
:10038000AA0BBB0BB695A79597958795DC01A5564B
:10039000BC4F8C91C81AD108E108F108EE70422FC9
:1003A0004170042E000C550B660B770B822F8F705B
:1003B000082E000C990BAA0BBB0BB695A795979529
:1003C0008795DC01A556BC4F8C91481B51096109EA
:1003D0007109822F8E7097018601017011272227E3
:1003E00033270E2B4170552766277727482B81E04E
:1003F00090E0041715072607370710F080E090E01B
:100400001F910F91FF90EF90DF90CF9008958F9202
:100410009F92AF92BF92EF92FF920F931F93CF9351
:10042000DF937C014A015B01B694A794979487946B
:100430004230510561057105E0F0440F551F8701F9
:10044000040F151FE401CC0FDD1FCE0DDF1DB80119
:10045000CE010E94AA01892B61F0F801908181816F
:10046000288139813183208398838983B501A40150
:10047000DBCFDF91CF911F910F91FF90EF90BF9055
:10048000AF909F908F9008954F925F926F927F925E
:100490008F929F92AF92BF92CF92DF92EF92FF9294
:1004A0000F931F93CF93DF9300D000D000D0CDB730
:1004B000DEB78C016A017B01DC018C91282F880F4B
:1004C000330B440B550B29833A834B835C834601E2
:1004D0005701880C991CAA1CBB1C29813A814B81AD
:1004E0005C81281539054A055B0508F442C02401E2
:1004F00035013FEF431A530A630A730A89819A81CF
:10050000AB81BC8184159505A605B70580F0B201C5
:10051000660F771F600F711FC401880F991F800F2E
:10052000911F0E94AA01892B11F05301420134014D
:10053000660C771C600E711ECC0CDD1CD801AC0D56
:10054000BD1DBE83AD83B301CD010E94AA01892BDD
:1005500081F0ED81FE8190818181D3012D913C91CB
:100560001197318320839C9311968C9375016401BC
:10057000AECF26960FB6F894DEBF0FBECDBFDF918B
:10058000CF911F910F91FF90EF90DF90CF90BF9090
:10059000AF909F908F907F906F905F904F90089555
:1005A000E4E5F5E040814F5F4083042E000C550BDD
:1005B000660B770BE82FEE0FFF0BE150FD4F01901C
:1005C000F081E02D2385022E000C330BF901E55656
:1005D000FC4F908191509083FA01EE0FFF1FEC5A6F
:1005E000FA4F220F331F9170292B2083818384E5DA
:1005F00095E00C940702E4E5F5E040814F5F40830D
:10060000042E000C550B660B770BE82FEE0FFF0B3B
:10061000E750FD4F0190F081E02D9381FA01EE0F3C
:10062000FF1FEC5AFA4F9083818384E595E00C9488
:100630000702CF93DF93A4E5B5E0EC918FEF8E0F27
:100640008C931296DC9112971396CC911397EE0F20
:10065000FF0BEC5AFA4F8081918113969C938E93F5
:10066000129741E050E060E070E0CD010E9444024A
:100670008D2F9C2FDF91CF910895809175019091DE
:100680007601A0917701B09178018F3F2FEF92070B
:10069000A207B20731F00297A105B10524F481E069
:1006A000089580E0089582E00895880F990BFC0179
:1006B000E150FD4F0190F081E02D0084F185E02DA7
:1006C0003097F9F0228121111CC021E02283DC0146
:1006D000A750BD4F0D90BC91A02D13968C911397F0
:1006E00081838081082E000C990BFC01E556FC4F9C
:1006F000208121502083880F991F2170822B13960F
:100700008C930895880F990BFC01E150FD4F0190E7
:10071000F081E02D0084F185E02D309761F0228199
:10072000213049F412822181FC01E750FD4F0190F4
:10073000F081E02D238308958091790190917A01D1
:10074000A0917B01B0917C0140917501509176019F
:100750006091770170917801481759076A077B0704
:1007600041F0E0917301F091740121E024830C9435
:10077000FB020895CF93DF93882391F0C0916D0120
:10078000D0916E01E0917101F0917201848183300A
:1007900049F081E08483809175010E94FB0202C0D0
:1007A000C0E0D0E0E0917301F0917401F093720128
:1007B000E093710180916F019091700190936E01AF
:1007C00080936D018091790130917A0120917B01B4
:1007D00090917C018093750130937601209377018D
:1007E0009093780192E094830E945503CE01DF91AB
:1007F000CF910895809175010E948203E09171016B
:10080000F091720182818823D1F085E08483809108
:10081000750190917601A0917701B09178018230B5
:100820009105A105B10564F4880F991FFC01EB50F7
:10083000FD4F0190F081E02D118210820895148205
:100840000895CF93DF93282F220F330BF901E75040
:10085000FD4FC081D1819A81F901E150FD4F019096
:10086000F081E02D44859417C0F491110FC095E0FC
:100870009C83823044F4F901EB50FD4F0190F081EC
:10088000E02D1182108291E090937E010E94D002AF
:100890008A818F5F8A8380E001C084E0DF91CF91FD
:1008A0000895CF93E82FEE0FFF0BE750FD4F019017
:1008B000F081E02DC1E0C4830E94D002C0937E018C
:1008C000CF910895282F220F330BF901E750FD4FE8
:1008D000A081B18114969C9114979923A9F0F901F4
:1008E000EB50FD4F0190F081E02D9081962B90838D
:1008F0009181692339F0118214969C91933011F4FF
:100900000E94510480E0089587E00895E82FEE0FDB
:10091000FF0BE750FD4F0190F081E02D1182108216
:100920000C943F0E1F93CF93DF930E941903182F4F
:10093000892F492F092E000C550B660B770B40931E
:10094000790150937A0160937B0170937C01292F88
:10095000220F330BF901E750FD4FC081D181D093B5
:100960007401C0937301F901E150FD4F2081318181
:100970003093700120936F019C81953019F40E948F
:1009800086041B8310927E01DF91CF911F91089501
:10099000E0917901F0917A01EE0FFF1FE750FD4FD2
:1009A0000190F081E02D909156058381891734F4F0
:1009B0000E949C030E94920483E001C080E0809327
:1009C0007D0108951F93CF93DF93CDE6D1E0EC81B5
:1009D000FD8113E0148388850E948203188BDF91C8
:1009E000CF911F910C94920481E080937D010C942F
:1009F0009204CF93DF93C1E0D0E001C0CC0F8A9581
:100A0000EAF782E00E94210480913A038C2319F0D6
:100A100080E00E94210480913B038C2319F081E047
:100A20000E942104809138038C2349F08091DD02DB
:100A30009091DE0221E0FC0126870E945B058091F7
:100A40003903C82359F08091DF029091E00221E040
:100A5000FC012687DF91CF910C945B05DF91CF914C
:100A600008950E940A0781110E942B07E0917101ED
:100A7000F091720180819181892B21F08091750123
:100A80000E94F2080C9453080E940A0781110E94E8
:100A90002B07E0917101F091720180819181892B86
:100AA00021F0809175010E94F2080C943B0881E0CE
:100AB000809388030895AF92BF92CF92DF92EF9216
:100AC000FF920F931F93CF93DF93FC01A081B1811D
:100AD000AD90BC90E501AC89BD89109739F0428595
:100AE00053856485758530E020E017C0D5015596A3
:100AF0009C938E93549757969C938E9356971582FA
:100B00001482138212825BC012968D919C9113976E
:100B10003A2F2B2F009779F0DC011A96CD90DD90BB
:100B2000ED90FC901D974C155D056E057F0560F7F7
:100B3000CD01A32FB22F93838283B583A483009723
:100B400019F0EC01FD83EC83109729F01396FC93C8
:100B5000EE93129705C0D5015596FC93EE935497EA
:100B6000E501AE89BF891A968D919D910D90BC913A
:100B7000A02D088919892A893B8980179107A20726
:100B8000B30780F4041715072607370728F048171E
:100B900059076A077B0798F4D5015796FC93EE93A3
:100BA00056970DC0041715072607370740F4481756
:100BB00059076A077B0718F4E501FF8BEE8BDF917D
:100BC000CF911F910F91FF90EF90DF90CF90BF904A
:100BD000AF900895CF93DF93DC01ED91FC911197D5
:100BE0000190F081E02D848995891296CD91DC9158
:100BF0001397A817B90711F4D58BC48B86899789E9
:100C0000A817B90711F4D78BC68B209731F014962B
:100C10008D919C9115979D838C8314960D90BC911A
:100C2000A02D109721F01396DC93CE93129786890E
:100C30009789892B21F484899589978B868BDF91FD
:100C4000CF910895EF92FF920F931F93CF93DF936D
:100C5000FC0180918803882309F4B5C084859585BB
:100C6000A685B7850196A11DB11D84879587A687A6
:100C7000B787408151816281738184179507A607E8
:100C8000B70709F0A0C040895189628973894F5F15
:100C90005F4F6F4F7F4F84819581A681B781841705
:100CA0009507A607B70718F440E050E0BA01408B5B
:100CB000518B628B738B1486158616861786C689B0
:100CC000D789209709F47FC08A859B85AC85BD852F
:100CD000481759076A077B0709F075C0CE01DC0188
:100CE0001296ED90FC901397E114F10471F0D70186
:100CF0001A960D911D912D913C911D97401751070A
:100D00006207730711F4C701EACF2C813D812115D9
:100D1000310529F0D9011396FC92EE921297E11455
:100D2000F10429F0D70115963C932E93149724894A
:100D30003589C217D30711F4F58AE48AE114F10466
:100D400019F0F78AE68A04C024893589378B268B07
:100D50008F01FC0113821282EA80FB80E881F98115
:100D60000280F381E02DCE0109954E815F81688577
:100D70007985411551056105710509F18A859B85C4
:100D8000AC85BD85840F951FA61FB71FF801448150
:100D9000558166817781481759076A077B0738F4C0
:100DA000841B950BA60BB70B0197A109B1098A8784
:100DB0009B87AC87BD87CE010E945B0501C01E8664
:100DC000E701209749F6DF91CF911F910F91FF9096
:100DD000EF900895FC01638182810C9462040E946B
:100DE0000A0780916B01089580936B010E94F904BA
:100DF0000E9457050C94F4040C943E0ECF93C82F18
:100E00000E943D03811102C00E947B0E8C2FCF9166
:100E10000C94A600809195038130D9F080918D03C8
:100E200090918E03A0918F03B0919003892B8A2B10
:100E30008B2B79F481E04091910350919203609162
:100E4000930370919403452B462B472B19F480E0B4
:100E5000089581E0089510929503109291031092E5
:100E60009203109293031092940310928D031092A8
:100E70008E0310928F0310929003809189039091BA
:100E80008A03A0918B03B0918C0380939603909377
:100E90009703A0939803B093990308950E947E0E40
:100EA0008091960390919703A0919803B091990334
:100EB0000196A11DB11D8093960390939703A09373
:100EC0009803B09399038091910390919203A0911C
:100ED0009303B09194030196A11DB11D80939103DA
:100EE00090939203A0939303B093940308958091F9
:100EF000910390919203A0919303B0919403009772
:100F0000A105B10569F14091960350919703609155
:100F100098037091990341505109610971094093F7
:100F200096035093970360939803709399030197E6
:100F3000A109B1098093910390939203A093930325
:100F4000B09394038091960390919703A091980396
:100F5000B0919903892B8A2B8B2B11F40C947C0E66
:100F600008958091910390919203A0919303B09181
:100F70009403892B8A2B8B2B89F480918D0390917C
:100F80008E03A0918F03B0919003892B8A2B8B2B1A
:100F900029F40E947E0E81E080939503089580914C
:100FA0009503882321F0109295030C947C0E0895EC
:100FB0000E94820E8091960390919703A0919803CE
:100FC000B09199030196A11DB11D80939603909352
:100FD0009703A0939803B093990380918D03909108
:100FE0008E03A0918F03B09190030196A11DB11DB6
:100FF00080938D0390938E03A0938F03B0939003FF
:10100000089580918D0390918E03A0918F03B091EC
:1010100090030097A105B10569F1409196035091A5
:1010200097036091980370919903415051096109A8
:1010300071094093960350939703609398037093BC
:1010400099030197A109B10980938D0390938E03B1
:10105000A0938F03B0939003809196039091970390
:10106000A0919803B0919903892B8A2B8B2B11F4B3
:101070000C94800E08950E940A07882311F083E1E2
:10108000089580E00895CF93C82F0E940A078C2FFF
:101090000E942104C82F80917E0181110E94C80402
:1010A0008C2FCF910895CF930E940A07882311F0C7
:1010B000C3E101C0C0E0E0917101F0917201828151
:1010C000815082830E94FA0381E080937D010E9417
:1010D00092048C2FCF910895CF93C82F0E940A07B6
:1010E000E0917101F09172018281815082838C2F95
:1010F0000E942104C82F811108C00E94FA0381E0D8
:1011000080937D010E94920407C0E0917101F091EB
:10111000720182818F5F82838C2FCF910895CF934C
:101120000E940A07882311F0C3E101C0C0E080914A
:1011300075010E9482030E94C804809175019091FC
:101140007601A0917701B091780140917901509199
:101150007A0160917B0170917C0184179507A60745
:10116000B70711F40E9455038C2FCF910895CF93A8
:10117000DF93EC010E940A07882311F083E101C08C
:1011800080E04091750150917601609177017091F6
:101190007801423051056105710514F4488303C09C
:1011A0009091C8019883DF91CF9108950F931F9379
:1011B000CF93C82F8B010E940A07882311F083E187
:1011C00001C080E0EC2FEE0FFF0BE750FD4F0190C8
:1011D000F081E02D94819370F8019083CF911F915D
:1011E0000F910895880F990BFC01E750FD4FA081E6
:1011F000B181ED91FC911197309769F01D921C928D
:101200002091C80193818481228314821382E92F63
:10121000F82F3097B9F70895CF93C82F0E940A0787
:10122000882311F083E101C080E0EC2FF0E0EE0FA5
:10123000FF1FE15DFC4FA081B18190917501129675
:101240009C931297E0917101F0917201208131819C
:1012500014963C932E931397B183A0839381119698
:101260009C9311972C9193819595921774F4022E6B
:10127000000C330BD901A556BC4F9C9191509C9307
:10128000220F331F9170292B2383CF910895CF9381
:10129000DF93C82F0E940A07882311F0D3E101C011
:1012A000D0E0EC2FF0E0EE0FFF1FE15DFC4F01906E
:1012B000F081E02DA0917101B091720181811396AE
:1012C0008C931397838194818D939C9314821382C2
:1012D0008091C80182830E94C8048D2FDF91CF9135
:1012E0000895CF93DF93C82FD62F0E940A076D2F42
:1012F0008C2F0E946204C82F811105C080917E014D
:1013000081110E94C8048C2FDF91CF910895CF9353
:10131000C82F0E940A07882311F083E101C080E0F2
:10132000E0917501EE0FFF0BEB50FD4F0190F08146
:10133000E02DC0959081C923C083CF9108950F936C
:101340001F93CF93C82F8B010E940A07882311F0A7
:1013500083E101C080E0EC2FEE0FFF0BEB50FD4F5F
:101360000190F081E02D9081F8019083CF911F9141
:101370000F9108950F931F93CF93DF93D82FE09190
:101380007501F0917601EE0FFF1FEB50FD4F0081CC
:1013900011810E940A07882311F0C3E101C0C0E057
:1013A000F801D18380818D2311F40E94E2048C2FF7
:1013B000DF91CF911F910F910895DC01ED91FC9188
:1013C00084819581DC01ED91FC9109941F93CF9369
:1013D000DF93182FEB010E940A07882311F083E1A5
:1013E00001C080E0E12FF0E0EE0FFF1FE352FD4F60
:1013F0000190F081E02D0190F081E02D0190F081CD
:10140000E02D40815181628173814C835D836E83C5
:101410007F834481558166817781488359836A83BC
:101420007B834085518562857385488759876A87A4
:101430007B87DF91CF911F9108958F929F92AF92FA
:10144000BF92CF92DF92EF92FF920F931F93CF93B1
:10145000C82F8B010E940A07882311F083E101C085
:1014600080E0EC2FF0E0EE0FFF1FE352FD4F019004
:10147000F081E02D9685913029F54285538564856C
:1014800075850190F081E02D0190F081E02DC088FC
:10149000D188E288F3884C155D056E057F0540F420
:1014A00084809580A680B780480D591D6A1D7B1DDC
:1014B0004C195D096E097F09F801408351836283ED
:1014C000738301C085E0CF911F910F91FF90EF9042
:1014D000DF90CF90BF90AF909F908F9008958F92A4
:1014E0009F92AF92BF92CF92DF92EF92FF920F93B3
:1014F0001F93CF93DF93D82F4A015B0168017901D5
:101500000E940A07882311F0C3E101C0C0E0ED2F5B
:10151000F0E0EE0FFF1FE352FD4F0190F081E02D50
:101520008685811130C0A081B1810D90BC91A02D24
:1015300050964D915D916D917C915397480D591D39
:101540006A1D7B1D14968D919D910D90BC91A02DCF
:1015500084179507A607B70740F4481B590B6A0B79
:101560007B0B415051096109710942875387648798
:101570007587C682D782E086F18681E08687CF01B3
:101580000E945B0501C0C7E08C2FDF91CF911F91B6
:101590000F91FF90EF90DF90CF90BF90AF909F9012
:1015A0008F9008958F929F92AF92BF92CF92DF92C9
:1015B000EF92FF920F931F93CF93DF93C82F4A01AF
:1015C0005B01680179010E940A07882311F0D3E1C9
:1015D00001C0D0E0EC2FF0E0EE0FFF1FE352FD4F13
:1015E0000190F081E02D868581110EC08286938660
:1015F000A486B586C682D782E086F18681E086879A
:10160000CF010E945B0501C0D7E08D2FDF91CF9104
:101610001F910F91FF90EF90DF90CF90BF90AF9010
:101620009F908F9008950F931F93CF93DF93C82FB0
:101630000E940A07882311F0D3E101C0D0E0EC2F0B
:10164000F0E0EE0FFF1FE352FD4F00811181F80122
:101650008685813031F4C8010E94EA05F8011686BA
:1016600001C0D5E08D2FDF91CF911F910F9108958B
:1016700026E040E052EC61E070E083EB93E00E94F2
:10168000651061E080916C010E94340D60E08091F2
:101690006C010E94700D61E08DE00E94340D61E0EC
:1016A0008DE00C94700D8090330390903503D091B1
:1016B000310385E0A82EB12CC0913603C12CD12C6A
:1016C00076010E94F70D2B013C01882D0E94CA0073
:1016D000892D0E94FA00892D0E94F2000E94F70DC8
:1016E000DC01CB0184199509A609B709C80ED91EDA
:1016F000EA1EFB1E8C0D9D1DAE1DBF1D813395473F
:10170000A105B105F4F204EF11E020E030E044EF70
:1017100051E060E070E08D2F0E94060180919A03F5
:1017200090E00196B5010E94CD1080939A038C2F12
:101730000E94FA008D2F0E940E018C2F0E94F20051
:10174000BDCF6F927F928F929F92AF92BF92CF92B6
:10175000DF92FF920F931F93CF93DF9300D000D0BF
:10176000CDB7DEB7E0919A03F0E0EE0FFF1FED5228
:10177000FD4FA080B180F09032034E0185E0880ECD
:10178000911CF50181915F01882309F451C08032D9
:1017900069F404E610E020E030E044E650E060E068
:1017A00070E08F2D0E94060144E019C0BE016F5FFA
:1017B0007F4F0E94700CCE0101966C013601F6013C
:1017C0008081811115C004E610E020E030E044E69D
:1017D00050E060E070E08F2D0E94060143E06091D0
:1017E0006C0180E00E945E0C8F2D0E940E01C9CF1B
:1017F00004E610E020E030E044E650E060E070E015
:101800008F2D0E940601FFEFCF1ADF0A60916C0155
:10181000F30180810E94460C60916C0180E00E947F
:10182000460C8F2D0E940E01C814D90439F6CBCF77
:1018300004E610E020E030E044E650E060E070E0D4
:101840008F2D0E94060144E060916C0180E00E94AF
:101850005E0C8F2D0E940E01609135038091340340
:101860000E94EE000E94CE000F900F900F900F90FC
:10187000DF91CF911F910F91FF90DF90CF90BF909C
:10188000AF909F908F907F906F9008951F93CF930C
:10189000DF93C82F162FD09137036C2F6170812FE3
:1018A0000E94700D8D2F0E94FA008D2F0E94F20071
:1018B000C69599F7DF91CF911F9108951F93CF930C
:1018C000DF93D82F162FC42FCC2331F0612F8D2F0B
:1018D0000E94460CC150F8CFDF91CF911F9108951F
:1018E000DB01482F880F550B660B770BFA01E1548B
:1018F000F109EA31F10508F088C0EC5CFF4F0C9467
:10190000031141E057E060E070E07AC047E051E049
:1019100061E071E075C047E051E0BA0171C047E095
:1019200051E061E070E06CC041E050E060E070E0E8
:1019300067C041E051E067E071E062C047E057E016
:1019400061E070E05DC041E051E0BA0159C041E0A2
:1019500051E060E070E054C041E057E067E077E0BC
:101960004FC047E051E067E070E04AC041E057E017
:1019700061E071E045C047E057E060E070E040C0E2
:1019800047E051E060E070E03BC047E057E067E0CF
:1019900070E036C041E057E067E071E031C047E0F9
:1019A00057E061E077E02CC041E057E061E070E093
:1019B00027C041E051E061E070E022C047E050E024
:1019C00060E070E01DC041E051E067E070E018C0E9
:1019D00041E051E061E077E013C041E057E067E0AB
:1019E00070E00EC047E051E061E077E009C047E0F9
:1019F00051E067E077E004C047E057E061E071E064
:101A00004D935D936D937C931397089587EA91E0CE
:101A10000C944F010895833081F028F4813099F0BF
:101A20008230A1F008958730A9F08830B9F0843071
:101A3000D1F4809180008F7D03C0809180008F77EA
:101A400080938000089584B58F7702C084B58F7D20
:101A500084BD08958091B0008F7703C08091B0005D
:101A60008F7D8093B0000895CF93DF9390E0FC01C9
:101A7000E055FF4F2491FC01EC53FF4F84918823E4
:101A800061F190E0880F991FFC01EE51FF4FC59165
:101A9000D491FC01E852FF4FA591B491611109C0A6
:101AA0009FB7F8948881209582238883EC912E2318
:101AB0000BC0623061F49FB7F8948881322F309563
:101AC00083238883EC912E2B2C939FBF06C08FB766
:101AD000F894E8812E2B28838FBFDF91CF91089552
:101AE0001F93CF93DF93282F30E0F901E456FF4F87
:101AF0008491F901E055FF4FD491F901EC53FF4F68
:101B0000C491CC23C1F0162F81110E940B0DEC2F34
:101B1000F0E0EE0FFF1FE852FF4FA591B4919FB781
:101B2000F894111104C08C91D095D82302C0EC9187
:101B3000DE2BDC939FBFDF91CF911F9108951F9201
:101B40000F920FB60F9211242F933F934F935F93F1
:101B50006F937F938F939F93AF93BF93EF93FF9375
:101B60008091AA039091AB03A091AC03B091AD0317
:101B70003091A90323E0230F2D3720F40196A11DF6
:101B8000B11D05C026E8230F0296A11DB11D2093AB
:101B9000A9038093AA039093AB03A093AC03B093E3
:101BA000AD038091AE039091AF03A091B003B091CB
:101BB000B1030196A11DB11D8093AE039093AF03B5
:101BC000A093B003B093B1030E94060DFF91EF9173
:101BD000BF91AF919F918F917F916F915F914F9145
:101BE0003F912F910F900FBE0F901F9018952FB718
:101BF000F8946091AA037091AB038091AC0390912B
:101C0000AD032FBF089584B5826084BD84B5816023
:101C100084BD85B5826085BD85B5816085BDEEE6F4
:101C2000F0E0808181608083E1E8F0E010828081D3
:101C300082608083808181608083E0E8F0E0808141
:101C400081608083E1EBF0E0808184608083E0EB61
:101C5000F0E0808181608083EAE7F0E08081846049
:101C600080838081826080838081816080838081A5
:101C7000806880831092C1000895FFCFFFCFCF937B
:101C8000DF93880F990BFC01E150FD4FC081D1819A
:101C9000AC81BD8111978A819B81A80FB91F2D85C9
:101CA000CD010197FD013297223019F426EC30E086
:101CB00002C022EE30E02C93DC013C939E818F81A8
:101CC0009083DF018E93CF0107971E928A179B079F
:101CD000E1F780E8DF0118978C93CF0144971E92BB
:101CE0008A179B07E1F7A881B9817597ED93FC935B
:101CF000DF91CF910895089578940895F894089508
:101D000078940895F894089508950E94030E0E940F
:101D1000840E0E940A0D0E94380B8091B2030E942B
:101D2000FE0680E090E0089580913C038093B2032A
:101D3000089508951F920F920FB60F9211242F93BA
:101D40003F934F935F936F937F938F939F93AF9343
:101D5000BF93EF93FF93E091C401F091C501099502
:101D6000FF91EF91BF91AF919F918F917F916F9173
:101D70005F914F913F912F910F900FBE0F901F9049
:101D800018951F920F920FB60F9211242F933F9325
:101D90004F935F936F937F938F939F93AF93BF9373
:101DA000EF93FF93E091C601F091C7010995FF9170
:101DB000EF91BF91AF919F918F917F916F915F91C3
:101DC0004F913F912F910F900FBE0F901F9018953C
:101DD000CF92DF92EF92FF920F931F93CF93DF93F7
:101DE0006C017A018B01C0E0D0E0CE15DF0581F0F7
:101DF000D8016D918D01D601ED91FC910190F0819A
:101E0000E02DC6010995892B11F02196EECF7E01B8
:101E1000C701DF91CF911F910F91FF90EF90DF905D
:101E2000CF9008951F920F920FB60F9211242F9307
:101E30008F939F93EF93FF93E091C303F091C403BB
:101E40008081E091C903F091CA0382FD12C09081A4
:101E50008091CC038F5F8F732091CD03821751F057
:101E6000E091CC03F0E0ED54FC4F958F8093CC03D0
:101E700001C08081FF91EF919F918F912F910F90E1
:101E80000FBE0F901F9018951F920F920FB60F92D2
:101E900011242F933F934F935F936F937F938F936F
:101EA0009F93AF93BF93EF93FF9383EB93E00E94D5
:101EB000D40FFF91EF91BF91AF919F918F917F913F
:101EC0006F915F914F913F912F910F900FBE0F90A7
:101ED0001F901895E3EBF3E01382128288EE93E0F3
:101EE000A0E0B0E084839583A683B78389E793E07D
:101EF0009183808385EC90E09587848784EC90E0E3
:101F00009787868780EC90E0918B808B81EC90E0C6
:101F1000938B828B82EC90E0958B848B86EC90E0A7
:101F2000978B868B118E128E138E148E0895FC0162
:101F3000918D228D892F90E0805C9F4F821B9109AB
:101F40008F7399270895FC01918D828D981731F038
:101F5000828DE80FF11D858D90E008958FEF9FEF42
:101F60000895FC01918D828D981761F0828DDF01BB
:101F7000A80FB11D5D968C91928D9F5F9F73928F7C
:101F800090E008958FEF9FEF0895FC01538D448DED
:101F9000252F30E0842F90E0821B930B541710F014
:101FA000CF96089501970895FC01848DDF01A80F55
:101FB000B11DA35ABF4F2C91848D90E001968F7371
:101FC0009927848FA689B7892C93A089B1898C9190
:101FD000837080648C93938D848D981306C00288DF
:101FE000F389E02D80818F7D80830895EF92FF92A9
:101FF0000F931F93CF93DF93EC0181E0888F9B8D2C
:102000008C8D981305C0E889F989808185FD26C0EB
:10201000F62E0B8D10E00F5F1F4F0F731127E02E70
:102020008C8DE8120CC00FB607FCFACFE889F9894D
:10203000808185FFF5CFCE010E94D40FF1CF8B8D2B
:10204000FE01E80FF11DE35AFF4FF0829FB7F894AD
:102050000B8FEA89FB89808180620AC09FB7F89460
:10206000EE89FF896083E889F989808183708064C3
:1020700080839FBF81E090E0DF91CF911F910F910E
:10208000FF90EF900895CF93DF93EC01888D882324
:10209000C9F0EA89FB89808185FD05C0A889B989D5
:1020A0008C9186FD0FC00FB607FCF5CF808185FFB0
:1020B000F2CFA889B9898C9185FFEDCFCE010E941E
:1020C000D40FE7CFDF91CF910895CF92DF92EF92B7
:1020D000FF921F93CF93DF93EC016A017B01122FD4
:1020E000E889F98982E080834115514E61057105C7
:1020F000B1F060E079E08DE390E0A70196010E94E5
:10210000E110DA01C9010197A109B109B695A795B6
:10211000979587959C01211580E13807A8F0E889FB
:10212000F989108260E874E88EE190E0A7019601D9
:102130000E94E110DA01C9010197A109B109B69520
:10214000A795979587959C01EC85FD853083EE8555
:10215000FF852083188EEC89FD891083EA89FB892D
:10216000808180618083EA89FB89808188608083A7
:10217000EA89FB89808180688083EA89FB89808184
:102180008F7D8083DF91CF911F91FF90EF90DF9043
:10219000CF900895F8940C941D1197FB072E16F418
:1021A000009407D077FD09D00E94091107FC05D0E3
:1021B0003EF4909581959F4F0895709561957F4F5E
:1021C0000895A1E21A2EAA1BBB1BFD010DC0AA1F78
:1021D000BB1FEE1FFF1FA217B307E407F50720F090
:1021E000A21BB30BE40BF50B661F771F881F991F0B
:1021F0001A9469F760957095809590959B01AC0154
:10220000BD01CF010895EE0FFF1F0590F491E02D61
:102210000994AA1BBB1B51E107C0AA1FBB1FA6172D
:10222000B70710F0A61BB70B881F991F5A95A9F77F
:0E22300080959095BC01CD010895F894FFCFE4
:10223E000000000000000000000000000000000090
:10224E000000000000000000000000000000000080
:10225E000000000000000000000000000000000070
:10226E000000000000000000000000000000000060
:10227E000000000000000000000000000000000050
:10228E000000000000000000000000000000000040
:10229E000000000000000000030000FF0700002106
:1022AE00030000A403FFFFFFFFFFFFFFFF0000E19D
:1022BE000200000000000000000000000000EB0221
:1022CE000000000000000000000000000000000000
:1022DE000204000000010401000000FFFF000001E5
:1022EE0000000000000000000000000000000003DD
:1022FE0000FF0000990E990EFF41204645415448BB
:10230E00455220494E205448452048414E442049CC
:10231E005320424554544552205448414E204120AA
:10232E004249524420494E205448452041495200CA
:10233E00412053484F52542050454E43494C20495A
:10234E005320555355414C4C5920424554544552F7
:10235E00205448414E2041204C4F4E47204D454D74
:10236E004F525920414E5920444159004143434553
:10237E00505420534F4D455448494E4720544841E0
:10238E005420594F552043414E4E4F5420434841FF
:10239E004E474520414E4420594F552057494C4CED
:1023AE00204645454C204245545445520041445622
:1023BE00454E545552452043414E204245205245EC
:1023CE00414C2048415050494E45535300414C4CCE
:1023DE0020544845204546464F525420594F5520CB
:1023EE00415245204D414B494E472057494C4C20B8
:1023FE00554C54494D4154454C5920504159204F4C
:10240E00464600C90100023C027D029D028E017FFC
:10241E0001A701DD09E702EA060002A701DD09F1C5
:10242E0002EA060101A203A003A2019D01A4031367
:10243E0003050321035004B0050001A10B6801013F
:10244E00020101520454040001530B00000001016B
:10245E00015E05600550003D0E000002000100BF48
:10246E00010100010004020100000101000108CF7A
:10247E0007D807B10744054E07310577078F084780
:10248E0009FC067109430887096C089F09B708BA49
:10249E0009F406E609EF061D0A130B6F0A0C09D2A2
:1024AE000AD608530800000000F60FE80EC50F43C9
:0824BE0010970FB10FA30F00EE
:00000001FF
