:100000000C945E000C943F0E0C94660E0C948600CB
:100010000C9486000C9486000C9486000C94860048
:100020000C9486000C9486000C9486000C94860038
:100030000C9486000C9486000C9486000C94860028
:100040000C94440D0C9486000C94900F0C94C20FE9
:100050000C9486000C9486000C9486000C94860008
:100060000C9486000C948600000000080002010039
:100070000003040700000000000000000102040863
:100080001020408001020408102001020408102002
:10009000040404040404040402020202020203032E
:1000A0000303030300000000250028002B000000CC
:1000B0000000240027002A00390EE80F11241FBE7B
:1000C000CFEFD8E0DEBFCDBF14E0A0E0B1E0EAE3BF
:1000D000F3E202C005900D92A633B107D9F727E0ED
:1000E000A6E3B4E001C01D92AF35B207E1F710E01E
:1000F000CEE5D0E004C02197FE010E949511CC35D9
:10010000D107C9F70E942A0E0C9448110C940000E4
:10011000E4E10E943D010895E2E10E943D0108955D
:10012000EAE00E943D010895E1E00E943D0108954A
:10013000E3E00E943D010895E7E00E943D0108953B
:10014000E5E00E943D010895E0E00E943D01089530
:10015000E2E00E943D010895E4E00E943D0108951F
:10016000ECE00E943D010895EBE10E943D010895FD
:10017000EEE00E943D010895E8E00E943D010895EF
:10018000E0E10E943D010895EAE10E943D010895E9
:10019000E6E00E943D010895E8E10E943D010895D6
:1001A000E9E00E943D010895EBE00E943D010895C1
:1001B000EDE00E943D010895EFE00E943D010895A9
:1001C000E1E10E943D010895E3E10E943D010895AF
:1001D000E5E10E943D010895E7E10E943D01089597
:1001E000E9E10E943D010895E6E10E943D01089584
:1001F00021968A929A92AA92BA92CA92DA92EA9234
:10020000FA920A931A932197E091D501F091D601C1
:100210000080F181E02DC083D1830895C091D70182
:10022000D091D801E881F981C081D18121961991BD
:100230000991F990E990D990C990B990A9909990B5
:100240008990219708952F903F90E7E6F1E0CDB790
:10025000DEB7EDBFFEBF3F922F9208952F903F90E3
:10026000CDBFDEBF3F922F920895E0E80E943D018E
:100270000895E0E40E943D0108952F923F924F922D
:100280005F926F927F922FB62F92CF93DF937E2E45
:10029000F894E0910001EF5FE0930001E13011F488
:1002A0000E942301E0E0E093E501E72DE07849F0CA
:1002B0000E940B06F091E601F17071F00E94AE040D
:1002C0000BC0E72DEC3140F4EE0FF0E0E352FC4FB1
:1002D0000190F081E02D0995F091E501EF2FE1709B
:1002E00059F0F27011F00E94F8008F938F2F0E9446
:1002F000A0038F910E940E012091000121502093B4
:100300000001222311F40E942E01DF91CF912F9042
:100310002FBE7F906F905F904F903F902F900895E9
:10032000CF92DF92EF92FF920F931F93DC01EC913B
:10033000DB012C918E2F8170C82E880FDD08EE080E
:10034000FF088E2F8F70082E000C990BAA0BBB0B89
:10035000B695A79597958795DC01A65BBB4F8C91C9
:10036000C81AD108E108F108EE70422F4170042E3E
:10037000000C550B660B770B822F8F70082E000C2C
:10038000990BAA0BBB0BB695A79597958795DC01A2
:10039000A65BBB4F8C91481B510961097109822FE3
:1003A0008E709701860101701127222733270E2BAB
:1003B0004170552766277727482B81E090E0041786
:1003C00015072607370710F080E090E01F910F9186
:1003D000FF90EF90DF90CF9008958F929F92AF9211
:1003E000BF92EF92FF920F931F93CF93DF937C0105
:1003F0004A015B01B694A7949794879442305105C3
:1004000061057105E0F0440F551F8701040F151FAA
:10041000E401CC0FDD1FCE0DDF1DB801CE010E941F
:100420009001892B61F0F8019081818128813981C7
:100430003183208398838983B501A401DBCFDF91C9
:10044000CF911F910F91FF90EF90BF90AF909F9031
:100450008F9008954F925F926F927F928F929F92AA
:10046000AF92BF92CF92DF92EF92FF920F931F93C2
:10047000CF93DF9300D000D000D0CDB7DEB78C0192
:100480006A017B01DC018C91282F880F330B440B10
:10049000550B29833A834B835C8346015701880CB3
:1004A000991CAA1CBB1C29813A814B815C812815AF
:1004B00039054A055B0508F442C0240135013FEFC8
:1004C000431A530A630A730A89819A81AB81BC81FA
:1004D00084159505A605B70580F0B201660F771F54
:1004E000600F711FC401880F991F800F911F0E9418
:1004F0009001892B11F0530142013401660C771CE5
:10050000600E711ECC0CDD1CD801AC0DBD1DBE8370
:10051000AD83B301CD010E949001892B81F0ED8163
:10052000FE8190818181D3012D913C91119731837E
:1005300020839C9311968C9375016401AECF26960F
:100540000FB6F894DEBF0FBECDBFDF91CF911F91E4
:100550000F91FF90EF90DF90CF90BF90AF909F9062
:100560008F907F906F905F904F900895E3E0F6E05A
:1005700040814F5F4083042E000C550B660B770BB8
:10058000E82FEE0FFF0BE356FC4F0190F081E02DBA
:100590002385022E000C330BF901E65BFB4F9081A3
:1005A00091509083FA01EE0FFF1FED5FF94F220F7C
:1005B000331F9170292B2083818383E096E00C9474
:1005C000ED01E3E0F6E040814F5F4083042E000C34
:1005D000550B660B770BE82FEE0FFF0BE956FC4F20
:1005E0000190F081E02D9381FA01EE0FFF1FED5F86
:1005F000F94F9083818383E096E00C94ED01CF93D3
:10060000DF93A3E0B6E0EC918FEF8E0F8C93129600
:10061000DC9112971396CC911397EE0FFF0BED5FC1
:10062000F94F8081918113969C938E93129741E0AC
:1006300050E060E070E0CD010E942A028D2F9C2FD7
:10064000DF91CF9108958091DD019091DE01A0911D
:10065000DF01B091E0018F3F2FEF9207A207B207B1
:1006600031F00297A105B10524F481E0089580E0FE
:10067000089582E00895880F990BFC01E356FC4F22
:100680000190F081E02D0084F185E02D3097F9F0A4
:10069000228121111CC021E02283DC01A956BC4F1C
:1006A0000D90BC91A02D13968C911397818380811E
:1006B000082E000C990BFC01E65BFB4F20812150BA
:1006C0002083880F991F2170822B13968C93089595
:1006D000880F990BFC01E356FC4F0190F081E02D4F
:1006E0000084F185E02D309761F02281213049F4BA
:1006F00012822181FC01E956FC4F0190F081E02D2E
:10070000238308958091E1019091E201A091E3019A
:10071000B091E4014091DD015091DE016091DF0173
:100720007091E001481759076A077B0741F0E09193
:10073000DB01F091DC0121E024830C94E1020895B7
:10074000CF93DF93882391F0C091D501D091D6014A
:10075000E091D901F091DA018481833049F081E0A0
:1007600084838091DD010E94E10202C0C0E0D0E0FC
:10077000E091DB01F091DC01F093DA01E093D90123
:100780008091D7019091D8019093D6018093D501A3
:100790008091E1013091E2012091E3019091E40127
:1007A0008093DD013093DE012093DF019093E0011F
:1007B00092E094830E943B03CE01DF91CF91089594
:1007C0008091DD010E946803E091D901F091DA0186
:1007D00082818823D1F085E084838091DD0190912E
:1007E000DE01A091DF01B091E00182309105A10509
:1007F000B10564F4880F991FFC01ED56FC4F019080
:10080000F081E02D11821082089514820895CF9313
:10081000DF93282F220F330BF901E956FC4FC081DB
:10082000D1819A81F901E356FC4F0190F081E02DCE
:1008300044859417C0F491110FC095E09C838230D9
:1008400044F4F901ED56FC4F0190F081E02D118246
:10085000108291E09093E6010E94B6028A818F5F38
:100860008A8380E001C084E0DF91CF910895CF9327
:10087000E82FEE0FFF0BE956FC4F0190F081E02DC1
:10088000C1E0C4830E94B602C093E601CF910895EF
:10089000282F220F330BF901E956FC4FA081B181BB
:1008A00014969C9114979923A9F0F901ED56FC4FE9
:1008B0000190F081E02D9081962B908391816923A6
:1008C00039F0118214969C91933011F40E943704F0
:1008D00080E0089587E00895E82FEE0FFF0BE956BA
:1008E000FC4F0190F081E02D118210820C94E40DF8
:1008F0001F93CF93DF930E94FF02182F892F492F58
:10090000092E000C550B660B770B4093E1015093B9
:10091000E2016093E3017093E401292F220F330B6E
:10092000F901E956FC4FC081D181D093DC01C0931D
:10093000DB01F901E356FC4F208131813093D8016E
:100940002093D7019C81953019F40E946C041B837D
:100950001092E601DF91CF911F910895E091E1019E
:10096000F091E201EE0FFF1FE956FC4F0190F0817C
:10097000E02D909105068381891734F40E9482034B
:100980000E94780483E001C080E08093E50108952F
:100990001F93CF93DF93C5EDD1E0EC81FD8113E090
:1009A000148388850E946803188BDF91CF911F9173
:1009B0000C94780481E08093E5010C947804EF9224
:1009C000FF920F931F93CF93DF93C1E0D0E001C05C
:1009D000CC0F8A95EAF7FC2E82E00E9407048091F2
:1009E000DA038C2319F080E00E9407048091DB0376
:1009F000C82319F081E00E940704C7EDD3E00FE699
:100A000013E0EE24E39489918F2139F0F80180817D
:100A10009181FC01E6860E9444050E5F1F4FF3E0C2
:100A2000CA3DDF0781F7DF91CF911F910F91FF90B2
:100A3000EF9008950E94F90681110E941A07E09133
:100A4000D901F091DA0180819181892B21F0809187
:100A5000DD010E94E1080C9442080E94F906811110
:100A60000E941A07E091D901F091DA018081918109
:100A7000892B21F08091DD010E94E1080C942A0865
:100A800081E0809336040895AF92BF92CF92DF92B7
:100A9000EF92FF920F931F93CF93DF93FC01A081FE
:100AA000B181AD90BC90E501AC89BD89109739F05A
:100AB000428553856485758530E020E017C0D501F7
:100AC00055969C938E93549757969C938E935697D6
:100AD00015821482138212825BC012968D919C91B2
:100AE00013973A2F2B2F009779F0DC011A96CD90AF
:100AF000DD90ED90FC901D974C155D056E057F0512
:100B000060F7CD01A32FB22F93838283B583A48393
:100B1000009719F0EC01FD83EC83109729F01396F0
:100B2000FC93EE93129705C0D5015596FC93EE9376
:100B30005497E501AE89BF891A968D919D910D90CC
:100B4000BC91A02D088919892A893B8980179107B2
:100B5000A207B30780F4041715072607370728F004
:100B6000481759076A077B0798F4D5015796FC93F5
:100B7000EE9356970DC0041715072607370740F464
:100B8000481759076A077B0718F4E501FF8BEE8BBE
:100B9000DF91CF911F910F91FF90EF90DF90CF9059
:100BA000BF90AF900895CF93DF93DC01ED91FC915E
:100BB00011970190F081E02D848995891296CD914D
:100BC000DC911397A817B90711F4D58BC48B8689CC
:100BD0009789A817B90711F4D78BC68B209731F0E6
:100BE00014968D919C9115979D838C8314960D90EE
:100BF000BC91A02D109721F01396DC93CE93129701
:100C000086899789892B21F484899589978B868B8E
:100C1000DF91CF910895EF92FF920F931F93CF939F
:100C2000DF93FC0180913604882309F4B5C08485E4
:100C30009585A685B7850196A11DB11D84879587E9
:100C4000A687B78740815181628173818417950798
:100C5000A607B70709F0A0C0408951896289738946
:100C60004F5F5F4F6F4F7F4F84819581A681B78122
:100C700084179507A607B70718F440E050E0BA01BB
:100C8000408B518B628B738B148615861686178664
:100C9000C689D789209709F47FC08A859B85AC8552
:100CA000BD85481759076A077B0709F075C0CE0153
:100CB000DC011296ED90FC901397E114F10471F0B1
:100CC000D7011A960D911D912D913C911D974017BA
:100CD00051076207730711F4C701EACF2C813D81E8
:100CE0002115310529F0D9011396FC92EE92129745
:100CF000E114F10429F0D70115963C932E93149733
:100D000024893589C217D30711F4F58AE48AE114DE
:100D1000F10419F0F78AE68A04C024893589378BF3
:100D2000268B8F01FC0113821282EA80FB80E8810E
:100D3000F9810280F381E02DCE0109954E815F811A
:100D400068857985411551056105710509F18A8527
:100D50009B85AC85BD85840F951FA61FB71FF80125
:100D60004481558166817781481759076A077B0757
:100D700038F4841B950BA60BB70B0197A109B10999
:100D80008A879B87AC87BD87CE010E94440501C03E
:100D90001E86E701209749F6DF91CF911F910F91B1
:100DA000FF90EF900895DC011296ED91FC9113975E
:100DB0000994FC01638182810C9448040E94F90625
:100DC00080916B01089580936B010E94DF040E9463
:100DD00040050C94DA040C94E30DCF93C82F0E94C5
:100DE0002303811102C00E94200E8C2FCF910C94FE
:100DF0008C00809143048130D9F080913B04909124
:100E00003C04A0913D04B0913E04892B8A2B8B2B8E
:100E100079F481E040913F04509140046091410495
:100E200070914204452B462B472B19F480E008951E
:100E300081E008951092430410923F041092400400
:100E4000109241041092420410923B0410923C0410
:100E500010923D0410923E04809137049091380422
:100E6000A0913904B0913A048093440490934504CE
:100E7000A0934604B093470408950E94230E8091E6
:100E8000440490914504A0914604B0914704019612
:100E9000A11DB11D8093440490934504A093460482
:100EA000B093470480913F0490914004A091410485
:100EB000B09142040196A11DB11D80933F0490930F
:100EC0004004A0934104B0934204089580913F04EC
:100ED00090914004A0914104B09142040097A10573
:100EE000B10569F140914404509145046091460474
:100EF00070914704415051096109710940934404BC
:100F00005093450460934604709347040197A109E8
:100F1000B10980933F0490934004A0934104B0939F
:100F200042048091440490914504A0914604B091FC
:100F30004704892B8A2B8B2B11F40C94210E0895D6
:100F400080913F0490914004A0914104B0914204EB
:100F5000892B8A2B8B2B89F480913B0490913C0444
:100F6000A0913D04B0913E04892B8A2B8B2B29F450
:100F70000E94230E81E080934304089580914304EE
:100F8000882321F0109243040C94210E08950E94AE
:100F9000270E8091440490914504A0914604B0919D
:100FA00047040196A11DB11D80934404909345040C
:100FB000A0934604B093470480913B0490913C0475
:100FC000A0913D04B0913E040196A11DB11D8093F6
:100FD0003B0490933C04A0933D04B0933E040895D9
:100FE00080913B0490913C04A0913D04B0913E045B
:100FF0000097A105B10569F1409144045091450461
:10100000609146047091470441505109610971098A
:1010100040934404509345046093460470934704FE
:101020000197A109B10980933B0490933C04A093DC
:101030003D04B0933E048091440490914504A091F6
:101040004604B0914704892B8A2B8B2B11F40C9406
:10105000250E08950E94F906882311F083E1089572
:1010600080E00895CF93C82F0E94F9068C2F0E942C
:101070000704C82F8091E60181110E94AE048C2FD5
:10108000CF910895CF930E94F906882311F0C3E110
:1010900001C0C0E0E091D901F091DA018281815074
:1010A00082830E94E00381E08093E5010E9478043E
:1010B0008C2FCF910895CF93C82F0E94F906E0910D
:1010C000D901F091DA018281815082838C2F0E94B4
:1010D0000704C82F811108C00E94E00381E08093BB
:1010E000E5010E94780407C0E091D901F091DA018E
:1010F00082818F5F82838C2FCF910895CF930E943E
:10110000F906882311F0C3E101C0C0E08091DD0140
:101110000E9468030E94AE048091DD019091DE017F
:10112000A091DF01B091E0014091E1015091E20115
:101130006091E3017091E40184179507A607B70752
:1011400011F40E943B038C2FCF910895CF93DF932E
:10115000EC010E94F906882311F083E101C080E0D0
:101160004091DD015091DE016091DF017091E0015D
:10117000423051056105710514F4488303C0909114
:101180003F029883DF91CF9108950F931F93CF93E0
:10119000C82F8B010E94F906882311F083E101C05A
:1011A00080E0EC2FEE0FFF0BE956FC4F0190F08131
:1011B000E02D94819370F8019083CF911F910F914E
:1011C0000895880F990BFC01E956FC4FA081B1816D
:1011D000ED91FC911197309769F01D921C9220912E
:1011E0003F0293818481228314821382E92FF82F96
:1011F0003097B9F70895CF93C82F0E94F906882336
:1012000011F083E101C080E0EC2FF0E0EE0FFF1F52
:10121000E353FC4FA081B1819091DD0112969C9324
:101220001297E091D901F091DA0120813181149671
:101230003C932E931397B183A083938111969C9333
:1012400011972C9193819595921774F4022E000CAE
:10125000330BD901A65BBB4F9C9191509C93220FFD
:10126000331F9170292B2383CF910895CF93DF9360
:10127000C82F0E94F906882311F0D3E101C0D0E005
:10128000EC2FF0E0EE0FFF1FE353FC4F0190F081D5
:10129000E02DA091D901B091DA01818113968C9350
:1012A0001397838194818D939C93148213828091F0
:1012B0003F0282830E94AE048D2FDF91CF9108956B
:1012C000CF93DF93C82FD62F0E94F9066D2F8C2F56
:1012D0000E944804C82F811105C08091E601811148
:1012E0000E94AE048C2FDF91CF910895CF93C82F29
:1012F0000E94F906882311F083E101C080E0E091AB
:10130000DD01EE0FFF0BED56FC4F0190F081E02D5B
:10131000C0959081C923C083CF9108950F931F93E7
:10132000CF93C82F8B010E94F906882311F083E127
:1013300001C080E0EC2FEE0FFF0BED56FC4F01904B
:10134000F081E02D9081F8019083CF911F910F9152
:1013500008950F931F93CF93DF93D82FE091DD0172
:10136000F091DE01EE0FFF1FED56FC4F0081118161
:101370000E94F906882311F0C3E101C0C0E0F80122
:10138000D18380818D2311F40E94C8048C2FDF91BA
:10139000CF911F910F910895DC01ED91FC91848113
:1013A0009581DC01ED91FC9109941F93CF93DF931C
:1013B000182FEB010E94F906882311F083E101C088
:1013C00080E0E12FF0E0EE0FFF1FE159FC4F0190AC
:1013D000F081E02D0190F081E02D0190F081E02D71
:1013E00040815181628173814C835D836E837F83F1
:1013F0004481558166817781488359836A837B83E1
:101400004085518562857385488759876A877B87C0
:10141000DF91CF911F9108958F929F92AF92BF92CB
:10142000CF92DF92EF92FF920F931F93CF93C82F2B
:101430008B010E94F906882311F083E101C080E04E
:10144000EC2FF0E0EE0FFF1FE159FC4F0190F0810F
:10145000E02D9685913029F5428553856485758503
:101460000190F081E02D0190F081E02DC088D188BD
:10147000E288F3884C155D056E057F0540F4848095
:101480009580A680B780480D591D6A1D7B1D4C199B
:101490005D096E097F09F80140835183628373837C
:1014A00001C085E0CF911F910F91FF90EF90DF90E9
:1014B000CF90BF90AF909F908F9008958F929F9202
:1014C000AF92BF92CF92DF92EF92FF920F931F9352
:1014D000CF93DF93D82F4A015B01680179010E9405
:1014E000F906882311F0C3E101C0C0E0ED2FF0E060
:1014F000EE0FFF1FE159FC4F0190F081E02D868532
:10150000811130C0A081B1810D90BC91A02D509669
:101510004D915D916D917C915397480D591D6A1DB8
:101520007B1D14968D919D910D90BC91A02D8417DB
:101530009507A607B70740F4481B590B6A0B7B0BAE
:101540004150510961097109428753876487758742
:10155000C682D782E086F18681E08687CF010E942D
:10156000440501C0C7E08C2FDF91CF911F910F91EF
:10157000FF90EF90DF90CF90BF90AF909F908F90B3
:1015800008958F929F92AF92BF92CF92DF92EF9287
:10159000FF920F931F93CF93DF93C82F4A015B01F4
:1015A000680179010E94F906882311F0D3E101C096
:1015B000D0E0EC2FF0E0EE0FFF1FE159FC4F01905F
:1015C000F081E02D868581110EC082869386A486E7
:1015D000B586C682D782E086F18681E08687CF0114
:1015E0000E94440501C0D7E08D2FDF91CF911F915C
:1015F0000F91FF90EF90DF90CF90BF90AF909F90B2
:101600008F9008950F931F93CF93DF93C82F0E945D
:10161000F906882311F0D3E101C0D0E0EC2FF0E00F
:10162000EE0FFF1FE159FC4F00811181F801868503
:10163000813031F4C8010E94D305F801168601C03B
:10164000D5E08D2FDF91CF911F910F91089526E066
:1016500040E052EC61E070E082E694E00E94E3102A
:1016600061E080916C010E94D90C60E080916C0176
:101670000C94150D8090CF033090D203D091D403F9
:101680009090D00385E0A82EB12CC091D503109284
:10169000490400E010E0980144EA5EEA62E070E08C
:1016A000882D0E94EC0060E472E082E694E00E94E3
:1016B000CC0E4AE050E06091480482E694E00E943B
:1016C0002F0F0E949C0D2B013C01832D0E94B00026
:1016D0008D2F0E94E0000E949C0D6B017C016EE446
:1016E00072E082E694E00E94CC0EB701A601441994
:1016F0005509660977092AE030E082E694E00E9405
:101700007E0F8D2F0E94D80080914904882359F2C2
:1017100000E010E0980148EE51E060E070E0892DB3
:101720000E94EC008091480490E00196B5010E946F
:101730004B11809348048C2F0E94E0008C2F0E9454
:10174000D800A5CF5F926F927F928F929F92AF92B7
:10175000BF92CF92DF92EF92FF920F931F93CF939E
:10176000DF9300D000D0CDB7DEB7E0914804F0E0C1
:10177000EE0FFF1FEB59FC4FA080B1804E0185E0BA
:10178000880E911CD090D103CD2C5D2C8091490402
:10179000811168C0F50181915F01882309F462C05D
:1017A000803299F402E610E020E030E042E650E0BA
:1017B00060E070E0852D0E94EC0044E060916C01D7
:1017C00080E00E94800C852D4AC0BE016F5F7F4F74
:1017D0000E94920CCE0101967C013701F7018081B5
:1017E000882339F180914904811123C002E610E079
:1017F00020E030E042E650E060E070E08D2D0E9495
:10180000EC00FFEFEF1AFF0A60916C01F301808199
:101810000E94680C80914904811105C060916C019F
:1018200080E00E94680C8D2D0E94F4008E149F04AD
:10183000A1F6809149048111A9CF02E610E020E0D1
:1018400030E042E650E060E070E08C2D0E94EC0059
:1018500043E060916C0180E00E94800C8C2D0E941E
:10186000F40094CF80914904811116C0F090D10307
:1018700002E610E020E030E042E650E060E070E098
:101880008F2D0E94EC0044E060916C0180E00E948A
:10189000800C8F2D0E94F4006091D4038091D303BB
:1018A0000E94D4000E94B4000F900F900F900F90F0
:1018B000DF91CF911F910F91FF90EF90DF90CF902C
:1018C000BF90AF909F908F907F906F905F900895A2
:1018D0001F93CF93DF93C82F162FD091D6036C2F71
:1018E0006170812F0E94150D8D2F0E94E0008D2FB9
:1018F0000E94D800C69599F7DF91CF911F91089566
:101900001F93CF93DF93D82F162FC42FCC2331F002
:10191000612F8D2F0E94680CC150F8CFDF91CF91BD
:101920001F9108958F7194E0899FF0011124E75968
:10193000FE4F80819181A281B381FB0180839183DD
:10194000A283B383089581E08093490460E080918D
:101950006C010C94150D8EE192E00C943501089504
:10196000833081F028F4813099F08230A1F008951D
:101970008730A9F08830B9F08430D1F480918000AC
:101980008F7D03C0809180008F77809380000895C1
:1019900084B58F7702C084B58F7D84BD0895809112
:1019A000B0008F7703C08091B0008F7D8093B0002E
:1019B0000895CF93DF9390E0FC01E458FF4F24910A
:1019C000FC01E057FF4F8491882361F190E0880F7C
:1019D000991FFC01E255FF4FC591D491FC01EC55D4
:1019E000FF4FA591B491611109C09FB7F894888108
:1019F000209582238883EC912E230BC0623061F402
:101A00009FB7F8948881322F309583238883EC9197
:101A10002E2B2C939FBF06C08FB7F894E8812E2BF6
:101A200028838FBFDF91CF9108951F93CF93DF93CA
:101A3000282F30E0F901E859FF4F8491F901E4586B
:101A4000FF4FD491F901E057FF4FC491CC23C1F06F
:101A5000162F81110E94B00CEC2FF0E0EE0FFF1F4B
:101A6000EC55FF4FA591B4919FB7F894111104C0A4
:101A70008C91D095D82302C0EC91DE2BDC939FBFD4
:101A8000DF91CF911F9108951F920F920FB60F9281
:101A900011242F933F934F935F936F937F938F9373
:101AA0009F93AF93BF93EF93FF93809159049091CD
:101AB0005A04A0915B04B0915C043091580423E077
:101AC000230F2D3720F40196A11DB11D05C026E876
:101AD000230F0296A11DB11D209358048093590431
:101AE00090935A04A0935B04B0935C0480915D04CE
:101AF00090915E04A0915F04B09160040196A11DD5
:101B0000B11D80935D0490935E04A0935F04B09335
:101B100060040E94AB0CFF91EF91BF91AF919F9138
:101B20008F917F916F915F914F913F912F910F9086
:101B30000FBE0F901F9018952FB7F894609159041D
:101B400070915A0480915B0490915C042FBF0895BA
:101B500084B5826084BD84B5816084BD85B58260B2
:101B600085BD85B5816085BDEEE6F0E08081816050
:101B70008083E1E8F0E01082808182608083808150
:101B800081608083E0E8F0E0808181608083E1EB28
:101B9000F0E0808184608083E0EBF0E08081816010
:101BA0008083EAE7F0E080818460808380818260C6
:101BB00080838081816080838081806880831092AF
:101BC000C1000895FFCFFFCFCF93DF93880F990B0C
:101BD000FC01E356FC4FC081D181AC81BD811197DE
:101BE0008A819B81A80FB91F2D85CD010197FD0129
:101BF0003297223019F42CEA30E002C028EC30E0B1
:101C00002C93DC013C939E818F819083DF018E9326
:101C1000CF0107971E928A179B07E1F780E8DF0143
:101C200018978C93CF0144971E928A179B07E1F770
:101C3000A881B9817597ED93FC93DF91CF910895B9
:101C4000089578940895F894089578940895F894F0
:101C5000089508950E94A80D0E94290E0E94AF0CBD
:101C60000E94270B809161040E94ED0680E090E0C5
:101C700008958091DC0380936104089508951F9274
:101C80000F920FB60F9211242F933F934F935F93B0
:101C90006F937F938F939F93AF93BF93EF93FF9334
:101CA000E0913B02F0913C020995FF91EF91BF91C9
:101CB000AF919F918F917F916F915F914F913F91E4
:101CC0002F910F900FBE0F901F9018951F920F929B
:101CD0000FB60F9211242F933F934F935F936F93FF
:101CE0007F938F939F93AF93BF93EF93FF93E09175
:101CF0003D02F0913E020995FF91EF91BF91AF91A6
:101D00009F918F917F916F915F914F913F912F9113
:101D10000F900FBE0F901F901895CF92DF92EF9209
:101D2000FF920F931F93CF93DF936C017A018B0186
:101D3000C0E0D0E0CE15DF0581F0D8016D918D01B6
:101D4000D601ED91FC910190F081E02DC60109953D
:101D5000892B11F02196EECF7E01C701DF91CF9143
:101D60001F910F91FF90EF90DF90CF900895611534
:101D7000710579F0FB0101900020E9F73197AF017F
:101D8000461B570BDC01ED91FC910280F381E02DA5
:101D9000099480E090E008950C94B70EDC01ED9179
:101DA000FC910190F081E02D099465E174E00C94C0
:101DB000B70E8F929F92AF92BF92EF92FF920F93C6
:101DC0001F93CF93DF93CDB7DEB7A1970FB6F894EB
:101DD000DEBF0FBECDBF7C01FA01CB0119A22230BC
:101DE00008F42AE08E010F5D1F4F822E912CA12C4A
:101DF000B12CBF01A50194010E945F11F901CA0134
:101E0000015011096A3014F4605D01C0695CD801A9
:101E10006C93232B242B252B61F7B801C7010E945B
:101E2000B70EA1960FB6F894DEBF0FBECDBFDF91FF
:101E3000CF911F910F91FF90EF90BF90AF909F9027
:101E40008F9008952115310541F4DC01ED91FC914D
:101E50000190F081E02D642F09940C94D90E9A0121
:101E6000462F50E060E070E00C94220FCF92DF929A
:101E7000EF92FF920F931F93CF93DF9321153105BC
:101E800081F4DC01ED91FC910190F081E02D642F53
:101E9000DF91CF911F910F91FF90EF90DF90CF9046
:101EA00009942A30310501F577FF1DC06A017B01D5
:101EB000EC016DE20E94CE0E8C0144275527BA0139
:101EC0004C195D096E097F092AE0CE010E94D90EE6
:101ED000800F911FDF91CF911F910F91FF90EF9095
:101EE000DF90CF9008952AE0DF91CF911F910F915D
:101EF000FF90EF90DF90CF900C94D90E0F931F932B
:101F0000CF93DF93EC010E94360F8C01CE010E942B
:101F1000D50E800F911FDF91CF911F910F910895E2
:101F20001F920F920FB60F9211242F938F939F93AE
:101F3000EF93FF93E0917204F09173048081E0913C
:101F40007804F091790482FD12C0908180917B0425
:101F50008F5F8F7320917C04821751F0E0917B0496
:101F6000F0E0EE59FB4F958F80937B0401C0808198
:101F7000FF91EF919F918F912F910F900FBE0F9036
:101F80001F9018951F920F920FB60F9211242F9346
:101F90003F934F935F936F937F938F939F93AF93F1
:101FA000BF93EF93FF9382E694E00E945210FF915B
:101FB000EF91BF91AF919F918F917F916F915F91C1
:101FC0004F913F912F910F900FBE0F901F9018953A
:101FD000E2E6F4E01382128288EE93E0A0E0B0E043
:101FE00084839583A683B78388E294E0918380837A
:101FF00085EC90E09587848784EC90E097878687CE
:1020000080EC90E0918B808B81EC90E0938B828BC5
:1020100082EC90E0958B848B86EC90E0978B868B9E
:10202000118E128E138E148E0895FC01918D228DC7
:10203000892F90E0805C9F4F821B91098F739927B5
:102040000895FC01918D828D981731F0828DE80FF3
:10205000F11D858D90E008958FEF9FEF0895FC01AD
:10206000918D828D981761F0828DDF01A80FB11DCF
:102070005D968C91928D9F5F9F73928F90E00895F3
:102080008FEF9FEF0895FC01538D448D252F30E095
:10209000842F90E0821B930B541710F0CF96089575
:1020A00001970895FC01848DDF01A80FB11DA35A8B
:1020B000BF4F2C91848D90E001968F739927848F68
:1020C000A689B7892C93A089B1898C91837080648B
:1020D0008C93938D848D981306C00288F389E02D2C
:1020E00080818F7D80830895EF92FF920F931F93DD
:1020F000CF93DF93EC0181E0888F9B8D8C8D9813BB
:1021000005C0E889F989808185FD26C0F62E0B8DF2
:1021100010E00F5F1F4F0F731127E02E8C8DE81218
:102120000CC00FB607FCFACFE889F989808185FFDA
:10213000F5CFCE010E945210F1CF8B8DFE01E80F3A
:10214000F11DE35AFF4FF0829FB7F8940B8FEA8995
:10215000FB89808180620AC09FB7F894EE89FF896D
:102160006083E889F98980818370806480839FBF60
:1021700081E090E0DF91CF911F910F91FF90EF9060
:102180000895CF93DF93EC01888D8823C9F0EA8905
:10219000FB89808185FD05C0A889B9898C9186FD60
:1021A0000FC00FB607FCF5CF808185FFF2CFA8895D
:1021B000B9898C9185FFEDCFCE010E945210E7CFF7
:1021C000DF91CF910895CF92DF92EF92FF921F930C
:1021D000CF93DF93EC016A017B01122FE889F98923
:1021E00082E080834115514E61057105B1F060E0D8
:1021F00079E08DE390E0A70196010E945F11DA017A
:10220000C9010197A109B109B695A7959795879539
:102210009C01211580E13807A8F0E889F98910822E
:1022200060E874E88EE190E0A70196010E945F11DA
:10223000DA01C9010197A109B109B695A79597954A
:1022400087959C01EC85FD853083EE85FF85208395
:10225000188EEC89FD891083EA89FB898081806171
:102260008083EA89FB89808188608083EA89FB8991
:10227000808180688083EA89FB8980818F7D80836B
:10228000DF91CF911F91FF90EF90DF90CF90089555
:10229000F8940C949B1197FB072E16F4009407D02A
:1022A00077FD09D00E94811107FC05D03EF490957E
:1022B00081959F4F0895709561957F4F0895A1E294
:1022C0001A2EAA1BBB1BFD010DC0AA1FBB1FEE1FB0
:1022D000FF1FA217B307E407F50720F0A21BB30BFB
:1022E000E40BF50B661F771F881F991F1A9469F777
:1022F00060957095809590959B01AC01BD01CF01D3
:102300000895AA1BBB1B51E107C0AA1FBB1FA6173C
:10231000B70710F0A61BB70B881F991F5A95A9F78E
:1023200080959095BC01CD010895EE0FFF1F05909B
:0A233000F491E02D0994F894FFCF1A
:10233A000000000000000000000000000000000093
:10234A000000000000000000000000000000000083
:10235A000000000000000000000000000000000073
:10236A000000000000000000000000000000000063
:10237A000000000000000000000000000000000053
:10238A000000000000000000000000000000000043
:10239A000000000000000000030000FF0701070022
:1023AA0000070101010701070107010100010000FF
:1023BA0000010107010707010001010101010100F4
:1023CA0000010707070701070001070101070700C6
:1023DA0000070100000707070001070701070701B7
:1023EA0007010701000101010007000000010107C0
:1023FA00000101010701070700070101070701079B
:10240A0007070701010000BF0300005304FFFFFF95
:10241A00FFFFFFFFFF00007503000000000000003F
:10242A000000000000007F03000000000000000020
:10243A000000000000890300000000000000000006
:10244A00000000000000000200000000010401007A
:10245A000000FFFFFF000100000000000000000074
:10246A000000000000000300FF00003E0E3E0EFFC9
:10247A0053656E64696E67206D7367202300202D93
:10248A0020456C61707365643A20004120464541DD
:10249A005448455220494E205448452048414E440C
:1024AA0020495320424554544552205448414E2015
:1024BA0041204249524420494E205448452041492E
:1024CA005200412053484F52542050454E43494CE4
:1024DA0020495320555355414C4C59204245545498
:1024EA004552205448414E2041204C4F4E47204DE2
:1024FA00454D4F525920414E5920444159004143BC
:10250A004345505420534F4D455448494E47205453
:10251A0048415420594F552043414E4E4F54204371
:10252A0048414E474520414E4420594F552057496E
:10253A004C4C204645454C20424554544552004196
:10254A004456454E545552452043414E204245205B
:10255A005245414C2048415050494E455353004141
:10256A004C4C20544845204546464F525420594F1A
:10257A005520415245204D414B494E472057494C21
:10258A004C20554C54494D4154454C5920504159C1
:10259A00204F4646005B029202CE020F032F03052C
:1025AA0002F601E7011E02CC097B03D306A30C1E27
:1025BA0002CC098503D90600021E02CC098F03D971
:1025CA0006010151044F04190214025304B103A372
:1025DA0003BF03FF045F060001A20B6801010201A9
:1025EA00010105030500013A0B0000000101010D7C
:1025FA00060F065000E20D0000020001003602023A
:10260A0001000100040201000000010000F007BE01
:10261A0007C707A0072D053D071A0566077E083676
:10262A0009EB066009320876095B088E09A608A933
:10263A0009E306D509DE060C0A020B5E0AFB08C18D
:10264A000AC50842080D0A006E616E00696E6600CE
:10265A006F7666000000000074108D0E4310C110E2
:06266A0015102F102110D5
:00000001FF
