:100000000C9478000C94070F0C942E0F0C94A00005
:100010000C94A0000C94A0000C94A0000C94A000E0
:100020000C94A0000C94A0000C94A0000C94A000D0
:100030000C94A0000C94A0000C94A0000C94A000C0
:100040000C940C0E0C94A0000C9458100C948A1074
:100050000C94A0000C94A0000C94A0000C94A000A0
:100060000C94A0000C94A000DF0CE40CE90CED0C47
:10007000F20CF70CFC0C010D050D0A0D0F0D140D03
:10008000190D1E0D230D280D2D0D320D370D3C0DB4
:10009000410D460D4B0D500D550D5A0D0000000839
:1000A000000201000003040700000000000000003F
:1000B00001020408102040800102040810200102FF
:1000C00004081020040404040404040402020202CC
:1000D00002020303030303030000000025002800BD
:1000E0002B0000000000240027002A00010FB010A0
:1000F00011241FBECFEFD8E0DEBFCDBF13E0A0E0DC
:10010000B1E0EAECF4E202C005900D92A03DB10727
:10011000D9F726E0A0EDB3E001C01D92A93FB207D8
:10012000E1F710E0C8E7D0E004C02197FE010E948B
:100130004912C637D107C9F70E94F20E0C9410126B
:100140000C940000E4E10E9457010895E2E10E944E
:1001500057010895EAE00E9457010895E1E00E94E6
:1001600057010895E3E00E9457010895E7E00E94D7
:1001700057010895E5E00E9457010895E0E00E94CC
:1001800057010895E2E00E9457010895E4E00E94BB
:1001900057010895ECE00E9457010895EBE10E9499
:1001A00057010895EEE00E9457010895E8E00E948B
:1001B00057010895E0E10E9457010895EAE10E9485
:1001C00057010895E6E00E9457010895E8E10E9472
:1001D00057010895E9E00E9457010895EBE00E945D
:1001E00057010895EDE00E9457010895EFE00E9445
:1001F00057010895E1E10E9457010895E3E10E944B
:1002000057010895E5E10E9457010895E7E10E9432
:1002100057010895E9E10E9457010895E6E10E941F
:100220005701089521968A929A92AA92BA92CA92F6
:10023000DA92EA92FA920A931A932197E0916E0168
:10024000F0916F010080F181E02DC083D18308958A
:10025000C0917001D0917101E881F981C081D18193
:10026000219619910991F990E990D990C990B99086
:10027000A99099908990219708952F903F90E7E653
:10028000F1E0CDB7DEB7EDBFFEBF3F922F920895EC
:100290002F903F90CDBFDEBF3F922F920895E0E8B0
:1002A0000E9457010895E0E40E94570108952F929B
:1002B0003F924F925F926F927F922FB62F92CF9381
:1002C000DF937E2EF894E0910001EF5FE093000150
:1002D000E13011F40E943D01E0E0E0937E01E72D62
:1002E000E07849F00E942506F0917F01F17071F0ED
:1002F0000E94C8040BC0E72DEC3140F4EE0FF0E093
:10030000EA58FC4F0190F081E02D0995F0917E01B3
:10031000EF2FE17059F0F27011F00E9412018F93EB
:100320008F2F0E94BA038F910E9428012091000113
:10033000215020930001222311F40E944801DF91F3
:10034000CF912F902FBE7F906F905F904F903F90F6
:100350002F900895CF92DF92EF92FF920F931F9309
:10036000DC01EC91DB012C918E2F8170C82E880F5F
:10037000DD08EE08FF088E2F8F70082E000C990BF9
:10038000AA0BBB0BB695A79597958795DC01AC5149
:10039000BC4F8C91C81AD108E108F108EE70422FC9
:1003A0004170042E000C550B660B770B822F8F705B
:1003B000082E000C990BAA0BBB0BB695A795979529
:1003C0008795DC01AC51BC4F8C91481B51096109E8
:1003D0007109822F8E7097018601017011272227E3
:1003E00033270E2B4170552766277727482B81E04E
:1003F00090E0041715072607370710F080E090E01B
:100400001F910F91FF90EF90DF90CF9008958F9202
:100410009F92AF92BF92EF92FF920F931F93CF9351
:10042000DF937C014A015B01B694A794979487946B
:100430004230510561057105E0F0440F551F8701F9
:10044000040F151FE401CC0FDD1FCE0DDF1DB80119
:10045000CE010E94AA01892B61F0F801908181816F
:10046000288139813183208398838983B501A40150
:10047000DBCFDF91CF911F910F91FF90EF90BF9055
:10048000AF909F908F9008954F925F926F927F925E
:100490008F929F92AF92BF92CF92DF92EF92FF9294
:1004A0000F931F93CF93DF9300D000D000D0CDB730
:1004B000DEB78C016A017B01DC018C91282F880F4B
:1004C000330B440B550B29833A834B835C834601E2
:1004D0005701880C991CAA1CBB1C29813A814B81AD
:1004E0005C81281539054A055B0508F442C02401E2
:1004F00035013FEF431A530A630A730A89819A81CF
:10050000AB81BC8184159505A605B70580F0B201C5
:10051000660F771F600F711FC401880F991F800F2E
:10052000911F0E94AA01892B11F05301420134014D
:10053000660C771C600E711ECC0CDD1CD801AC0D56
:10054000BD1DBE83AD83B301CD010E94AA01892BDD
:1005500081F0ED81FE8190818181D3012D913C91CB
:100560001197318320839C9311968C9375016401BC
:10057000AECF26960FB6F894DEBF0FBECDBFDF918B
:10058000CF911F910F91FF90EF90DF90CF90BF9090
:10059000AF909F908F907F906F905F904F90089555
:1005A000EDE9F5E040814F5F4083042E000C550BD0
:1005B000660B770BE82FEE0FFF0BEA5CFC4F019008
:1005C000F081E02D2385022E000C330BF901EC5154
:1005D000FC4F908191509083FA01EE0FFF1FE3567C
:1005E000FA4F220F331F9170292B208381838DE9CD
:1005F00095E00C940702EDE9F5E040814F5F408300
:10060000042E000C550B660B770BE82FEE0FFF0B3B
:10061000E05DFC4F0190F081E02D9381FA01EE0F37
:10062000FF1FE356FA4F908381838DE995E00C9488
:100630000702CF93DF93ADE9B5E0EC918FEF8E0F1A
:100640008C931296DC9112971396CC911397EE0F20
:10065000FF0BE356FA4F8081918113969C938E9302
:10066000129741E050E060E070E0CD010E9444024A
:100670008D2F9C2FDF91CF910895809176019091DD
:100680007701A0917801B09179018F3F2FEF920708
:10069000A207B20731F00297A105B10524F481E069
:1006A000089580E0089582E00895880F990BFC0179
:1006B000EA5CFC4F0190F081E02D0084F185E02D93
:1006C0003097F9F0228121111CC021E02283DC0146
:1006D000A05DBC4F0D90BC91A02D13968C911397EB
:1006E00081838081082E000C990BFC01EC51FC4F9A
:1006F000208121502083880F991F2170822B13960F
:100700008C930895880F990BFC01EA5CFC4F0190D3
:10071000F081E02D0084F185E02D309761F0228199
:10072000213049F412822181FC01E05DFC4F0190EF
:10073000F081E02D2383089580917A0190917B01CF
:10074000A0917C01B0917D0140917601509177019B
:100750006091780170917901481759076A077B0702
:1007600041F0E0917401F091750121E024830C9433
:10077000FB020895CF93DF93882391F0C0916E011F
:10078000D0916F01E0917201F09173018481833007
:1007900049F081E08483809176010E94FB0202C0CF
:1007A000C0E0D0E0E0917401F0917501F093730125
:1007B000E0937201809170019091710190936F01AB
:1007C00080936E0180917A0130917B0120917C01B0
:1007D00090917D0180937601309377012093780189
:1007E0009093790192E094830E945503CE01DF91AA
:1007F000CF910895809176010E948203E091720169
:10080000F091730182818823D1F085E08483809107
:10081000760190917701A0917801B09179018230B1
:100820009105A105B10564F4880F991FFC01E45DF1
:10083000FC4F0190F081E02D118210820895148206
:100840000895CF93DF93282F220F330BF901E05D3A
:10085000FC4FC081D1819A81F901EA5CFC4F019083
:10086000F081E02D44859417C0F491110FC095E0FC
:100870009C83823044F4F901E45DFC4F0190F081E7
:10088000E02D1182108291E090937F010E94D002AE
:100890008A818F5F8A8380E001C084E0DF91CF91FD
:1008A0000895CF93E82FEE0FFF0BE05DFC4F019012
:1008B000F081E02DC1E0C4830E94D002C0937F018B
:1008C000CF910895282F220F330BF901E05DFC4FE3
:1008D000A081B18114969C9114979923A9F0F901F4
:1008E000E45DFC4F0190F081E02D9081962B908388
:1008F0009181692339F0118214969C91933011F4FF
:100900000E94510480E0089587E00895E82FEE0FDB
:10091000FF0BE05DFC4F0190F081E02D1182108211
:100920000C94AC0E1F93CF93DF930E941903182FE2
:10093000892F492F092E000C550B660B770B40931E
:100940007A0150937B0160937C0170937D01292F84
:10095000220F330BF901E05DFC4FC081D181D093B0
:100960007501C0937401F901EA5CFC4F208131816B
:1009700030937101209370019C81953019F40E948D
:1009800086041B8310927F01DF91CF911F91089500
:10099000E0917A01F0917B01EE0FFF1FE05DFC4FCB
:1009A0000190F081E02D90919F058381891734F4A7
:1009B0000E949C030E94920483E001C080E0809327
:1009C0007E0108951F93CF93DF93CEE6D1E0EC81B3
:1009D000FD8113E0148388850E948203188BDF91C8
:1009E000CF911F910C94920481E080937E010C942E
:1009F0009204EF92FF920F931F93CF93DF93C1E086
:100A0000D0E001C0CC0F8A95EAF7FC2E82E00E946C
:100A10002104809173038C2319F080E00E9421044B
:100A200080917403C82319F081E00E942104C0E77B
:100A3000D3E008E013E0EE24E39489918F2139F0AC
:100A4000F80180819181FC01E6860E945E050E5FBF
:100A50001F4FF3E0C337DF0781F7DF91CF911F917D
:100A60000F91FF90EF9008950E94130781110E944B
:100A70003407E0917201F091730180819181892B9B
:100A800021F0809176010E94FB080C945C080E9482
:100A9000130781110E943407E0917201F0917301F4
:100AA00080819181892B21F0809176010E94FB0841
:100AB0000C94440881E08093D0030895AF92BF92D4
:100AC000CF92DF92EF92FF920F931F93CF93DF931A
:100AD000FC01A081B181AD90BC90E501AC89BD89DC
:100AE000109739F0428553856485758530E020E0A4
:100AF00017C0D50155969C938E93549757969C9307
:100B00008E93569715821482138212825BC01296BE
:100B10008D919C9113973A2F2B2F009779F0DC0140
:100B20001A96CD90DD90ED90FC901D974C155D05CB
:100B30006E057F0560F7CD01A32FB22F93838283CB
:100B4000B583A483009719F0EC01FD83EC83109723
:100B500029F01396FC93EE93129705C0D501559694
:100B6000FC93EE935497E501AE89BF891A968D9157
:100B70009D910D90BC91A02D088919892A893B89E6
:100B800080179107A207B30780F4041715072607FB
:100B9000370728F0481759076A077B0798F4D501EB
:100BA0005796FC93EE9356970DC00417150726072A
:100BB000370740F4481759076A077B0718F4E5011F
:100BC000FF8BEE8BDF91CF911F910F91FF90EF90F4
:100BD000DF90CF90BF90AF900895CF93DF93DC016B
:100BE000ED91FC9111970190F081E02D8489958918
:100BF0001296CD91DC911397A817B90711F4D58BF4
:100C0000C48B86899789A817B90711F4D78BC68B2F
:100C1000209731F014968D919C9115979D838C832C
:100C200014960D90BC91A02D109721F01396DC9393
:100C3000CE93129786899789892B21F48489958987
:100C4000978B868BDF91CF910895EF92FF920F9350
:100C50001F93CF93DF93FC018091D003882309F485
:100C6000B5C084859585A685B7850196A11DB11D62
:100C700084879587A687B787408151816281738178
:100C800084179507A607B70709F0A0C040895189C6
:100C9000628973894F5F5F4F6F4F7F4F848195816A
:100CA000A681B78184179507A607B70718F440E017
:100CB00050E0BA01408B518B628B738B1486158682
:100CC00016861786C689D789209709F47FC08A853A
:100CD0009B85AC85BD85481759076A077B0709F0D6
:100CE00075C0CE01DC011296ED90FC901397E114D3
:100CF000F10471F0D7011A960D911D912D913C913F
:100D00001D97401751076207730711F4C701EACF17
:100D10002C813D812115310529F0D9011396FC92D2
:100D2000EE921297E114F10429F0D70115963C9345
:100D30002E93149724893589C217D30711F4F58AA5
:100D4000E48AE114F10419F0F78AE68A04C02489E0
:100D50003589378B268B8F01FC0113821282EA8042
:100D6000FB80E881F9810280F381E02DCE010995B5
:100D70004E815F8168857985411551056105710551
:100D800009F18A859B85AC85BD85840F951FA61FBB
:100D9000B71FF8014481558166817781481759074B
:100DA0006A077B0738F4841B950BA60BB70B0197DA
:100DB000A109B1098A879B87AC87BD87CE010E94B4
:100DC0005E0501C01E86E701209749F6DF91CF91AD
:100DD0001F910F91FF90EF900895DC011296ED9115
:100DE000FC9113970994FC01638182810C94620445
:100DF0000E94130780916B01089580936B010E94FC
:100E0000F9040E945A050C94F4040C94AB0ECF9391
:100E1000C82F0E943D03811102C00E94E80E8C2F52
:100E2000CF910C94A6008091DD038130D9F08091A0
:100E3000D5039091D603A091D703B091D803892B05
:100E40008A2B8B2B79F481E04091D9035091DA03FE
:100E50006091DB037091DC03452B462B472B19F483
:100E600080E0089581E008951092DD031092D90387
:100E70001092DA031092DB031092DC031092D50378
:100E80001092D6031092D7031092D8038091D10309
:100E90009091D203A091D303B091D4038093DE0349
:100EA0009093DF03A093E003B093E10308950E94C1
:100EB000EB0E8091DE039091DF03A091E003B091EF
:100EC000E1030196A11DB11D8093DE039093DF0322
:100ED000A093E003B093E1038091D9039091DA03EA
:100EE000A091DB03B091DC030196A11DB11D80939D
:100EF000D9039093DA03A093DB03B093DC03089546
:100F00008091D9039091DA03A091DB03B091DC03C7
:100F10000097A105B10569F14091DE035091DF030F
:100F20006091E0037091E103415051096109710939
:100F30004093DE035093DF036093E0037093E1037B
:100F40000197A109B1098093D9039093DA03A09383
:100F5000DB03B093DC038091DE039091DF03A0916B
:100F6000E003B091E103892B8A2B8B2B11F40C94B5
:100F7000E90E08958091D9039091DA03A091DB03E3
:100F8000B091DC03892B8A2B8B2B89F48091D503BC
:100F90009091D603A091D703B091D803892B8A2BC7
:100FA0008B2B29F40E94EB0E81E08093DD030895E2
:100FB0008091DD03882321F01092DD030C94E90E6B
:100FC00008950E94EF0E8091DE039091DF03A091BF
:100FD000E003B091E1030196A11DB11D8093DE03F2
:100FE0009093DF03A093E003B093E1038091D503D6
:100FF0009091D603A091D703B091D8030196A11D7B
:10100000B11D8093D5039093D603A093D703B093DB
:10101000D80308958091D5039091D603A091D7036A
:10102000B091D8030097A105B10569F14091DE03A5
:101030005091DF036091E0037091E1034150510949
:10104000610971094093DE035093DF036093E0036D
:101050007093E1030197A109B1098093D50390939F
:10106000D603A093D703B093D8038091DE03909169
:10107000DF03A091E003B091E103892B8A2B8B2B36
:1010800011F40C94ED0E08950E941307882311F0BB
:1010900083E1089580E00895CF93C82F0E9413073D
:1010A0008C2F0E942104C82F80917F0181110E9402
:1010B000C8048C2FCF910895CF930E9413078823E3
:1010C00011F0C3E101C0C0E0E0917201F091730141
:1010D0008281815082830E94FA0381E080937E01A5
:1010E0000E9492048C2FCF910895CF93C82F0E9415
:1010F0001307E0917201F091730182818150828324
:101100008C2F0E942104C82F811108C00E94FA036D
:1011100081E080937E010E94920407C0E0917201F9
:10112000F091730182818F5F82838C2FCF9108951C
:10113000CF930E941307882311F0C3E101C0C0E0E0
:10114000809176010E9482030E94C80480917601FA
:1011500090917701A0917801B091790140917A0145
:1011600050917B0160917C0170917D0184179507FE
:10117000A607B70711F40E9455038C2FCF9108954D
:10118000CF93DF93EC010E941307882311F083E1D2
:1011900001C080E040917601509177016091780123
:1011A00070917901423051056105710514F448834D
:1011B00003C09091D8019883DF91CF9108950F9348
:1011C0001F93CF93C82F8B010E941307882311F020
:1011D00083E101C080E0EC2FEE0FFF0BE05DFC4FE0
:1011E0000190F081E02D94819370F8019083CF916C
:1011F0001F910F910895880F990BFC01E05DFC4F42
:10120000A081B181ED91FC911197309769F01D9209
:101210001C922091D80193818481228314821382AD
:10122000E92FF82F3097B9F70895CF93C82F0E9470
:101230001307882311F083E101C080E0EC2FF0E078
:10124000EE0FFF1FEA59FC4FA081B181909176010A
:1012500012969C931297E0917201F0917301208194
:10126000318114963C932E931397B183A08393817D
:1012700011969C9311972C9193819595921774F4E4
:10128000022E000C330BD901AC51BC4F9C919150F4
:101290009C93220F331F9170292B2383CF910895A4
:1012A000CF93DF93C82F0E941307882311F0D3E157
:1012B00001C0D0E0EC2FF0E0EE0FFF1FEA59FC4F29
:1012C0000190F081E02DA0917201B09173018181B4
:1012D00013968C931397838194818D939C9314829E
:1012E00013828091D80182830E94C8048D2FDF91E0
:1012F000CF910895CF93DF93C82FD62F0E94130765
:101300006D2F8C2F0E946204C82F811105C080911F
:101310007F0181110E94C8048C2FDF91CF91089525
:10132000CF93C82F0E941307882311F083E101C0D7
:1013300080E0E0917601EE0FFF0BE45DFC4F019041
:10134000F081E02DC0959081C923C083CF9108958D
:101350000F931F93CF93C82F8B010E9413078823ED
:1013600011F083E101C080E0EC2FEE0FFF0BE45D94
:10137000FC4F0190F081E02D9081F8019083CF9196
:101380001F910F9108950F931F93CF93DF93D82F41
:10139000E0917601F0917701EE0FFF1FE45DFC4FC5
:1013A000008111810E941307882311F0C3E101C05D
:1013B000C0E0F801D18380818D2311F40E94E20402
:1013C0008C2FDF91CF911F910F910895DC01ED914A
:1013D000FC9184819581DC01ED91FC9109941F932E
:1013E000CF93DF93182FEB010E941307882311F08E
:1013F00083E101C080E0E12FF0E0EE0FFF1FE85F26
:10140000FC4F0190F081E02D0190F081E02D0190E2
:10141000F081E02D40815181628173814C835D8335
:101420006E837F83448155816681778148835983A8
:101430006A837B8340855185628573854887598798
:101440006A877B87DF91CF911F9108958F929F923A
:10145000AF92BF92CF92DF92EF92FF920F931F93C2
:10146000CF93C82F8B010E941307882311F083E1CB
:1014700001C080E0EC2FF0E0EE0FFF1FE85FFC4FB3
:101480000190F081E02D9685913029F542855385B4
:10149000648575850190F081E02D0190F081E02D4B
:1014A000C088D188E288F3884C155D056E057F05FC
:1014B00040F484809580A680B780480D591D6A1D30
:1014C0007B1D4C195D096E097F09F801408351832A
:1014D0006283738301C085E0CF911F910F91FF90CC
:1014E000EF90DF90CF90BF90AF909F908F90089536
:1014F0008F929F92AF92BF92CF92DF92EF92FF9224
:101500000F931F93CF93DF93D82F4A015B0168019C
:1015100079010E941307882311F0C3E101C0C0E0E4
:10152000ED2FF0E0EE0FFF1FE85FFC4F0190F08120
:10153000E02D8685811130C0A081B1810D90BC91D4
:10154000A02D50964D915D916D917C915397480DD2
:10155000591D6A1D7B1D14968D919D910D90BC9116
:10156000A02D84179507A607B70740F4481B590B11
:101570006A0B7B0B415051096109710942875387FE
:1015800064877587C682D782E086F18681E0868788
:10159000CF010E945E0501C0C7E08C2FDF91CF9183
:1015A0001F910F91FF90EF90DF90CF90BF90AF9081
:1015B0009F908F9008958F929F92AF92BF92CF92FB
:1015C000DF92EF92FF920F931F93CF93DF93C82F79
:1015D0004A015B01680179010E941307882311F019
:1015E000D3E101C0D0E0EC2FF0E0EE0FFF1FE85F89
:1015F000FC4F0190F081E02D868581110EC082861E
:101600009386A486B586C682D782E086F18681E07D
:101610008687CF010E945E0501C0D7E08D2FDF9144
:10162000CF911F910F91FF90EF90DF90CF90BF90DF
:10163000AF909F908F9008950F931F93CF93DF9358
:10164000C82F0E941307882311F0D3E101C0D0E016
:10165000EC2FF0E0EE0FFF1FE85FFC4F00811181DF
:10166000F8018685813031F4C8010E94ED05F8014A
:10167000168601C0D5E08D2FDF91CF911F910F917C
:10168000089526E040E052EC61E070E08CEF93E0DA
:101690000E94AB1161E080916C010E94A10D60E09D
:1016A00080916C010E94DD0D61E08DE00E94A10D32
:1016B00060E08DE00E94DD0D61E083E00E94A10DFD
:1016C00060E083E00C94DD0DD091680330906B03F3
:1016D00090906D038090690385E0A82EB12CC09195
:1016E0006E031092E30300E61AEE20E030E040E6DD
:1016F0005AEE60E070E08D2F0E94060169ED71E006
:101700008CEF93E00E94940F4AE050E06091E20376
:101710008CEF93E00E94F70F0E94640E2B013C01B6
:10172000832D0E94CA00892D0E94FA000E94640E37
:101730006B017C0167EE71E08CEF93E00E94940FE7
:10174000B701A60144195509660977092AE030E076
:101750008CEF93E00E944610892D0E94F200909138
:10176000E30380916D019813C9CF00E010E0980168
:1017700044EF51E060E070E0882D0E940601809106
:10178000E20390E00196B5010E9413128093E203F8
:101790008D2F0E940E018C2F0E94FA008C2F0E9428
:1017A000F2009FCF5F926F927F928F929F92AF9243
:1017B000BF92CF92DF92EF92FF920F931F93CF933E
:1017C000DF9300D000D0CDB7DEB7E091E203F0E0C8
:1017D000EE0FFF1FE250FD4FA080B1804E0185E06B
:1017E000880E911CD0906A03CD2C5D2C9091E30360
:1017F00080916D01981709F46FC0F50181915F0127
:10180000882309F469C0803299F404E610E020E0EE
:1018100030E044E650E060E070E0852D0E94060173
:1018200044E060916C0180E00E94BC0C852D51C0A9
:10183000BE016F5F7F4F0E94CE0CCE0101967C01EE
:101840003701F7018081882359F19091E30380915A
:101850006D01981729F104E610E020E030E044E63D
:1018600050E060E070E08D2D0E940601FFEFEF1A5E
:10187000FF0A60916C01F30180810E94A40C909199
:10188000E30380916D01981729F060916C0180E06D
:101890000E94A40C8D2D0E940E018E149F0481F6CF
:1018A0009091E30380916D01981709F49FCF04E6AE
:1018B00010E020E030E044E650E060E070E08C2D85
:1018C0000E94060143E060916C0180E00E94BC0C24
:1018D0008C2D0E940E018ACF9091E30380916D01BF
:1018E0009817B1F0F0906A0304E610E020E030E0D1
:1018F00044E650E060E070E08F2D0E94060144E075
:1019000060916C0180E00E94BC0C8F2D0E940E0142
:1019100060916D0380916C030E94EE000E94CE00E6
:101920000F900F900F900F90DF91CF911F910F911B
:10193000FF90EF90DF90CF90BF90AF909F908F90EF
:101940007F906F905F9008951F93CF93DF93C82F80
:10195000162FD0916F036C2F6170812F0E94DD0DC7
:101960008D2F0E94FA008D2F0E94F200C69599F7E4
:10197000DF91CF911F9108951F93CF93DF93D82FBD
:10198000162FC42FCC2331F0612F8D2F0E94A40C71
:10199000C150F8CFDF91CF911F910895DB01482FFF
:1019A000880F550B660B770BFA01E154F109EA3108
:1019B000F10508F088C0EC5CFF4F0C94491241E03F
:1019C00057E060E070E07AC047E051E061E071E02C
:1019D00075C047E051E0BA0171C047E051E061E0F5
:1019E00070E06CC041E050E060E070E067C041E052
:1019F00051E067E071E062C047E057E061E070E00D
:101A00005DC041E051E0BA0159C041E051E060E001
:101A100070E054C041E057E067E077E04FC047E036
:101A200051E067E070E04AC041E057E061E071E0FA
:101A300045C047E057E060E070E040C047E051E05B
:101A400060E070E03BC047E057E067E070E036C020
:101A500041E057E067E071E031C047E057E061E006
:101A600077E02CC041E057E061E070E027C041E042
:101A700051E061E070E022C047E050E060E070E0DB
:101A80001DC041E051E067E070E018C041E051E066
:101A900061E077E013C041E057E067E070E00EC01E
:101AA00047E051E061E077E009C047E051E067E0DE
:101AB00077E004C047E057E061E071E04D935D934B
:101AC0006D937C93139708958091E3038F5F8093C8
:101AD000E30390916D01891305C060E080916C0172
:101AE0000C94DD0D089587EB91E00C944F0108955F
:101AF000833081F028F4813099F08230A1F008958C
:101B00008730A9F08830B9F08430D1F4809180001A
:101B10008F7D03C0809180008F778093800008952F
:101B200084B58F7702C084B58F7D84BD0895809180
:101B3000B0008F7703C08091B0008F7D8093B0009C
:101B40000895CF93DF9390E0FC01E055FF4F24917F
:101B5000FC01EC53FF4F8491882361F190E0880FE2
:101B6000991FFC01EE51FF4FC591D491FC01E85241
:101B7000FF4FA591B491611109C09FB7F894888176
:101B8000209582238883EC912E230BC0623061F470
:101B90009FB7F8948881322F309583238883EC9106
:101BA0002E2B2C939FBF06C08FB7F894E8812E2B65
:101BB00028838FBFDF91CF9108951F93CF93DF9339
:101BC000282F30E0F901E456FF4F8491F901E055E8
:101BD000FF4FD491F901EC53FF4FC491CC23C1F0D6
:101BE000162F81110E94780DEC2FF0E0EE0FFF1FF1
:101BF000E852FF4FA591B4919FB7F894111104C01A
:101C00008C91D095D82302C0EC91DE2BDC939FBF42
:101C1000DF91CF911F9108951F920F920FB60F92EF
:101C200011242F933F934F935F936F937F938F93E1
:101C30009F93AF93BF93EF93FF938091F3039091A2
:101C4000F403A091F503B091F6033091F20323E081
:101C5000230F2D3720F40196A11DB11D05C026E8E4
:101C6000230F0296A11DB11D2093F2038093F3036D
:101C70009093F403A093F503B093F6038091F703D8
:101C80009091F803A091F903B091FA030196A11D78
:101C9000B11D8093F7039093F803A093F903B093D9
:101CA000FA030E94730DFF91EF91BF91AF919F9145
:101CB0008F917F916F915F914F913F912F910F90F5
:101CC0000FBE0F901F9018952FB7F8946091F303F3
:101CD0007091F4038091F5039091F6032FBF08955E
:101CE00084B5826084BD84B5816084BD85B5826021
:101CF00085BD85B5816085BDEEE6F0E080818160BF
:101D00008083E1E8F0E010828081826080838081BE
:101D100081608083E0E8F0E0808181608083E1EB96
:101D2000F0E0808184608083E0EBF0E0808181607E
:101D30008083EAE7F0E08081846080838081826034
:101D4000808380818160808380818068808310921D
:101D5000C1000895FFCFFFCFCF93DF93880F990B7A
:101D6000FC01EA5CFC4FC081D181AC81BD8111973F
:101D70008A819B81A80FB91F2D85CD010197FD0197
:101D80003297223019F426EC30E002C022EE30E027
:101D90002C93DC013C939E818F819083DF018E9395
:101DA000CF0107971E928A179B07E1F780E8DF01B2
:101DB00018978C93CF0144971E928A179B07E1F7DF
:101DC000A881B9817597ED93FC93DF91CF91089528
:101DD000089578940895F894089578940895F8945F
:101DE000089508950E94700E0E94F10E0E94770DD2
:101DF0000E94410B8091FB030E94070780E090E066
:101E00000895809175038093FB03089508951F92B0
:101E10000F920FB60F9211242F933F934F935F931E
:101E20006F937F938F939F93AF93BF93EF93FF93A2
:101E3000E091D401F091D5010995FF91EF91BF9107
:101E4000AF919F918F917F916F915F914F913F9152
:101E50002F910F900FBE0F901F9018951F920F9209
:101E60000FB60F9211242F933F934F935F936F936D
:101E70007F938F939F93AF93BF93EF93FF93E091E3
:101E8000D601F091D7010995FF91EF91BF91AF91E4
:101E90009F918F917F916F915F914F913F912F9182
:101EA0000F900FBE0F901F901895CF92DF92EF9278
:101EB000FF920F931F93CF93DF936C017A018B01F5
:101EC000C0E0D0E0CE15DF0581F0D8016D918D0125
:101ED000D601ED91FC910190F081E02DC6010995AC
:101EE000892B11F02196EECF7E01C701DF91CF91B2
:101EF0001F910F91FF90EF90DF90CF9008956115A3
:101F0000710579F0FB0101900020E9F73197AF01ED
:101F1000461B570BDC01ED91FC910280F381E02D13
:101F2000099480E090E008950C947F0FDC01ED911E
:101F3000FC910190F081E02D09946EEA73E00C941D
:101F40007F0F8F929F92AF92BF92EF92FF920F936B
:101F50001F93CF93DF93CDB7DEB7A1970FB6F89459
:101F6000DEBF0FBECDBF7C01FA01CB0119A222302A
:101F700008F42AE08E010F5D1F4F822E912CA12CB8
:101F8000B12CBF01A50194010E942712F901CA01D9
:101F9000015011096A3014F4605D01C0695CD80118
:101FA0006C93232B242B252B61F7B801C7010E94CA
:101FB0007F0FA1960FB6F894DEBF0FBECDBFDF91A5
:101FC000CF911F910F91FF90EF90BF90AF909F9096
:101FD0008F9008952115310541F4DC01ED91FC91BC
:101FE0000190F081E02D642F09940C94A10F9A01C7
:101FF000462F50E060E070E00C94EA0FCF92DF9241
:10200000EF92FF920F931F93CF93DF93211531052A
:1020100081F4DC01ED91FC910190F081E02D642FC1
:10202000DF91CF911F910F91FF90EF90DF90CF90B4
:1020300009942A30310501F577FF1DC06A017B0143
:10204000EC016DE20E94960F8C0144275527BA01DE
:102050004C195D096E097F092AE0CE010E94A10F8B
:10206000800F911FDF91CF911F910F91FF90EF9003
:10207000DF90CF9008952AE0DF91CF911F910F91CB
:10208000FF90EF90DF90CF900C94A10F0F931F93D0
:10209000CF93DF93EC010E94FE0F8C01CE010E94D2
:1020A0009D0F800F911FDF91CF911F910F91089588
:1020B0001F920F920FB60F9211242F938F939F931D
:1020C000EF93FF93E0910C04F0910D048081E09177
:1020D0001204F091130482FD12C0908180911504C6
:1020E0008F5F8F7320911604821751F0E0911504D1
:1020F000F0E0E450FC4F958F8093150401C080817F
:10210000FF91EF919F918F912F910F900FBE0F90A4
:102110001F9018951F920F920FB60F9211242F93B4
:102120003F934F935F936F937F938F939F93AF935F
:10213000BF93EF93FF938CEF93E00E941A11FF91EE
:10214000EF91BF91AF919F918F917F916F915F912F
:102150004F913F912F910F900FBE0F901F901895A8
:10216000ECEFF3E01382128288EE93E0A0E0B0E09F
:1021700084839583A683B78381EC93E091838083E6
:1021800085EC90E09587848784EC90E0978786873C
:1021900080EC90E0918B808B81EC90E0938B828B34
:1021A00082EC90E0958B848B86EC90E0978B868B0D
:1021B000118E128E138E148E0895FC01918D228D36
:1021C000892F90E0805C9F4F821B91098F73992724
:1021D0000895FC01918D828D981731F0828DE80F62
:1021E000F11D858D90E008958FEF9FEF0895FC011C
:1021F000918D828D981761F0828DDF01A80FB11D3E
:102200005D968C91928D9F5F9F73928F90E0089561
:102210008FEF9FEF0895FC01538D448D252F30E003
:10222000842F90E0821B930B541710F0CF960895E3
:1022300001970895FC01848DDF01A80FB11DA35AF9
:10224000BF4F2C91848D90E001968F739927848FD6
:10225000A689B7892C93A089B1898C9183708064F9
:102260008C93938D848D981306C00288F389E02D9A
:1022700080818F7D80830895EF92FF920F931F934B
:10228000CF93DF93EC0181E0888F9B8D8C8D981329
:1022900005C0E889F989808185FD26C0F62E0B8D61
:1022A00010E00F5F1F4F0F731127E02E8C8DE81287
:1022B0000CC00FB607FCFACFE889F989808185FF49
:1022C000F5CFCE010E941A11F1CF8B8DFE01E80FE0
:1022D000F11DE35AFF4FF0829FB7F8940B8FEA8904
:1022E000FB89808180620AC09FB7F894EE89FF89DC
:1022F0006083E889F98980818370806480839FBFCF
:1023000081E090E0DF91CF911F910F91FF90EF90CE
:102310000895CF93DF93EC01888D8823C9F0EA8973
:10232000FB89808185FD05C0A889B9898C9186FDCE
:102330000FC00FB607FCF5CF808185FFF2CFA889CB
:10234000B9898C9185FFEDCFCE010E941A11E7CF9C
:10235000DF91CF910895CF92DF92EF92FF921F937A
:10236000CF93DF93EC016A017B01122FE889F98991
:1023700082E080834115514E61057105B1F060E046
:1023800079E08DE390E0A70196010E942712DA011F
:10239000C9010197A109B109B695A79597958795A8
:1023A0009C01211580E13807A8F0E889F98910829D
:1023B00060E874E88EE190E0A70196010E94271280
:1023C000DA01C9010197A109B109B695A7959795B9
:1023D00087959C01EC85FD853083EE85FF85208304
:1023E000188EEC89FD891083EA89FB8980818061E0
:1023F0008083EA89FB89808188608083EA89FB8900
:10240000808180688083EA89FB8980818F7D8083D9
:10241000DF91CF911F91FF90EF90DF90CF900895C3
:10242000F8940C94631297FB072E16F4009407D0CF
:1024300077FD09D00E944F1207FC05D03EF490951D
:1024400081959F4F0895709561957F4F0895A1E202
:102450001A2EAA1BBB1BFD010DC0AA1FBB1FEE1F1E
:10246000FF1FA217B307E407F50720F0A21BB30B69
:10247000E40BF50B661F771F881F991F1A9469F7E5
:1024800060957095809590959B01AC01BD01CF0141
:102490000895EE0FFF1F0590F491E02D0994AA1BFB
:1024A000BB1B51E107C0AA1FBB1FA617B70710F03F
:1024B000A61BB70B881F991F5A95A9F78095909571
:0A24C000BC01CD010895F894FFCF90
:1024CA000000000000000000000000000000000002
:1024DA0000000000000000000000000000000000F2
:1024EA0000000000000000000000000000000000E2
:1024FA0000000000000000000000000000000000D2
:10250A0000000000000000000000000000000000C1
:10251A0000000000000000000000000000000000B1
:10252A000000000000000000030000FF0703000095
:10253A0058030000ED03FFFFFFFFFFFFFFFF00004E
:10254A000E03000000000000000000000000001858
:10255A000300000000000000000000000000220349
:10256A000000000000000000000000000000000061
:10257A000200000000010401000000FFFF0000014A
:10258A00000000000000000000000000000000033E
:10259A0000FF0000060F060FFF53656E64696E6741
:1025AA00206D7367202300202D20456C61707365B0
:1025BA00643A200041204645415448455220494E3C
:1025CA00205448452048414E44204953204245540E
:1025DA00544552205448414E2041204249524420F9
:1025EA00494E205448452041495200412053484F02
:1025FA0052542050454E43494C2049532055535577
:10260A00414C4C5920424554544552205448414E5D
:10261A002041204C4F4E47204D454D4F52592041A5
:10262A004E59204441590041434345505420534F89
:10263A004D455448494E47205448415420594F5516
:10264A002043414E4E4F54204348414E4745204176
:10265A004E4420594F552057494C4C204645454C2D
:10266A002042455454455200414456454E54555211
:10267A00452043414E204245205245414C20484185
:10268A005050494E45535300414C4C205448452024
:10269A004546464F525420594F5520415245204DE8
:1026AA00414B494E472057494C4C20554C54494DB3
:1026BA004154454C5920504159204F464600F40197
:1026CA002B026702A802C8029E018F018001B7018E
:1026DA00E6091403ED06640DB701E6091E03F306C5
:1026EA000002B701E6092803F3060101EB03E90337
:1026FA00B201AD01ED034A033C0358039904F905FD
:10270A000001D20B6801010201019B049D04000132
:10271A00640B000000010101A705A9055000AA0EDB
:10272A00000002000100CF010201000100040201C1
:10273A000000000100000A08D807E107BA074705A8
:10274A005707340580079808500905077A094C0885
:10275A0090097508A809C008C309FD06EF09F8061B
:10276A00260A1C0B780A1509DB0ADF085C080D0A21
:10277A00006E616E00696E66006F7666000000008A
:10278A00003C11550F0B118911DD10F710E91000EB
:00000001FF
