:100000000C945E000C942B0E0C94520E0C948600F3
:100010000C9486000C9486000C9486000C94860048
:100020000C9486000C9486000C9486000C94710C41
:100030000C9486000C9486000C9486000C94860028
:100040000C94300D0C9486000C947C0F0C94AE0F25
:100050000C9486000C9486000C9486000C94860008
:100060000C9486000C948600000000080002010039
:100070000003040700000000000000000102040863
:100080001020408001020408102001020408102002
:10009000040404040404040402020202020203032E
:1000A0000303030300000000250028002B000000CC
:1000B0000000240027002A00250ED40F11241FBEA3
:1000C000CFEFD8E0DEBFCDBF13E0A0E0B1E0E2E1CA
:1000D000F3E202C005900D92AE3FB107D9F725E0DB
:1000E000AEEFB3E001C01D92A03AB207E1F710E015
:1000F000CEE5D0E004C02197FE010E948111CC35ED
:10010000D107C9F70E94160E0C9434110C9400000C
:10011000E4E10E943D010895E2E10E943D0108955D
:10012000EAE00E943D010895E1E00E943D0108954A
:10013000E3E00E943D010895E7E00E943D0108953B
:10014000E5E00E943D010895E0E00E943D01089530
:10015000E2E00E943D010895E4E00E943D0108951F
:10016000ECE00E943D010895EBE10E943D010895FD
:10017000EEE00E943D010895E8E00E943D010895EF
:10018000E0E10E943D010895EAE10E943D010895E9
:10019000E6E00E943D010895E8E10E943D010895D6
:1001A000E9E00E943D010895EBE00E943D010895C1
:1001B000EDE00E943D010895EFE00E943D010895A9
:1001C000E1E10E943D010895E3E10E943D010895AF
:1001D000E5E10E943D010895E7E10E943D01089597
:1001E000E9E10E943D010895E6E10E943D01089584
:1001F00021968A929A92AA92BA92CA92DA92EA9234
:10020000FA920A931A932197E091AB01F091AC0115
:100210000080F181E02DC083D1830895C091AD01AC
:10022000D091AE01E881F981C081D18121961991E7
:100230000991F990E990D990C990B990A9909990B5
:100240008990219708952F903F90E7E6F1E0CDB790
:10025000DEB7EDBFFEBF3F922F9208952F903F90E3
:10026000CDBFDEBF3F922F920895E0E80E943D018E
:100270000895E0E40E943D0108952F923F924F922D
:100280005F926F927F922FB62F92CF93DF937E2E45
:10029000F894E0910001EF5FE0930001E13011F488
:1002A0000E942301E0E0E093BB01E72DE07849F0F4
:1002B0000E940C06F091BC01F17071F00E94AF0435
:1002C0000BC0E72DEC3140F4EE0FF0E0EC55FC4FA5
:1002D0000190F081E02D0995F091BB01EF2FE170C5
:1002E00059F0F27011F00E94F8008F938F2F0E9446
:1002F000A1038F910E940E012091000121502093B3
:100300000001222311F40E942E01DF91CF912F9042
:100310002FBE7F906F905F904F903F902F900895E9
:10032000CF92DF92EF92FF920F931F93DC01EC913B
:10033000DB012C918E2F8170C82E880FDD08EE080E
:10034000FF088E2F8770082E000C990BAA0BBB0B91
:10035000B695A79597958795DC01AE5EBB4F8C91BE
:10036000C81AD108E108F108E670422F4170042E46
:10037000000C550B660B770B822F8770082E000C34
:10038000990BAA0BBB0BB695A79597958795DC01A2
:10039000AE5EBB4F8C91481B510961097109822FD8
:1003A00086709701860101701127222733270E2BB3
:1003B0004170552766277727482B81E090E0041786
:1003C00015072607370710F080E090E01F910F9186
:1003D000FF90EF90DF90CF9008958F929F92AF9211
:1003E000BF92EF92FF920F931F93CF93DF937C0105
:1003F0004A015B01B694A7949794879442305105C3
:1004000061057105E0F0440F551F8701040F151FAA
:10041000E401CC0FDD1FCE0DDF1DB801CE010E941F
:100420009001892B61F0F8019081818128813981C7
:100430003183208398838983B501A401DBCFDF91C9
:10044000CF911F910F91FF90EF90BF90AF909F9031
:100450008F9008954F925F926F927F928F929F92AA
:10046000AF92BF92CF92DF92EF92FF920F931F93C2
:10047000CF93DF9300D000D000D0CDB7DEB78C0192
:100480006A017B01DC018C91282F880F330B440B10
:10049000550B29833A834B835C8346015701880CB3
:1004A000991CAA1CBB1C29813A814B815C812815AF
:1004B00039054A055B0508F442C0240135013FEFC8
:1004C000431A530A630A730A89819A81AB81BC81FA
:1004D00084159505A605B70580F0B201660F771F54
:1004E000600F711FC401880F991F800F911F0E9418
:1004F0009001892B11F0530142013401660C771CE5
:10050000600E711ECC0CDD1CD801AC0DBD1DBE8370
:10051000AD83B301CD010E949001892B81F0ED8163
:10052000FE8190818181D3012D913C91119731837E
:1005300020839C9311968C9375016401AECF26960F
:100540000FB6F894DEBF0FBECDBFDF91CF911F91E4
:100550000F91FF90EF90DF90CF90BF90AF909F9062
:100560008F907F906F905F904F900895E6E4F5E054
:1005700040814F5F4083042E000C550B660B770BB8
:10058000E82FEE0FFF0BE858FC4F0190F081E02DB3
:100590002385022E000C330BF901EE5EFB4F908198
:1005A00091509083FA01EE0FFF1FEA5BFA4F220F82
:1005B000331F9170292B2083818386E495E00C946E
:1005C000ED01E6E4F5E040814F5F4083042E000C2E
:1005D000550B660B770BE82FEE0FFF0BEC58FC4F1B
:1005E0000190F081E02D9381FA01EE0FFF1FEA5B8D
:1005F000FA4F9083818386E495E00C94ED01CF93CC
:10060000DF93A6E4B5E0EC918FEF8E0F8C931296FA
:10061000DC9112971396CC911397EE0FFF0BEA5BC8
:10062000FA4F8081918113969C938E93129741E0AB
:1006300050E060E070E0CD010E942A028D2F9C2FD7
:10064000DF91CF9108958091B3019091B401A09171
:10065000B501B091B6018F3F2FEF9207A207B20705
:1006600039F0181619061A061B0624F081E00895C1
:1006700080E0089582E00895880F990BFC01E85806
:10068000FC4F0190F081E02D0084F185E02D309742
:10069000F9F0228121111CC021E02283DC01AC5839
:1006A000BC4F0D90BC91A02D13968C911397818314
:1006B0008081082E000C990BFC01EE5EFB4F20811F
:1006C00021502083880F991F2170822B13968C93C1
:1006D0000895880F990BFC01E858FC4F0190F081B8
:1006E000E02D0084F185E02D309761F022812130EA
:1006F00049F412822181FC01EC58FC4F0190F081F9
:10070000E02D238308958091B7019091B801A091C5
:10071000B901B091BA014091B3015091B401609117
:10072000B5017091B601481759076A077B0741F078
:10073000E091B101F091B20121E024830C94E10237
:100740000895CF93DF93882391F0C091AB01D091AE
:10075000AC01E091AF01F091B0018481833049F0A8
:1007600081E084838091B3010E94E10202C0C0E075
:10077000D0E0E091B101F091B201F093B001E093CB
:10078000AF018091AD019091AE019093AC01809347
:10079000AB018091B7013091B8012091B9019091DE
:1007A000BA018093B3013093B4012093B5019093C3
:1007B000B60192E094830E943C03CE01DF91CF9179
:1007C00008958091B3010E946903E091AF01F09117
:1007D000B00182818823D1F085E084838091B301C8
:1007E0009091B401A091B501B091B6011816190607
:1007F0001A061B0664F0880F991FFC01EE58FC4F87
:100800000190F081E02D11821082089514820895E4
:10081000CF93DF93282F220F330BF901EC58FC4FB5
:10082000C081D1819A81F901E858FC4F0190F08193
:10083000E02D44859417C0F491110FC095E09C837E
:10084000181644F0F901EE58FC4F0190F081E02DAC
:100850001182108291E09093BC010E94B6028A81BD
:100860008F5F8A8380E001C084E0DF91CF9108959B
:10087000CF93E82FEE0FFF0BEC58FC4F0190F08167
:10088000E02DC1E0C4830E94B602C093BC01CF91A9
:100890000895282F220F330BF901EC58FC4FA0814B
:1008A000B18114969C9114979923A9F0F901EE58FF
:1008B000FC4F0190F081E02D9081962B90839181E7
:1008C000692339F0118214969C91933011F40E949F
:1008D000380480E0089587E00895E82FEE0FFF0BBD
:1008E000EC58FC4F0190F081E02D118210820C94A5
:1008F000D00D1F93CF93DF930E94FF02182F892FF3
:10090000492F092E000C550B660B770B4093B7014E
:100910005093B8016093B9017093BA01292F220F47
:10092000330BF901EC58FC4FC081D181D093B20157
:10093000C093B101F901E858FC4F20813181309317
:10094000AE012093AD019C81953019F40E946D0495
:100950001B831092BC01DF91CF911F910895E0910C
:10096000B701F091B801EE0FFF1FEC58FC4F01905A
:10097000F081E02D909148058381891734F40E941D
:1009800083030E94790483E001C080E08093BB016F
:1009900008951F93CF93DF93CBEAD1E0EC81FD81E3
:1009A00013E0148388850E946903188BDF91CF912F
:1009B0001F910C94790481E08093BB010C9479041D
:1009C000CF92DF92EF92FF920F931F93CF93DF931B
:1009D000C1E0D0E001C0CC0F8A95EAF7DC2E81E0BF
:1009E0000E9408048091A203C82319F080E00E94AD
:1009F0000804CFE9D3E00EE413E082EAE82E83E0B6
:100A0000F82ECC24C39489918D2139F0F80180818E
:100A10009181FC01C6860E9445050E5F1F4FEC16B2
:100A2000FD0689F7DF91CF911F910F91FF90EF9015
:100A3000DF90CF9008950E94FA0681110E941B0753
:100A4000E091AF01F091B00180819181892B21F07B
:100A50008091B3010E94E2080C9443080E94FA06B8
:100A600081110E941B07E091AF01F091B0018081DC
:100A70009181892B21F08091B3010E94E2080C94AE
:100A80002B0881E08093FE030895AF92BF92CF922E
:100A9000DF92EF92FF920F931F93CF93DF93FC01AE
:100AA000A081B181AD90BC90E501AC89BD89109762
:100AB00039F0428553856485758530E020E017C0A4
:100AC000D50155969C938E93549757969C938E93ED
:100AD000569715821482138212825BC012968D91F2
:100AE0009C9113973A2F2B2F009779F0DC011A96DF
:100AF000CD90DD90ED90FC901D974C155D056E0539
:100B00007F0560F7CD01A32FB22F93838283B58336
:100B1000A483009719F0EC01FD83EC83109729F072
:100B20001396FC93EE93129705C0D5015596FC934E
:100B3000EE935497E501AE89BF891A968D919D91E8
:100B40000D90BC91A02D088919892A893B898017AD
:100B50009107A207B30780F4041715072607370784
:100B600028F0481759076A077B0798F4D50157966C
:100B7000FC93EE9356970DC0041715072607370709
:100B800040F4481759076A077B0718F4E501FF8B03
:100B9000EE8BDF91CF911F910F91FF90EF90DF903F
:100BA000CF90BF90AF900895CF93DF93DC01ED918C
:100BB000FC9111970190F081E02D8489958912961E
:100BC000CD91DC911397A817B90711F4D58BC48B7D
:100BD00086899789A817B90711F4D78BC68B2097F8
:100BE00031F014968D919C9115979D838C8314966A
:100BF0000D90BC91A02D109721F01396DC93CE930D
:100C0000129786899789892B21F484899589978BF6
:100C1000868BDF91CF910895EF92FF920F931F93F0
:100C2000CF93DF93FC018091FE03882309F4B5C0C4
:100C300084859585A685B7850196A11DB11D8487FC
:100C40009587A687B7874081518162817381841718
:100C50009507A607B70709F0A0C0408951896289A6
:100C600073894F5F5F4F6F4F7F4F84819581A6815E
:100C7000B78184179507A607B70718F440E050E03E
:100C8000BA01408B518B628B738B14861586168646
:100C90001786C689D789209709F47FC08A859B85E6
:100CA000AC85BD85481759076A077B0709F075C0F1
:100CB000CE01DC011296ED90FC901397E114F10443
:100CC00071F0D7011A960D911D912D913C911D97B0
:100CD000401751076207730711F4C701EACF2C814F
:100CE0003D812115310529F0D9011396FC92EE9230
:100CF0001297E114F10429F0D70115963C932E9335
:100D0000149724893589C217D30711F4F58AE48A28
:100D1000E114F10419F0F78AE68A04C024893589C0
:100D2000378B268B8F01FC0113821282EA80FB80B5
:100D3000E881F9810280F381E02DCE0109954E8191
:100D40005F8168857985411551056105710509F156
:100D50008A859B85AC85BD85840F951FA61FB71F0F
:100D6000F8014481558166817781481759076A07E0
:100D70007B0738F4841B950BA60BB70B0197A109D1
:100D8000B1098A879B87AC87BD87CE010E94450544
:100D900001C01E86E701209749F6DF91CF911F9190
:100DA0000F91FF90EF900895DC011296ED91FC9168
:100DB00013970994FC01638182810C9449040E9479
:100DC000FA0680916B01089580936B010E94E00404
:100DD0000E9441050C94DB040C94CF0DCF93C82FD7
:100DE0000E942303811102C00E940C0E8C2FCF9110
:100DF0000C948C0080910B048130D9F08091030415
:100E000090910404A0910504B0910604892B8A2BCB
:100E10008B2B79F481E04091070450910804609194
:100E2000090470910A04452B462B472B19F480E0E6
:100E3000089581E0089510920B0410920704109217
:100E400008041092090410920A04109203041092EC
:100E5000040410920504109206048091FF039091FF
:100E60000004A0910104B091020480930C049093BB
:100E70000D04A0930E04B0930F0408950E940F0E6A
:100E800080910C0490910D04A0910E04B0910F0478
:100E90000196A11DB11D80930C0490930D04A093A5
:100EA0000E04B0930F048091070490910804A09160
:100EB0000904B0910A040196A11DB11D8093070495
:100EC00090930804A0930904B0930A0408958091B4
:100ED000070490910804A0910904B0910A040097B6
:100EE000A105B10569F140910C0450910D04609188
:100EF0000E0470910F04415051096109710940932A
:100F00000C0450930D0460930E0470930F0401972A
:100F1000A109B1098093070490930804A0930904E0
:100F2000B0930A0480910C0490910D04A0910E04DA
:100F3000B0910F04892B8A2B8B2B11F40C940D0E7E
:100F400008958091070490910804A0910904B0913C
:100F50000A04892B8A2B8B2B89F4809103049091AE
:100F60000404A0910504B0910604892B8A2B8B2BD5
:100F700029F40E940F0E81E080930B040895809164
:100F80000B04882321F010920B040C940D0E08958D
:100F90000E94130E80910C0490910D04A0910E04F8
:100FA000B0910F040196A11DB11D80930C04909384
:100FB0000D04A0930E04B0930F048091030490914C
:100FC0000404A0910504B09106040196A11DB11D71
:100FD0008093030490930404A0930504B093060443
:100FE00008958091030490910404A0910504B091A8
:100FF00006040097A105B10569F140910C045091D8
:101000000D0460910E0470910F0441505109610963
:10101000710940930C0450930D0460930E04709377
:101020000F040197A109B10980930304909304046C
:10103000A0930504B093060480910C0490910D04D4
:10104000A0910E04B0910F04892B8A2B8B2B11F4E5
:101050000C94110E08950E94FA06882311F083E182
:10106000089580E00895CF93C82F0E94FA068C2F30
:101070000E940804C82F8091BC0181110E94AF0416
:101080008C2FCF910895CF930E94FA06882311F0F8
:10109000C3E101C0C0E0E091AF01F091B0018281F5
:1010A000815082830E94E10381E08093BB010E9412
:1010B00079048C2FCF910895CF93C82F0E94FA0600
:1010C000E091AF01F091B0018281815082838C2F39
:1010D0000E940804C82F811108C00E94E10381E02A
:1010E0008093BB010E94790407C0E091AF01F091A9
:1010F000B00182818F5F82838C2FCF910895CF932F
:101100000E94FA06882311F0C3E101C0C0E080917B
:10111000B3010E9469030E94AF048091B3019091D2
:10112000B401A091B501B091B6014091B7015091C1
:10113000B8016091B9017091BA0184179507A607AB
:10114000B70711F40E943C038C2FCF910895CF93E1
:10115000DF93EC010E94FA06882311F083E101C0BD
:1011600080E04091B3015091B4016091B50170915C
:10117000B601141615061606170614F0488303C0A8
:10118000909128029883DF91CF9108950F931F9338
:10119000CF93C82F8B010E94FA06882311F083E1B8
:1011A00001C080E0EC2FEE0FFF0BEC58FC4F0190DC
:1011B000F081E02D94819370F8019083CF911F917D
:1011C0000F910895880F990BFC01EC58FC4FA081FA
:1011D000B181ED91FC911197309769F01D921C92AD
:1011E0002091280293818481228314821382E92F23
:1011F000F82F3097B9F70895CF93C82F0E94FA06B9
:10120000882311F083E101C080E0EC2FF0E0EE0FC5
:10121000FF1FE856FC4FA081B1819091B301129657
:101220009C931297E091AF01F091B0012081318140
:1012300014963C932E931397B183A08393811196B8
:101240009C9311972C9193819595921774F4022E8B
:10125000000C330BD901AE5EBB4F9C9191509C9317
:10126000220F331F9170292B2383CF910895CF93A1
:10127000DF93C82F0E94FA06882311F0D3E101C042
:10128000D0E0EC2FF0E0EE0FFF1FE856FC4F01908E
:10129000F081E02DA091AF01B091B0018181139652
:1012A0008C931397838194818D939C9314821382E2
:1012B0008091280282830E94AF048D2FDF91CF910D
:1012C0000895CF93DF93C82FD62F0E94FA066D2F73
:1012D0008C2F0E944904C82F811105C08091BC0148
:1012E00081110E94AF048C2FDF91CF910895CF938D
:1012F000C82F0E94FA06882311F083E101C080E024
:10130000E091B301EE0FFF0BEE58FC4F0190F0811E
:10131000E02DC0959081C923C083CF9108950F938C
:101320001F93CF93C82F8B010E94FA06882311F0D8
:1013300083E101C080E0EC2FEE0FFF0BEE58FC4F75
:101340000190F081E02D9081F8019083CF911F9161
:101350000F9108950F931F93CF93DF93D82FE091B0
:10136000B301F091B401EE0FFF1FEE58FC4F008166
:1013700011810E94FA06882311F0C3E101C0C0E088
:10138000F801D18380818D2311F40E94C9048C2F30
:10139000DF91CF911F910F910895DC01ED91FC91A8
:1013A00084819581DC01ED91FC9109941F93CF9389
:1013B000DF93182FEB010E94FA06882311F083E1D6
:1013C00001C080E0E12FF0E0EE0FFF1FE25BFC4F79
:1013D0000190F081E02D0190F081E02D0190F081ED
:1013E000E02D40815181628173814C835D836E83E6
:1013F0007F834481558166817781488359836A83DD
:101400007B834085518562857385488759876A87C4
:101410007B87DF91CF911F9108958F929F92AF921A
:10142000BF92CF92DF92EF92FF920F931F93CF93D1
:10143000C82F8B010E94FA06882311F083E101C0B6
:1014400080E0EC2FF0E0EE0FFF1FE25BFC4F01901D
:10145000F081E02D9685913029F54285538564858C
:1014600075850190F081E02D0190F081E02DC0881C
:10147000D188E288F3884C155D056E057F0540F440
:1014800084809580A680B780480D591D6A1D7B1DFC
:101490004C195D096E097F09F8014083518362830D
:1014A000738301C085E0CF911F910F91FF90EF9062
:1014B000DF90CF90BF90AF909F908F9008958F92C4
:1014C0009F92AF92BF92CF92DF92EF92FF920F93D3
:1014D0001F93CF93DF93D82F4A015B0168017901F5
:1014E0000E94FA06882311F0C3E101C0C0E0ED2F8D
:1014F000F0E0EE0FFF1FE25BFC4F0190F081E02D6A
:101500008685811130C0A081B1810D90BC91A02D44
:1015100050964D915D916D917C915397480D591D59
:101520006A1D7B1D14968D919D910D90BC91A02DEF
:1015300084179507A607B70740F4481B590B6A0B99
:101540007B0B4150510961097109428753876487B8
:101550007587C682D782E086F18681E08687CF01D3
:101560000E94450501C0C7E08C2FDF91CF911F91EC
:101570000F91FF90EF90DF90CF90BF90AF909F9032
:101580008F9008958F929F92AF92BF92CF92DF92E9
:10159000EF92FF920F931F93CF93DF93C82F4A01CF
:1015A0005B01680179010E94FA06882311F0D3E1FA
:1015B00001C0D0E0EC2FF0E0EE0FFF1FE25BFC4F2C
:1015C0000190F081E02D868581110EC08286938680
:1015D000A486B586C682D782E086F18681E08687BA
:1015E000CF010E94450501C0D7E08D2FDF91CF913B
:1015F0001F910F91FF90EF90DF90CF90BF90AF9031
:101600009F908F9008950F931F93CF93DF93C82FD0
:101610000E94FA06882311F0D3E101C0D0E0EC2F3C
:10162000F0E0EE0FFF1FE25BFC4F00811181F8013B
:101630008685813031F4C8010E94D405F8011686F0
:1016400001C0D5E08D2FDF91CF911F910F910895AB
:1016500026E040E052EC61E070E087E294E00E9416
:10166000CF1010928000E1E8F0E010821092850027
:101670001092840088E09DE3909389008093880015
:10168000808188608083808185608083EFE6F0E0E0
:1016900080818260808361E0809176010E94C50C28
:1016A00060E0809176010C94010D90909A03A090D7
:1016B0009B03C5E0D0E0B0909D031092110400E0C0
:1016C00010E0980144EA5EEA62E070E0892D0E9431
:1016D000EC0063E373E087E294E00E94B80E4AE016
:1016E00050E06091100487E294E00E941B0F0E947A
:1016F000880D2B013C01809110040E94DD0B0E949B
:10170000880D6B017C0161E473E087E294E00E9444
:10171000B80EB701A60144195509660977092AE0F0
:1017200030E087E294E00E946A0F809111048823E0
:1017300081F200E010E0980148EE51E060E070E0D6
:101740008A2D0E94EC008091100490E00196BE0169
:101750000E943711809310048B2D0E94E0008B2D86
:101760000E94D800AACF1F93CF93DF93C82F162FC4
:10177000D0919E036C2F6170812F0E94010D8D2FDF
:101780000E94E0008D2F0E94D800C69599F7DF9146
:10179000CF911F9108951F93CF93DF93D82F162FCA
:1017A000C42FCC2331F0612F8D2F0E94B30BC15079
:1017B000F8CFDF91CF911F910895CF92DF92FF92E2
:1017C0000F931F93CF93DF93E82FF0E0EE0FFF1FEF
:1017D000E459FE4FC081D181F0909C0380911104A7
:1017E00081116FC0E991EE2309F450C0E03269F431
:1017F00004E610E020E030E044E650E060E070E015
:101800008F2D0E94EC0044E038C0EF710E2E000CCA
:10181000FF0BEE0FFF1FEB58FE4FC080D18004E698
:1018200010E020E030E044E650E060E070E08F2D12
:101830000E94EC00609176018C2D81700E94B30BA8
:1018400080911104811106C0D694C79481E0C81616
:10185000D10481F78F2D0E94F40080911104811131
:10186000BDCF04E610E020E030E044E650E060E068
:1018700070E08F2D0E94EC0042E06091760180E0E4
:101880000E94CB0B8F2D0E94F400A8CF04E610E03D
:1018900020E030E044E650E060E070E08F2D0E94F0
:1018A000EC0044E06091760180E00E94CB0B8F2D2C
:1018B000DF91CF911F910F91FF90DF90CF900C940B
:1018C000F400DF91CF911F910F91FF90DF90CF90A7
:1018D000089581E08093110460E0809176010C947A
:1018E000010D1F920F920FB60F9211242F933F9369
:1018F0004F935F936F937F938F939F93AF93BF9318
:10190000EF93FF9387E092E00E943501FF91EF9102
:10191000BF91AF919F918F917F916F915F914F9107
:101920003F912F910F900FBE0F901F9018958FEE43
:1019300091E00C9435010895833081F028F48130D2
:1019400099F08230A1F008958730A9F08830B9F07D
:101950008430D1F4809180008F7D03C0809180001D
:101960008F7780938000089584B58F7702C084B507
:101970008F7D84BD08958091B0008F7703C08091E2
:10198000B0008F7D8093B0000895CF93DF9390E0F7
:10199000FC01E458FF4F2491FC01E057FF4F849174
:1019A000882361F190E0880F991FFC01E255FF4FF9
:1019B000C591D491FC01EC55FF4FA591B4916111F3
:1019C00009C09FB7F8948881209582238883EC9181
:1019D0002E230BC0623061F49FB7F8948881322FB8
:1019E000309583238883EC912E2B2C939FBF06C0C8
:1019F0008FB7F894E8812E2B28838FBFDF91CF918A
:101A000008951F93CF93DF93282F30E0F901E85911
:101A1000FF4F8491F901E458FF4FD491F901E05749
:101A2000FF4FC491CC23C1F0162F81110E949C0C52
:101A3000EC2FF0E0EE0FFF1FEC55FF4FA591B49196
:101A40009FB7F894111104C08C91D095D82302C08F
:101A5000EC91DE2BDC939FBFDF91CF911F91089516
:101A60001F920F920FB60F9211242F933F934F9313
:101A70005F936F937F938F939F93AF93BF93EF93F6
:101A8000FF9380911E0490911F04A0912004B091B7
:101A9000210430911D0423E0230F2D3720F40196FB
:101AA000A11DB11D05C026E8230F0296A11DB11D81
:101AB00020931D0480931E0490931F04A093200480
:101AC000B09321048091220490912304A0912404D6
:101AD000B09125040196A11DB11D8093220490931D
:101AE0002304A0932404B09325040E94970CFF9133
:101AF000EF91BF91AF919F918F917F916F915F9186
:101B00004F913F912F910F900FBE0F901F901895FE
:101B10002FB7F89460911E0470911F0480912004E7
:101B2000909121042FBF089584B5826084BD84B54F
:101B3000816084BD85B5826085BD85B5816085BDC8
:101B4000EEE6F0E0808181608083E1E8F0E01082E1
:101B5000808182608083808181608083E0E8F0E022
:101B6000808181608083E1EBF0E08081846080830C
:101B7000E0EBF0E0808181608083EAE7F0E0808143
:101B800084608083808182608083808181608083A3
:101B90008081806880831092C1000895FFCFFFCFBD
:101BA000CF93DF93880F990BFC01E858FC4FC0815D
:101BB000D181AC81BD8111978A819B81A80FB91F0A
:101BC0002D85CD010197FD013297223019F42CEAC1
:101BD00030E002C028EC30E02C93DC013C939E8185
:101BE0008F819083DF018E93CF0107971E928A1712
:101BF0009B07E1F780E8DF0118978C93CF014497AA
:101C00001E928A179B07E1F7A881B9817597ED931A
:101C1000FC93DF91CF910895089578940895F894F6
:101C2000089578940895F894089508950E94940D65
:101C30000E94150E0E949B0C0E94280B8091260486
:101C40000E94EE0680E090E008958091A3038093C7
:101C50002604089508951F920F920FB60F92112433
:101C60002F933F934F935F936F937F938F939F93A4
:101C7000AF93BF93EF93FF93E0912402F09125027D
:101C80000995FF91EF91BF91AF919F918F917F91B6
:101C90006F915F914F913F912F910F900FBE0F90D9
:101CA0001F9018951F920F920FB60F9211242F9329
:101CB0003F934F935F936F937F938F939F93AF93D4
:101CC000BF93EF93FF93E0912602F09127020995CD
:101CD000FF91EF91BF91AF919F918F917F916F9104
:101CE0005F914F913F912F910F900FBE0F901F90DA
:101CF0001895CF92DF92EF92FF920F931F93CF939D
:101D0000DF936C017A018B01C0E0D0E0CE15DF05D6
:101D100081F0D8016D918D01D601ED91FC9101907A
:101D2000F081E02DC6010995892B11F02196EECFA7
:101D30007E01C701DF91CF911F910F91FF90EF902E
:101D4000DF90CF9008956115710579F0FB01019046
:101D50000020E9F73197AF01461B570BDC01ED91ED
:101D6000FC910280F381E02D099480E090E00895D9
:101D70000C94A30EDC01ED91FC910190F081E02D1B
:101D800009946CED73E00C94A30E8F929F92AF9226
:101D9000BF92EF92FF920F931F93CF93DF93CDB734
:101DA000DEB7A1970FB6F894DEBF0FBECDBF7C01A2
:101DB000FA01CB0119A2223008F42AE08E010F5D4E
:101DC0001F4F822E912CA12CB12CBF01A501940193
:101DD0000E944B11F901CA01015011096A3014F433
:101DE000605D01C0695CD8016C93232B242B252BEB
:101DF00061F7B801C7010E94A30EA1960FB6F8942F
:101E0000DEBF0FBECDBFDF91CF911F910F91FF902D
:101E1000EF90BF90AF909F908F900895211531055E
:101E200041F4DC01ED91FC910190F081E02D642FF3
:101E300009940C94C50E9A01462F50E060E070E0C2
:101E40000C940E0FCF92DF92EF92FF920F931F939D
:101E5000CF93DF932115310581F4DC01ED91FC91E5
:101E60000190F081E02D642FDF91CF911F910F91B0
:101E7000FF90EF90DF90CF9009942A30310501F563
:101E800077FF1DC06A017B01EC016DE20E94BA0E72
:101E90008C0144275527BA014C195D096E097F0949
:101EA0002AE0CE010E94C50E800F911FDF91CF91D5
:101EB0001F910F91FF90EF90DF90CF9008952AE04F
:101EC000DF91CF911F910F91FF90EF90DF90CF9016
:101ED0000C94C50E0F931F93CF93DF93EC010E94D8
:101EE000220F8C01CE010E94C10E800F911FDF9145
:101EF000CF911F910F9108951F920F920FB60F92DD
:101F000011242F938F939F93EF93FF93E0913704C6
:101F1000F09138048081E0913D04F0913E0482FD0F
:101F200012C09081809140048F5F8F732091410493
:101F3000821751F0E0914004F0E0E95DFB4F958F8E
:101F40008093400401C08081FF91EF919F918F9118
:101F50002F910F900FBE0F901F9018951F920F9208
:101F60000FB60F9211242F933F934F935F936F936C
:101F70007F938F939F93AF93BF93EF93FF9387E2EA
:101F800094E00E943E10FF91EF91BF91AF919F911D
:101F90008F917F916F915F914F913F912F910F9012
:101FA0000FBE0F901F901895E7E2F4E013821282A3
:101FB00088EE93E0A0E0B0E084839583A683B783A6
:101FC0008FEE93E09183808385EC90E09587848702
:101FD00084EC90E09787868780EC90E0918B808BF3
:101FE00081EC90E0938B828B82EC90E0958B848BDC
:101FF00086EC90E0978B868B118E128E138E148E4A
:102000000895FC01918D228D892F90E0805C9F4F77
:10201000821B91098F7399270895FC01918D828D00
:10202000981731F0828DE80FF11D858D90E00895AD
:102030008FEF9FEF0895FC01918D828D981761F0CD
:10204000828DDF01A80FB11D5D968C91928D9F5FEF
:102050009F73928F90E008958FEF9FEF0895FC019A
:10206000538D448D252F30E0842F90E0821B930BFD
:10207000541710F0CF96089501970895FC01848DB0
:10208000DF01A80FB11DA35ABF4F2C91848D90E0A2
:1020900001968F739927848FA689B7892C93A0897D
:1020A000B1898C91837080648C93938D848D981307
:1020B00006C00288F389E02D80818F7D808308959A
:1020C000EF92FF920F931F93CF93DF93EC0181E088
:1020D000888F9B8D8C8D981305C0E889F989808144
:1020E00085FD26C0F62E0B8D10E00F5F1F4F0F737E
:1020F0001127E02E8C8DE8120CC00FB607FCFACF2A
:10210000E889F989808185FFF5CFCE010E943E10D4
:10211000F1CF8B8DFE01E80FF11DE35AFF4FF082E6
:102120009FB7F8940B8FEA89FB89808180620AC08F
:102130009FB7F894EE89FF896083E889F9898081E7
:102140008370806480839FBF81E090E0DF91CF91B6
:102150001F910F91FF90EF900895CF93DF93EC01C3
:10216000888D8823C9F0EA89FB89808185FD05C0B7
:10217000A889B9898C9186FD0FC00FB607FCF5CFF1
:10218000808185FFF2CFA889B9898C9185FFEDCF39
:10219000CE010E943E10E7CFDF91CF910895CF92FC
:1021A000DF92EF92FF921F93CF93DF93EC016A01CE
:1021B0007B01122FE889F98982E080834115514E15
:1021C00061057105B1F060E079E08DE390E0A70171
:1021D00096010E944B11DA01C9010197A109B109C9
:1021E000B695A795979587959C01211580E13807AD
:1021F000A8F0E889F989108260E874E88EE190E03F
:10220000A70196010E944B11DA01C9010197A109AA
:10221000B109B695A795979587959C01EC85FD85A5
:102220003083EE85FF852083188EEC89FD8910832D
:10223000EA89FB89808180618083EA89FB898081CA
:1022400088608083EA89FB89808180688083EA894D
:10225000FB8980818F7D8083DF91CF911F91FF90DB
:10226000EF90DF90CF900895F8940C94871197FB2E
:10227000072E16F4009407D077FD09D00E946D1147
:1022800007FC05D03EF4909581959F4F0895709579
:1022900061957F4F0895A1E21A2EAA1BBB1BFD0179
:1022A0000DC0AA1FBB1FEE1FFF1FA217B307E40735
:1022B000F50720F0A21BB30BE40BF50B661F771F8D
:1022C000881F991F1A9469F760957095809590956D
:1022D0009B01AC01BD01CF010895AA1BBB1B51E1BD
:1022E00007C0AA1FBB1FA617B70710F0A61BB70B86
:1022F000881F991F5A95A9F780959095BC01CD012B
:102300000895EE0FFF1F0590F491E02D0994F894C5
:02231000FFCFFD
:1023120000000000000000000000000000000000BB
:1023220000000000000000000000000000000000AB
:10233200000000000000000000000000000000009B
:10234200000000000000000000000000000000008B
:10235200000000000000000000000000000000007B
:10236200000000000000000000000000000000006B
:102372000000000000000000020000FF29026002CD
:102382009C02DD02FD02075D005705D715570105C6
:10239200007505770555011500DD5DD7055D0577EB
:1023A2000157007717DD15775D5D01550017007540
:1023B20001D505DD055717D75D771500008A0300A3
:1023C200001804FFFFFFFFFFFFFFFF0000540300A0
:1023D2000000000000000000000000005E0300009A
:1023E2000000000000000000000000680300000080
:1023F20000000000000000000000000000010401D5
:10240200000000FFFFFF00010000000000000000CC
:102412000000000000000001000000FFFFFF0001BB
:1024220000000000000000000000000000000002A8
:1024320000FF00002A0E2A0EFF4120464541544863
:10244200455220494E205448452048414E44204997
:102452005320424554544552205448414E20412075
:102462004249524420494E20544845204149520095
:10247200412053484F52542050454E43494C204925
:102482005320555355414C4C5920424554544552C2
:10249200205448414E2041204C4F4E47204D454D3F
:1024A2004F525920414E592044415900414343451E
:1024B200505420534F4D455448494E4720544841AB
:1024C2005420594F552043414E4E4F5420434841CA
:1024D2004E474520414E4420594F552057494C4CB8
:1024E200204645454C2042455454455200414456ED
:1024F200454E545552452043414E204245205245B7
:10250200414C2048415050494E45535300414C4C98
:1025120020544845204546464F525420594F552095
:10252200415245204D414B494E472057494C4C2082
:10253200554C54494D4154454C5920504159204F16
:1025420046460053656E64696E67206D736720238B
:1025520000202D20456C61707365643A2000DB0118
:10256200CC01BD01EF01CD095A03D406690CEF017C
:10257200CD096403DA060002EF01CD096E03DA0623
:1025820000011604EA0118047C038A03C404C60489
:102592008000550B6801000101014E0550055000F5
:1025A200CE0D0000010001001F0202010002010025
:1025B20000000100F107BF07C807A1072E053E076B
:1025C2001B0567077F083709EC066109330877099D
:1025D2005C088F09A708AA09E406D609DF060D0AD6
:1025E200030B5F0AFC08C20AC60843080D0A006E04
:1025F200616E00696E66006F766600000000006022
:0E26020010790E2F10AD1001101B100D1000DE
:00000001FF
