:100000000C945D000C94C20B0C94E90B0C948500CD
:100010000C9485000C9485000C9485000C9485004C
:100020000C9485000C9485000C9485000C9485003C
:100030000C9485000C9485000C9485000C9485002C
:100040000C94D30A0C9485000C9485000C948500C4
:100050000C9485000C9485000C9485000C9485000C
:100060000C9485000C94850000000008000201003B
:100070000003040700000000000000000102040863
:100080001020408001020408102001020408102002
:10009000040404040404040402020202020203032E
:1000A0000303030300000000250028002B000000CC
:1000B0000000240027002A00BC0B11241FBECFEF34
:1000C000D8E0DEBFCDBF12E0A0E0B1E0E6E3F8E1AA
:1000D00002C005900D92A631B107D9F723E0A6E141
:1000E000B2E001C01D92A639B207E1F710E0CDE5FC
:1000F000D0E004C02197FE010E94130CCC35D1073B
:10010000C9F70E94AD0B0C94100C0C940000E2E1B6
:100110000E942C010895E9E00E942C010895EAE074
:100120000E942C010895E1E00E942C010895E3E073
:100130000E942C010895E7E00E942C010895E5E05B
:100140000E942C010895E0E00E942C010895E2E055
:100150000E942C010895E4E00E942C010895ECE037
:100160000E942C010895E8E00E942C010895EEE021
:100170000E942C010895E4E10E942C010895E0E121
:100180000E942C010895E7E10E942C010895E6E009
:100190000E942C010895EBE00E942C010895EDE0EF
:1001A0000E942C010895EFE00E942C010895E1E1E6
:1001B0000E942C010895E3E10E942C010895E5E1DD
:1001C0000E942C010895E6E10E942C0108952196D9
:1001D0008A929A92AA92BA92CA92DA92EA92FA927F
:1001E0000A931A932197E0916901F0916A010080C6
:1001F000F181E02DC083D1830895C0916B01D0912E
:100200006C01E881F981C081D18121961991099110
:10021000F990E990D990C990B990A9909990899056
:10022000219708952F903F90E7E6F1E0CDB7DEB734
:10023000EDBFFEBF3F922F9208952F903F90CDBF0C
:10024000DEBF3F922F920895E0E80E942C010895AE
:10025000E0E40E942C0108952F923F924F925F920A
:100260006F927F922FB62F92CF93DF937E2EF894CA
:10027000E0910001EF5FE0930001E13011F40E9492
:100280001201E0E0E0937901E72DE07849F00E9467
:100290007C05F0917A01F17071F00E9448040BC066
:1002A000E72DEC3140F4EE0FF0E0EB51FE4F019002
:1002B000F081E02D0995F0917901EF2FE17059F06F
:1002C000F27011F00E94E7008F938F2F0E9490032D
:1002D0008F910E94FD002091000121502093000188
:1002E000222311F40E941D01DF91CF912F902FBE88
:1002F0007F906F905F904F903F902F900895CF9296
:10030000DF92EF92FF920F931F93DC01EC91DB01E0
:100310002C918E2F8170C82E880FDD08EE08FF0803
:100320008E2F8770082E000C990BAA0BBB0BB6956D
:10033000A79597958795DC01A65DBD4F8C91C81A4E
:10034000D108E108F108E670422F4170042E000C3C
:10035000550B660B770B822F8770082E000C990BBC
:10036000AA0BBB0BB695A79597958795DC01A65D63
:10037000BD4F8C91481B510961097109822F86700C
:100380009701860101701127222733270E2B417018
:10039000552766277727482B81E090E0041715073B
:1003A0002607370710F080E090E01F910F91FF9033
:1003B000EF90DF90CF9008958F929F92AF92BF926F
:1003C000EF92FF920F931F93CF93DF937C014A012B
:1003D0005B01B694A79497948794423051056105C8
:1003E0007105E0F0440F551F8701040F151FE4014C
:1003F000CC0FDD1FCE0DDF1DB801CE010E947F01A5
:10040000892B61F0F80190818181288139813183C4
:10041000208398838983B501A401DBCFDF91CF913D
:100420001F910F91FF90EF90BF90AF909F908F9092
:1004300008954F925F926F927F928F929F92AF92A8
:10044000BF92CF92DF92EF92FF920F931F93CF93C1
:10045000DF9300D000D000D0CDB7DEB78C016A01A9
:100460007B01DC018C91282F880F330B440B550B3B
:1004700029833A834B835C8346015701880C991C7E
:10048000AA1CBB1C29813A814B815C812815390546
:100490004A055B0508F442C0240135013FEF431AC9
:1004A000530A630A730A89819A81AB81BC818415DE
:1004B0009505A605B70580F0B201660F771F600F9E
:1004C000711FC401880F991F800F911F0E947F0127
:1004D000892B11F0530142013401660C771C600E28
:1004E000711ECC0CDD1CD801AC0DBD1DBE83AD83CF
:1004F000B301CD010E947F01892B81F0ED81FE8146
:1005000090818181D3012D913C911197318320837A
:100510009C9311968C9375016401AECF26960FB60D
:10052000F894DEBF0FBECDBFDF91CF911F910F9129
:10053000FF90EF90DF90CF90BF90AF909F908F9003
:100540007F906F905F904F900895EEE3F3E04081CD
:100550004F5F4083042E000C550B660B770BE82F82
:10056000EE0FFF0BE054FE4F0190F081E02D23854C
:10057000022E000C330BF901E65DFD4F9081915086
:100580009083FA01EE0FFF1FE25CFC4F220F331F36
:100590009170292B208381838EE393E00C94DC01FE
:1005A000EEE3F3E040814F5F4083042E000C550BD7
:1005B000660B770BE82FEE0FFF0BE454FE4F019014
:1005C000F081E02D9381FA01EE0FFF1FE25CFC4FFA
:1005D000908381838EE393E00C94DC01CF93DF93CF
:1005E000AEE3B3E0EC918FEF8E0F8C931296DC911B
:1005F00012971396CC911397EE0FFF0BE25CFC4F12
:100600008081918113969C938E93129741E050E0E4
:1006100060E070E0CD010E9419028D2F9C2FDF91C8
:10062000CF9108958091710190917201A091730111
:10063000B09174018F3F2FEF9207A207B20739F0F4
:10064000181619061A061B0624F081E0089580E0AA
:10065000089582E00895880F990BFC01E054FE4F45
:100660000190F081E02D0084F185E02D3097F9F0C4
:10067000228121111CC021E02283DC01A454BE4F41
:100680000D90BC91A02D13968C911397818380813E
:10069000082E000C990BFC01E65DFD4F20812150D6
:1006A0002083880F991F2170822B13968C930895B5
:1006B000880F990BFC01E054FE4F0190F081E02D72
:1006C0000084F185E02D309761F02281213049F4DA
:1006D00012822181FC01E454FE4F0190F081E02D53
:1006E000238308958091750190917601A0917701FF
:1006F000B091780140917101509172016091730144
:1007000070917401481759076A077B0741F0E0911F
:100710006F01F091700121E024830C94D0020895C0
:10072000CF93DF93882391F0C0916901D0916A0142
:10073000E0916D01F0916E018481833049F081E098
:100740008483809171010E94D00202C0C0E0D0E099
:10075000E0916F01F0917001F0936E01E0936D01F3
:1007600080916B0190916C0190936A018093690173
:1007700080917501309176012091770190917801F7
:1007800080937101309372012093730190937401EF
:1007900092E094830E942B03CE01DF91CF910895C4
:1007A000809171010E945803E0916D01F0916E01FA
:1007B0008281882319F085E0848308951482089546
:1007C000CF93DF93282F220F330BF901E454FE4F10
:1007D000C081D1819A81F901E054FE4F0190F081EE
:1007E000E02D2485921770F4911105C095E09C834B
:1007F00091E090937A010E94A5028A818F5F8A839B
:1008000080E001C084E0DF91CF910895E82FEE0FE2
:10081000FF0BE454FE4F0190F081E02D1182108215
:100820000C94670B1F93CF93DF930E94EE02182F57
:10083000892F492F092E000C550B660B770B40931F
:100840007501509376016093770170937801292F99
:10085000220F330BF901E454FE4FC081D181D093B4
:100860007001C0936F01F901E054FE4F2081318186
:1008700030936C0120936B019C81953019F40E9498
:1008800006041B8310927A01DF91CF911F91089586
:10089000E0917501F0917601EE0FFF1FE454FE4FD9
:1008A0000190F081E02D909140038381891734F409
:1008B0000E9472030E94120483E001C080E08093D2
:1008C0007901089581E0809379010C941204CF930B
:1008D000DF93C1E0D0E001C0CC0F8A95EAF781E058
:1008E0000E94E0038091E3018C2319F080E00E94D4
:1008F000E0038091E201C82359F08091B101909109
:10090000B20121E0FC012687DF91CF910C94B50460
:10091000DF91CF9108950E94630681110E948406A1
:10092000E0916D01F0916E0180819181892B21F020
:10093000809171010E944B080C94AC070E946306E1
:1009400081110E948406E0916D01F0916E01808119
:100950009181892B21F0809171010E944B080C94A8
:10096000940781E0809316020895AF92BF92CF92D0
:10097000DF92EF92FF920F931F93CF93DF93FC01CF
:10098000A081B181AD90BC90E501AC89BD89109783
:1009900039F0428553856485758530E020E017C0C5
:1009A000D50155969C938E93549757969C938E930E
:1009B000569715821482138212825BC012968D9113
:1009C0009C9113973A2F2B2F009779F0DC011A9600
:1009D000CD90DD90ED90FC901D974C155D056E055A
:1009E0007F0560F7CD01A32FB22F93838283B58358
:1009F000A483009719F0EC01FD83EC83109729F094
:100A00001396FC93EE93129705C0D5015596FC936F
:100A1000EE935497E501AE89BF891A968D919D9109
:100A20000D90BC91A02D088919892A893B898017CE
:100A30009107A207B30780F40417150726073707A5
:100A400028F0481759076A077B0798F4D50157968D
:100A5000FC93EE9356970DC004171507260737072A
:100A600040F4481759076A077B0718F4E501FF8B24
:100A7000EE8BDF91CF911F910F91FF90EF90DF9060
:100A8000CF90BF90AF900895CF93DF93DC01ED91AD
:100A9000FC9111970190F081E02D8489958912963F
:100AA000CD91DC911397A817B90711F4D58BC48B9E
:100AB00086899789A817B90711F4D78BC68B209719
:100AC00031F014968D919C9115979D838C8314968B
:100AD0000D90BC91A02D109721F01396DC93CE932E
:100AE000129786899789892B21F484899589978B18
:100AF000868BDF91CF910895EF92FF920F931F9312
:100B0000CF93DF93FC0180911602882309F4B5C0CE
:100B100084859585A685B7850196A11DB11D84871D
:100B20009587A687B7874081518162817381841739
:100B30009507A607B70709F0A0C0408951896289C7
:100B400073894F5F5F4F6F4F7F4F84819581A6817F
:100B5000B78184179507A607B70718F440E050E05F
:100B6000BA01408B518B628B738B14861586168667
:100B70001786C689D789209709F47FC08A859B8507
:100B8000AC85BD85481759076A077B0709F075C012
:100B9000CE01DC011296ED90FC901397E114F10464
:100BA00071F0D7011A960D911D912D913C911D97D1
:100BB000401751076207730711F4C701EACF2C8170
:100BC0003D812115310529F0D9011396FC92EE9251
:100BD0001297E114F10429F0D70115963C932E9356
:100BE000149724893589C217D30711F4F58AE48A4A
:100BF000E114F10419F0F78AE68A04C024893589E2
:100C0000378B268B8F01FC0113821282EA80FB80D6
:100C1000E881F9810280F381E02DCE0109954E81B2
:100C20005F8168857985411551056105710509F177
:100C30008A859B85AC85BD85840F951FA61FB71F30
:100C4000F8014481558166817781481759076A0701
:100C50007B0738F4841B950BA60BB70B0197A109F2
:100C6000B1098A879B87AC87BD87CE010E94B504F6
:100C700001C01E86E701209749F6DF91CF911F91B1
:100C80000F91FF90EF900895FC0182810C94E00396
:100C90000E946306809168010895809368010E9414
:100CA00067040E94B1040C9462040C94660BCF9309
:100CB000C82F0E941203811102C00E94A30B8C2F27
:100CC000CF910C948B00809123028130D9F08091D8
:100CD0001B0290911C02A0911D02B0911E02892B53
:100CE0008A2B8B2B79F481E040911F0250912002D6
:100CF0006091210270912202452B462B472B19F45B
:100D000080E0089581E008951092230210921F025E
:100D100010922002109221021092220210921B02C5
:100D200010921C0210921D0210921E028091170256
:100D300090911802A0911902B0911A028093240296
:100D400090932502A0932602B093270208950E9453
:100D5000A60B8091240290912502A0912602B091C9
:100D600027020196A11DB11D8093240290932502B4
:100D7000A0932602B093270280911F029091200237
:100D8000A0912102B09122020196A11DB11D809374
:100D90001F0290932002A0932102B0932202089593
:100DA00080911F0290912002A0912102B091220215
:100DB0000097A105B10569F14091240250912502E7
:100DC0006091260270912702415051096109710911
:100DD00040932402509325026093260270932702C9
:100DE0000197A109B10980931F0290932002A0935B
:100DF0002102B09322028091240290912502A091B9
:100E00002602B0912702892B8A2B8B2B11F40C948C
:100E1000A40B089580911F0290912002A0912102BD
:100E2000B0912202892B8A2B8B2B89F480911B0293
:100E300090911C02A0911D02B0911E02892B8A2B59
:100E40008B2B29F40E94A60B81E080932302089546
:100E500080912302882321F0109223020C94A40B8A
:100E600008950E94AA0B8091240290912502A091DE
:100E70002602B09127020196A11DB11D8093240284
:100E800090932502A0932602B093270280911B0223
:100E900090911C02A0911D02B0911E020196A11D0D
:100EA000B11D80931B0290931C02A0931D02B0936E
:100EB0001E02089580911B0290911C02A0911D02B8
:100EC000B0911E020097A105B10569F1409124027D
:100ED00050912502609126027091270241505109DC
:100EE0006109710940932402509325026093260200
:100EF000709327020197A109B10980931B02909377
:100F00001C02A0931D02B0931E02809124029091B6
:100F10002502A0912602B0912702892B8A2B8B2BC8
:100F200011F40C94A80B08950E946306882311F015
:100F300083E1089580E00895CF93C82F0E9463064F
:100F40008C2F0E94E003C82F80917A0181110E94AA
:100F500048048C2FCF910895CF930E946306882375
:100F600011F0C3E101C0C0E0E0916D01F0916E01AC
:100F70008281815082830E94D00381E08093790135
:100F80000E9412048C2FCF910895CF93C82F0E94F6
:100F90006306E0916D01F0916E0182818150828340
:100FA0008C2F0E94E003C82F811108C00E94D0033B
:100FB00081E0809379010E94120407C0E0916D01E5
:100FC000F0916E0182818F5F82838C2FCF91089583
:100FD000CF930E946306882311F0C3E101C0C0E0F3
:100FE000809171010E9458030E9448048091710110
:100FF00090917201A0917301B091740140917501BB
:10100000509176016091770170917801841795076E
:10101000A607B70711F40E942B038C2FCF910895D8
:10102000CF93DF93EC010E946306882311F083E1E4
:1010300001C080E040917101509172016091730193
:1010400070917401141615061606170614F04883DD
:1010500003C09091B0019883DF91CF9108950F93D1
:101060001F93CF93C82F8B010E946306882311F032
:1010700083E101C080E0EC2FEE0FFF0BE454FE4F44
:101080000190F081E02D94819370F8019083CF91CD
:101090001F910F910895880F990BFC01E454FE4FA6
:1010A000A081B181ED91FC911197309769F01D926B
:1010B0001C922091B0019381848122831482138237
:1010C000E92FF82F3097B9F70895CF93C82F0E94D2
:1010D0006306882311F083E101C080E0EC2FF0E08B
:1010E000EE0FFF1FE052FE4FA081B1819091710180
:1010F00012969C931297E0916D01F0916E01208100
:10110000318114963C932E931397B183A0839381DE
:1011100011969C9311972C9193819595921774F445
:10112000022E000C330BD901A65DBD4F9C9191504E
:101130009C93220F331F9170292B2383CF91089505
:10114000CF93DF93C82F0E946306882311F0D3E169
:1011500001C0D0E0EC2FF0E0EE0FFF1FE052FE4F99
:101160000190F081E02DA0916D01B0916E0181811F
:1011700013968C931397838194818D939C931482FF
:1011800013828091B00182830E9448048D2FDF91E9
:10119000CF910895DC01ED91FC9184819581DC0172
:1011A000ED91FC9109941F93CF93DF93182FEB01DE
:1011B0000E946306882311F083E101C080E0E12FE3
:1011C000F0E0EE0FFF1FEF54FE4F0190F081E02D95
:1011D0000190F081E02D0190F081E02D408151815E
:1011E000628173814C835D836E837F8344815581EB
:1011F00066817781488359836A837B8340855185E3
:1012000062857385488759876A877B87DF91CF918D
:101210001F9108958F929F92AF92BF92CF92DF92CB
:10122000EF92FF920F931F93CF93C82F8B010E94D1
:101230006306882311F083E101C080E0EC2FF0E029
:10124000EE0FFF1FEF54FE4F0190F081E02D9685C9
:10125000913029F542855385648575850190F0812B
:10126000E02D0190F081E02DC088D188E288F388DC
:101270004C155D056E057F0540F484809580A68041
:10128000B780480D591D6A1D7B1D4C195D096E09FB
:101290007F09F801408351836283738301C085E035
:1012A000CF911F910F91FF90EF90DF90CF90BF9063
:1012B000AF909F908F9008958F929F92AF92BF9220
:1012C000CF92DF92EF92FF920F931F93CF93DF9312
:1012D000D82F4A015B01680179010E9463068823C7
:1012E00011F0C3E101C0C0E0ED2FF0E0EE0FFF1FF1
:1012F000EF54FE4F0190F081E02D8685811130C0C2
:10130000A081B1810D90BC91A02D50964D915D9121
:101310006D917C915397480D591D6A1D7B1D149644
:101320008D919D910D90BC91A02D84179507A607D6
:10133000B70740F4481B590B6A0B7B0B415051090E
:10134000610971094287538764877587C682D7828E
:10135000E086F18681E08687CF010E94B50401C056
:10136000C7E08C2FDF91CF911F910F91FF90EF90ED
:10137000DF90CF90BF90AF909F908F9008958F9205
:101380009F92AF92BF92CF92DF92EF92FF920F9314
:101390001F93CF93DF93C82F4A015B016801790146
:1013A0000E946306882311F0D3E101C0D0E0EC2F46
:1013B000F0E0EE0FFF1FEF54FE4F0190F081E02DA3
:1013C000868581110EC082869386A486B586C682E4
:1013D000D782E086F18681E08687CF010E94B5043E
:1013E00001C0D7E08D2FDF91CF911F910F91FF901A
:1013F000EF90DF90CF90BF90AF909F908F90089527
:101400000F931F93CF93DF93C82F0E946306882307
:1014100011F0D3E101C0D0E0EC2FF0E0EE0FFF1FA0
:10142000EF54FE4F00811181F8018685813031F43F
:10143000C8010E944405F801168601C0D5E08D2F31
:10144000DF91CF911F910F91089561E08DE00C9491
:10145000680A8091280290912902019690932902AE
:101460008093280280FF02C061E001C060E08DE04F
:101470000C94A40A8FE891E00C9424010895833021
:1014800081F028F4813099F08230A1F008958730FE
:10149000A9F08830B9F08430D1F4809180008F7D3C
:1014A00003C0809180008F7780938000089584B579
:1014B0008F7702C084B58F7D84BD08958091B00080
:1014C0008F7703C08091B0008F7D8093B000089526
:1014D000CF93DF9390E0FC01E458FF4F2491FC018F
:1014E000E057FF4F8491882361F190E0880F991FA6
:1014F000FC01E255FF4FC591D491FC01EC55FF4F23
:10150000A591B491611109C09FB7F8948881209585
:1015100082238883EC912E230BC0623061F49FB745
:10152000F8948881322F309583238883EC912E2B79
:101530002C939FBF06C08FB7F894E8812E2B288389
:101540008FBFDF91CF9108951F93CF93DF93282F03
:1015500030E0F901E859FF4F8491F901E458FF4F59
:10156000D491F901E057FF4FC491CC23C1F0162F5D
:1015700081110E943F0AEC2FF0E0EE0FFF1FEC55A7
:10158000FF4FA591B4919FB7F894111104C08C91AD
:10159000D095D82302C0EC91DE2BDC939FBFDF9166
:1015A000CF911F9108951F920F920FB60F921124A1
:1015B0002F933F934F935F936F937F938F939F935B
:1015C000AF93BF93EF93FF938091330290913402D6
:1015D000A0913502B09136023091320223E0230F00
:1015E0002D3720F40196A11DB11D05C026E8230F5B
:1015F0000296A11DB11D2093320280933302909375
:101600003402A0933502B093360280913702909154
:101610003802A0913902B0913A020196A11DB11D84
:101620008093370290933802A0933902B0933A0224
:101630000E943A0AFF91EF91BF91AF919F918F91D4
:101640007F916F915F914F913F912F910F900FBEBE
:101650000F901F90189584B5826084BD84B5816019
:1016600084BD85B5826085BD85B5816085BDEEE6AA
:10167000F0E0808181608083E1E8F0E01082808189
:1016800082608083808181608083E0E8F0E08081F7
:1016900081608083E1EBF0E0808184608083E0EB17
:1016A000F0E0808181608083EAE7F0E080818460FF
:1016B000808380818260808380818160808380815B
:1016C000806880831092C1000895FFCFFFCFCF9331
:1016D000DF93880F990BFC01E054FE4FC081D1814C
:1016E000AC81BD8111978A819B81A80FB91F2D857F
:1016F000CD010197FD013297223019F42BEA30E039
:1017000002C027EC30E02C93DC013C939E818F815A
:101710009083DF018E93CF0107971E928A179B0754
:10172000E1F780E8DF0118978C93CF0144971E9270
:101730008A179B07E1F7A881B9817597ED93FC9310
:10174000DF91CF910895089578940895F8940895BD
:1017500078940895F894089508950E942B0B0E94A0
:10176000AC0B0E943E0A0E94250A80913B020E9417
:10177000570680E090E008958091E40180933B0259
:10178000089508951F920F920FB60F9211242F9370
:101790003F934F935F936F937F938F939F93AF93F9
:1017A000BF93EF93FF93E091AC01F091AD010995E8
:1017B000FF91EF91BF91AF919F918F917F916F9129
:1017C0005F914F913F912F910F900FBE0F901F90FF
:1017D00018951F920F920FB60F9211242F933F93DB
:1017E0004F935F936F937F938F939F93AF93BF9329
:1017F000EF93FF93E091AE01F091AF010995FF9156
:10180000EF91BF91AF919F918F917F916F915F9178
:101810004F913F912F910F900FBE0F901F901895F1
:10182000F8940C94190CEE0FFF1F0590F491E02D25
:061830000994F894FFCFBB
:1018360000000000000000000000000000000000A2
:101846000000000000000000000000000000000092
:101856000000000000000000000000000000000082
:101866000000000000000000000000000000000072
:101876000000000000000000000000000000000062
:101886000000000000000000000000000000000052
:101896000000000000000000FF0000D20100002D43
:1018A60002FFFFFFFFFFFFFFFF0000B30100000084
:1018B60000E8030000E80300000200000001000148
:1018C600000000FFFF000001000000000000000013
:1018D600000000000000000200FF0000C10BC10B69
:1018E600FF7B018F01CA08B9014406008A012D0257
:1018F600C401D2013C023E020001290A0000000197
:101906000100440346035000650B0000010001007E
:10191600A7010100005A07280731070A079E04A7F6
:10192600068B04D006AC074D06550665089C07A035
:1019360008C507D30810080A0948065C09E807BF66
:0619460009000A2F080051
:00000001FF
