:100000000C9436000C94C50B0C94EC0B0C945E0015
:100010000C945E000C945E000C945E000C945E00E8
:100020000C945E000C945E000C945E000C945E00D8
:100030000C945E000C945E000C945E000C945E00C8
:100040000C94D60A0C945E000C94D90C0C940B0DF5
:100050000C945E000C945E000C945E000C945E00A8
:100060000C945E000C945E00BF0B310D11241FBE7A
:10007000CFEFD8E0DEBFCDBF12E0A0E0B1E0E4E911
:10008000FDE102C005900D92AC3FB107D9F726E023
:10009000ACEFB2E001C01D92AF31B207E1F710E062
:1000A000C6E3D0E004C02197FE010E94C20EC43313
:1000B000D107C9F70E94B00B0C94910E0C9400006C
:1000C000E2E10E9405010895E9E00E94050108951A
:1000D000EAE00E9405010895E1E00E94050108950B
:1000E000E3E00E9405010895E7E00E9405010895FC
:1000F000E5E00E9405010895E0E00E9405010895F1
:10010000E2E00E9405010895E4E00E9405010895DF
:10011000ECE00E9405010895E8E00E9405010895C1
:10012000EEE00E9405010895E4E10E9405010895B2
:10013000E0E10E9405010895E7E10E9405010895AC
:10014000E6E00E9405010895EBE00E940501089594
:10015000EDE00E9405010895EFE00E940501089579
:10016000E1E10E9405010895E3E10E94050108957F
:10017000E5E10E9405010895E6E10E940501089568
:1001800021968A929A92AA92BA92CA92DA92EA92A4
:10019000FA920A931A932197E0916D01F0916E0102
:1001A0000080F181E02DC083D1830895C0916F015B
:1001B000D0917001E881F981C081D1812196199196
:1001C0000991F990E990D990C990B990A990999026
:1001D0008990219708952F903F90E7E6F1E0CDB701
:1001E000DEB7EDBFFEBF3F922F9208952F903F9054
:1001F000CDBFDEBF3F922F920895E0E80E94050137
:100200000895E0E40E94050108952F923F924F92D5
:100210005F926F927F922FB62F92CF93DF937E2EB5
:10022000F894E0910001EF5FE0930001E13011F4F8
:100230000E94EB00E0E0E0937D01E72DE07849F0DB
:100240000E947205F0917E01F17071F00E942A0403
:100250000BC0E72DEC3140F4EE0FF0E0E655FD4F1A
:100260000190F081E02D0995F0917D01EF2FE17073
:1002700059F0F27011F00E94C0008F938F2F0E94EE
:1002800072038F910E94D60020910001215020938B
:100290000001222311F40E94F600DF91CF912F90EC
:1002A0002FBE7F906F905F904F903F902F9008955A
:1002B000CF92DF92EF92FF920F931F93DC01EC91AC
:1002C000DB012C918E2F8370C82E880FDD08EE087D
:1002D000FF088E2F8F70082E000C990BAA0BBB0BFA
:1002E00032E0B695A795979587953A95D1F7DC01B9
:1002F000A15FBC4F8C91C81AD108E108F108EC70DD
:10030000422F4370042E000C550B660B770B822F87
:100310008F70082E000C990BAA0BBB0BF2E0B69560
:10032000A79597958795FA95D1F7DC01A15FBC4F0A
:100330008C91481B510961097109822F8C709701BA
:10034000860103701127222733270E2B4370552770
:1003500066277727482B81E090E0041715072607CA
:10036000370710F080E090E01F910F91FF90EF9021
:10037000DF90CF9008958F929F92AF92BF92EF92AD
:10038000FF920F931F93CF93DF937C014A015B0190
:10039000B694A794979487944230510561057105EE
:1003A000E0F0440F551F8701040F151FE401CC0F27
:1003B000DD1FCE0DDF1DB801CE010E945801892B33
:1003C00061F0F80190818181288139813183208316
:1003D00098838983B501A401DBCFDF91CF911F9171
:1003E0000F91FF90EF90BF90AF909F908F900895E6
:1003F0004F925F926F927F928F929F92AF92BF9235
:10040000CF92DF92EF92FF920F931F93CF93DF93E0
:1004100000D000D000D0CDB7DEB78C016A017B01DF
:10042000DC018C91282F880F330B440B550B29834B
:100430003A834B835C8346015701880C991CAA1CA4
:10044000BB1C29813A814B815C81281539054A05FD
:100450005B0508F442C0240135013FEF431A530AFB
:10046000630A730A89819A81AB81BC8184159505E1
:10047000A605B70580F0B201660F771F600F711FE8
:10048000C401880F991F800F911F0E945801892B6A
:1004900011F0530142013401660C771C600E711E8D
:1004A000CC0CDD1CD801AC0DBD1DBE83AD83B301EA
:1004B000CD010E945801892B81F0ED81FE81908150
:1004C0008181D3012D913C911197318320839C939D
:1004D00011968C9375016401AECF26960FB6F894F1
:1004E000DEBF0FBECDBFDF91CF911F910F91FF9067
:1004F000EF90DF90CF90BF90AF909F908F907F90C4
:100500006F905F904F900895E1ECF4E040814F5F71
:100510004083042E000C550B660B770BE82FEE0F73
:10052000FF0BE059FD4F0190F081E02D2385022E55
:10053000000C330BF901E15FFC4F908191509083E7
:10054000FA01EE0FFF1FEF53FB4F220F331F220F55
:10055000331F9370292B2083818381EC94E00C94CA
:10056000BB01E1ECF4E040814F5F4083042E000CBE
:10057000550B660B770BE82FEE0FFF0BE659FD4F7F
:100580000190F081E02D9381FA01EE0FFF1FEF53F0
:10059000FB4F9083818381EC94E00C94BB01CF935B
:1005A000DF93A1ECB4E0EC918FEF8E0F8C93129659
:1005B000DC9112971396CC911397EE0FFF0BEF532C
:1005C000FB4F8081918113969C938E93129741E00B
:1005D00050E060E070E0CD010E94F8018D2F9C2F6B
:1005E000DF91CF9108958091750190917601A0914E
:1005F0007701B09178018F3F2FEF9207A207B207E2
:1006000031F00297A105B10524F481E0089580E05E
:10061000089582E00895880F990BFC01E059FD4F81
:100620000190F081E02D0084F185E02D309709F1F3
:10063000228121111EC021E02283DC01A659BD4F79
:100640000D90BC91A02D13968C911397818380817E
:10065000082E000C990BFC01E15FFC4F208121501A
:100660002083880F991F880F991F2370822B139660
:100670008C930895880F990BFC01E059FD4F019070
:10068000F081E02D0084F185E02D309761F022812A
:10069000213049F412822181FC01E659FD4F01907D
:1006A000F081E02D238308958091790190917A0162
:1006B000A0917B01B0917C01409175015091760130
:1006C0006091770170917801481759076A077B0795
:1006D00041F0E0917301F091740121E024830C94C6
:1006E000B1020895CF93DF93882391F0C0916D01FB
:1006F000D0916E01E0917101F0917201848183309B
:1007000049F081E08483809175010E94B10202C0AA
:10071000C0E0D0E0E0917301F0917401F0937201B8
:10072000E093710180916F019091700190936E013F
:1007300080936D018091790130917A0120917B0144
:1007400090917C018093750130937601209377011D
:100750009093780192E094830E940B03CE01DF9185
:10076000CF910895809175010E943A03E091710143
:10077000F09172018281882319F085E084830895C5
:1007800014820895CF93DF93282F220F330BF901A2
:10079000E659FD4FC081D1819A81F901E059FD4FA1
:1007A0000190F081E02D2485921770F4911105C01D
:1007B00095E09C8391E090937E010E9484028A815F
:1007C0008F5F8A8380E001C084E0DF91CF9108953C
:1007D000E82FEE0FFF0BE659FD4F0190F081E02D61
:1007E000118210820C946A0B1F93CF93DF930E94A7
:1007F000CF02182F892F492F092E000C550B660B9D
:10080000770B4093790150937A0160937B01709349
:100810007C01292F220F330BF901E659FD4FC081CE
:10082000D181D0937401C0937301F901E059FD4F58
:10083000208131813093700120936F019C8195302C
:1008400019F40E94E8031B8310927E01DF91CF917F
:100850001F910895E0917901F0917A01EE0FFF1F49
:10086000E659FD4F0190F081E02D9091C304838102
:10087000891734F40E9454030E94F40383E001C0FA
:1008800080E080937D01089581E080937D010C9448
:10089000F403CF93DF93C1E0D0E001C0CC0F8A9581
:1008A000EAF782E00E94C2038091A7028C2319F02C
:1008B00080E00E94C2038091A8028C2319F081E09D
:1008C0000E94C2038091A5028C2349F080915402BA
:1008D0009091550221E0FC0126870E94AB04809193
:1008E000A602C82359F0809156029091570221E048
:1008F000FC012687DF91CF910C94AB04DF91CF915F
:1009000008950E94590681110E947A06E0917101B2
:10091000F091720180819181892B21F08091750184
:100920000E9441080C94A2070E94590681110E945E
:100930007A06E0917101F091720180819181892B99
:1009400021F0809175010E9441080C948A0781E092
:100950008093FC020895AF92BF92CF92DF92EF9204
:10096000FF920F931F93CF93DF93FC01A081B1817E
:10097000AD90BC90E501AC89BD89109739F04285F6
:1009800053856485758530E020E017C0D501559604
:100990009C938E93549757969C938E93569715825B
:1009A0001482138212825BC012968D919C911397D0
:1009B0003A2F2B2F009779F0DC011A96CD90DD901D
:1009C000ED90FC901D974C155D056E057F0560F759
:1009D000CD01A32FB22F93838283B583A483009785
:1009E00019F0EC01FD83EC83109729F01396FC932A
:1009F000EE93129705C0D5015596FC93EE9354974C
:100A0000E501AE89BF891A968D919D910D90BC919B
:100A1000A02D088919892A893B8980179107A20787
:100A2000B30780F4041715072607370728F048177F
:100A300059076A077B0798F4D5015796FC93EE9304
:100A400056970DC0041715072607370740F44817B7
:100A500059076A077B0718F4E501FF8BEE8BDF91DE
:100A6000CF911F910F91FF90EF90DF90CF90BF90AB
:100A7000AF900895CF93DF93DC01ED91FC91119736
:100A80000190F081E02D848995891296CD91DC91B9
:100A90001397A817B90711F4D58BC48B868997894A
:100AA000A817B90711F4D78BC68B209731F014968D
:100AB0008D919C9115979D838C8314960D90BC917C
:100AC000A02D109721F01396DC93CE931297868970
:100AD0009789892B21F484899589978B868BDF915F
:100AE000CF910895EF92FF920F931F93CF93DF93CF
:100AF000FC018091FC02882309F4B5C084859585AA
:100B0000A685B7850196A11DB11D84879587A68707
:100B1000B787408151816281738184179507A60749
:100B2000B70709F0A0C040895189628973894F5F76
:100B30005F4F6F4F7F4F84819581A681B781841766
:100B40009507A607B70718F440E050E0BA01408BBC
:100B5000518B628B738B1486158616861786C68911
:100B6000D789209709F47FC08A859B85AC85BD8590
:100B7000481759076A077B0709F075C0CE01DC01E9
:100B80001296ED90FC901397E114F10471F0D701E7
:100B90001A960D911D912D913C911D97401751076B
:100BA0006207730711F4C701EACF2C813D8121153B
:100BB000310529F0D9011396FC92EE921297E114B7
:100BC000F10429F0D70115963C932E9314972489AC
:100BD0003589C217D30711F4F58AE48AE114F104C8
:100BE00019F0F78AE68A04C024893589378B268B69
:100BF0008F01FC0113821282EA80FB80E881F98177
:100C00000280F381E02DCE0109954E815F816885D8
:100C10007985411551056105710509F18A859B8525
:100C2000AC85BD85840F951FA61FB71FF8014481B1
:100C3000558166817781481759076A077B0738F421
:100C4000841B950BA60BB70B0197A109B1098A87E5
:100C50009B87AC87BD87CE010E94AB0401C01E8676
:100C6000E701209749F6DF91CF911F910F91FF90F7
:100C7000EF900895FC0182810C94C2030E945906F2
:100C8000809168010895809368010E9449040E9440
:100C9000A7040C9444040C94690BCF93C82F0E94B2
:100CA000F302811102C00E94A60B8C2FCF910C94ED
:100CB0006400809109038130D9F080910103909103
:100CC0000203A0910303B0910403892B8A2B8B2B81
:100CD00079F481E040910503509106036091070388
:100CE00070910803452B462B472B19F480E008959B
:100CF00081E00895109209031092050310920603F3
:100D0000109207031092080310920103109202033D
:100D100010920303109204038091FD029091FE0251
:100D2000A091FF02B091000380930A0390930B03FC
:100D3000A0930C03B0930D0308950E94A90B80911A
:100D40000A0390910B03A0910C03B0910D0301963F
:100D5000A11DB11D80930A0390930B03A0930C0374
:100D6000B0930D038091050390910603A0910703B2
:100D7000B09108030196A11DB11D809305039093C6
:100D80000603A0930703B093080308958091050319
:100D900090910603A0910703B09108030097A10565
:100DA000B10569F140910A0350910B0360910C0366
:100DB00070910D03415051096109710940930A0373
:100DC00050930B0360930C0370930D030197A109DB
:100DD000B1098093050390930603A0930703B09392
:100DE000080380910A0390910B03A0910C03B0912A
:100DF0000D03892B8A2B8B2B11F40C94A70B0895D0
:100E00008091050390910603A0910703B091080318
:100E1000892B8A2B8B2B89F48091010390910203FB
:100E2000A0910303B0910403892B8A2B8B2B29F407
:100E30000E94A90B81E08093090308958091090322
:100E4000882321F0109209030C94A70B08950E94A7
:100E5000AD0B80910A0390910B03A0910C03B0910C
:100E60000D030196A11DB11D80930A0390930B03FE
:100E7000A0930C03B0930D038091010390910203A2
:100E8000A0910303B09104030196A11DB11D8093AD
:100E9000010390930203A0930303B0930403089506
:100EA0008091010390910203A0910303B091040388
:100EB0000097A105B10569F140910A0350910B0318
:100EC00060910C0370910D03415051096109710942
:100ED00040930A0350930B0360930C0370930D032C
:100EE0000197A109B1098093010390930203A09394
:100EF0000303B093040380910A0390910B03A09124
:100F00000C03B0910D03892B8A2B8B2B11F40C94BD
:100F1000AB0B08950E945906882311F083E10895D0
:100F200080E00895CF93C82F0E9459068C2F0E940D
:100F3000C203C82F80917E0181110E942A048C2F48
:100F4000CF910895CF930E945906882311F0C3E1F1
:100F500001C0C0E0E0917101F09172018281815085
:100F600082830E94B20381E080937D010E94F4039A
:100F70008C2FCF910895CF93C82F0E945906E091EE
:100F80007101F09172018281815082838C2F0E94C5
:100F9000C203C82F811108C00E94B20381E0809370
:100FA0007D010E94F40307C0E0917101F09172018C
:100FB00082818F5F82838C2FCF910895CF930E947F
:100FC0005906882311F0C3E101C0C0E0809175018A
:100FD0000E943A030E942A04809175019091760143
:100FE000A0917701B09178014091790150917A01F7
:100FF00060917B0170917C0184179507A607B70764
:1010000011F40E940B038C2FCF910895CF93DF939F
:10101000EC010E945906882311F083E101C080E0B1
:10102000409175015091760160917701709178013E
:10103000423051056105710514F4488303C0909155
:10104000CD019883DF91CF9108950F931F93CF9394
:10105000C82F8B010E945906882311F083E101C03B
:1010600080E0EC2FEE0FFF0BE659FD4F0190F08171
:10107000E02D94819370F8019083CF911F910F918F
:101080000895880F990BFC01E659FD4FA081B181AD
:10109000ED91FC911197309769F01D921C9220916F
:1010A000CD0193818481228314821382E92FF82F4A
:1010B0003097B9F70895CF93C82F0E945906882317
:1010C00011F083E101C080E0EC2FF0E0EE0FFF1F94
:1010D000E056FD4FA081B1819091750112969C93CD
:1010E0001297E0917101F091720120813181149683
:1010F0003C932E931397B183A083938111969C9375
:1011000011972C91938195959595921784F4022EC1
:10111000000C330BD901A15FBC4F9C9191509C9363
:10112000220F331F220F331F9370292B2383CF915C
:101130000895CF93DF93C82F0E945906882311F09A
:10114000D3E101C0D0E0EC2FF0E0EE0FFF1FE0563E
:10115000FD4F0190F081E02DA0917101B0917201DD
:10116000818113968C931397838194818D939C93A3
:10117000148213828091CD0182830E942A048D2FD4
:10118000DF91CF910895DC01ED91FC9184819581EF
:10119000DC01ED91FC9109941F93CF93DF93182FFD
:1011A000EB010E945906882311F083E101C080E021
:1011B000E12FF0E0EE0FFF1FEC5AFD4F0190F081A0
:1011C000E02D0190F081E02D0190F081E02D408133
:1011D0005181628173814C835D836E837F834481FF
:1011E000558166817781488359836A837B834085F3
:1011F000518562857385488759876A877B87DF9128
:10120000CF911F9108958F929F92AF92BF92CF92EC
:10121000DF92EF92FF920F931F93CF93C82F8B0112
:101220000E945906882311F083E101C080E0EC2F71
:10123000F0E0EE0FFF1FEC5AFD4F0190F081E02D22
:101240009685913029F54285538564857585019091
:10125000F081E02D0190F081E02DC088D188E288F6
:10126000F3884C155D056E057F0540F484809580FC
:10127000A680B780480D591D6A1D7B1D4C195D095C
:101280006E097F09F801408351836283738301C033
:1012900085E0CF911F910F91FF90EF90DF90CF905D
:1012A000BF90AF909F908F9008958F929F92AF9232
:1012B000BF92CF92DF92EF92FF920F931F93CF9343
:1012C000DF93D82F4A015B01680179010E9459061A
:1012D000882311F0C3E101C0C0E0ED2FF0E0EE0F74
:1012E000FF1FEC5AFD4F0190F081E02D86858111A2
:1012F00030C0A081B1810D90BC91A02D50964D9130
:101300005D916D917C915397480D591D6A1D7B1D10
:1013100014968D919D910D90BC91A02D84179507E9
:10132000A607B70740F4481B590B6A0B7B0B4150CB
:101330005109610971094287538764877587C6829D
:10134000D782E086F18681E08687CF010E94AB04D8
:1013500001C0C7E08C2FDF91CF911F910F91FF90BB
:10136000EF90DF90CF90BF90AF909F908F900895B7
:101370008F929F92AF92BF92CF92DF92EF92FF92A5
:101380000F931F93CF93DF93C82F4A015B0168012E
:1013900079010E945906882311F0D3E101C0D0E001
:1013A000EC2FF0E0EE0FFF1FEC5AFD4F0190F081A3
:1013B000E02D868581110EC082869386A486B5862F
:1013C000C682D782E086F18681E08687CF010E94BF
:1013D000AB0401C0D7E08D2FDF91CF911F910F910A
:1013E000FF90EF90DF90CF90BF90AF909F908F9045
:1013F00008950F931F93CF93DF93C82F0E94590630
:10140000882311F0D3E101C0D0E0EC2FF0E0EE0F23
:10141000FF1FEC5AFD4F00811181F8018685813054
:1014200031F4C8010E943A05F801168601C0D5E0E2
:101430008D2FDF91CF911F910F91089526E040E00D
:1014400052EC61E070E082E293E00E942C0E6EECC0
:1014500071E082E293E00E94580C63EE71E082E258
:1014600093E00E94580C10920E03E0916B01F091F2
:101470006C01808188608083E0916901F0916A014C
:101480008081886080830895CF93DF93EB01BC0156
:1014900082E293E00E94520C65EF71E082E293E0F9
:1014A0000E94520CBE0182E293E00E94520C65EF52
:1014B00071E082E293E0DF91CF910C94520CCF93D4
:1014C000C091A4028C2F0E94A40080910E038F5F14
:1014D0006AE00E94940E90930E0365E472E088EF38
:1014E00091E00E94440A61E072E082E293E00E948F
:1014F000520C4AE050E060910E0382E293E00E94B9
:10150000C70C8C2F0E94A800CF910C948C00CF9315
:10151000C091A4028C2F0E94A40066E372E088EFC1
:1015200091E00E94440A61E072E082E293E00E944E
:10153000520C4AE050E060910E0382E293E00E9478
:10154000C00C80910E03853000F5E0916901F091A7
:101550006A01808183FB222720F991E0922790FB8A
:1015600083F9808361E172E082E293E00E94520C91
:10157000E0916901F0916A01808183FF03C06AE014
:1015800072E005C06DE072E002C062E272E082E2E9
:1015900093E00E94580C8C2F0E94A800CF910C94CD
:1015A0008C0087EA91E00C94FD0008951F920F9241
:1015B0000FB60F9211242F933F934F935F936F9326
:1015C0007F938F939F93AF93BF93EF93FF938091FC
:1015D000190390911A03A0911B03B0911C03309141
:1015E000180323E0230F2D3720F40196A11DB11D10
:1015F00005C026E8230F0296A11DB11D20931803F4
:101600008093190390931A03A0931B03B0931C03B8
:1016100080911D0390911E03A0911F03B0912003A0
:101620000196A11DB11D80931D0390931E03A093ED
:101630001F03B09320030E94D10AFF91EF91BF9145
:10164000AF919F918F917F916F915F914F913F915A
:101650002F910F900FBE0F901F90189584B5826048
:1016600084BD84B5816084BD85B5826085BD85B546
:10167000816085BDEEE6F0E0808181608083E1E8F5
:10168000F0E010828081826080838081816080832D
:10169000E0E8F0E0808181608083E1EBF0E0808130
:1016A00084608083E0EBF0E0808181608083EAE702
:1016B000F0E080818460808380818260808380818B
:1016C000816080838081806880831092C10008954A
:1016D000FFCFFFCFCF93DF93880F990BFC01E05929
:1016E000FD4FC081D181AC81BD8111978A819B81E1
:1016F000A80FB91F2D85CD010197FD01329722302A
:1017000019F424E830E002C020EA30E02C93DC0138
:101710003C939E818F819083DF018E93CF01079749
:101720001E928A179B07E1F780E8DF0118978C93D8
:10173000CF0144971E928A179B07E1F7A881B981D0
:101740007597ED93FC93DF91CF9108950895789468
:101750000895F894089578940895F8940895089554
:101760000E942E0B0E94AF0B0E94D50A0E941E0AF7
:10177000809121030E944D0680E090E008958091C1
:10178000A90280932103089508951F920F920FB626
:101790000F9211242F933F934F935F936F937F93F7
:1017A0008F939F93AF93BF93EF93FF93E091C90102
:1017B000F091CA010995FF91EF91BF91AF919F916F
:1017C0008F917F916F915F914F913F912F910F90EA
:1017D0000FBE0F901F9018951F920F920FB60F9289
:1017E00011242F933F934F935F936F937F938F9326
:1017F0009F93AF93BF93EF93FF93E091CB01F09151
:10180000CC010995FF91EF91BF91AF919F918F917D
:101810007F916F915F914F913F912F910F900FBEEC
:101820000F901F901895CF92DF92EF92FF920F9337
:101830001F93CF93DF936C017A018B01C0E0D0E05E
:10184000CE15DF0581F0D8016D918D01D601ED91A6
:10185000FC910190F081E02DC6010995892B11F0D2
:101860002196EECF7E01C701DF91CF911F910F919D
:10187000FF90EF90DF90CF9008956115710579F09A
:10188000FB0101900020E9F73197AF01461B570B90
:10189000DC01ED91FC910280F381E02D099480E060
:1018A00090E008950C943D0C6AED72E00C943D0CB0
:1018B0000F931F93CF93DF93EC010E943D0C8C019B
:1018C000CE010E94540C800F911FDF91CF911F9188
:1018D0000F9108958F929F92AF92BF92EF92FF92D5
:1018E0000F931F93CF93DF93CDB7DEB7A1970FB6BA
:1018F000F894DEBF0FBECDBF7C01FA01CB0119A267
:10190000223008F42AE08E010F5D1F4F822E912CA9
:10191000A12CB12CBF01A50194010E94A00EF901D8
:10192000CA01015011096A3014F4605D01C0695C9C
:10193000D8016C93232B242B252B61F7B801C70109
:101940000E943D0CA1960FB6F894DEBF0FBECDBF2E
:10195000DF91CF911F910F91FF90EF90BF90AF90CB
:101960009F908F9008952115310541F4DC01ED9190
:10197000FC910190F081E02D642F09940C946A0C85
:101980009A01462F50E060E070E00C94B30C0F9386
:101990001F93CF93DF93EC010E94C00C8C01CE010A
:1019A0000E94540C800F911FDF91CF911F910F91D6
:1019B00008951F920F920FB60F9211242F938F93B9
:1019C0009F93EF93FF93E0913203F0913303808173
:1019D000E0913803F091390382FD12C0908180912B
:1019E0003B038F5F8F7320913C03821751F0E0918E
:1019F0003B03F0E0EE5DFC4F958F80933B0301C00D
:101A00008081FF91EF919F918F912F910F900FBE49
:101A10000F901F9018951F920F920FB60F921124DE
:101A20002F933F934F935F936F937F938F939F93E6
:101A3000AF93BF93EF93FF9382E293E00E949B0DDD
:101A4000FF91EF91BF91AF919F918F917F916F9196
:101A50005F914F913F912F910F900FBE0F901F906C
:101A60001895E2E2F3E01382128288EE93E0A0E0A0
:101A7000B0E084839583A683B7838DEE92E0918353
:101A8000808385EC90E09587848784EC90E097874D
:101A9000868780EC90E0918B808B81EC90E0938B3B
:101AA000828B82EC90E0958B848B86EC90E0978B18
:101AB000868B118E128E138E148E0895FC01918DDB
:101AC000228D892F90E0805C9F4F821B91098F733C
:101AD00099270895FC01918D828D981731F0828DA0
:101AE000E80FF11D858D90E008958FEF9FEF089529
:101AF000FC01918D828D981761F0828DDF01A80F16
:101B0000B11D5D968C91928D9F5F9F73928F90E037
:101B100008958FEF9FEF0895FC01538D448D252F7D
:101B200030E0842F90E0821B930B541710F0CF9677
:101B3000089501970895FC01848DDF01A80FB11D60
:101B4000A35ABF4F2C91848D90E001968F739927F3
:101B5000848FA689B7892C93A089B1898C918370D1
:101B600080648C93938D848D981306C00288F389CA
:101B7000E02D80818F7D80830895EF92FF920F93F7
:101B80001F93CF93DF93EC0181E0888F9B8D8C8D29
:101B9000981305C0E889F989808185FD26C0F62E55
:101BA0000B8D10E00F5F1F4F0F731127E02E8C8DF0
:101BB000E8120CC00FB607FCFACFE889F9898081DA
:101BC00085FFF5CFCE010E949B0DF1CF8B8DFE01DD
:101BD000E80FF11DE35AFF4FF0829FB7F8940B8F87
:101BE000EA89FB89808180620AC09FB7F894EE89F8
:101BF000FF896083E889F9898081837080648083AC
:101C00009FBF81E090E0DF91CF911F910F91FF90F6
:101C1000EF900895CF93DF93EC01888D8823C9F06E
:101C2000EA89FB89808185FD05C0A889B9898C91E5
:101C300086FD0FC00FB607FCF5CF808185FFF2CF80
:101C4000A889B9898C9185FFEDCFCE010E949B0DAB
:101C5000E7CFDF91CF910895CF92DF92EF92FF927D
:101C60001F93CF93DF93EC016A017B01122FE88968
:101C7000F98982E080834115514E61057105B1F00B
:101C800060E079E08DE390E0A70196010E94A00E4C
:101C9000DA01C9010197A109B109B695A7959795F0
:101CA00087959C01211580E13807A8F0E889F9891A
:101CB000108260E874E88EE190E0A70196010E942E
:101CC000A00EDA01C9010197A109B109B695A7953E
:101CD000979587959C01EC85FD853083EE85FF8582
:101CE0002083188EEC89FD891083EA89FB89808125
:101CF00080618083EA89FB89808188608083EA89AA
:101D0000FB89808180688083EA89FB8980818F7D5F
:101D10008083DF91CF911F91FF90EF90DF90CF9064
:101D20000895F8940C94C80E991B79E004C0991F8B
:101D3000961708F0961B881F7A95C9F78095089525
:101D4000A1E21A2EAA1BBB1BFD010DC0AA1FBB1FBF
:101D5000EE1FFF1FA217B307E407F50720F0A21B31
:101D6000B30BE40BF50B661F771F881F991F1A949E
:101D700069F760957095809590959B01AC01BD01C8
:101D8000CF010895EE0FFF1F0590F491E02D099407
:041D9000F894FFCFF5
:101D9400000000000000000000000000000000003F
:101DA400000000000000000000000000000000002F
:101DB400000000000000000000000000000000001F
:101DC400000000000000000000000000000000000F
:101DD40000000000000000000000000000000000FF
:101DE40000000000000000000000000000000000EF
:101DF4000000000000000000FF2B002A00000092F9
:101E04000200001303FFFFFFFFFFFFFFFF00005866
:101E14000200000000D0070000010000000261027F
:101E240000000000E80300000100000002000000C0
:101E34000100000000010001000000FFFF0000019C
:101E4400000000000000000000000000000000028C
:101E540000FF00000200FF0000C40BC40BFF202D94
:101E64002053797374656D20626F6F746564207597
:101E7400702E00202D205374617274696E67204F98
:101E8400532E2E2E003A09007461736B2E6370700A
:101E940000434F554E54203D20006F6E006F666620
:101EA40000203A20546F67676C696E67206C656424
:101EB4002000203A204E6F7420746F67676C696E3F
:101EC40067206C6564005461736B325F66756E6382
:101ED40074696F6E005461736B315F66756E637401
:101EE400696F6E008E017F01A701C3085E023A0686
:101EF40000A701C30867023A0601A2019D0113036A
:101F04008402760292021D051F0500015F0A00008B
:101F140001010100BF04BF030001870A00000001A2
:101F24000100CB04CD045000680B00000200010046
:101F3400C401BF0100010100000050071E0727076C
:101F4400000794049D068104C606A20743064B06B7
:101F54005B0892079908BB07CC08060803093E06EC
:101F64005509DE07B809F90925080D0A006E616EE6
:101F740000696E66006F76660000000000BD0D13F8
:0C1F84000C8C0D0A0E5E0D780D6A0D002D
:00000001FF
